:020000040001F9
:10F00000905C0020B5F40100BDF40100BFF40100E4
:10F01000C1F40100C3F40100C5F4010000000000C8
:10F0200000000000000000000000000015F40100D6
:10F03000C9F401000000000059F40100CDF4010002
:10F04000B1F70100CFF4010075FB0100CFF401001E
:10F05000CFF40100CFF4010011F60100CFF401005C
:10F06000CFF40100CFF40100CFF40100CFF4010090
:10F07000CFF40100CFF40100CFF40100CFF4010080
:10F08000CFF4010009F80100CFF40100CFF4010032
:10F09000CFF40100CFF40100B5F80100CFF4010076
:10F0A000CFF40100CFF40100CFF40100CFF4010050
:10F0B000CFF40100CFF401000000000000000000C8
:10F0C000CFF40100CFF40100CFF40100CFF4010030
:10F0D000CFF40100CFF40100CFF4010000000000E4
:10F0E0000000000000000000000000000000000020
:10F0F0000000000000000000000000000000000010
:10F1000000000000000000000000000000000000FF
:10F1100000000000000000000000000000000000EF
:10F40000DFF80CD000F0D2F8004800476D18020079
:10F41000905C0020264B19680868B0E8F04F80F334
:10F420000988BFF36F8F4FF0000080F31188704799
:10F43000000000000748006880F3088862B661B6E3
:10F44000BFF34F8FBFF36F8F4FF4F07080F31188CD
:10F4500000DF000000F00100EFF30980BFF36F8FC1
:10F46000134B1A681EF0100F08BF20ED108A20E918
:10F47000F04F106008B44FF0200080F31188BFF304
:10F480004F8FBFF36F8F04F083FD4FF0000080F3C8
:10F49000118808BC19680868B0E8F04F1EF0100F1A
:10F4A00008BFB0EC108A80F30988BFF36F8F7047F4
:10F4B000682100200648804706480047FEE7FEE72F
:10F4C000FEE7FEE7FEE7FEE7FEE7FEE7FEE7FEE714
:10F4D000D9F8010001F4010000487047784A0200A1
:10F4E00040EA01039B0703D009E008C9121F08C0C6
:10F4F000042AFAD203E011F8013B00F8013B521E46
:10F50000F9D27047D2B201E000F8012B491EFBD2BC
:10F5100070470022F6E710B513460A46044619461E
:10F52000FFF7F0FF204610BD421C10F8011B002918
:10F53000FBD1801A7047034611F8012B00F8012B0C
:10F54000002AF9D1184670472DE9F05F05460020E2
:10F5500092469B4688460646814640241BE0284644
:10F5600041464746224600F042F853465A46C01AE2
:10F57000914110D311461846224600F029F82D1A61
:10F5800067EB01084F4622460120002100F020F8D9
:10F5900017EB00094E41201EA4F10104DFDC4846B0
:10F5A00031462A464346BDE8F09F0000064C074D11
:10F5B00006E0E06840F0010394E807009847103443
:10F5C000AC42F6D3FFF720FF904B0200B04B020095
:10F5D000202A04DB203A00FA02F100207047914013
:10F5E000C2F1200320FA03F3194390407047202A08
:10F5F00004DB203A21FA02F00021704721FA02F3DD
:10F60000D040C2F1200291400843194670470000E3
:10F610002DE9F04700268CB0DFF86091B0464FF43A
:10F620008075012437460696284602F0E9FD38B178
:10F63000D9F80403204203D0284602F0D7FD264320
:10F640002D1D64007F1CADB2082FEDD34FF4BE74A6
:10F65000204602F0D5FD48B1204602F0C7FD46F035
:10F66000004606AA0121002002F0ACFD444D16F030
:10F67000FF0F15D00127002437420DD009EB84017C
:10F68000D1F81005D1F81015C0F3042055F8242046
:10F69000C1F3014102B190477F00641C082CEBD3F9
:10F6A000002E67DA4FF0FF30CDE90880002634469F
:10F6B000281910F8507F90F9000027F0C008401C6E
:10F6C00044D009A9404602F041F958B34FEA9719CE
:10F6D000404601F021FE55F820701FB1B9F1030F2B
:10F6E00003D00FE0B9F1030F30D108A84FEAD802D8
:10F6F00008F00703815C4FF0010C0CFA03FC41EAAF
:10F700000C0181544FF0A04101EB8800D0F80007B4
:10F7100006A9C0F3014A404602F018F918B1BAF13F
:10F72000020F03D012E0BAF1030F0FD1B9F1030FAA
:10F7300008D1BAF1020F1BD00221404602F025FD8C
:10F74000761CF6B217B149464046B847641C042CF3
:10F75000AED3002E0ED06A460121002002F032FD09
:10F7600006990098884205D00690089809909DE770
:10F770000321E2E70CB0BDE8F08700000060004024
:10F780002C4C002000F01F02012191404009800014
:10F7900000F1E020C0F88011704700F01F02012145
:10F7A00091404009800000F1E020C0F8001170474E
:10F7B0002DE9F0414FF48077384602F0CFF801246C
:10F7C000104EA50748B1384602F0CFF80120C5F821
:10F7D00008037470002001F0C9FD4FF482773846A9
:10F7E00002F0BCF800280BD0384602F0BEF8022028
:10F7F000C5F80803B470BDE8F041012001F0B6BDC2
:10F80000BDE8F081184C002010B50C4C4FF480710D
:10F81000204603F039F84FF4A071204603F034F885
:10F82000202080F3118804F0D9FE18B10449200487
:10F83000086040BF002080F3118810BD0010014017
:10F8400004ED00E003480078002801D100F0A0B9E1
:10F85000704700001854002070B50E46144900EBA4
:10F86000400001EBC0051446E86A183520B10128B4
:10F870000FD0022805D113E0284600F0BDF9A042C0
:10F8800001D2002411E022463146284600F0ECF96E
:10F890000BE0284600F0B0F9A042F4D20446F2E7AB
:10F8A0003146284600F0B3F90446204670BD0000FA
:10F8B00018540020074810B5406830B18047002830
:10F8C00007D0BDE8104000F041BDBDE8104001F098
:10F8D000A1BE10BD00220020F0B598480023021DF3
:10F8E00001780125101D4FF08056062907D11478A4
:10F8F000240704D10478C4F30314032C02D006298E
:10F9000004D00FE08F4F8E4C7C670EE014782407F4
:10F9100008D10478C4F30314032C06D0042C04D0BB
:10F92000052C02D0062907D00EE0D6F84442864FB7
:10F93000C4F342343C6002E01478240704D1047814
:10F94000C4F30314032C02D0062906D011E07F4C27
:10F95000276827F0807727600EE01478240708D105
:10F960000478C4F30314032C06D0042C04D0052C13
:10F9700002D006290AD011E04FF08044C4F80C31BF
:10F98000C4F81031704C241F236002E0147824075F
:10F9900004D10478C4F30314032C02D0062905D043
:10F9A0000CE0694F032464373C600AE014782407B4
:10F9B00004D10478C4F30314032C02D006290DD01B
:10F9C00014E0634F05243C60614C78342560604C42
:10F9D000083423603F243F1D3C6002E01478240774
:10F9E00004D10478C4F30314052C02D0062957D09F
:10F9F00068E058490968584A11605649091D096864
:10FA0000121D1160534908310968121D11605149D6
:10FA10000C310968121D11604E4910310968121D20
:10FA200011604C4914310968121D1160494918319F
:10FA30000968494A2032116046491C310968121D83
:10FA40001160444920310968121D11604149243177
:10FA50000968121D11603F4928310968121D1160A3
:10FA60003C492C310968121D11603A49303109684E
:10FA7000394A40321160374934310968121D11602A
:10FA8000344938310968121D116032493C31096826
:10FA9000121D11602F4940310968121D116002E0EA
:10FAA000117809070ED10078C0F30310032803D0A2
:10FAB000042801D0052805D1D6F85802274900F0BE
:10FAC0004F00086021487438016841F470010160FA
:10FAD000BFF34F8FBFF36F8F4FF01021D1F80002AB
:10FAE000002803DBD1F80402002822DA1C4A156042
:10FAF0001C480468002CFCD01524C1F8004205689D
:10FB0000002DFCD0C1F8044201680029FCD013602C
:10FB100001680029FCD0BFF34F8F0C48F038016812
:10FB2000114A01F4E06111430160BFF34F8F00BF40
:10FB3000FDE70F490D480860F0BD0000E00F00F040
:10FB40000DF0ADBA00C007403C050040FCED00E000
:10FB5000105600400404001020C50040E40E004090
:10FB600004E5014000E401400400FA050090D003E0
:10FB7000142200200448017F04480029024901D0D2
:10FB800003F009BF03F074BE844C00200020004045
:10FB900010B5124C02202061606111A0A061A4F593
:10FBA0000470E0614FF4007020620020A062606287
:10FBB0000BA1A164E062A4F11001E16410212165B0
:10FBC000A0656065E06509A1E01DFFF7B4FC08A130
:10FBD0002046FFF7B0FC2020A07110BD1854002073
:10FBE0005465726D696E616C0000000052545400DF
:10FBF00053454747455200000269C1688A4203D80D
:10FC00008068401A104400E0501A401E70472DE9E9
:10FC1000F047C4681746894606464FF00008306929
:10FC2000A04201D9051B02E0B168201A0D1AB06884
:10FC30006D1E001BA84200D80546BD4200D33D46BC
:10FC400070682A4620444946FFF74AFCB0687F1B8B
:10FC50002C44A844A944A04200D10024F460002F01
:10FC6000DDD14046BDE8F0872DE9F041C668044685
:10FC7000174688468068851B6068BD4206D93044B7
:10FC8000FFF72EFCF019E060BDE8F0812A46304411
:10FC9000FFF726FC7E1B08EB050132466068FFF784
:10FCA0001FFCE660F0E700000FB41CB50A46521EC8
:10FCB000CDE9000207A9054B6A46069800F02AF82C
:10FCC000009A002111701CBC5DF814FB7701020042
:10FCD00002E008C8121F08C1002AFAD17047704715
:10FCE000002001E001C1121F002AFBD17047000073
:10FCF0000121202803DA81400548014003E0402823
:10FD000002DA2038814009B1012070470020704795
:10FD1000FC06FFBC2DE9FF4F8DB00F4605460026BF
:10FD200006E025280BD0DDE90F1290476D1C761CEC
:10FD300028780028F5D111B03046BDE8F08F0024B6
:10FD4000A246A1460122EC4900E0044315F8013F18
:10FD5000203B02FA03F00842F7D128782A2810D075
:10FD60006FF02F022878A0F13001092914D80AEB8E
:10FD70008A0102EB410144F0020400EB010A6D1C10
:10FD8000F0E701CF5FEA000A03D544F40054CAF15A
:10FD9000000A44F002046D1C28782E2817D115F8AB
:10FDA000010F44F004042A280ED06FF02F022878A7
:10FDB000A0F1300109290AD809EB890102EB4101C0
:10FDC00000EB01096D1CF2E757F8049B6D1C2878C5
:10FDD0006C280FD006DC4C2817D068280DD06A2874
:10FDE00014D104E0742810D07A280FD10DE044F427
:10FDF00000140AE044F4801401E044F440146978EB
:10FE0000814202D104F580146D1C6D1C2A786E2A83
:10FE10001FD00CDC632A31D004DC002A8BD0582A96
:10FE200011D1A3E0642A68D0692A0CD165E0732A55
:10FE30002ED004DC6F2A73D0702A04D19BE0752A7F
:10FE40006FD0782A6ED01046DDE90F129047761CED
:10FE500050E1C4F30250022806D0032809D0042838
:10FE600001CF09D0066045E101CFF117C0E900617B
:10FE700040E101CF06803DE106703BE117F8040B3D
:10FE80008DF8000000208DF80100EB46012003E012
:10FE900057F804BB4FF0FF3061074FF0000102D468
:10FEA0000DE008F10101884649450FDA8045F8DB8D
:10FEB0001BF808100029F4D108E008F10101884678
:10FEC0008142FADB1BF808100029F6D1DDE90F2387
:10FED000AAEB08008146214600F036F9304400EBD9
:10FEE000080604E0DDE90F121BF8010B9047B8F19A
:10FEF0000108F7D221464846F7E00A21C4F302532D
:10FF00004FF0000B0891022B04D001CFC117032B37
:10FF100009D00AE0FF1D27F00707F7E8020108E013
:10FF200032E01FE020E000B2C117042B01D140B243
:10FF3000C117031E71F1000307DA4FF0000CD0EB7C
:10FF40000C006CEB01012D2302E0230504D52B23CB
:10FF50008DF82430012303E0E30701D02023F7E7E5
:10FF6000984658E00A2110E010210EE010204FF0D2
:10FF7000000B08900CE010214FF0000B44F004043B
:10FF80004FF00809089103E008214FF0000B089199
:10FF9000C4F30253022B04D001CF0021032B06D05F
:10FFA00006E0FF1D27F00707F7E8020103E080B233
:10FFB000042B00D1C0B24FF0000823072BD5702AC4
:10FFC00007D0DDF820C08CF0100C5CEA0B0C05D0DB
:10FFD0000EE040238DF82430012308E050EA0103AD
:10FFE00006D030238DF824308DF825200223984642
:10FFF000DDF820C08CF0080C5CEA0B0C0BD150EA49
:020000040002F8
:10000000010301D1630706D530238DF824304FF06A
:100010000108A9F10109582A04D038A20B9208AAB4
:100020000A920BE03AA2F9E75B46089AFFF78CFACE
:100030000B9B9B5C0A9A521E0A92137050EA0102B3
:10004000F2D10A98ADEB000000F1200B600702D559
:1000500024F4803401E04FF00109D94502DDA9EB19
:100060000B0000E0002000EB0B0141440890AAEBDC
:10007000010AE00306D4DDE90F232146504600F0D3
:1000800063F806444FF0000908E009A911F80900D7
:10009000DDE90F12904709F10109761CC145F4DB37
:1000A000E0030CD5DDE90F232146504600F04CF863
:1000B000064404E0DDE90F1230209047761C0899D1
:1000C000481E08900029F5DC08E00A980A99007893
:1000D000491C0A91DDE90F129047761CBBF1000123
:1000E000ABF1010BF1DC21465046DDE90F2300F0B6
:1000F00019F806446D1C1BE6092801003031323323
:100100003435363738396162636465660000000053
:10011000303132333435363738394142434445463D
:10012000000000002DE9F041044600251E46174658
:10013000880404D405E039462020B0476D1C641EB5
:10014000F9D52846BDE8F0812DE9F04104460025A7
:100150001E469046C80301D5302700E020278804BA
:1001600004D505E041463846B0476D1C641EF9D5FC
:100170002846BDE8F0814A68002A06D00A68531C68
:100180000B6010704868401E4860704710B501222F
:100190000221002000F006FF08B1072810D1072235
:1001A0000221012000F0FEFE08B1072808D100213D
:1001B0000A22084600F0F6FE08B1072800D1002008
:1001C00010BD022000F0B0BD70B50024064D06E061
:1001D0006868012110F8340001F070FC641C287874
:1001E0008442F5D3002070BDC8210020F8B5154623
:1001F0000C460646052A01D20720F8BD01F044FD51
:1002000018B901F013FD0028F7D1104900204E6005
:100210000C70C1E902500E4D08610DE006EBC40000
:100220006968009181788DF801100078094A694663
:1002300001F096FC0028E0D1641EE4B2EED2BDE8E5
:10024000F840054A0021024800F0C2B8C821002049
:1002500088490200BD1502002D14020008B50D46A4
:100260000646144615A1012002F0DEF92B4632465F
:1002700018A10320009402F05DFA2B46324623A118
:100280000320009402F056FA02F028F902F02AF94D
:100290000028FBD12B480068C00700D000BEBFF388
:1002A0004F8F2848E4380168274A01F4E061114380
:1002B0000160BFF34F8F00BFFDE700004150505F6A
:1002C0004552524F523A4552524F523A466174612A
:1002D0006C0D0A004150505F4552524F523A494E00
:1002E000464F3A4865783A2069643A2530782C20A0
:1002F0006572726F725F436F64653A2530782C20A7
:10030000696E666F3A2530780D0A00004150505FE3
:100310004552524F523A494E464F3A496E746567BC
:1003200065723A2069643A25692C206572726F7291
:100330005F436F64653A25692C20696E666F3A25C4
:10034000690D0A00F0ED00E00400FA050EB5002189
:100350000091CDE9011001466A4644F20100FFF721
:100360007DFF0EBD10B58268C368934203D001F0D3
:1003700011F9002010BD052010BD29B112B1531E86
:10038000134203D0092070470E207047016083801C
:1003900000218160C1600846704710B58268C3685B
:1003A0009A1A83889A4203D801F0FEF8002010BD03
:1003B000042010BD10B502F0D1FF017B002905D04B
:1003C00001688268BDE810400846104710BD000073
:1003D00038B5046800251AB110B1207B20B901E0BE
:1003E000072038BD606808B1082038BD00202060B3
:1003F000A060E06069B10120A26008490246009156
:1004000023464FF47A7106A004F0FEF9606010B143
:1004100002E00020F0E70E25284638BDB5030200B3
:10042000200000000249401C0860002070470000C6
:10043000DC2100202DE9FC41044646682C48154685
:1004400000682C4A12685143401C01EB5001B1FB7B
:10045000F0F756B1207B002809D0304604F03CFA72
:10046000002804D00020BDE8FC810820FBE7EFF362
:100470000580256008B30025019501AB3A460921A6
:100480003046009504F000FA01282BD104F0A0F8C2
:10049000024601AB06213046009504F0F5F901282B
:1004A00020D1019800B314494FF08050086040BF3C
:1004B000BFF34F8FBFF36F8F16E0022500233A463C
:1004C00004213046009504F0DFF901280AD104F038
:1004D00079F80246002301213046009504F0D4F952
:1004E000012801D00420BEE701202073BAE70000F4
:1004F00008150140DC21002004ED00E07CB54168D6
:100500000024054600290CD0EFF30581B9B1019410
:1005100001AB00220821009404F0B6F9012817D19C
:1005200001E008207CBD0198A0B10C494FF080503B
:10053000086040BFBFF34F8FBFF36F8F0AE0022107
:10054000002300911A46032104F09EF9012801D0EE
:1005500004207CBD2C7300207CBD000004ED00E075
:1005600070B50A4E01460A48B578FFF7FBFE04460F
:100570004DB10020B070711C0122C81D01F0CAFBF2
:1005800008B1FFF7E3FE204670BD0000E021002027
:10059000D04C0020F0B5284E89B01F460D0004460F
:1005A00072603BD0A888296882B22448FFF7E5FE34
:1005B000002834D1A889A96882B220481030FFF7FA
:1005C000DCFE00282BD120221D496846FEF788FF5B
:1005D00060690690207C00B101208DF814008DF830
:1005E0001C70607C00B10E208DF81500E068029050
:1005F000A068039020680190606800900E48114A3E
:100600006946083001F052FB002808D1B07020681C
:10061000401C04D09DF81D0018B106E0072009B069
:10062000F0BD0548083001F0CDFB03490122491C0B
:10063000C81D01F06FFBF2E7E0210020D04C002044
:1006400090490200C137020010B501460B48FFF780
:10065000A4FE040010D10A4801F0FEFC60B908496C
:1006600006480839FFF77EFE30B9054901220839EE
:10067000034801F06BFC0446204610BDE04C00200E
:10068000E821002030B5EFF3108172B60D4A94686E
:10069000012324B10370002900D162B630BD9360FC
:1006A0004FF0E023D3F88051074C25401560C3F884
:1006B0008041D3F8844154605A17C3F88421002242
:1006C0000270E8E7C44C0020FC06FFBC0B498A68B6
:1006D000002A11D000280FD1EFF3108072B60B68FA
:1006E0004FF0E022C2F800314B68C2F8043100221A
:1006F0008A60002800D162B670470000C44C002018
:100700002DE9F041064608680C46411C4FF0A04711
:100710004FF0010506D005FA00F1C7F8081520686A
:1007200001F018FD6068411C02D0002101F009FDB4
:100730003079204901EB4010A169007F0028306822
:10074000C0F8241525D0607D227D31681043C1F8A2
:100750006C05D4E900123068C0F80C15C0F81425F7
:1007600024E0A068411C02D0002101F0EAFCE0680E
:10077000411C05D08540C7F80855E06801F0EAFC47
:10078000D4E902123068C0F80825C0F81015BDE899
:10079000F081607D217D32680843C2F86C05D4E9A0
:1007A00000123068C0F81425C0F80C15207D01280F
:1007B000D7D0ECE7844C002070B540B10C4D2978BF
:1007C00039B1044602F0F2FD28B1002070BD0E20C0
:1007D00070BD082070BDE868062807D20549226868
:1007E00001EB8001401C0A60E860EEE7042070BD68
:1007F000B82100207849002040B10549002201239A
:10080000CA600B70C1E90102104670470E207047A4
:10081000B821002000281FD000291DD00F4A1278CF
:10082000002A19D00A88112A0ED0302A06D0322A7E
:1008300007D0332A10D1091D02F082B9091D02F038
:10084000FFB9091D02F0EAB88988B0F85E2291422A
:1008500002D1002180F85B1270470000B82100200F
:1008600070B50D46040009D01549087840B1C86834
:1008700030B194F85B0228B1112070BD0E2070BD1C
:10088000082070BDA4F85E520020886084F85C02E5
:1008900084F85A0284F859020A482B460A4900682B
:1008A00020602288032001F011FF22460121284602
:1008B00094DF0028E5D1012084F85B02002070BDA0
:1008C000B821002078490020E44A020010B504460F
:1008D00001F0FCFF204600F0AFFA21460448FFF784
:1008E00099FF21460248BDE81040103800F0B0B82A
:1008F000D425002008B500200090094869464068CA
:1009000003F048FD009840B106494FF08050086060
:1009100040BFBFF34F8FBFF36F8F002008BD0000B3
:100920002821002004ED00E070B5054608780C464B
:1009300001280AD002281DD0032827D114A101F0D4
:1009400073FEBDE8704002F083BD618804F10A02C5
:10095000284600F049F808B1FFF7F8FC284600F0F7
:10096000E7F808B1FFF7F2FCBDE8704010A10320E2
:1009700001F05ABE002506E06068405DFFF764FEA6
:100980000028F9D16D1C207AA842F5D870BD00006E
:1009900042616368656C6F723A494E464F3A4469EA
:1009A00073636F6E6E65637465640D0A000000000A
:1009B00042616368656C6F723A494E464F3A5468BB
:1009C0006520646576696365206861732074686575
:1009D000204E6F72646963205541525420536572F2
:1009E000766963650D0A000048B141802AB15188DB
:1009F000C1801188818091880181002070470E207C
:100A00007047000030B5114B0D4604000FCB85B088
:100A10008DE80F0018D0BDB12146684663DF00287D
:100A200010D120788DF812000120ADF810004FF69B
:100A3000FF7060802868E0600020A080208104A80A
:100A4000FFF7BAFE05B030BD0E20FBE75C4902009F
:100A50001FB500282ED000292CD042884FF6FF73F6
:100A60009A4202D08C88A24224D10C88112C14D036
:100A7000392C1FD18288002A1CD04B89934219D16E
:100A8000C268002A16D002228DF8002001F110025F
:100A90000192897B8DF8081009E08988914209D17B
:100AA000C168002906D003218DF800104380C26878
:100AB000694690471FBD7FB50022009201920292C5
:100AC00003920B7801F10E02002B2FD18B88012BA2
:100AD0002CD18B790478A34228D1002317E003EBB3
:100AE000C30432F81450022D02D0032D0ED105E0BC
:100AF00002EB44042489ADF80E4007E002EB440405
:100B00002589ADF80A506489ADF80C405B1C0C7A5D
:100B10009C42E4D8C268002A08D04988ADF8021087
:100B200001218DF80010C268694690477FBD000022
:100B30001FB5010019D04888A0F57F42FF3A16D0B2
:100B4000C988A1B101228DF80C200A4B00228DF832
:100B50000D20D3E90423CDE90023ADF8021003A949
:100B6000029169469CDF04B010BD0E20FBE708200F
:100B7000F9E700005C4902003EB518B1142A03D918
:100B800007203EBD0E203EBD4388A3F57F44FF3CB9
:100B90000DD0084D38CD8DE8380003890291ADF8AD
:100BA0000230ADF80620408869469CDF3EBD082033
:100BB0003EBD00007849020010B5164888B0164BBB
:100BC000406807905022154907A802F05DFD08B162
:100BD000FFF7BCFB6A460021012002F03FFD0446FE
:100BE00001F080FC0028FBD1200001D0FFF7AEFB14
:100BF0001720ADF81000684602F0C0FC08B1FFF7FE
:100C0000A5FB074802F0B0FC002801D0FFF79EFBCF
:100C100008B010BDF4480200F50802002C220020A4
:100C2000CD08020000238AB02B4A03211846FFF7A3
:100C3000F9FB08B1FFF78AFB182228496846FEF73E
:100C40004FFC274806904FF4007007902548089005
:100C50004FF4807009900723234A06A96846FFF7DE
:100C600099FC08B1FFF772FB002001F0FBFD08B111
:100C7000FFF76CFB1D4A40F6CD41012000F0C0F9A2
:100C800008B1FFF763FB6946002000F0B9F808B12E
:100C9000FFF75CFB1648FFF7AFFD08B1FFF756FB07
:100CA000FFF78AFF134800900B4869464830FFF76A
:100CB000A9FE08B1FFF74AFB02F0CAFB0E4D4FF048
:100CC000FF34002322461946686803F0E9F900283A
:100CD000F7D000F09FFCF4E77C2500200C490200CF
:100CE0007C2200207C24002069370200610F020072
:100CF0009513020029090200282100200149085CFF
:100D000070470000284902000649095C4FF0A040E6
:100D1000D0F81005C84010F0010000D0012080F08C
:100D2000010070472849020007490B5C4FF0A041C1
:100D3000D1F804250120984020EA0203C1F80835C3
:100D40001040C1F80C057047244902000249085CB4
:100D5000012101F02BBA0000244902000249085C7D
:100D6000002101F023BA0000244902000649095C71
:100D70004FF0A040D0F80405C84010F0010000D0AA
:100D8000012080F001007047244902007CB5002456
:100D9000084E25460122305D00950023114601953D
:100DA00001F090F9641C042CF4D3BDE87C4000F001
:100DB00003B800002449020010B500242046FFF7C4
:100DC000C5FF641C042CF9D310BD10B500242046C7
:100DD000FFF7C4FF641C042CF9D310BD10B5024604
:100DE000064B4FF0FF3000215C5C944201D1084675
:100DF00010BD491C0429F7D310BD0000284902008A
:100E000070B50C4E0C004FF0000530600BD0012087
:100E100000F0A4F808B1022004E0002000F09EF8E1
:100E200000B10B202070706810B9FFF7AFF90546CC
:100E3000284670BD5421002010B51A4C0188606806
:100E400010290ED011292BD1401E606028D1FFF748
:100E50009DF9002824D02168002921D0BDE8104048
:100E60000847D0B900210122084600F09BF808B1DC
:100E700007280FD107220221012000F093F808B1C2
:100E8000072807D104220221002000F08BF820B1AE
:100E9000072802D0216801B188476068401C606063
:100EA00010BD00005421002010B5002000F0AEF964
:100EB00008B1062806D1012000F0A8F908B10628DB
:100EC00000D1002010BD00002DE9F0470D468146FD
:100ED000FFF784FF0446042838D2DFF878801C48E6
:100EE0001D4EA8F1100735B3012D0ED0022D2DD1C6
:100EF00004EB440030444578002D27D0F9680029E0
:100F000024D02846BDE8F047084704EB4401755C4F
:100F10000E44717859B179680E4A01EB810149009C
:100F20000E3A8068FFF786FA08B987F80290B17820
:100F300008F80410E0E78068FFF7E0FA04EB4401EA
:100F4000314418F804008D78A842D5D0BDE8F08768
:100F50002C4902005021002074280020FFF7D4BE45
:100F600010B504280ED00A2818D1002000F03CF853
:100F700008B1FFF7EBF9FFF797FF08B1FFF7E6F9C4
:100F800032DF05E006481321408876DF082805D0C7
:100F9000002803D0BDE81040FFF7D8B910BD00000D
:100FA000C425002070B50023042810D20D4D00EB9D
:100FB0004004012A02D101290CD00022094E00EB85
:100FC0004000304461B1012906D0022906D0072330
:100FD000184670BD0E30C2B22A55F9E74270F7E7E5
:100FE0008270F5E774280020044A01460020127A36
:100FF000D20702D0084600F04FB8704740210020C9
:101000002DE9F04106461F4800240F464160C0E923
:101010000262B0071FD50025012211462846FFF7BE
:10102000C1FF6D1C0446042D02D2002CF4D012E046
:101030008CB97A0804211448FFF7D8F804000AD1C3
:10104000FFF7C2F8040006D10F48104A0021001F24
:10105000FFF7BEF90446F00701D0FFF797FE74B919
:1010600009480B4A00210C38FFF7B2F9040006D1F9
:101070000548084A01210838FFF7AAF90446204626
:10108000BDE8F0814021002038490200AD12020085
:1010900049180200C30102002DE9F047594C0546EA
:1010A0000026607818B100206070FFF785FE0120EF
:1010B000554F4FF47A694FF4C87A4FF06408182DF1
:1010C0002CD2DFE805F0890C0C2C3A4751565A61B6
:1010D0005A619B6969696969898C8F929B9B002021
:1010E000FFF744FE00284FF0000008D0FFF72EFE67
:1010F000022D02D14FF4E16006E0484604E0FFF71C
:101100002DFE022D2ED05046B0FBF8F12570606800
:10111000414300223868FFF78DF9064659E0002068
:10112000FFF724FE28B10020FFF710FE4FF44870AF
:10113000EAE70020FFF712FE14E00020FFF716FE9A
:1011400000284FF0000002D0FFF700FED5E7FFF7C0
:1011500005FED8E70020FFF709FE0028E9D00020AF
:10116000FFF7F4FDC820CFE70020FFF7DDFD257075
:1011700007E000203FE025702BE060700120FFF7C2
:10118000D3FD00226168C5E760700120FFF7CCFD48
:10119000606800EB8001BCE77868FFF7AFF90646AE
:1011A000D5F1110000D01EB10220FFF7CFFD10E0F5
:1011B00001280BD9C82110FB01F1B1FBF8F16068DF
:1011C000002241437868FFF735F906460220FFF711
:1011D000C5FD3046BDE8F087FFF7EEFDCBE7FFF732
:1011E000EBFDC6E7FFF7E8FD04E0FFF7E5FD0020B3
:1011F000FFF7B4FD0120FFF7B1FDBCE7FFF7E5FD08
:10120000B9E70000402100202C49020010B5FFF78B
:1012100075FD032100F0A8FF002010BD002901DAB0
:1012200000207047026811440160012070470000EF
:10123000F8B5461C00208DF800000D4601246846D4
:10124000FFF720FA114A10682860D2E9001095686B
:10125000081A2B1A701C5B1C98420FD963B10C48FA
:101260000C4B294000681B6802EB810163F39F204F
:10127000C8601068401C1060002401E088191060EC
:101280009DF80000FFF722FA2046F8BDF04D00203F
:10129000D0490200FC210020034803C8814201D14B
:1012A0000120704700207047F04D00200078022197
:1012B000FFF70ABE05494FF0FF32082841F8202009
:1012C00002D3084480F84820704700002C4C0020CE
:1012D000F0B54FF0FF3512B10023082601E00823D6
:1012E0000C260C4C05E000BF54F823707F1C04D082
:1012F0005B1CB342F8D32846F0BD26185DB286F8D1
:10130000305044F82310002AF5D1E11881F8480044
:10131000F1E700002C4C00200249084490F930000D
:10132000704700002C4C002008B5024690F85A0285
:101330000B4600EBC00101EB001002EB800092F8BD
:10134000592242B1521ED2B202EBC20100EB41025D
:10135000518A491C00E0C188ADF800100089ADF841
:1013600002006946184696DF08BD000070B5084CBB
:10137000050009D010342168002907D008682060D2
:10138000496828468847F6E70834F4E770BD00004E
:10139000184C002001460148FFF78DBBC4250020F2
:1013A0002DE9F843054690F85A020F4600EBC001BC
:1013B00001EB001005EB800695F85942914604EBCD
:1013C000C40006EB40013279601C0A31904226D1FC
:1013D0006B460022284600F095F918B310E0401E35
:1013E000A04201D1002004E004EBC40006EB400061
:1013F0001C30804602466B46284600F083F930B127
:10140000002038706946484697DFBDE8F88395F8B4
:1014100059024146401C641C85F85902E4B23079F7
:10142000A042DCD8012038700020EEE72DE9F04121
:1014300000260125144C22E06068226900EBC607F3
:10144000387805FA00F1114217D08A43226100F082
:10145000E3FB02463878E36805FA00F1194002FA26
:1014600000F3994209D17978012901D0012100E0E6
:10147000002151407A6802B19047761CF6B220787C
:101480008642D9D3BDE8F081C82100202DE9F0477C
:10149000894690F85A12904601EBC10202EB011105
:1014A00000EB8107384601F081FF060041D0224C55
:1014B000A06806283DD200EBC000204D00EB4000A4
:1014C00005EB80006422A0F802803946001DFEF77B
:1014D00007F80027B9F1000F07D0A06800EBC000A3
:1014E00000EB400005F8207007E0A168022001EB46
:1014F000C10101EB410105F82100A06800EBC0012A
:1015000001EB410105EB8101401C8E66A060E168A2
:1015100088420ED1002608E006EBC60000EB400032
:1015200005EB8000816E8847761CE0688642F3D325
:10153000A760BDE8F0870000B82100209049002096
:1015400030B50D4690F85A12144601EBC10202EB79
:1015500001119BB000EB810001F028FF030007D0D0
:10156000ADF8024001208DF80000684601959847CB
:101570001BB030BD05490120096809B10020704742
:101580000349096A0029F9D1704700001449002075
:1015900068210020826883881A4003689A5C0A7078
:1015A0008168491C81607047C26883881A4003685B
:1015B0009954C168491CC160704700002DE9F04191
:1015C000124E07460125BD403068FEF797FF002800
:1015D0000DD10F4C2069284207D1384600F01CFB82
:1015E0000028E06805D0284304E0A8432061BDE856
:1015F000F081A843E060206928432061A168306839
:10160000BDE8F0410022FEF715BF00008849020046
:10161000C8210020F8B51C4C2078002832D0E068A2
:10162000002658B10025607800282BD1684648DF95
:10163000052805D030B1FEF789FE0AE00125F2E762
:10164000012606E0009800F009FA216909B1009826
:1016500088479DB96078002814D16088ADF80000F3
:101660006946A06861DF052803D020B1FEF76EFE51
:1016700004E0012502E0D4E902018847002ED2D01F
:10168000002DE6D0F8BD00000022002070B50E4607
:101690000446007918494FF4A27501EB4010017F10
:1016A0002068A1B14FF4887101F00AF94FF49071EC
:1016B000206801F005F94FF49271206801F000F9FB
:1016C0002946206801F0FCF80C49206809E04FF435
:1016D0008E7101F0E4F82946206801F0E0F808492D
:1016E0002068C0F80413206800F0E4F93146BDE832
:1016F000704000F0C3B90000844C002010030200C9
:101700008000020010B509892AB1D088491C8142A5
:1017100018D1002010BD90F85A2202EBC20404EB4D
:10172000021200EB820212899142F2D0491C198008
:1017300090F85A1201EBC10202EB011100EB81009B
:10174000008902E01980D088401E5880012010BD19
:101750002DE9F8430E468146002401F1100561E0B1
:1017600029192F5D487802280AD0032808D00428B8
:1017700024D0052822D006283ED007283CD04FE0B0
:101780004FF0000816E000BF04EB480041190220AA
:101790006A46891C64DF58B9BDF80010B9F800002A
:1017A000814205D19DF8021099F80200814234D09F
:1017B00008F10108B8EB570FE6D331E04FF000080D
:1017C00016E000BF04EB8800411902206A46891C1C
:1017D00064DF58B9BDF80010B9F80000814205D1A6
:1017E0009DF8021099F80200814216D008F1010814
:1017F000B8EB970FE6D313E010206A46891C64DF2C
:1018000070B9BDF80010B9F80000814208D19DF808
:10181000021099F80200814202D10120BDE8F8834C
:101820003C44641CF07BB4EBD00F99D30020F5E767
:101830000268134602E08A4204D01268002AFAD1F4
:101840000B600160704700000348017AC90702D0AD
:101850000078FFF721BC70474021002000F042FED5
:101860000028FBD102F03CFBF8E700001FB500F0B8
:1018700085F808B1FEF76AFD03220021012002F07D
:10188000F1FB284C606010B90420FEF75FFD0120D9
:1018900002F0C6FBA06010B90420FEF757FD02213C
:1018A0002048002400910C30CDE90104CD012346ED
:1018B0002A461DA11D48039402F0B8FD012802D05C
:1018C0000420FEF743FD1748012610300096CDE9AD
:1018D000010400232A4616A11748039402F0A6FD2E
:1018E000012802D00420FEF731FD0E480096143086
:1018F000CDE9010400232A4610A11248039402F006
:1019000095FD012802D00420FEF720FD0E48016855
:1019100041F00401016002F0B3FA0F20FEF716FD5A
:10192000FBE7000028210020424C4500250C020066
:1019300055415254000000008F3902004C4F474778
:10194000455200005D18020010ED00E0C20800F0F2
:1019500007030120895C98400840704700F18040EF
:101960000068002800D00120704708B500F18040D1
:10197000002101600068009008BD000070B50F4CA8
:101980000025207808B1852516E00021A16061605E
:101990002161E1604FF0E020D0F80001012610F055
:1019A000010F03D10721002000F068F801F09EFE2E
:1019B00008B9034806602670284670BD184C002000
:1019C00018050040F8B5174D0446A878002648B120
:1019D00014B16168012088478DF800606846FEF701
:1019E00051FE17E08DF800606846FEF74BFE24B10B
:1019F0000C4821461030FFF71BFFE86850B94FF440
:101A00008270FFF7B2FF02204107C1F804030649C4
:101A100001200860E868401CE8609DF80000FEF7BF
:101A200055FEF8BD184C00200800004038B50020D5
:101A30008DF800006846FEF725FE074C207808B9AF
:101A4000FFF79CFFE068401CE0600120A0709DF85B
:101A50000000FEF73BFE38BD184C0020002801D1E5
:101A6000FFF784BC704700F01F020121914040093C
:101A7000800000F1E020C0F8801170474907090E8E
:101A8000002806DA00F00F0202F1E02282F8141DAD
:101A900003E000F1E02282F8001400F01F020121AF
:101AA00091404009800000F1E020C0F88012C0F8A9
:101AB00000117047000B40B2704700002DE9F04163
:101AC0008846054601F074F9234E002828461AD0AE
:101AD000FFF722FC304490F848008009032802D028
:101AE00001280ED007E04FF0A040D0F81005E840E4
:101AF00010F0010F05D003212846BDE8F04100F0A9
:101B000044BB0221F8E701F05FF9002822D0284603
:101B1000FFF702FC04464FF4807000EB84000F4F87
:101B200081B207EB8400D0F8102542F00102C0F822
:101B30001025084600F05AFBB8F1000F0AD02846DD
:101B4000FFF7EAFB56F82000002803D00120A04050
:101B5000C7F80403BDE8F0812C4C00200060004071
:101B60002DE9FC41DFF8A480044608EB04000027BF
:101B700090F930001346C0170E46401C01D00827CC
:101B800041E0F27819462046FFF7A2FB0546401CCB
:101B900038D0B07850B14FF0A04000EB8400D0F8BE
:101BA000001721F00201C0F8001707E00021737848
:101BB000204600910A46019100F096FAF078C0B1F3
:101BC0001348317800EB8500D0F81025114B1A40EE
:101BD000C0F810254FF4F8524FF4403302EA0422C3
:101BE00003EA01410A43D0F810150A43C0F8102552
:101BF00009E008EB0500327810F8481F41EA82112D
:101C0000017000E004273846BDE8FC812C4C002020
:101C100000600040FFE0FCFF4FF0A041D1F810153C
:101C2000C14011F0010000D00120704770B5144D83
:101C300095F8540008B1082070BD0020411E2A18F4
:101C4000401CC0B282F830102028F8D3002420466F
:101C5000FFF730FB641CE4B20C2CF8D307210620FC
:101C6000FFF70CFF4FF4BE7000F0C0FA05494FF0CB
:101C70000040C1F80403012085F85400002070BD25
:101C80002C4C002000600040034890F854000028CD
:101C900000D00120704700002C4C00200121B1EB46
:101CA000507F01D101207047002070472DE9F0419D
:101CB00005460079164F904607EB40140E46E07E2D
:101CC00010B10820BDE8F081707F20772846FEF72C
:101CD00017FD5FEA080060603169216003D0317F41
:101CE0002846FFF7D3FC287907EB4010007F002837
:101CF000286801D0082100E00421C0F80015002068
:101D0000E0752076A0750121E176A076DAE7000083
:101D1000844C00202DE9F04105460079284E90467C
:101D200006EB40140F46207F18B10846FFF7B6FFB8
:101D300080B1626800234FF404704FF4017172B1F6
:101D40002A7906EB4212127F002A2A6805D0C2F8CF
:101D5000080304E01020BDE8F081C2F80813E27D1A
:101D6000B2B1227E7AB162685AB12A7906EB421288
:101D7000127F1AB12968C1F8040302E02868C0F88C
:101D800004131120E7E72761012384F8188005E098
:101D900084F817800020E760607620762879424634
:101DA00006EB40103946007F0028284603D0BDE8E6
:101DB000F04100F073B8BDE8F04100F01BB800003E
:101DC000844C002070B504460079094D05EB4010A5
:101DD000017F00290AD1807E002807D1204601F02A
:101DE00026FB2179012005EB4111887670BD0000AA
:101DF000844C00202DE9F05F04460079264901EB70
:101E00004015A87E184302D1204601F010FB6868F7
:101E10000028206806D04FF40171C0F80413002098
:101E2000BDE8F09F4FF4A276314600F038FDB14690
:101E30004FF4927A4FF4847B5146206800F02AFDDB
:101E400006465946206800F025FD80464946206830
:101E500000F020FD074648EA07003043ECD056EA80
:101E6000070007D12946206801F0BCFAE87D697EA9
:101E70008842E1D80020E8750EB10320D0E70FB109
:101E80000F20CDE7A97E01200029216801D008603C
:101E9000C5E74860C3E70000844C00202DE9F05FEF
:101EA000894604464FF488759A4690460026006895
:101EB000294600F005FD4FF4A2773946206800F06E
:101EC000FFFC2068C0F83495C0F838852068BAF166
:101ED000000F14D0D0F8001241F02001C0F8001219
:101EE0002179DFF8648008EB4110406850B1206828
:101EF0004FF40471C0F804133046BDE8F09F01218F
:101F00000160EDE7AA46B9464FF4927B514620683E
:101F100000F0D1FC07464946206800F0CCFC05469D
:101F20005946206800F0C7FC014647EA050008430F
:101F3000ECD02379002208EB4310C27501B10326CF
:101F4000002DD9D00F26D7E7844C00202DE9F0478B
:101F5000054600793F4E904606EB40140F46207F21
:101F600018B10846FFF79AFE30B1284600F074F821
:101F700020B11120BDE8F0871020FBE784F816801F
:101F8000A7600027A78228794FF0010806EB4014CC
:101F90003E46207F0028286825D04FF49079494696
:101FA00000F08EFC4FF4AC7A5146286800F088FCB3
:101FB0002868A17DA268C0F84425C0F848152868A3
:101FC000C0F808806068F0B94946286800F073FCE2
:101FD00080465146286800F06EFC58EA0001F3D0B4
:101FE00058BBA7750FE04FF48E7A514600F057FCAE
:101FF0002868C0F808802146286801F097FB6168CE
:102000004FF4807089B13046B4E75146286800F03B
:1020100041FC10B9A08A4845F7D1A08A484505D0AF
:102020002146286801F082FB00E08146A08AA17D5C
:102030008842EAD3A08A484501D10F26D1E751460C
:10204000286800F027FC0028F9D02868C0F80C8028
:10205000C7E70000844C00200079044901EB4010E0
:10206000807D002800D0012070470000844C0020B3
:1020700070B5044600791149002601EB401520682F
:102080002A7FC0F80065686888B1207901EB4010AC
:10209000007F0028206801D0094901E008498C39F7
:1020A000C0F808132068FFF705FDFFF7DCFC2046A9
:1020B00000F096FEEE766E6070BD0000844C00204D
:1020C0001003020070B541EA4201DDE904564FF009
:1020D000A04441EA830141EA052104EB800041EA82
:1020E0000641C0F8001770BD70B541EA4201DDE954
:1020F00004564FF0A04441EA830141EA052104EB74
:10210000800041EA0641C0F8001770BD70B541EA91
:102110004201DDE904564FF0A04441EA830141EA5F
:10212000052104EB800041EA0641C0F8001770BDAC
:102130001CB5002100910B4601220191FFF7E6FF3B
:102140001CBD1CB500220B46009211460192FFF700
:10215000DDFF1CBD1CB5002100910B460122019141
:102160001146FFF7D3FF1CBD4FF0A04202EB8000E9
:10217000D0F8002722F44032C0F80027D0F800271A
:1021800042EA0141C0F8001770474FF0A04202EB4D
:102190008000D0F8002722F44032C0F80027D0F8A1
:1021A000002742EA0141C0F80017704701224FF0B2
:1021B000A043824011B1C3F808257047C3F80C252D
:1021C0007047000018B5084B6C4601441B6800932B
:1021D00006E000BF54F82030D3F81035401C08C288
:1021E0008142F7D818BD000084490200034908B5B0
:1021F0000844002101600068009008BD00600040B4
:1022000002494058012800D000207047006000407B
:10221000004870479122020030B5194C054689B03C
:10222000207828B16078854202D1002009B030BD05
:10223000FDF708FB202213496846FDF751F90020FD
:102240008DF81400062000900820019005200390CE
:10225000072002900C4806900948001DFFF708FF70
:102260000DB1002200E0094A05486946001DFFF74C
:102270001DFD0028DAD1012020706570D5E700002F
:10228000F0210020B0490200005027006138020010
:102290002DE9F04FC1B00D004FF0000140914D9875
:1022A0004B991C46174601EB000B01D00A2000E0B9
:1022B0000020804601F02AF900287CD16E46BCB986
:1022C000409840AA3118284601F016FA002872D02A
:1022D0003846FDF729F9C22800D9C22005464098A2
:1022E0002A4630443946FDF7FBF840982844409090
:1022F0004FF0200A409901EB080231320DEB010545
:102300000DEB0206002002E005F801AB401C404541
:10231000FAD300275C4508D305F801AB05F801ABFB
:1023200005F801AB06F801AB2DE04B98844202D2D0
:102330004A98005D02E0211A4C98405C2B46814689
:1023400002460121880022FA00F000F00F0009285F
:1023500001D9373000E03030C1F1010C491E03F8DB
:102360000C00EFD29D1C05F801ABFDF7B5F8016834
:1023700011F8090010F03E0F01D0484600E02E2071
:1023800006F8010B641C7F1C102FC3D30D20307086
:102390000A20707085F800A0409968464144433196
:1023A000409101F0B9F830B101F0B0F818B900204F
:1023B00040905C459ED341B02046BDE8F08F2DE9AA
:1023C000F043C7B000251C46904689464E9F459570
:1023D00001F09CF800287AD1459805AE311845AA3D
:1023E000484601F089F9002835D0072F27D2DFE8C9
:1023F00007F004121B35424F5D004046FDF794F88C
:10240000054645982918FF2919D830442A464146DF
:10241000FDF766F813E045982368C0F580713044F5
:102420004246FDF741FC09E060680090459823684A
:10243000C0F5807130444246FDF736FC054629461A
:1024400045A8FEF7EBFE459978B3B1F5807F3ED8FD
:1024500005A801F061F847B0BDE8F083D4E90101B7
:10246000CDE9000145982368C0F5807130444246AB
:10247000FDF71AFCE2E7201D07C88DE80700459824
:102480002368C0F5807130444246FDF70DFCD5E766
:10249000201D0FC88DE80F0045982368C0F5807196
:1024A00030444246FDF700FCC8E710E004F10800A4
:1024B00001AD0FC885E80F0060680090459823685B
:1024C000C0F5807130444246FDF7EEFBB6E70020D0
:1024D000C1E7000000487047BF2302000120FFF75A
:1024E0009BBE00002DE9F04F87B0FEF7D5FE18B176
:1024F000002007B0BDE8F08F454ED6E9014704EA59
:10250000070006EB8000A146641CC5680CE000BF14
:10251000C5F3891000EB9550044404EA070006EB6C
:102520008000A146C568641CA807F1D005F003002F
:102530004FF0000B022805D0AA0A01A8C5F38313A7
:10254000002153E004EA070006EB800004F1010AD1
:102550000AEA0704C268381B80004FEA9558001D3C
:10256000C5F38913804521D929490C3138B106EBCF
:10257000840400F0FF0CA8EB00000C3404E00C46CF
:10258000002108F0FF0C0846C0B2CDE90210CDE9E9
:10259000004CD6F81444C5F3C2005946A047404544
:1025A00011D108F103080AEB98042AE0002106EB98
:1025B00084000C300090CDE901810391C5F3C20085
:1025C000D6F81444EAE760F38F1509EA070006EB32
:1025D0008000C56016E000BF04EA070C06EB8C0C17
:1025E000491CDCF80CC040F804CB641C9942F3D3BE
:1025F000C5F3C2000093D6F8105401AB5946A84762
:1026000000B17460FEF748FE80F0010071E7000041
:10261000F04D0020034AFF239360002313605360B2
:1026200000F018B9F04D00202DE9F8430F4F88460F
:102630000446002569462846BE68FEF7F9FD0028D5
:1026400012D00B480021406861F38200009964F3C6
:10265000C50001EA060265F3891007EB820268F300
:102660009F20491CD0600091BDE8F883F04D002008
:10267000D04902002DE9F843124D8846044601274F
:10268000914669463846AE68FEF7D2FD002817D05D
:102690000D480021806861F38200009964F3C50051
:1026A00001EA060267F3891005EB820268F39F20B6
:1026B000491CD0600091314005EB8101C1F80C90BC
:1026C000BDE8F883F04D0020D04902002DE9F84F15
:1026D000164C8846064602279A4691466946384671
:1026E000A568FEF7A5FD00281ED01148C16800208E
:1026F00060F38201009866F3C50100EA050267F302
:10270000891104EB820268F39F21401CD16000EA2A
:10271000050204EB8202401CC2F80C900090284095
:1027200004EB8000C0F80CA0BDE8F88FF04D00204D
:10273000D04902002DE9F84F1B4C88460646032776
:102740009A469146DDF828B069463846A568FEF7F6
:102750006FFD002825D015480021006961F3820033
:10276000009966F3C50001EA050267F3891004EBDE
:10277000820268F39F20491CD06001EA050204EB45
:102780008202491CC2F80C9001EA050204EB8202A5
:10279000491CC2F80CA00091294004EB8101C1F84A
:1027A0000CB0BDE8F88F0000F04D0020D0490200C9
:1027B0002DE9F84F254D884606460627994692464C
:1027C000DDF830B069463846AC68FEF731FD0028C8
:1027D0003AD01F48C169002060F38201009866F377
:1027E000C50100EA040267F3891105EB820268F370
:1027F0009F21401CD16000EA040205EB8202401CCC
:10280000C2F80CA000EA040205EB8202401CC2F8E8
:102810000C9000EA040205EB82020A99D160401C88
:1028200000EA040205EB82020B99401CD16000EA29
:10283000040205EB8202401CC2F80CB0009020405C
:1028400005EB80000D99C160BDE8F88FF04D0020C8
:10285000D0490200024A02F5826203C270470000BA
:10286000F04D002070B506460020FFF7D5FC0400AF
:1028700008D1FFF7CDFC0546FFF72CFE324629466E
:10288000FFF7C8FE204670BD08B5002242504058F0
:10289000009008BD4058002800D00120704708B5BE
:1028A000002242504058009008BDD0F80403084070
:1028B00000D0012070474058002800D00120704708
:1028C00008B5002242504058009008BD1FB504468C
:1028D000011D00881F2859D028DC102830D013286B
:1028E0004ED01B283DD01D281FD1091D0C462D4858
:1028F000FEF72EFF002818D02A4A2046083202F19F
:1029000008018CDF002810D1FEF76EFB08B1FDF73F
:102910001DFDE078A379627921798DE80F00A37815
:10292000627821A10320FFF743FF1FBD3B2831D070
:10293000552833D05628F8D1A088132176DF09E036
:102940000720FEF751FB08B1FDF700FDA1882648DE
:10295000FDF786FF0028E8D004B0BDE81040FDF781
:10296000F5BC0879022807D00328DED104B01FA1E6
:10297000BDE81040FFF758BEBDE81F4000F068BD3D
:102980000023A0881A4685217FDFE3E731F8040B96
:1029900075DFDFE7A088132176DFDBE7A08817214A
:1029A000ADDFD7E7F448020042616368656C6F727F
:1029B0003A494E464F3A436F6E6E656374696E676F
:1029C00020746F2074617267657420253032782519
:1029D00030327825303278253032782530327825FB
:1029E0003032780D0A000000D4250020426163686F
:1029F000656C6F723A494E464F3A436F6E6E65632F
:102A000074696F6E20526571756573742074696D99
:102A10006564206F75742E0D0A0000002DE9F84FD3
:102A200005460C460888B5F85E12884259D195F8DB
:102A30005A02DFF804A100EBC00101EB001005EB26
:102A4000800660884FF003094FF00008F0BBE38870
:102A50003079A11DDAB250FA83F3052B01D8024474
:102A600000E00522327100231CE000BF00EBC00231
:102A700003EB830701EB470706EB4202D7F802C0DE
:102A8000C2F80AC0D7F806C0C2F80EC07F895782C4
:102A9000A2F81480A2F81680A2F81880401CA2F8B0
:102AA0001A805B1C32798242E0D895F85A1200EB0A
:102AB000C00001EBC10202EB011105EB810136F808
:102AC0001000098988420ED2307900E00BE0052819
:102AD00009D085F8590221882846FEF725FC010017
:102AE0000AD1BDE8F88F85F85982228869462846C0
:102AF000FEF756FC01000BD085F85B822288284641
:102B0000FEF71EFD8AF800902188AAF80210E8E777
:102B10009DF800000028E4D023883288074903206C
:102B2000FFF7D4FD228801212846FEF7AFFC21885B
:102B3000284600F0F3F8D4E7904900207C4A0200D0
:102B4000F8B505460C460888B5F85E1288425DD196
:102B500095F85A02A21D00EBC00101EB001005EB35
:102B6000800695F85902618800EBC00006EB400032
:102B70000A3039B329E000BF01EB410302EB430304
:102B80009F88B7F5245F0CD06FF4245C17EB0C071B
:102B90000AD0012F02D0072F0BD108E05B884381B8
:102BA00007E05B88838104E05B88C38101E05B8888
:102BB000038243892BB183891BB1C3890BB1038A7B
:102BC0001BB9491C13888B42D6D800278DF800709A
:102BD00095F859023179401C884203D101208DF8C3
:102BE000000018E085F85902228869462846FEF759
:102BF000D7FB01000BD085F85B7222882846FEF7D0
:102C00009FFC0D480321017021884180F8BD9DF88B
:102C100000000028FAD02388328808490320FFF7F3
:102C200055FD228801212846FEF730FC21882846E0
:102C300000F074F8F8BD0000904900207C4A0200C2
:102C400070B5064690F85A020C4600EBC00101EB45
:102C5000001006EB80052088B6F85E1288422CD161
:102C600060882A8870B115A10320FFF703FD228830
:102C700000213046FEF70AFC21883046BDE870404E
:102C800000F04CB819A10320FFF7F4FCA1682960FB
:102C9000E068C5F8060021883046FEF745FB0100D4
:102CA0000BD0002086F85B0222883046FEF748FCF5
:102CB0001948032101702188418070BD424C455F55
:102CC00044425F444953433A494E464F3A53657232
:102CD0007669636520555549442030782578204E23
:102CE0006F7420666F756E640D0A0000424C455F7C
:102CF00044425F444953433A494E464F3A466F7502
:102D00006E64207365727669636520555549442069
:102D1000307825780D0A0000904900202DE9F04711
:102D2000044690F85C020D46401C1E49C0B284F86F
:102D30005C02C968DFF8709000264FF003088842F3
:102D40002CD284F8596294F85A022B46401CC0B227
:102D500000EBC00101EB001104EB810784F85A027B
:102D6000A9F1180101EB80001049006838603E713C
:102D70003A880320FFF7AAFC3A460121284694DF4F
:102D8000010009D084F85B622A462046FEF7D8FB92
:102D900089F80080A9F80250BDE8F08784F85B62EA
:102DA000F6E70000B821002090490020E44A020024
:102DB0000449084490F93000082801DB01207047DD
:102DC000002070472C4C00200449084490F9300042
:102DD000082801D201207047002070472C4C0020A9
:102DE00070B5034600791B4901EB40101968027F5A
:102DF0004FF0FF30002AD1F80C25D1F81465D1F836
:102E00000855D1F8104504D0C1F80C05C1F81405D7
:102E100003E0C1F81405C1F80C051968C1F80805EC
:102E2000C1F81005501C02D01046FFF781F9701C44
:102E300002D03046FFF77CF9601C02D02046FFF735
:102E400077F9681C04D02846BDE87040FFF770B9D8
:102E500070BD0000844C002070B50B4C0546206806
:102E6000456020692168854205D2A06BBDE87040AD
:102E7000091D00F035BE606B091D00F031FEE06AEF
:102E8000854200D2E56270BD6821002010B500F0D7
:102E90004BFE0E4C2068A0B90D4800F013FE0C4804
:102EA000143000F00FFE0A48E06014302061002268
:102EB0001021202001F0D6F8206010B105A100F00B
:102EC000E3FEBDE8104000F039BE0000A421002060
:102ED00050490020546D72510000000070B5124E30
:102EE000124C1AE001F04CF83068D0B101F034FC1B
:102EF00000F01AFEF068C568281D00F0CAFDE06801
:102F0000401EE0606068401E606000F017FE286BA5
:102F100000F01EFE284600F01BFE60680028E1D18C
:102F200070BD01F019FCF8E7284900206821002055
:102F300030B4026C0B46002A0BD0C1681144C1604A
:102F40004468A14201D30168C16030BC1846FCF757
:102F5000C7BA30BC704770B51646026C04460025EF
:102F600082B1C6B1E068FCF7BBFAE168206C091ACF
:102F7000E1602268914202D26168081AE060022E84
:102F800016D01AE02068C0B9606801F077FB0546EA
:102F90000020606011E0A068FCF7A2FA216CA06834
:102FA0000844A0606168884207D32068A06004E0FC
:102FB000A06B10B1A06B401EA063A06B401CA0636F
:102FC000284670BD06480168C96A09B100207047EB
:102FD000044909680129F9D8C16A0069081A7047CB
:102FE00068210020B04800200F4C4FF080550F4E54
:102FF000FFF774FF2068012805D9356040BFBFF393
:103000004F8FBFF36F8F00F057FDFFF7DBFF0228F4
:10301000EED300F0B5FFFFF7D5FF022801D300F093
:10302000B5FD01F099FBE3E7B048002004ED00E0B6
:1030300070B5002441600B4D0061914206D8D11A51
:103040008269914206D2011D286907E09A4203D2A3
:10305000994201D3012403E0011DE86800F040FD1E
:10306000204670BDA421002030B589B0274D42E034
:103070000498002806DADDE90601059A90470498CD
:10308000002838DB069C606910B1201D00F001FDAE
:1030900002A800F099F8024604980A282BD2DFE82B
:1030A00000F00505052A1F2705052A1F0598A169B7
:1030B000034601442046FFF7BBFF01281BD1616A8C
:1030C00020468847E069012815D100200090059826
:1030D000A169002342181946204601F0D5FB0AE0F9
:1030E0000598A061811813462046FFF7A1FF02E072
:1030F000204600F02DFD00231A4604A9286800F0A0
:10310000CFFF0028B4D109B030BD0000A4210020B9
:103110002DE9FC410F46054600F032FF01A800F002
:1031200053F80446019818B101F016FBBDE8FC8184
:103130001B4E17BBA54220D801F00EFBF0682746B6
:10314000C068C468201D00F0A4FCE069012810D10B
:10315000A0692B4641193A462046FFF769FF01282E
:1031600007D100200346014600902A46204601F080
:103170008BFB616A20468847D8E7291B306800F03E
:1031800097FD01F0E9FA0028D0D106494FF08050B0
:10319000086040BFBFF34F8FBFF36F8FC6E70000DB
:1031A000A421002004ED00E00648416B096829B124
:1031B000416BC968C9684968C16270474FF0FF3107
:1031C000FAE700006821002070B5054601F0FAF921
:1031D000064E0446B068844203D200F009F801208C
:1031E00000E0002028602046B46070BDA4210020CB
:1031F000F8B5144D1EE0C068C4680668201D00F0D4
:1032000048FC616A20468847E069012812D1A0691C
:103210003044B04206D924616060211DE86800F0A6
:103220005FFC07E00020034601460090324620463E
:1032300001F02AFBE86801680029DCD12969C5E9A9
:103240000310F8BDA4210020202080F31188FEE7A0
:10325000064B426900219A4206D1806AA3F12802F6
:10326000904201D000B90121084670473C49002036
:10327000074CE068016841B1C0680021D0F8000047
:10328000FFF746FFFFF7F0FEF3E701210020F7E725
:10329000A421002070B5044600F046FC04F124058A
:1032A0000AE0606A58B1284601F020FA08B100F03F
:1032B0001BFDA06C401EA064A06C0028F1DC4FF048
:1032C000FF36A66400F03AFC00F02EFC04F1100575
:1032D0000AE0206958B1284601F008FA08B100F068
:1032E00003FD606C401E6064606C0028F1DC666465
:1032F000BDE8704000F022BC70B5044600254007D0
:1033000004D004F00700C0F10800044400F038FEC7
:103310000A49486818B90A4820F0070048600A6856
:1033200041F6F8731019984204D2904202D94B68C2
:1033300008609D1801F010FA284670BD5C2100203D
:10334000A82800200449086818B10868C26B521CFC
:10335000C2630868704700006821002010B5044669
:1033600000F0E2FB246A00F0E9FB204610BD0000FB
:1033700010B5084C031F24681C601B1F1960191F1F
:10338000054B0B6014390A60091F6FF002024438C4
:103390000A6010BD58490200493202004FF08050C7
:1033A000D0F80C01800200F10050704770B50C4B52
:1033B00000210A4ADC680DE002EB81058678AD78D1
:1033C000B54206D132F821500688B54201D158687D
:1033D00070BD491CA142EFD3002070BD7849002088
:1033E000B821002070B50546C87D0C4600284FF472
:1033F000847128460AD0FFF752FAD5F81805627E84
:10340000E1688854607E401C607670BDFFF747FA23
:10341000D5F8180570BD1FB501238DF800308DF863
:1034200008100192D0E90012684690471FBD10B500
:10343000044600684FF49271FFF731FA4FF484713B
:103440002068FFF72CFA20680121016010BD000000
:1034500010B508488ADF08B1FCF778FF0120FDF7B6
:10346000C3FD08B1FCF772FFBDE8104002A10320C4
:10347000FFF7DAB80449020042616368656C6F7255
:103480003A494E464F3A556172745F632053636107
:103490006E20737461727465640D0A0010B5044681
:1034A000FCF726FC40B1002C09DA04F00F0000F113
:1034B000E02090F8140D06E042F2010010BD04F186
:1034C000E02090F800044109082914D299B101299B
:1034D00011D004290FD005290DD00B480122816895
:1034E00061B1610950F8213004F01F04A240134378
:1034F00040F8213005E042F2020010BD2046FCF702
:103500004CF9002010BD0000C44C00200148FEF71B
:10351000A3BD0000F42100202DE9F0410C460A462D
:103520008046014601260E48FBF7DAFFE2B20C495D
:103530000C48FEF70BFD00B1002600255FF00A07DE
:1035400008EB050122460020FCF786F90544241A01
:1035500008B97F1E01D0002CF2D13046BDE8F081C1
:10356000F04C0020F421002018B10349C86000206D
:1035700070470E2070470000002200201CB5044652
:10358000114801900246009010A10420FFF772F844
:103590006946204660DF0446DDE9002082420AD009
:1035A00016490220FFF766F8FFF7F8FE0099421A65
:1035B00013A1022003E024B122461EA10120FFF73F
:1035C00059F820461CBD0000282100205344483AE9
:1035D00044454255473A73645F626C655F656E614E
:1035E000626C653A2052414D20737461727420619F
:1035F0007420307825780D0A000000004C4B020042
:103600005344483A5741524E494E473A52414D2051
:1036100073697A652073686F756C642062652061D8
:10362000646A757374656420746F2030782578201F
:103630000D0A00005344483A4552524F523A7364BF
:103640005F626C655F656E61626C653A206572727F
:103650006F7220307825780D0A00000070B50E4694
:10366000054614461C211046FBF753FF012020801D
:103670000021A16121752672657205B1A07200203A
:1036800070BDFCF7EBBD00002DE9F041074619B114
:1036900088074FF0000402D00720BDE8F081114DEB
:1036A0004FF0E0200126A9606A806B60D0F800012D
:1036B00010F0010F03D034460020FCF763F80A49EC
:1036C000384610DF070005D014B10020FCF765F87C
:1036D0003846E2E72E70FEF7A9F9BDE8F041162062
:1036E000FFF7DCBE0022002083360200014800788C
:1036F000704700000022002010B5144602004FF071
:1037000001000CD00846136806A24FF48071FCF744
:10371000CBFA01462046BDE81040FDF77FBD0021F1
:10372000216010BD5B253038645D000070B50C462B
:1037300005464FF48E71FFF7B2F8A18AA068415C8C
:10374000A08A401CA082C5F81C1570BD1FB50022C0
:103750008DF800208DF80810816801918275D0E9FC
:103760000012684690471FBD70B5017841B101292C
:1037700001D002291ED14068BDE87040FCF7E6BDCB
:103780000E4C0D4D20782844FCF7EAFE2078401CB2
:10379000C0B22918207011F8011C0A2901D0142880
:1037A00008D30549227801F56B70FDF7E5F900288B
:1037B000F7D1207070BD00001822002028210020C1
:1037C0007CB50178244D81B301290BD002292BD17E
:1037D0008DF80010C068691C01900122C81DFEF719
:1037E00099FA2EE0406801781C48FCF7D6FD1B4C86
:1037F000012618B18DF80060019006E0A068E1682C
:10380000814205D000208DF800006968684688472D
:10381000A068E168081AA188884207D80E490122E9
:10382000491CC81DFEF776FA7CBD01E0AE70FBE7CF
:103830000A4809491030FCF795FD30B103208DF896
:103840000000696868468847EEE70349012201F1F4
:103850000800FEF77BFBE7E7E0210020D04C0020CA
:103860000078012801D1014988707047F0210020BB
:103870002DE9FF470C4605464FF40071FFF715F898
:1038800001274FF40178002618B34FF49279494686
:103890002846FEF7FFFFE0B149462846FEF7FFFF46
:1038A000C5F80883A07E00B96F6002208DF8000083
:1038B000D5F88004C5F880040390E07D8DF80800F9
:1038C000E0680190E6752676D4E9001268469047D4
:1038D00027E004212846FEF7E8FF10B34FF4847177
:1038E0002846FEF7D7FFE0B121462846FFF77AFDCC
:1038F000E07D617E884214D1207E38B1617EE2682D
:10390000E0752069E0602676667607E0A07E00B963
:103910006F60C5F80883E675617EE2682046FFF7B0
:103920007AFD4FF48E7841462846FEF7B3FF88B102
:10393000A08AA17D884204D221462846FFF7F6FEE0
:1039400008E041462846FEF7AAFFA17D11B12046B6
:10395000FFF7FCFE4FF4A27841462846FEF79AFF97
:10396000002812D041462846FEF799FFA07E00B1FC
:103970002F60E07D002808D0E675617EE26804B023
:103980002046BDE8F047FFF746BDBDE8FF870020B1
:1039900000F0A6FAFBE72DE9FF410C464FF49277C1
:1039A00005463946FEF787FF0026C0B1394628464E
:1039B000FEF786FF02208DF80000D5F88004C5F8D8
:1039C00080040390D5F83C058DF80800E06801906C
:1039D000E6752676D4E900126846904724E04FF455
:1039E000887739462846FEF766FFE8B1394628460B
:1039F000FEF766FFD5F83C05C1B2E07D884213D1E1
:103A0000207E60B1E268D5F8000220F02000C5F801
:103A10000002207EE0752069E060267601E0E67510
:103A2000E2682046FFF7F7FC4FF4A27739462846B4
:103A3000FEF741FF68B139462846FEF741FFE07DB9
:103A400038B1E675D5F83C05E268C1B22046FFF70B
:103A5000E2FC4FF4907631462846FEF72CFF002812
:103A60000FD031462846FEF72BFFA07D002808D056
:103A7000D5F84C0504B0C1B22046BDE8F041FFF7CF
:103A800065BEBDE8FF81EFF31180202181F311882D
:103A90007047D0E9013201699A60D0E901235A6088
:103AA0004A68824201D182684A6000220261086845
:103AB000401E0860704700000148406900F0A0B94E
:103AC0002821002000F108014FF0FF32C0E9011267
:103AD000C1600161002101607047002101617047F0
:103AE00030B50B685A1C02D000F1080202E00269EE
:103AF00004E02246546825689D42FAD953684B6019
:103B000099608A60516008610168491C016030BD9C
:103B100042684A6093688B6093685960916008615D
:103B20000168491C01607047202080F31188024819
:103B30000168491C0160704764210020034908683E
:103B4000401E086001D180F3118870476421002075
:103B50007047000010B50020FDF734FF0948202110
:103B6000C0F808150121C0F80413816001600649FE
:103B7000E02081F800044FF0E0214FF40030C1F85C
:103B8000000110BD0010014011E000E02DE9F047F8
:103B900004463948844200D904460021EFF31080DE
:103BA00072B6DFF8D880D8F8082001234FF0E0255E
:103BB00082B9C8F80830D5F88061314B1E40C8F88A
:103BC0000060C5F88031D5F88431C8F804306A1730
:103BD000C5F8842100B962B68A462A4ED6F8047523
:103BE000FDF7C8FC90B33819012120F07F40C6F8DA
:103BF0000813C6F840054FF4A0713046FEF744FEA6
:103C00004FF48030C6F80403BFF34F8F34B120BFA8
:103C1000D5F80012D5F804221143F8D0B146C6F801
:103C200008033046D6F804654FF48071FEF72CFE89
:103C30000120C9F80403B74201D906F18076F01BD0
:103C4000A04200D9204608B100F042F9D8F8080097
:103C5000414600280DD0EFF3108072B60A68C5F80F
:103C600000214A68C5F80421C1F808A0002800D145
:103C700062B6BDE8F0870000FDFFFF00C44C0020E5
:103C8000FC06FFBC0010014010B5084B002200BF2D
:103C900053F832401CB1521C022AF9D310BD43F82C
:103CA000321003EBC201486010BD0000A0480020A4
:103CB00070B50D460446FFF737FF616C0020491CC4
:103CC00000D16064A16C491C00D1A064FFF736FFED
:103CD000A06B20B9294604F1240000F033F82046F7
:103CE000BDE87040FFF7D6BA01490120086270476D
:103CF0006821002070B5114C0D4621681831FFF77E
:103D0000EFFE2068001DFFF7C4FE38B9206890F868
:103D10002C1001208840616981436161681C05D0D5
:103D200020692844BDE87040FFF796B82168BDE8D7
:103D300070400348091DFFF7EBBE0000682100201A
:103D40003C49002070B50C4C0D4621681831FFF736
:103D5000DFFE2068001DFFF79CFE38B9206890F850
:103D60002C100120884061698143616120692844E9
:103D7000BDE87040FFF770B86821002070B50400FE
:103D800039D01D4DE06A2968C96A884233D2A069DA
:103D9000002804DB2868C06AC0F10300A061E16A62
:103DA000164E01EB8101606906EB810188421FD14B
:103DB000201DFFF76EFE012150B9E06A00EB800282
:103DC00056F8222022B96A6901FA00F082436A613A
:103DD0002868C06AE0626A6981401143696100EB4A
:103DE000800006EB8000211DBDE87040FFF790BE0B
:103DF0002868C06AE06270BD68210020B0480020D9
:103E000070B504002DD0174D2868844229D0FFF7E3
:103E10008BFE2046FFF71CFA01281ED1201DFFF75C
:103E200038FEE06A01216A698140114369610E49E7
:103E300000EB800001EB8000211DFFF769FEE06AC6
:103E40002968C96A884208D308494FF08050086041
:103E500040BFBFF34F8FBFF36F8FBDE87040FFF7D8
:103E60006DBE70BD68210020B048002004ED00E068
:103E700002494A6A0260096941607047682100206E
:103E80001FB500240E480294CDE9004023463C2291
:103E90000CA10E48039400F0C9FA01280FD100F0DC
:103EA000D1FC01280BD1202080F311880448012186
:103EB000083881610461BDE81F4000F08BB81FBD68
:103EC0007021002049444C4500000000E92F020009
:103ED00002490A6910440861704700006821002007
:103EE00070B50446FFF720FE224D04B92C68201D52
:103EF000FFF7CFFD58B9E06A1F4A00EB800152F886
:103F0000211021B901218140686988436861A06A54
:103F100018B104F11800FFF7BCFD1748211D8C30C3
:103F2000FFF7F6FDFFF70AFE28688442A86917D15B
:103F300048B112494FF08050086040BFBFF34F8F27
:103F4000BFF36F8F70BD0C48E9688C300068884201
:103F500002D10020286070BDBDE8704000F018B8A4
:103F60000028F8D0FFF7E0FDFFF71EF9BDE870402C
:103F7000FFF7E4BD68210020B048002004ED00E018
:103F80000248016B491C0163704700006821002052
:103F90000E48016B11B101210162704700210162DD
:103FA00041690B4AB1FA81F1C1F11F0101EB8101B5
:103FB00002EB810101F108034A6852684A609A42A3
:103FC00001D152684A60D1680160704768210020C1
:103FD000B04800200E49E02081F8140DFFF7BAFD2B
:103FE0000C49002008600C48016841F47001016030
:103FF0000A48016841F0404101600748783801688B
:1040000041F010010160FBF715FAFFF71DF9000000
:104010000EE000E06421002088ED00E034EF00E0D5
:1040200010B54C20FFF768F9040019D0002060603B
:104030002060A060E060A0630121C4E90F10401E71
:104040006064A06404F11000FFF73CFD04F124005B
:10405000FFF738FD00231A461946204600F0ECF819
:10406000204610BD70B50E0005464FF0000413D079
:1040700005FB06F0401C4C30FFF73EF950B10446FA
:1040800066B104F14C002060C4E90F5601212046BE
:1040900000F09AF8204670BD0020ECE72460F3E7BA
:1040A0002DE9FF470027474E82B099468A460446CD
:1040B000B8464FF0805500BFFFF736FDA06B68B3E0
:1040C00051462046E768FEF733FFB9F1000F13D0E1
:1040D000E760606A50B104F1240000F007FB28B1EA
:1040E000356040BFBFF34F8FBFF36F8FFFF726FDE3
:1040F000012006B0BDE8F087A06B401EA0632068D9
:1041000010B9FFF71FF9606020690028EED004F1B4
:10411000100000F0EBFA0128E2D0E7E7049808B1BC
:104120001FB106E0FFF70AFD1FE06846FFF7A0FE9B
:104130000127FFF703FDFFF723FFFFF7F5FC606C96
:10414000401C01D1C4F84480A06C401C01D1C4F8CB
:104150004880FFF7F3FC04A9684600F043F930B14A
:104160002046FFF797F800F0F7FA0020C1E7FFF7C5
:10417000DBFCA06B38B1FFF7E1FC2046FFF78AF8C3
:1041800000F0EAFA98E7FFF7D9FC206830B9FFF7AA
:10419000CBFC6068FFF7F2FDFFF7D0FC04F12400D0
:1041A0000499FFF7A7FD2046FFF774F800F0D4FA52
:1041B000002881D1356040BFBFF34F8FBFF36F8FB1
:1041C0007AE7000004ED00E070B50D460446FFF705
:1041D000ABFCD4E90F12206801FB020060600020F4
:1041E000A0632068A0600146E06B401E00FB021047
:1041F000E0604FF0FF306064A06404F110004DB146
:10420000FFF760FC04F12400FFF75CFCFFF796FC6D
:10421000012070BD21690029F8D000F067FA01285B
:10422000F4D104490007086040BFBFF34F8FBFF3CC
:104230006F8FEBE704ED00E02DE9FF4700273C4ED0
:1042400082B099468A460446B8464FF0805500BF72
:10425000FFF76AFCA06BE16B884206D3B9F1020F4D
:1042600003D00498E0B1F7B121E04A465146204618
:10427000FEF771FE616A31B104F1240000F036FAF4
:10428000012801D006E028B1356040BFBFF34F8F51
:10429000BFF36F8FFFF752FC012006B0BDE8F08737
:1042A000FFF74CFC1FE06846FFF7E2FD0127FFF730
:1042B00045FCFFF765FEFFF737FC606C401C01D141
:1042C000C4F84480A06C401C01D1C4F84880FFF7BA
:1042D00035FC04A9684600F085F830B12046FEF7A9
:1042E000D9FF00F039FA0020D7E7FFF71DFCA06BDB
:1042F000E16B884214D1FFF721FC04F1100004990E
:10430000FFF7F8FC2046FEF7C5FF00F025FA00286D
:104310009ED1356040BFBFF34F8FBFF36F8F97E7DC
:10432000FFF70CFC2046FEF7B5FF00F015FA8FE70B
:1043300004ED00E02DE9F0411F461646884604468C
:10434000FFF7A1FB0546A06BE16B884207D3022F64
:1043500005D00020E9B281F31188BDE8F0813A462A
:1043600041462046FEF7F7FDA06C401C04D0A06C2F
:10437000401CA0640120EDE7606A0028FAD004F137
:10438000240000F0B3F90028F4D0002EF2D0012070
:104390003060EFE770B50E460446FFF774FB054644
:1043A000A06BE16B884218D2A06B401CA063A06C8C
:1043B000401C04D0A06C401CA06401200EE0606A88
:1043C0000028FAD004F1240000F090F90028F4D07D
:1043D000002EF2D001203060EFE70020E9B281F337
:1043E000118870BD70B50D460446FFF79DFB0E4A5F
:1043F00011692868431C0FD02368526A934202D087
:1044000062688A420AD96268891A814206D2401AD1
:1044100028602046FFF72CFD002400E00124FFF770
:104420008DFB204670BD0000682100202DE9FF5F54
:104430008A46DDE90F9091000E9F9B4615468846FF
:1044400010B90846FEF758FF060018D04820FEF7BE
:1044500053FF0400304610D0A52241462063FBF7ED
:1044600051F86FF0030101EB8501206B3D460844D4
:1044700020F007085146002004E0FFF769FB4FF0E9
:10448000FF3486E022180B5C82F834300A5C12B1EB
:10449000401C0428F6D3002684F83760032D00D38F
:1044A0000225E562C4E90E56201DFFF716FB04F154
:1044B0001800FFF712FB2461C5F103016462A161DA
:1044C000266484F844605A4640460099FEF750FF3F
:1044D0002060B9F1000F01D0C9F80040FFF724FBBC
:1044E0002E4DE868401CE8602868DFF8B48010B101
:1044F000A86940B32CE02C60E868012828D1002688
:1045000006EB860108EB8100FFF7DCFA761C032E30
:10451000F6D323483C30FFF7D5FA21485030FFF757
:10452000D1FA1F486430FFF7CDFA1D487830FFF705
:10453000C9FA1B488C30FFF7C5FA19483C3068634C
:104540001430A86304E02868C06AB84200D82C6020
:10455000A86A0121401CA862E06A6A69814011438F
:10456000696100EB800108EB8100211DFFF7D0FAA3
:104570000124FFF7E3FAA86958B12868C06AB84275
:1045800007D208492007086040BFBFF34F8FBFF331
:104590006F8F04B02046BDE8F09F00006821002026
:1045A000B048002004ED00E00548816919B1006BB6
:1045B00018B10020704701207047022070470000AA
:1045C0006821002001480069704700006821002030
:1045D0000148006970470000682100202DE9F04182
:1045E000244C0027206B40B1E069401CE061206A48
:1045F00000B101273846BDE8F0812069401C2061E8
:10460000266946B9606BA16B6163A063606A401C58
:104610006062FEF7C9FDE06A8642E8D3606B00681D
:1046200038B1606BC068C5686868864204D2E062D1
:10463000DDE74FF0FF30FAE7281DFFF72AFAA86AF6
:1046400018B105F11800FFF724FAE96A0120626940
:1046500088401043606101EB8100074901EB800055
:10466000291DFFF755FAE86A2168C96A8842D5D33F
:104670000127D3E768210020B048002070B504006E
:104680004FF000012BD0E06B401EE063A36BE26AA9
:104690009A4224D018BB201DFFF7FBF9114B124A98
:1046A000012150B9E06A00EB800553F8255025B987
:1046B000556901FA00F085435561A06BE062C0F1D5
:1046C0000300A061E06A556981402943516100EB14
:1046D000800003EB8000211DFFF71AFA0121084634
:1046E00070BD0000B0480020682100202DE9F04195
:1046F000C068C46804F118000746FFF7CAF9144DF2
:10470000286B012660B11348394600BFFFF700FA55
:10471000E06A2968C96A884213D901242E6211E02F
:10472000201DFFF7B6F9E16A6A6906FA01F0104345
:10473000686101EB81000749643901EB8000211DAC
:10474000E4E70024FEF730FD2046BDE8F0810000DC
:1047500068210020144900202DE9F0470027FFF7C9
:10476000E3F9264C206B401E2063206B98BBE16868
:10477000234E012079B3A6F1640980463068E8B180
:10478000F068C56805F11800FFF783F9281DFFF7E9
:1047900080F9E96A626908FA01F01043606101EB8F
:1047A000810109EB8100291DFFF7B2F9E86A216850
:1047B000C96A8842E2D3C4F82080DFE7E06958B1D3
:1047C0004546E06940B1FFF709FF00B12562E069A5
:1047D000401EE061F5E70BE0206A012808D1094995
:1047E00001270007086040BFBFF34F8FBFF36F8FF3
:1047F000FFF7A4F93846BDE8F087000068210020E3
:104800001449002004ED00E02DE9F0471E46DDF8D4
:10481000209017460D00804612D02820FEF76CFD30
:1048200004000AD0FEF732FBC4F80080C4E9065742
:10483000C4E90869201DFFF750F92046BDE8F0875C
:104840000024FAE71FB50024FEF720FB0A480068A1
:1048500070B10949022200200092091DCDE9011022
:1048600003460390502205A10648FFF7DFFD0446EA
:1048700004B0204610BD0000A4210020546D722019
:1048800053766300713202002DE9FF41114C1F463F
:104890000346266800200A9D002E0ED08DE80E00EB
:1048A00006290FDAFFF780FE02284FF0000307D039
:1048B000002269462068FFF7BFFC04B0BDE8F08124
:1048C0002A46F6E700233A4669463046FFF732FDAE
:1048D000F3E70000A421002010B50446FFF724F9F7
:1048E000606908B1012400E00024FFF727F92046A1
:1048F00010BD0000010002000100000710003C0094
:10490000000090010100A00050000000060000001F
:104910000800000005000000070000000000000083
:1049200000502700111213140D0E0F103428002010
:1049300054280020802800200D000300C90E02002A
:104940000E000300C90E02000F000300C90E020092
:1049500010000300C90E0200000000019ECADC2402
:104960000EE5A9E093F3A3B50000406E010100003D
:104970000000020000000000020100000000000032
:104980000000000000000050A44C002003000000C4
:10499000FFFFFFFFFFFFFFFFFFFFFFFFFFFFFFFF27
:1049A0000000000000000000005027000701000088
:1049B000FFFFFFFFFFFFFFFFFFFFFFFFFFFFFFFF07
:1049C0000000000000000000005027000701000068
:1049D00029000000010000000100000001000000AB
:1049E00001000000010000000100000001000000C3
:1049F00002000000004040404040404040404141F3
:104A000041414140404040404040404040404040A3
:104A1000404040404005020202020202020202023D
:104A2000020202020220202020202020202020023A
:104A300002020202020290909090909010101010CA
:104A40001010101010101010101010101010101066
:104A500002020202020288888888888808080808FA
:104A600008080808080808080808080808080808C6
:104A70000202020240000000F5490200424C455F7C
:104A800044425F444953433A494E464F3A4469735E
:104A9000636F76657279206F6620736572766963DD
:104AA0006520776974682055554944203078257809
:104AB00020636F6D706C657465642077697468201D
:104AC0007375636365737320666F7220436F6E6ED8
:104AD000656374696F6E2068616E646C652025641F
:104AE0000D0A0000424C455F44425F444953433A3B
:104AF000494E464F3A5374617274696E6720646917
:104B000073636F76657279206F662073657276695C
:104B100063652077697468205555494420307825AD
:104B20007820666F7220436F6E6E656374696F6E76
:104B30002068616E646C652025640D0A0000000029
:104B40004F766572666C6F770D0A00005344483AE1
:104B50005741524E494E473A73645F626C655F65D8
:104B60006E61626C653A2052414D207374617274BB
:104B70002073686F756C642062652061646A757368
:104B800074656420746F20307825780D0A00000069
:104B9000B04B020028210020F0000000D0FC0100F2
:104BA000A04C020018220020783A0000E0FC01002E
:104BB00000000000000000000000000000000000F5
:104BC00000000000000000000000000000000000E5
:104BD00000000000000000000000000000000000D5
:104BE00000000000000000000000000000000000C5
:104BF00000000000000000000000000000000000B5
:104C000000000000000000000000000000000000A4
:104C1000000000000000000000000000FFFFFFFF98
:104C20000000000000000000000000000000000084
:104C30000000000000000000000000000000000074
:104C40000000000000000000000000000000000064
:104C50000000000000000000000000000000000054
:104C60000000000000000000000000000000000044
:104C70000020004000000000000000000020004074
:104C800000000000404B0200000000000000000097
:104C90000000000000000000000000000090D003B1
:040000050001F40101
:00000001FF
