:020000040001F9
:10F00000488E0020B5F40100BDF40100BFF40100FA
:10F01000C1F40100C3F40100C5F4010000000000C8
:10F0200000000000000000000000000015F40100D6
:10F03000C9F401000000000059F40100CDF4010002
:10F04000B1F70100CFF4010075FB0100CFF401001E
:10F05000CFF40100CFF4010011F60100CFF401005C
:10F06000CFF40100CFF40100CFF40100CFF4010090
:10F07000CFF40100CFF40100CFF40100CFF4010080
:10F08000CFF4010009F80100CFF40100CFF4010032
:10F09000CFF40100CFF40100B5F80100CFF4010076
:10F0A000CFF40100CFF40100CFF40100CFF4010050
:10F0B000CFF40100CFF401000000000000000000C8
:10F0C000CFF40100CFF40100CFF40100CFF4010030
:10F0D000CFF40100CFF40100CFF4010000000000E4
:10F0E0000000000000000000000000000000000020
:10F0F0000000000000000000000000000000000010
:10F1000000000000000000000000000000000000FF
:10F1100000000000000000000000000000000000EF
:10F40000DFF80CD000F0D2F800480047F1180200F5
:10F41000488E0020264B19680868B0E8F04F80F34A
:10F420000988BFF36F8F4FF0000080F31188704799
:10F43000000000000748006880F3088862B661B6E3
:10F44000BFF34F8FBFF36F8F4FF4F07080F31188CD
:10F4500000DF000000F00100EFF30980BFF36F8FC1
:10F46000134B1A681EF0100F08BF20ED108A20E918
:10F47000F04F106008B44FF0200080F31188BFF304
:10F480004F8FBFF36F8F04F09FFF4FF0000080F3AA
:10F49000118808BC19680868B0E8F04F1EF0100F1A
:10F4A00008BFB0EC108A80F30988BFF36F8F7047F4
:10F4B000782100200648804706480047FEE7FEE71F
:10F4C000FEE7FEE7FEE7FEE7FEE7FEE7FEE7FEE714
:10F4D000D9F8010001F4010000487047B84E02005D
:10F4E00040EA01039B0703D009E008C9121F08C0C6
:10F4F000042AFAD203E011F8013B00F8013B521E46
:10F50000F9D27047D2B201E000F8012B491EFBD2BC
:10F5100070470022F6E710B513460A46044619461E
:10F52000FFF7F0FF204610BD421C10F8011B002918
:10F53000FBD1801A7047034611F8012B00F8012B0C
:10F54000002AF9D1184670472DE9F05F05460020E2
:10F5500092469B4688460646814640241BE0284644
:10F5600041464746224600F042F853465A46C01AE2
:10F57000914110D311461846224600F029F82D1A61
:10F5800067EB01084F4622460120002100F020F8D9
:10F5900017EB00094E41201EA4F10104DFDC4846B0
:10F5A00031462A464346BDE8F09F0000064C074D11
:10F5B00006E0E06840F0010394E807009847103443
:10F5C000AC42F6D3FFF720FFAC500200CC50020053
:10F5D000202A04DB203A00FA02F100207047914013
:10F5E000C2F1200320FA03F3194390407047202A08
:10F5F00004DB203A21FA02F00021704721FA02F3DD
:10F60000D040C2F1200291400843194670470000E3
:10F610002DE9F04700268CB0DFF86091B0464FF43A
:10F620008075012437460696284602F037FE38B129
:10F63000D9F80403204203D0284602F025FE2643D1
:10F640002D1D64007F1CADB2082FEDD34FF4BE74A6
:10F65000204602F023FE48B1204602F015FE46F097
:10F66000004606AA0121002002F0FAFD444D16F0E2
:10F67000FF0F15D00127002437420DD009EB84017C
:10F68000D1F81005D1F81015C0F3042055F8242046
:10F69000C1F3014102B190477F00641C082CEBD3F9
:10F6A000002E67DA4FF0FF30CDE90880002634469F
:10F6B000281910F8507F90F9000027F0C008401C6E
:10F6C00044D009A9404602F08FF958B34FEA971980
:10F6D000404601F04FFE55F820701FB1B9F1030FFD
:10F6E00003D00FE0B9F1030F30D108A84FEAD802D8
:10F6F00008F00703815C4FF0010C0CFA03FC41EAAF
:10F700000C0181544FF0A04101EB8800D0F80007B4
:10F7100006A9C0F3014A404602F066F918B1BAF1F1
:10F72000020F03D012E0BAF1030F0FD1B9F1030FAA
:10F7300008D1BAF1020F1BD00221404602F073FD3E
:10F74000761CF6B217B149464046B847641C042CF3
:10F75000AED3002E0ED06A460121002002F080FDBB
:10F7600006990098884205D00690089809909DE770
:10F770000321E2E70CB0BDE8F08700000060004024
:10F78000E47D002000F01F0201219140400980002B
:10F7900000F1E020C0F88011704700F01F02012145
:10F7A00091404009800000F1E020C0F8001170474E
:10F7B0002DE9F0414FF48077384602F01DF901241D
:10F7C000104EA50748B1384602F01DF90120C5F8D2
:10F7D00008037470002001F0F7FD4FF4827738467B
:10F7E00002F00AF900280BD0384602F00CF902208A
:10F7F000C5F80803B470BDE8F041012001F0E4BD94
:10F80000BDE8F081D07D002010B50C4C4FF4807124
:10F81000204603F049F84FF4A071204603F044F865
:10F82000202080F3118805F0F5F818B10449200470
:10F83000086040BF002080F3118810BD0010014017
:10F8400004ED00E003480078002801D100F0A0B9E1
:10F8500070470000D085002070B50E46144900EBBB
:10F86000400001EBC0051446E86A183520B10128B4
:10F870000FD0022805D113E0284600F0BDF9A042C0
:10F8800001D2002411E022463146284600F0ECF96E
:10F890000BE0284600F0B0F9A042F4D20446F2E7AB
:10F8A0003146284600F0B3F90446204670BD0000FA
:10F8B000D0850020074810B5406830B18047002847
:10F8C00007D0BDE8104000F001BDBDE8104001F0D8
:10F8D000E3BE10BD10220020F0B598480023021DA1
:10F8E00001780125101D4FF08056062907D11478A4
:10F8F000240704D10478C4F30314032C02D006298E
:10F9000004D00FE08F4F8E4C7C670EE014782407F4
:10F9100008D10478C4F30314032C06D0042C04D0BB
:10F92000052C02D0062907D00EE0D6F84442864FB7
:10F93000C4F342343C6002E01478240704D1047814
:10F94000C4F30314032C02D0062906D011E07F4C27
:10F95000276827F0807727600EE01478240708D105
:10F960000478C4F30314032C06D0042C04D0052C13
:10F9700002D006290AD011E04FF08044C4F80C31BF
:10F98000C4F81031704C241F236002E0147824075F
:10F9900004D10478C4F30314032C02D0062905D043
:10F9A0000CE0694F032464373C600AE014782407B4
:10F9B00004D10478C4F30314032C02D006290DD01B
:10F9C00014E0634F05243C60614C78342560604C42
:10F9D000083423603F243F1D3C6002E01478240774
:10F9E00004D10478C4F30314052C02D0062957D09F
:10F9F00068E058490968584A11605649091D096864
:10FA0000121D1160534908310968121D11605149D6
:10FA10000C310968121D11604E4910310968121D20
:10FA200011604C4914310968121D1160494918319F
:10FA30000968494A2032116046491C310968121D83
:10FA40001160444920310968121D11604149243177
:10FA50000968121D11603F4928310968121D1160A3
:10FA60003C492C310968121D11603A49303109684E
:10FA7000394A40321160374934310968121D11602A
:10FA8000344938310968121D116032493C31096826
:10FA9000121D11602F4940310968121D116002E0EA
:10FAA000117809070ED10078C0F30310032803D0A2
:10FAB000042801D0052805D1D6F85802274900F0BE
:10FAC0004F00086021487438016841F470010160FA
:10FAD000BFF34F8FBFF36F8F4FF01021D1F80002AB
:10FAE000002803DBD1F80402002822DA1C4A156042
:10FAF0001C480468002CFCD01524C1F8004205689D
:10FB0000002DFCD0C1F8044201680029FCD013602C
:10FB100001680029FCD0BFF34F8F0C48F038016812
:10FB2000114A01F4E06111430160BFF34F8F00BF40
:10FB3000FDE70F490D480860F0BD0000E00F00F040
:10FB40000DF0ADBA00C007403C050040FCED00E000
:10FB5000105600400404001020C50040E40E004090
:10FB600004E5014000E401400400FA050090D003E0
:10FB7000242200200448017F04480029024901D0C2
:10FB800004F0EBB804F056B83C7E002000200040A2
:10FB900010B5124C02202061606111A0A061A4F593
:10FBA0000470E0614FF4007020620020A062606287
:10FBB0000BA1A164E062A4F11001E16410212165B0
:10FBC000A0656065E06509A1E01DFFF7B4FC08A130
:10FBD0002046FFF7B0FC2020A07110BDD08500208A
:10FBE0005465726D696E616C0000000052545400DF
:10FBF00053454747455200000269C1688A4203D80D
:10FC00008068401A104400E0501A401E70472DE9E9
:10FC1000F047C4681746894606464FF00008306929
:10FC2000A04201D9051B02E0B168201A0D1AB06884
:10FC30006D1E001BA84200D80546BD4200D33D46BC
:10FC400070682A4620444946FFF74AFCB0687F1B8B
:10FC50002C44A844A944A04200D10024F460002F01
:10FC6000DDD14046BDE8F0872DE9F041C668044685
:10FC7000174688468068851B6068BD4206D93044B7
:10FC8000FFF72EFCF019E060BDE8F0812A46304411
:10FC9000FFF726FC7E1B08EB050132466068FFF784
:10FCA0001FFCE660F0E700000FB41CB50A46521EC8
:10FCB000CDE9000207A9054B6A46069800F02AF82C
:10FCC000009A002111701CBC5DF814FB7701020042
:10FCD00002E008C8121F08C1002AFAD17047704715
:10FCE000002001E001C1121F002AFBD17047000073
:10FCF0000121202803DA81400548014003E0402823
:10FD000002DA2038814009B1012070470020704795
:10FD1000FC06FFBC2DE9FF4F8DB00F4605460026BF
:10FD200006E025280BD0DDE90F1290476D1C761CEC
:10FD300028780028F5D111B03046BDE8F08F0024B6
:10FD4000A246A1460122EC4900E0044315F8013F18
:10FD5000203B02FA03F00842F7D128782A2810D075
:10FD60006FF02F022878A0F13001092914D80AEB8E
:10FD70008A0102EB410144F0020400EB010A6D1C10
:10FD8000F0E701CF5FEA000A03D544F40054CAF15A
:10FD9000000A44F002046D1C28782E2817D115F8AB
:10FDA000010F44F004042A280ED06FF02F022878A7
:10FDB000A0F1300109290AD809EB890102EB4101C0
:10FDC00000EB01096D1CF2E757F8049B6D1C2878C5
:10FDD0006C280FD006DC4C2817D068280DD06A2874
:10FDE00014D104E0742810D07A280FD10DE044F427
:10FDF00000140AE044F4801401E044F440146978EB
:10FE0000814202D104F580146D1C6D1C2A786E2A83
:10FE10001FD00CDC632A31D004DC002A8BD0582A96
:10FE200011D1A3E0642A68D0692A0CD165E0732A55
:10FE30002ED004DC6F2A73D0702A04D19BE0752A7F
:10FE40006FD0782A6ED01046DDE90F129047761CED
:10FE500050E1C4F30250022806D0032809D0042838
:10FE600001CF09D0066045E101CFF117C0E900617B
:10FE700040E101CF06803DE106703BE117F8040B3D
:10FE80008DF8000000208DF80100EB46012003E012
:10FE900057F804BB4FF0FF3061074FF0000102D468
:10FEA0000DE008F10101884649450FDA8045F8DB8D
:10FEB0001BF808100029F4D108E008F10101884678
:10FEC0008142FADB1BF808100029F6D1DDE90F2387
:10FED000AAEB08008146214600F036F9304400EBD9
:10FEE000080604E0DDE90F121BF8010B9047B8F19A
:10FEF0000108F7D221464846F7E00A21C4F302532D
:10FF00004FF0000B0891022B04D001CFC117032B37
:10FF100009D00AE0FF1D27F00707F7E8020108E013
:10FF200032E01FE020E000B2C117042B01D140B243
:10FF3000C117031E71F1000307DA4FF0000CD0EB7C
:10FF40000C006CEB01012D2302E0230504D52B23CB
:10FF50008DF82430012303E0E30701D02023F7E7E5
:10FF6000984658E00A2110E010210EE010204FF0D2
:10FF7000000B08900CE010214FF0000B44F004043B
:10FF80004FF00809089103E008214FF0000B089199
:10FF9000C4F30253022B04D001CF0021032B06D05F
:10FFA00006E0FF1D27F00707F7E8020103E080B233
:10FFB000042B00D1C0B24FF0000823072BD5702AC4
:10FFC00007D0DDF820C08CF0100C5CEA0B0C05D0DB
:10FFD0000EE040238DF82430012308E050EA0103AD
:10FFE00006D030238DF824308DF825200223984642
:10FFF000DDF820C08CF0080C5CEA0B0C0BD150EA49
:020000040002F8
:10000000010301D1630706D530238DF824304FF06A
:100010000108A9F10109582A04D038A20B9208AAB4
:100020000A920BE03AA2F9E75B46089AFFF78CFACE
:100030000B9B9B5C0A9A521E0A92137050EA0102B3
:10004000F2D10A98ADEB000000F1200B600702D559
:1000500024F4803401E04FF00109D94502DDA9EB19
:100060000B0000E0002000EB0B0141440890AAEBDC
:10007000010AE00306D4DDE90F232146504600F0D3
:1000800063F806444FF0000908E009A911F80900D7
:10009000DDE90F12904709F10109761CC145F4DB37
:1000A000E0030CD5DDE90F232146504600F04CF863
:1000B000064404E0DDE90F1230209047761C0899D1
:1000C000481E08900029F5DC08E00A980A99007893
:1000D000491C0A91DDE90F129047761CBBF1000123
:1000E000ABF1010BF1DC21465046DDE90F2300F0B6
:1000F00019F806446D1C1BE6092801003031323323
:100100003435363738396162636465660000000053
:10011000303132333435363738394142434445463D
:10012000000000002DE9F041044600251E46174658
:10013000880404D405E039462020B0476D1C641EB5
:10014000F9D52846BDE8F0812DE9F04104460025A7
:100150001E469046C80301D5302700E020278804BA
:1001600004D505E041463846B0476D1C641EF9D5FC
:100170002846BDE8F0814A68002A06D00A68531C68
:100180000B6010704868401E486070470348007854
:10019000012802D1002003F02FBB70474821002026
:1001A00010B501220221002000F02AFF08B1072823
:1001B00010D107220221012000F022FF08B10728F8
:1001C00008D100210A22084600F01AFF08B10728CA
:1001D00000D1002010BD022000F0C4BD70B5002485
:1001E000064D06E06868012110F8340001F0B4FC07
:1001F000641C28788442F5D3002070BDD8210020EB
:10020000F8B515460C460646052A01D20720F8BD6A
:1002100001F088FD18B901F057FD0028F7D1104909
:1002200000204E600C70C1E902500E4D08610DE0D7
:1002300006EBC4006968009181788DF801100078A0
:10024000094A694601F0DAFC0028E0D1641EE4B2F4
:10025000EED2BDE8F840054A0021024800F076B829
:10026000D8210020C84D020041160200B11402003E
:100270000EA1012002F026FA02F07EF902F080F9C8
:100280000028FBD10F480068C00700D000BEBFF3B4
:100290004F8F0C48E43801680B4A01F4E0611143C8
:1002A0000160BFF34F8F00BFFDE700004150505F7A
:1002B0004552524F523A4552524F523A466174613A
:1002C0006C0D0A00F0ED00E00400FA050EB5002107
:1002D0000091CDE901106A4644F20100FFF7C8FF22
:1002E0000EBD10B58268C368934203D001F094F943
:1002F000002010BD052010BD29B112B1531E1342BC
:1003000003D0092070470E207047016083800021D0
:100310008160C1600846704710B58268C3689A1A48
:1003200083889A4203D801F081F9002010BD04208F
:1003300010BD10B503F01EF9017B002905D001683E
:100340008268BDE810400846104710BD38B5046803
:1003500000251AB110B1207B20B901E0072038BD7B
:10036000606808B1082038BD00202060A060E0600F
:1003700069B10120A26008490246009123464FF46A
:100380007A7106A004F05CFC606010B102E000200D
:10039000F0E70E25284638BD330302002000000098
:1003A0000249401C0860002070470000EC2100203A
:1003B0002DE9FC41044646682C48154600682C4A45
:1003C00012685143401C01EB5001B1FBF0F756B1EC
:1003D000207B002809D0304604F09AFC002804D085
:1003E0000020BDE8FC810820FBE7EFF305802560D5
:1003F00008B30025019501AB3A4609213046009526
:1004000004F05EFC01282BD104F0FEFA024601AB99
:1004100006213046009504F053FC012820D10198B4
:1004200000B314494FF08050086040BFBFF34F8FB6
:10043000BFF36F8F16E0022500233A4604213046B1
:10044000009504F03DFC01280AD104F0D7FA0246D9
:10045000002301213046009504F032FC012801D030
:100460000420BEE701202073BAE700000815014010
:10047000EC21002004ED00E07CB541680024054635
:1004800000290CD0EFF30581B9B1019401AB002232
:100490000821009404F014FC012817D101E0082081
:1004A0007CBD0198A0B10C494FF08050086040BF5E
:1004B000BFF34F8FBFF36F8F0AE00221002300913B
:1004C0001A46032104F0FCFB012801D004207CBD66
:1004D0002C7300207CBD000004ED00E0F0B5284E38
:1004E00089B01F460D00044672603BD0A888296879
:1004F00082B22448FFF700FF002834D1A889A968F8
:1005000082B220481030FFF7F7FE00282BD12022BE
:100510001D496846FEF7E4FF60690690207C00B143
:1005200001208DF814008DF81C70607C00B10E2045
:100530008DF81500E0680290A06803902068019093
:10054000606800900E48114A6946083001F0FCFBD3
:10055000002808D1B0702068401C04D09DF81D0010
:1005600018B106E0072009B0F0BD0548083001F0D9
:1005700077FC03490122491CC81D01F019FCF2E770
:10058000F0210020887E0020D04D0200853B020033
:1005900030B5EFF3108172B60D4A9468012324B18F
:1005A0000370002900D162B630BD93604FF0E023A4
:1005B000D3F88051074C25401560C3F88041D3F82B
:1005C000844154605A17C3F8842100220270E8E77E
:1005D0007C7E0020FC06FFBC0B498A68002A11D0F3
:1005E00000280FD1EFF3108072B60B684FF0E022B5
:1005F000C2F800314B68C2F8043100228A6000283A
:1006000000D162B6704700007C7E00202DE9F041E9
:10061000064608680C46411C4FF0A0474FF0010504
:1006200006D005FA00F1C7F80815206801F0E0FDD2
:100630006068411C02D0002101F0D1FD30792049D1
:1006400001EB4010A169007F00283068C0F8241534
:1006500025D0607D227D31681043C1F86C05D4E956
:1006600000123068C0F80C15C0F8142524E0A0680A
:10067000411C02D0002101F0B2FDE068411C05D010
:100680008540C7F80855E06801F0B2FDD4E90212D0
:100690003068C0F80825C0F81015BDE8F081607D0D
:1006A000217D32680843C2F86C05D4E90012306835
:1006B000C0F81425C0F80C15207D0128D7D0ECE730
:1006C0003C7E00200249887D497D084003F032B815
:1006D000FC7A002070B540B10C4D297839B1044640
:1006E00002F070FF28B1002070BD0E2070BD082000
:1006F00070BDE868062807D20549226801EB800131
:10070000401C0A60E860EEE7042070BDC8210020AC
:10071000307B002040B1054900220123CA600B70E4
:10072000C1E90102104670470E207047C821002021
:1007300000281FD000291DD00F4A1278002A19D096
:100740000A88112A0ED0302A06D0322A07D0332A3E
:1007500010D1091D02F048BA091D02F0C5BA091DE1
:1007600002F0B0B98988B0F85E22914202D100212E
:1007700080F85B1270470000C821002070B50D465C
:10078000040009D01549087840B1C86830B194F820
:100790005B0228B1112070BD0E2070BD082070BD15
:1007A000A4F85E520020886084F85C0284F85A0243
:1007B00084F859020A482B460A49006820602288BA
:1007C000032001F0D1FF22460121284694DF0028B2
:1007D000E5D1012084F85B02002070BDC821002013
:1007E000307B00200050020070B50546848802F07E
:1007F0007DF8284600F03EFB082C12D204EB4400A2
:10080000084900EB041001EB40102946FFF790FF68
:1008100004482946803800EB0410BDE8704000F021
:100820000BB970BD8026002008B500200090094853
:100830006946806803F0CAFF009840B106494FF04E
:100840008050086040BFBFF34F8FBFF36F8F002011
:1008500008BD00002821002004ED00E070B5054629
:1008600008780C4601280AD002281DD003285DD143
:100870002FA101F027FFBDE8704002F0F5BE6188AE
:1008800004F10A02284600F0A3F808B1FFF71EFDA4
:10089000284600F041F908B1FFF718FDBDE87040A7
:1008A0002BA1032001F00EBF0A2000F0CBFB08B102
:1008B000FFF70CFD60680178422905D0622903D05A
:1008C000432901D063292DD12F4D304AE878C0EB60
:1008D000C003D15499184870626892788A7062682F
:1008E000D278CA70626852794A71626892798A7164
:1008F0006168897811B1012907D013E002F02AFF5D
:1009000023A1032001F0DEFE0CE028A1032001F06A
:10091000D9FE2E484068FFF7AFFD1B490020EA785A
:1009200020318854BDE8704002F0EABA70BD000082
:1009300042616368656C6F723A494E464F3A44694A
:1009400073636F6E6E65637465640D0A000000006A
:1009500042616368656C6F723A494E464F3A09547A
:1009600068652064657669636520686173207468D2
:1009700065204E6F7264696320554152542053655F
:1009800072766963650D0A002821002080390020F5
:1009900042616368656C6F723A494E464F3A5365DF
:1009A0006E642061636B0D0A0000000042616368A1
:1009B000656C6F723A494E464F3A61636B207265BF
:1009C000636965766564200D0A0000002C4D020005
:1009D00048B141802AB15188C180118881809188B5
:1009E0000181002070470E207047000030B5114B88
:1009F0000D4604000FCB85B08DE80F0018D0BDB1B7
:100A00002146684663DF002810D120788DF8120057
:100A10000120ADF810004FF6FF7060802868E0609C
:100A20000020A080208104A8FFF754FE05B030BD4F
:100A30000E20FBE79C4D02001FB500282ED0002998
:100A40002CD042884FF6FF739A4202D08C88A24283
:100A500024D10C88112C14D0392C1FD18288002A63
:100A60001CD04B89934219D1C268002A16D00222A9
:100A70008DF8002001F110020192897B8DF8081099
:100A800009E08988914209D1C168002906D0032173
:100A90008DF800104380C268694690471FBD7FB53E
:100AA000002200920192029203920B7801F10E0251
:100AB000002B2FD18B88012B2CD18B790478A3426A
:100AC00028D1002317E003EBC30432F81450022DA1
:100AD00002D0032D0ED105E002EB44042489ADF8C9
:100AE0000E4007E002EB44042589ADF80A50648902
:100AF000ADF80C405B1C0C7A9C42E4D8C268002A1A
:100B000008D04988ADF8021001218DF80010C268A4
:100B1000694690477FBD00001FB5010019D0488885
:100B2000A0F57F42FF3A16D0C988A1B101228DF805
:100B30000C200A4B00228DF80D20D3E90423CDE9C7
:100B40000023ADF8021003A9029169469CDF04B0AE
:100B500010BD0E20FBE70820F9E700009C4D0200C5
:100B60003EB518B1142A03D907203EBD0E203EBD64
:100B70004388A3F57F44FF3C0DD0084D38CD8DE868
:100B8000380003890291ADF80230ADF806204088A4
:100B900069469CDF3EBD08203EBD0000B84D020006
:100BA00010B5164888B0164BC068079050221549FA
:100BB00007A802F069FF08B1FFF788FB6A46002129
:100BC000082002F04BFF044601F0DAFC0028FBD1BC
:100BD000200001D0FFF77AFB1720ADF8100068461F
:100BE00002F0CCFE08B1FFF771FB074802F0BCFE33
:100BF000002801D0FFF76AFB08B010BD2C4D0200A1
:100C00002908020068220020E907020000238AB0B8
:100C10003E4A03211846FFF7C3FB08B1FFF756FB16
:100C20003B4A01213B48FFF791FB08B1FFF74EFB20
:100C30003848394A0021001DFFF788FB08B1FFF74B
:100C400045FB344800224FF400410068FFF7B0FB39
:100C50003049182220316846FEF742FC2F480690A2
:100C60004FF4007007902E4808904FF48070099060
:100C700007232C4A06A96846FFF730FC08B1FFF7A6
:100C800025FB002001F0FEFD08B1FFF71FFB264AFF
:100C900040F6CD41012000F0E1F908B1FFF716FB65
:100CA0006946002000F0CAF808B1FFF70FFB1F48A3
:100CB000FFF730FD08B1FFF709FBFFF771FF1D4C8F
:100CC0001B480025114E0090257148362079694651
:100CD00006EB0010FFF78AFE08B1FFF7F7FA20795C
:100CE000401CC0B220710828F0D3257102F0BCFC72
:100CF0004FF0FF3500232A461946A06803F0ECFBAD
:100D00000028F7D000F0C8FCF4E70000B825002068
:100D1000F93A02002C4D02008D010200B822002099
:100D2000B82400206D3B02009D0F0200F113020069
:100D30005D080200282100200149085C704700007E
:100D4000684D02000649095C4FF0A040D0F810053C
:100D5000C84010F0010000D0012080F00100704771
:100D6000684D020007490B5C4FF0A041D1F8042503
:100D70000120984020EA0203C1F808351040C1F86C
:100D80000C057047644D02000249085C012101F026
:100D90005BBA0000644D02000249085C002101F0CA
:100DA00053BA0000644D02000649095C4FF0A040B0
:100DB000D0F80405C84010F0010000D0012080F0F8
:100DC00001007047644D02007CB50024084E2546A2
:100DD0000122305D009500231146019501F0C0F914
:100DE000641C042CF4D3BDE87C4000F003B8000080
:100DF000644D020010B500242046FFF7C5FF641CB7
:100E0000042CF9D310BD10B500242046FFF7C4FF11
:100E1000641C042CF9D310BD10B50246064B4FF0EC
:100E2000FF3000215C5C944201D1084610BD491C92
:100E30000429F7D310BD0000684D020070B50C4EB8
:100E40000C004FF0000530600BD0012000F0A4F83A
:100E500008B1022004E0002000F09EF800B10B2051
:100E60002070706810B9FFF79BF90546284670BDE1
:100E70006421002010B51A4C0188606810290ED03A
:100E800011292BD1401E606028D1FFF789F9002875
:100E900024D02168002921D0BDE810400847D0B9EE
:100EA00000210122084600F0ABF808B107280FD155
:100EB00007220221012000F0A3F808B1072807D17A
:100EC00004220221002000F09BF820B1072802D064
:100ED000216801B188476068401C606010BD000057
:100EE0006421002010B5002000F0BEF908B10628EA
:100EF00006D1012000F0B8F908B1062800D1002081
:100F000010BD00002DE9F0470D468146FFF784FF34
:100F10000446042838D2DFF878801C481D4EA8F11A
:100F2000100735B3012D0ED0022D2DD104EB440056
:100F300030444578002D27D0F968002924D0284670
:100F4000BDE8F047084704EB4401755C0E44717836
:100F500059B179680E4A01EB810149000E3A806867
:100F6000FFF726FA08B987F80290B17808F804105C
:100F7000E0E78068FFF780FA04EB4401314418F899
:100F800004008D78A842D5D0BDE8F0876C4D0200F2
:100F900060210020F8390020FFF7D4BE10B50446C8
:100FA0000DA1032001F08EFB042C13D00A2C11D1CB
:100FB000002000F047F808B1FFF788F9FFF792FF2B
:100FC00008B1FFF783F932DF002803D0BDE81040F5
:100FD000FFF77CB910BD000042616368656C6F72F9
:100FE0003A494E464F3A6270735F6576656E745F3C
:100FF00068616E646C6572200D0A0A0A00000000C8
:1010000070B50023042810D20D4D00EB4004012AD6
:1010100002D101290CD00022094E00EB40003044DF
:1010200061B1012906D0022906D00723184670BDF8
:101030000E30C2B22A55F9E74270F7E78270F5E741
:10104000F8390020044A01460020127AD20702D063
:10105000084600F04FB87047502100202DE9F041BC
:1010600006461F4800240F464160C0E90262B007EF
:101070001FD50025012211462846FFF7C1FF6D1C30
:101080000446042D02D2002CF4D012E08CB97A0868
:1010900004211448FFF7B4F804000AD1FFF79EF8C2
:1010A000040006D10F48104A0021001FFFF74EF937
:1010B0000446F00701D0FFF787FE74B909480B4AD0
:1010C00000210C38FFF742F9040006D10548084A10
:1010D00001210838FFF73AF904462046BDE8F081BF
:1010E00050210020784D020009130200CD180200A3
:1010F000D70102002DE9F047594C054600266078DB
:1011000018B100206070FFF775FE0120554F4FF4B5
:101110007A694FF4C87A4FF06408182D2CD2DFE8B2
:1011200005F0890C0C2C3A4751565A615A619B695B
:1011300069696969898C8F929B9B0020FFF734FE57
:1011400000284FF0000008D0FFF71EFE022D02D14C
:101150004FF4E16006E0484604E0FFF71DFE022D73
:101160002ED05046B0FBF8F1257060684143002254
:101170003868FFF71DF9064659E00020FFF714FE16
:1011800028B10020FFF700FE4FF44870EAE7002086
:10119000FFF702FE14E00020FFF706FE00284FF0E4
:1011A000000002D0FFF7F0FDD5E7FFF7F5FDD8E727
:1011B0000020FFF7F9FD0028E9D00020FFF7E4FD4B
:1011C000C820CFE70020FFF7CDFD257007E0002005
:1011D0003FE025702BE060700120FFF7C3FD002287
:1011E0006168C5E760700120FFF7BCFD606800EB37
:1011F0008001BCE77868FFF73FF90646D5F111009A
:1012000000D01EB10220FFF7BFFD10E001280BD96E
:10121000C82110FB01F1B1FBF8F1606800224143E5
:101220007868FFF7C5F806460220FFF7B5FD30469F
:10123000BDE8F087FFF7DEFDCBE7FFF7DBFDC6E794
:10124000FFF7D8FD04E0FFF7D5FD0020FFF7A4FD70
:101250000120FFF7A1FDBCE7FFF7D5FDB9E70000CE
:10126000502100206C4D020010B5FFF765FD0321F1
:1012700000F0C8FF002010BD002901DA00207047EF
:10128000026811440160012070470000F8B5461C57
:1012900000208DF800000D4601246846FFF778F91C
:1012A000114A10682860D2E900109568081A2B1AB4
:1012B000701C5B1C98420FD963B10C480C4B294041
:1012C00000681B6802EB810163F39F20C86010680F
:1012D000401C1060002401E0881910609DF8000097
:1012E000FFF77AF92046F8BDA87F0020104E0200D3
:1012F0000C220020034803C8814201D1012070471D
:1013000000207047A87F002000780221FFF7FABD77
:1013100005494FF0FF32082841F8202002D3084445
:1013200080F8482070470000E47D0020F0B54FF0C1
:10133000FF3512B10023082601E008230C260C4CCF
:1013400005E000BF54F823707F1C04D05B1CB3423F
:10135000F8D32846F0BD26185DB286F8305044F820
:101360002310002AF5D1E11881F84800F1E70000C8
:10137000E47D00200249084490F9300070470000E5
:10138000E47D002008B5024690F85A020B4600EBB7
:10139000C00101EB001002EB800092F8592242B12B
:1013A000521ED2B202EBC20100EB4102518A491C2B
:1013B00000E0C188ADF800100089ADF80200694670
:1013C000184696DF08BD000070B5084C050009D02E
:1013D00010342168002907D0086820604968284631
:1013E0008847F6E70834F4E770BD0000D07D0020A0
:1013F00010B54288044613460749032001F0B4F9AA
:101400006088064901EB00102146FFF748FB0449BC
:10141000A078C87010BD0000BC4E0200002600205D
:10142000282100202DE9F843054690F85A020F467E
:1014300000EBC00101EB001005EB800695F8594266
:10144000914604EBC40006EB40013279601C0A317E
:10145000904226D16B460022284600F095F918B339
:1014600010E0401EA04201D1002004E004EBC400C3
:1014700006EB40001C30804602466B46284600F0D2
:1014800083F930B1002038706946484697DFBDE8DF
:10149000F88395F859024146401C641C85F85902AE
:1014A000E4B23079A042DCD8012038700020EEE7A9
:1014B0002DE9F04100260125144C22E060682269E4
:1014C00000EBC607387805FA00F1114217D08A43BD
:1014D000226100F0EFFB02463878E36805FA00F17C
:1014E000194002FA00F3994209D17978012901D013
:1014F000012100E0002151407A6802B19047761C3A
:10150000F6B220788642D9D3BDE8F081D8210020F8
:101510002DE9F047894690F85A12904601EBC10236
:1015200002EB011100EB8107384602F04BF8060090
:1015300041D0224CA06806283DD200EBC000204DCF
:1015400000EB400005EB80006422A0F802803946E1
:10155000001DFDF7C5FF0027B9F1000F07D0A068F7
:1015600000EBC00000EB400005F8207007E0A16828
:10157000022001EBC10101EB410105F82100A06847
:1015800000EBC00101EB410105EB8101401C8E66BF
:10159000A060E16888420ED1002608E006EBC60094
:1015A00000EB400005EB8000816E8847761CE06808
:1015B0008642F3D3A760BDE8F0870000C821002071
:1015C000487B002030B50D4690F85A12144601EBC6
:1015D000C10202EB01119BB000EB810001F0F2FFB0
:1015E000030007D0ADF8024001208DF800006846E6
:1015F000019598471BB030BD05490120096809B124
:10160000002070470349096A0029F9D1704700009A
:10161000987A002078210020826883881A40036825
:101620009A5C0A708168491C81607047C26883882F
:101630001A4003689954C168491CC1607047000092
:101640002DE9F041124E07460125BD403068FEF7F6
:1016500013FF00280DD10F4C2069284207D13846CE
:1016600000F028FB0028E06805D0284304E0A843E8
:101670002061BDE8F081A843E06020692843206133
:10168000A1683068BDE8F0410022FEF791BE00007D
:10169000C84D0200D8210020F8B51C4C2078002845
:1016A00032D0E068002658B10025607800282BD1A0
:1016B000684648DF052805D030B1FEF707FE0AE08E
:1016C0000125F2E7012606E0009800F015FA2169ED
:1016D00009B1009888479DB96078002814D16088C6
:1016E000ADF800006946A06861DF052803D020B18D
:1016F000FEF7ECFD04E0012502E0D4E90201884791
:10170000002ED2D0002DE6D0F8BD0000102200201F
:1017100070B50E460446007918494FF4A27501EBE6
:101720004010017F2068A1B14FF4887101F0D8F812
:101730004FF49071206801F0D3F84FF49271206853
:1017400001F0CEF82946206801F0CAF80C4920685B
:1017500009E04FF48E7101F0B2F82946206801F0DB
:10176000AEF808492068C0F80413206800F0F0F9CA
:101770003146BDE8704000F0CFB900003C7E00204B
:10178000100302008000020010B509892AB1D08838
:10179000491C814218D1002010BD90F85A2202EB5A
:1017A000C20404EB021200EB820212899142F2D0D1
:1017B000491C198090F85A1201EBC10202EB011189
:1017C00000EB8100008902E01980D088401E58801B
:1017D000012010BD2DE9F8430E468146002401F199
:1017E000100561E029192F5D487802280AD00328E6
:1017F00008D0042824D0052822D006283ED0072867
:101800003CD04FE04FF0000816E000BF04EB48006A
:10181000411902206A46891C64DF58B9BDF80010DE
:10182000B9F80000814205D19DF8021099F8020034
:10183000814234D008F10108B8EB570FE6D331E00C
:101840004FF0000816E000BF04EB880041190220A9
:101850006A46891C64DF58B9BDF80010B9F8000069
:10186000814205D19DF8021099F80200814216D0FC
:1018700008F10108B8EB970FE6D313E010206A4691
:10188000891C64DF70B9BDF80010B9F8000081420E
:1018900008D19DF8021099F80200814202D101207E
:1018A000BDE8F8833C44641CF07BB4EBD00F99D3C3
:1018B0000020F5E70268134602E08A4204D012686D
:1018C000002AFAD10B600160704700000348017ADA
:1018D000C90702D00078FFF70DBC704750210020E7
:1018E00000F04EFE0028FBD102F016FDF8E70000E4
:1018F0001FB500F091F808B1FEF7E8FC03220021C3
:10190000012002F0CBFD2E4CA06010B90420FEF7A0
:10191000DDFC03220021012002F0C0FDE06010B9CF
:101920000420FEF7D3FC012002F096FD206110B9DF
:101930000420FEF7CBFC2248032100240091143040
:10194000CDE901044FF4807523462A461DA11E48A7
:10195000039402F087FF012802D00420FEF7B6FCB2
:101960001748022100911830CDE9010400232A46CE
:1019700016A11848039402F075FF012802D0042034
:10198000FEF7A4FC0E48012100911C30CDE90104B2
:1019900000232A4610A11248039402F063FF012895
:1019A00002D00420FEF792FC0E48016841F00401C9
:1019B000016002F081FC0F20FEF788FCFBE70000CD
:1019C00028210020424C45000D0C02005541525484
:1019D00000000000533D02004C4F474745520000B5
:1019E000E118020010ED00E0C20800F0070301203A
:1019F000895C98400840704700F1804000680028EA
:101A000000D00120704708B500F18040002101603E
:101A10000068009008BD000070B50F4C00252078CC
:101A200008B1852516E00021A16061602161E160B7
:101A30004FF0E020D0F80001012610F0010F03D193
:101A40000721002000F068F802F050F808B90348B8
:101A500006602670284670BDD07D00201805004025
:101A6000F8B5174D0446A878002648B114B161684E
:101A7000012088478DF800606846FEF789FD17E071
:101A80008DF800606846FEF783FD24B10C482146BE
:101A90001030FFF70FFFE86850B94FF48270FFF77E
:101AA000B2FF02204107C1F8040306490120086083
:101AB000E868401CE8609DF80000FEF78DFDF8BD69
:101AC000D07D00200800004038B500208DF80000CF
:101AD0006846FEF75DFD074C207808B9FFF79CFFCC
:101AE000E068401CE0600120A0709DF80000FEF757
:101AF00073FD38BDD07D0020002801D1FFF764BC04
:101B0000704700F01F02012191404009800000F160
:101B1000E020C0F8801170474907090E002806DA56
:101B200000F00F0202F1E02282F8141D03E000F140
:101B3000E02282F8001400F01F02012191404009C8
:101B4000800000F1E020C0F88012C0F8001170475A
:101B5000000B40B2704700002DE9F0418846054671
:101B600001F07AF9234E002828461AD0FFF702FC2C
:101B7000304490F848008009032802D001280ED094
:101B800007E04FF0A040D0F81005E84010F0010F3A
:101B900005D003212846BDE8F04100F044BB0221F6
:101BA000F8E701F065F9002822D02846FFF7E2FBAC
:101BB00004464FF4807000EB84000F4F81B207EBB6
:101BC0008400D0F8102542F00102C0F81025084624
:101BD00000F05AFBB8F1000F0AD02846FFF7CAFB05
:101BE00056F82000002803D00120A040C7F80403C5
:101BF000BDE8F081E47D0020006000402DE9FC415B
:101C0000DFF8A480044608EB0400002790F93000B8
:101C10001346C0170E46401C01D0082741E0F27859
:101C200019462046FFF782FB0546401C38D0B078A5
:101C300050B14FF0A04000EB8400D0F8001721F025
:101C40000201C0F8001707E00021737820460091D8
:101C50000A46019100F096FAF078C0B11348317845
:101C600000EB8500D0F81025114B1A40C0F8102564
:101C70004FF4F8524FF4403302EA042203EA0141E0
:101C80000A43D0F810150A43C0F8102509E008EB04
:101C90000500327810F8481F41EA8211017000E017
:101CA00004273846BDE8FC81E47D00200060004048
:101CB000FFE0FCFF4FF0A041D1F81015C14011F03A
:101CC000010000D00120704770B5144D95F8540004
:101CD00008B1082070BD0020411E2A18401CC0B267
:101CE00082F830102028F8D300242046FFF710FB9C
:101CF000641CE4B20C2CF8D307210620FFF70CFF7C
:101D00004FF4BE7000F0C0FA05494FF00040C1F832
:101D10000403012085F85400002070BDE47D0020FC
:101D200000600040034890F85400002800D00120D3
:101D300070470000E47D00200121B1EB507F01D10C
:101D400001207047002070472DE9F04105460079D9
:101D5000164F904607EB40140E46E07E10B1082067
:101D6000BDE8F081707F20772846FEF74FFC5FEAE0
:101D7000080060603169216003D0317F2846FFF799
:101D8000C7FC287907EB4010007F0028286801D0A5
:101D9000082100E00421C0F800150020E07520763D
:101DA000A0750121E176A076DAE700003C7E0020F4
:101DB0002DE9F04105460079284E904606EB401487
:101DC0000F46207F18B10846FFF7B6FF80B1626862
:101DD00000234FF404704FF4017172B12A7906EBBD
:101DE0004212127F002A2A6805D0C2F8080304E0D4
:101DF0001020BDE8F081C2F80813E27DB2B1227E66
:101E00007AB162685AB12A7906EB4212127F1AB18E
:101E10002968C1F8040302E02868C0F804131120FF
:101E2000E7E72761012384F8188005E084F817802C
:101E30000020E760607620762879424606EB401065
:101E40003946007F0028284603D0BDE8F04100F065
:101E500073B8BDE8F04100F01BB800003C7E0020E4
:101E600070B504460079094D05EB4010017F00294B
:101E70000AD1807E002807D1204601F0E4FB2179B9
:101E8000012005EB4111887670BD00003C7E0020EA
:101E90002DE9F05F04460079264901EB4015A87E44
:101EA000184302D1204601F0CEFB68680028206864
:101EB00006D04FF40171C0F804130020BDE8F09F74
:101EC0004FF4A276314600F0FAFCB1464FF4927A14
:101ED0004FF4847B5146206800F0ECFC06465946DE
:101EE000206800F0E7FC80464946206800F0E2FCEC
:101EF000074648EA07003043ECD056EA070007D10E
:101F00002946206801F07AFBE87D697E8842E1D8A5
:101F10000020E8750EB10320D0E70FB10F20CDE708
:101F2000A97E01200029216801D00860C5E748602A
:101F3000C3E700003C7E00202DE9F05F894604469F
:101F40004FF488759A46904600260068294600F0AE
:101F5000C7FC4FF4A2773946206800F0C1FC206826
:101F6000C0F83495C0F838852068BAF1000F14D055
:101F7000D0F8001241F02001C0F800122179DFF8FA
:101F8000648008EB4110406850B120684FF4047140
:101F9000C0F804133046BDE8F09F01210160EDE771
:101FA000AA46B9464FF4927B5146206800F093FC54
:101FB00007464946206800F08EFC054659462068D1
:101FC00000F089FC014647EA05000843ECD023797C
:101FD000002208EB4310C27501B10326002DD9D0B1
:101FE0000F26D7E73C7E00202DE9F0470546007913
:101FF0003F4E904606EB40140F46207F18B108462E
:10200000FFF79AFE30B1284600F074F820B1112095
:10201000BDE8F0871020FBE784F81680A760002752
:10202000A78228794FF0010806EB40143E46207F36
:102030000028286825D04FF49079494600F050FCDC
:102040004FF4AC7A5146286800F04AFC2868A17D1C
:10205000A268C0F84425C0F848152868C0F8088070
:102060006068F0B94946286800F035FC8046514662
:10207000286800F030FC58EA0001F3D058BBA7757F
:102080000FE04FF48E7A514600F019FC2868C0F832
:1020900008802146286801F04BFD61684FF480708C
:1020A00089B13046B4E75146286800F003FC10B906
:1020B000A08A4845F7D1A08A484505D0214628681E
:1020C00001F036FD00E08146A08AA17D8842EAD376
:1020D000A08A484501D10F26D1E75146286800F073
:1020E000E9FB0028F9D02868C0F80C80C7E7000099
:1020F0003C7E00200079044901EB4010807D0028DF
:1021000000D00120704700003C7E002070B50446DE
:1021100000791149002601EB401520682A7FC0F89C
:102120000065686888B1207901EB4010007F0028C5
:10213000206801D0094901E008498C39C0F808132A
:102140002068FFF705FDFFF7DCFC204600F09CFE51
:10215000EE766E6070BD00003C7E00201003020031
:1021600070B541EA4201DDE904564FF0A04441EA6E
:10217000830141EA052104EB800041EA0641C0F8F1
:10218000001770BD70B541EA4201DDE904564FF019
:10219000A04441EA830141EA052104EB800041EAC1
:1021A0000641C0F8001770BD70B541EA4201DDE993
:1021B00004564FF0A04441EA830141EA052104EBB3
:1021C000800041EA0641C0F8001770BD1CB500212F
:1021D00000910B4601220191FFF7E6FF1CBD1CB5E3
:1021E00000220B46009211460192FFF7DDFF1CBD55
:1021F0001CB5002100910B46012201911146FFF709
:10220000D3FF1CBD4FF0A04202EB8000D0F80027A6
:1022100022F44032C0F80027D0F8002742EA0141FA
:10222000C0F8001770474FF0A04202EB8000D0F8D2
:10223000002722F44032C0F80027D0F8002742EAF5
:102240000141C0F80017704701224FF0A0438240BF
:1022500011B1C3F808257047C3F80C25704700007A
:1022600018B5084B6C4601441B68009306E000BF9C
:1022700054F82030D3F81035401C08C28142F7D8FA
:1022800018BD0000C44D0200034908B508440021F0
:1022900001600068009008BD00600040024940589D
:1022A000012800D0002070470060004000487047BF
:1022B0002D23020030B5194C054689B0207828B18D
:1022C0006078854202D1002009B030BDFDF7BAFA2E
:1022D000202213496846FDF703F900208DF8140009
:1022E000062000900820019005200390072002900E
:1022F0000C4806900948001DFFF708FF0DB10022A9
:1023000000E0094A05486946001DFFF71DFD002849
:10231000DAD1012020706570D5E70000002200208E
:10232000F04D020000502700253C02002DE9F04F3F
:10233000C1B00D004FF0000140914D984B991C46E3
:10234000174601EB000B01D00A2000E00020804678
:1023500001F0DCFA00287CD16E46BCB9409840AA56
:102360003118284601F0CAFB002872D03846FDF724
:10237000DBF8C22800D9C220054640982A463044DE
:102380003946FDF7ADF84098284440904FF0200AB8
:10239000409901EB080231320DEB01050DEB02060D
:1023A000002002E005F801AB401C4045FAD30027AD
:1023B0005C4508D305F801AB05F801AB05F801ABA6
:1023C00006F801AB2DE04B98844202D24A98005D9A
:1023D00002E0211A4C98405C2B46814602460121BE
:1023E000880022FA00F000F00F00092801D93730E8
:1023F00000E03030C1F1010C491E03F80C00EFD2AF
:102400009D1C05F801ABFDF767F8016811F809009C
:1024100010F03E0F01D0484600E02E2006F8010BD8
:10242000641C7F1C102FC3D30D2030700A207070E5
:1024300085F800A04099684641444331409101F03D
:102440006BFA30B101F062FA18B9002040905C4597
:102450009ED341B02046BDE8F08F2DE9F043C7B0D0
:1024600000251C46904689464E9F459501F04EFA40
:1024700000287AD1459805AE311845AA484601F0A2
:102480003DFB002835D0072F27D2DFE807F00412E4
:102490001B35424F5D004046FDF746F8054645981E
:1024A0002918FF2919D830442A464146FDF718F863
:1024B00013E045982368C0F5807130444246FDF72B
:1024C000F3FB09E06068009045982368C0F58071CF
:1024D00030444246FDF7E8FB0546294645A8FEF78D
:1024E000CBFE459978B3B1F5807F3ED805A801F0C1
:1024F00013FA47B0BDE8F083D4E90101CDE900014A
:1025000045982368C0F5807130444246FDF7CCFB06
:10251000E2E7201D07C88DE8070045982368C0F54D
:10252000807130444246FDF7BFFBD5E7201D0FC840
:102530008DE80F0045982368C0F58071304442460D
:10254000FDF7B2FBC8E710E004F1080001AD0FC8C9
:1025500085E80F006068009045982368C0F5807199
:1025600030444246FDF7A0FBB6E70020C1E700007B
:10257000004870475B2402000120FFF79BBE00006B
:102580002DE9F04F87B0FEF7B5FE18B1002007B077
:10259000BDE8F08F454ED6E9014704EA070006EB97
:1025A0008000A146641CC5680CE000BFC5F389101B
:1025B00000EB9550044404EA070006EB8000A146B6
:1025C000C568641CA807F1D005F003004FF0000BAC
:1025D000022805D0AA0A01A8C5F38313002153E0FD
:1025E00004EA070006EB800004F1010A0AEA070486
:1025F000C268381B80004FEA9558001DC5F3891347
:10260000804521D929490C3138B106EB840400F00A
:10261000FF0CA8EB00000C3404E00C46002108F08D
:10262000FF0C0846C0B2CDE90210CDE9004CD6F847
:102630001444C5F3C2005946A047404511D108F1E2
:1026400003080AEB98042AE0002106EB84000C3012
:102650000090CDE901810391C5F3C200D6F814447E
:10266000EAE760F38F1509EA070006EB8000C56012
:1026700016E000BF04EA070C06EB8C0C491CDCF8E2
:102680000CC040F804CB641C9942F3D3C5F3C200DC
:102690000093D6F8105401AB5946A84700B17460B6
:1026A000FEF728FE80F0010071E70000A87F0020FF
:1026B000034AFF23936000231360536000F0DAB8ED
:1026C000A87F00202DE9F8430F4F884604460025D7
:1026D00069462846BE68FEF7D9FD002812D00B488F
:1026E0000021406861F38200009964F3C50001EAAB
:1026F000060265F3891007EB820268F39F20491CEC
:10270000D0600091BDE8F883A87F0020104E020041
:102710002DE9F843124D8846044601279146694643
:102720003846AE68FEF7B2FD002817D00D480021EC
:10273000806861F38200009964F3C50001EA060233
:1027400067F3891005EB820268F39F20491CD06073
:102750000091314005EB8101C1F80C90BDE8F88390
:10276000A87F0020104E02002DE9F84F164C884635
:10277000064602279A46914669463846A568FEF7FE
:1027800085FD00281ED01148C168002060F3820139
:10279000009866F3C50100EA050267F3891104EBAE
:1027A000820268F39F21401CD16000EA050204EB1D
:1027B0008202401CC2F80C900090284004EB80007C
:1027C000C0F80CA0BDE8F88FA87F0020104E0200D2
:1027D0002DE9F84F254D884606460627994692462C
:1027E000DDF830B069463846AC68FEF74FFD00288A
:1027F0003AD01F48C169002060F38201009866F357
:10280000C50100EA040267F3891105EB820268F34F
:102810009F21401CD16000EA040205EB8202401CAB
:10282000C2F80CA000EA040205EB8202401CC2F8C8
:102830000C9000EA040205EB82020A99D160401C68
:1028400000EA040205EB82020B99401CD16000EA09
:10285000040205EB8202401CC2F80CB0009020403C
:1028600005EB80000D99C160BDE8F88FA87F0020BE
:10287000104E0200024A02F5826203C27047000055
:10288000A87F002070B506460020FFF713FD040066
:1028900008D1FFF70BFD0546FFF76AFE32462946D1
:1028A000FFF706FF204670BD08B500224250405891
:1028B000009008BD4058002800D00120704708B59E
:1028C000002242504058009008BDD0F80403084050
:1028D00000D0012070474058002800D001207047E8
:1028E00008B5002242504058009008BD1FB501882D
:1028F000041D1D291FD012DC10293DD0112971D0D3
:1029000013297CD01B2936D1207902285CD00328DA
:1029100031D104B04BA1BDE81040FFF7D3BE1F2951
:102920006ED03B296DD055296CD0562923D1808893
:10293000132176DF4FE0241D21464E48FEF74AFF63
:10294000002818D04B4A2046083202F108018CDFDB
:10295000002810D1FEF776FB08B1FDF7B7FCE07850
:10296000A379627921798DE80F00A378627842A17A
:102970000320FFF72DFF1FBD22884F490320FFF7DB
:10298000C7FE0720FEF75EFB08B1FDF79FFC21881C
:102990004A4A01EB410000EB011002EB4010FDF749
:1029A000EDFE041E06D0FDF791FC112C02D020464E
:1029B000FDF78CFCFDF786FE082809D00120FEF704
:1029C00041FB08B1FDF782FCBDE81F4000F04CBEA2
:1029D0000020FEF737FB0028CDD004B0BDE8104042
:1029E000FDF774BC2379228835490320FFF7BCFE2C
:1029F00000F03AFE0120FEF725FB30B103E00EE0C7
:102A000013E016E019E0FDF761FCFDF75BFE00281E
:102A1000B1D104B00120BDE81040FEF7B5B90023E4
:102A200080881A4685217FDFD5E72088211D75DF44
:102A3000D1E78088132176DFCDE780881721ADDFCD
:102A4000C9E7000042616368656C6F723A494E469F
:102A50004F3A436F6E6E656374696F6E2052657195
:102A6000756573742074696D6564206F75742E0DBF
:102A70000A000000344D020042616368656C6F72A9
:102A80003A494E464F3A436F6E6E656374696E679E
:102A900020746F2074617267657420253032782548
:102AA000303278253032782530327825303278252A
:102AB0003032780D0A000000544F020080260020BA
:102AC000104F02002DE9F84F05460C460888B5F86E
:102AD0005E12884259D195F85A02DFF804A100EB42
:102AE000C00101EB001005EB800660884FF0030980
:102AF0004FF00008F0BBE3883079A11DDAB250FA3C
:102B000083F3052B01D8024400E005223271002333
:102B10001CE000BF00EBC00203EB830701EB47079B
:102B200006EB4202D7F802C0C2F80AC0D7F806C0C6
:102B3000C2F80EC07F895782A2F81480A2F81680CE
:102B4000A2F81880401CA2F81A805B1C32798242DD
:102B5000E0D895F85A1200EBC00001EBC10202EB7D
:102B6000011105EB810136F81000098988420ED267
:102B7000307900E00BE0052809D085F8590221885A
:102B80002846FEF7FFFB01000AD1BDE8F88F85F863
:102B90005982228869462846FEF744FC01000BD082
:102BA00085F85B8222882846FEF70CFD8AF80090A3
:102BB0002188AAF80210E8E79DF800000028E4D078
:102BC0002388328807490320FFF7CEFD22880121A0
:102BD0002846FEF79DFC2188284600F0F3F8D4E74C
:102BE000487B0020984F0200F8B505460C4608883F
:102BF000B5F85E1288425DD195F85A02A21D00EB2D
:102C0000C00101EB001005EB800695F859026188C0
:102C100000EBC00006EB40000A3039B329E000BFEA
:102C200001EB410302EB43039F88B7F5245F0CD00F
:102C30006FF4245C17EB0C070AD0012F02D0072F8A
:102C40000BD108E05B88438107E05B88838104E067
:102C50005B88C38101E05B88038243892BB1838950
:102C60001BB1C3890BB1038A1BB9491C13888B4262
:102C7000D6D800278DF8007095F859023179401C9C
:102C8000884203D101208DF8000018E085F8590230
:102C9000228869462846FEF7C5FB01000BD085F85F
:102CA0005B7222882846FEF78DFC0D4803210170D7
:102CB00021884180F8BD9DF800000028FAD02388C3
:102CC000328808490320FFF74FFD2288012128465A
:102CD000FEF71EFC2188284600F074F8F8BD0000BD
:102CE000487B0020984F020070B5064690F85A02C3
:102CF0000C4600EBC00101EB001006EB80052088BC
:102D0000B6F85E1288422CD160882A8870B115A16D
:102D10000320FFF7FDFC228800213046FEF7F8FB78
:102D200021883046BDE8704000F04CB819A103205E
:102D3000FFF7EEFCA1682960E068C5F8060021886D
:102D40003046FEF71FFB01000BD0002086F85B0227
:102D500022883046FEF736FC19480321017021888D
:102D6000418070BD424C455F44425F444953433A01
:102D7000494E464F3A536572766963652055554909
:102D8000442030782578204E6F7420666F756E640D
:102D90000D0A0000424C455F44425F444953433AA8
:102DA000494E464F3A466F756E6420736572766978
:102DB0006365205555494420307825780D0A000078
:102DC000487B00202DE9F047044690F85C020D4650
:102DD000401C1E49C0B284F85C02C968DFF87090DC
:102DE00000264FF0030888422CD284F8596294F8E8
:102DF0005A022B46401CC0B200EBC00101EB00118F
:102E000004EB810784F85A02A9F1180101EB800054
:102E10001049006838603E713A880320FFF7A4FC2F
:102E20003A460121284694DF010009D084F85B620C
:102E30002A462046FEF7C6FB89F80080A9F8025012
:102E4000BDE8F08784F85B62F6E70000C821002047
:102E5000487B0020005002000449084490F93000EB
:102E6000082801DB0120704700207047E47D002026
:102E70000449084490F93000082801D20120704725
:102E800000207047E47D002070B5034600791B499F
:102E900001EB40101968027F4FF0FF30002AD1F893
:102EA0000C25D1F81465D1F80855D1F8104504D097
:102EB000C1F80C05C1F8140503E0C1F81405C1F808
:102EC0000C051968C1F80805C1F81005501C02D09E
:102ED0001046FFF77BF9701C02D03046FFF776F9F9
:102EE000601C02D02046FFF771F9681C04D0284608
:102EF000BDE87040FFF76AB970BD00003C7E00205D
:102F000070B5164E002500BFC5EBC50414A1325D97
:102F10000320FFF7FDFB34441BA162780320FFF779
:102F2000F7FBA27822A10320FFF7F2FBE27828A1A9
:102F30000320FFF7EDFB22792EA10320FFF7E8FB2A
:102F4000627936A10320FFF7E3FBA2793DA10320BC
:102F5000FFF7DEFB6D1C012DD6DD70BD8039002032
:102F600042616368656C6F723A494E464F3A095444
:102F70007970652073656E743A09090930782530D7
:102F800032780A0D0000000042616368656C6F7260
:102F90003A494E464F3A094164647265737320732F
:102FA000656E743A0909093078253032780A0D00C7
:102FB00042616368656C6F723A494E464F3A0961E7
:102FC000636B3A090909093078253032780A0D0017
:102FD00042616368656C6F723A494E464F3A0973B5
:102FE000746174653A090909093078253032780A24
:102FF0000D00000042616368656C6F723A494E468D
:103000004F3A0957616E7465645F74656D703A0973
:1030100009093078253032780A0D00004261636872
:10302000656C6F723A494E464F3A09437572726544
:103030006E745F74656D703A090909307825303215
:10304000780A0D0042616368656C6F723A494E46BA
:103050004F3A095072696F726974792073656E74A2
:103060003A0909093078253032780A0A0D00000043
:1030700070B50B4C05462068456020692168854283
:1030800005D2A06BBDE87040091D00F045BF606B24
:10309000091D00F041FFE06A854200D2E56270BD83
:1030A0007821002010B500F05BFF0E4C2068A0B91D
:1030B0000D4800F023FF0C48143000F01FFF0A48B1
:1030C000E0601430206100221021202001F0E6F998
:1030D000206010B105A100F0F3FFBDE8104000F042
:1030E00049BF0000B4210020D47A0020546D7251F1
:1030F0000000000070B5124E124C1AE001F05CF9AD
:103100003068D0B101F044FD00F02AFFF068C568D6
:10311000281D00F0DBFEE068401EE0606068401E95
:10312000606000F027FF286B00F02EFF284600F0BB
:103130002BFF60680028E1D170BD01F029FDF8E7A0
:10314000AC7A00207821002030B4026C0B46002AB3
:103150000BD0C1681144C1604468A14201D3016829
:10316000C16030BC1846FCF7BBB930BC704770B5C5
:103170001646026C0446002582B1C6B1E068FCF731
:10318000AFF9E168206C091AE1602268914202D22D
:103190006168081AE060022E16D01AE02068C0B9F3
:1031A000606801F087FC05460020606011E0A068BF
:1031B000FCF796F9216CA0680844A0606168884219
:1031C00007D32068A06004E0A06B10B1A06B401E84
:1031D000A063A06B401CA063284670BD0648016830
:1031E000C96A09B100207047044909680129F9D862
:1031F000C16A0069081A704778210020347A0020DB
:103200000F4C4FF080550F4EFFF774FF20680128D8
:1032100005D9356040BFBFF34F8FBFF36F8F00F00C
:1032200067FEFFF7DBFF0228EED301F0C5F8FFF7DA
:10323000D5FF022801D300F0C5FE01F0A9FCE3E7A9
:10324000347A002004ED00E070B5002441600B4D9D
:103250000061914206D8D11A8269914206D2011DBD
:10326000286907E09A4203D2994201D3012403E07E
:10327000011DE86800F050FE204670BDB42100201A
:1032800030B589B0274D42E00498002806DADDE920
:103290000601059A90470498002838DB069C60696F
:1032A00010B1201D00F012FE02A800F099F80246AD
:1032B00004980A282BD2DFE800F00505052A1F270D
:1032C00005052A1F0598A169034601442046FFF71A
:1032D000BBFF01281BD1616A20468847E0690128AD
:1032E00015D1002000900598A169002342181946C5
:1032F000204601F0E5FC0AE00598A061811813461C
:103300002046FFF7A1FF02E0204600F03DFE00232B
:103310001A4604A9286801F0DFF80028B4D109B0E2
:1033200030BD0000B42100202DE9FC410F460546C8
:1033300001F042F801A800F053F80446019818B1D2
:1033400001F026FCBDE8FC811B4E17BBA54220D82E
:1033500001F01EFCF0682746C068C468201D00F01C
:10336000B5FDE069012810D1A0692B4641193A4604
:103370002046FFF769FF012807D1002003460146D8
:1033800000902A46204601F09BFC616A204688474F
:10339000D8E7291B306800F0A7FE01F0F9FB0028F0
:1033A000D0D106494FF08050086040BFBFF34F8F27
:1033B000BFF36F8FC6E70000B421002004ED00E0EA
:1033C0000648416B096829B1416BC968C9684968F9
:1033D000C16270474FF0FF31FAE70000782100200A
:1033E00070B5054601F00AFB064E0446B0688442FB
:1033F00003D200F009F8012000E0002028602046F8
:10340000B46070BDB4210020F8B5144D1EE0C06852
:10341000C4680668201D00F059FD616A204688478F
:10342000E069012812D1A0693044B04206D9246174
:103430006060211DE86800F06FFD07E00020034692
:10344000014600903246204601F03AFCE8680168E7
:103450000029DCD12969C5E90310F8BDB421002099
:10346000202080F31188FEE7064B426900219A4232
:1034700006D1806AA3F12802904201D000B901214F
:1034800008467047C07A0020074CE068016841B1E7
:10349000C0680021D0F80000FFF746FFFFF7F0FEFC
:1034A000F3E701210020F7E7B421002070B50446BE
:1034B00000F056FD04F124050AE0606A58B1284680
:1034C00001F030FB08B100F02BFEA06C401EA064A0
:1034D000A06C0028F1DC4FF0FF36A66400F04AFD36
:1034E00000F03EFD04F110050AE0206958B12846BD
:1034F00001F018FB08B100F013FE606C401E606420
:10350000606C0028F1DC6664BDE8704000F032BDFC
:1035100070B504460025400704D004F00700C0F150
:103520000800044400F048FF0A49486818B90A48EE
:1035300020F0070048600A6843F6F87310199842B3
:1035400004D2904202D94B6808609D1801F020FB1C
:10355000284670BD6C2100202C3A002004490868E0
:1035600018B10868C26B521CC2630868704700003B
:103570007821002010B5044600F0F2FC246A00F027
:10358000F9FC204610BD000010B5084C031F24684C
:103590001C601B1F1960191F054B0B6014390A6052
:1035A000091F6FF0020244380A6010BD984D0200F6
:1035B000613402004FF08050D0F80C01800200F11D
:1035C0000050704770B50C4B00210A4ADC680DE0D2
:1035D00002EB81058678AD78B54206D132F82150EC
:1035E0000688B54201D1586870BD491CA142EFD38D
:1035F000002070BD307B0020C821002070B505463A
:10360000C87D0C4600284FF4847128460AD0FFF785
:1036100056F9D5F81805627EE1688854607E401C32
:10362000607670BDFFF74BF9D5F8180570BD1FB572
:1036300001238DF800308DF808100192D0E90012B6
:10364000684690471FBD10B5044600684FF492715C
:10365000FFF735F94FF484712068FFF730F92068DF
:103660000121016010BD000010B508488ADF08B1D3
:10367000FCF72CFE0120FDF7E5FC08B1FCF726FE67
:10368000BDE8104002A10320FFF71CB8444D020022
:1036900042616368656C6F723A494E464F3A5561B4
:1036A00072745F63205363616E207374617274651A
:1036B000640D0A0010B50446FCF71AFB40B1002C5B
:1036C00009DA04F00F0000F1E02090F8140D06E094
:1036D00042F2010010BD04F1E02090F8000441091D
:1036E000082914D299B1012911D004290FD0052934
:1036F0000DD00B480122816861B1610950F8213079
:1037000004F01F04A240134340F8213005E042F2C8
:10371000020010BD2046FCF740F8002010BD00005C
:103720007C7E002001228A40024201D001207047A5
:103730000020704770B5002506462C46A1B23046E1
:10374000FFF7F0FF00B16D1C641C082CF6D328466F
:1037500070BD00001CB51749C0EBC0028B5C114462
:103760008DF800304A788DF8012001228DF8022072
:10377000CA788DF803200A798DF804204A798DF8EB
:10378000052089798DF806100B49072201EB0010FE
:103790006946FDF7E5F938B1FCF798FD07A103206C
:1037A000FEF790FF00201CBD0CA10320FEF78AFF4E
:1037B00001201CBD80390020002600204261636882
:1037C000656C6F723A494E464F3A0961636B2066E9
:1037D00061696C6564200A0D000000004261636845
:1037E000656C6F723A494E464F3A0961636B2073BC
:1037F000656E74200A0D00007CB50446C0EBC40160
:103800001D481E4D425C08448DF8002041788DF81B
:10381000011000218DF80210C1788DF80310017994
:103820008DF8041041798DF8051080798DF8060027
:10383000285D78B11248072200EB04106946FDF7B5
:103840008FF948B1FCF742FD0EA10320FEF73AFFC5
:1038500000207CBD15A1F8E722A10320FEF732FF6E
:1038600001202855284800224FF4C0314068FCF759
:103870009FFD01207CBD00008039002048210020F0
:103880000026002042616368656C6F723A494E46BB
:103890004F3A0973656E64696E67206E6F742063BA
:1038A0006F6D706C657465200A0D0000426163687D
:1038B000656C6F723A494E464F3A0953656E6469BA
:1038C0006E67206E6F7420636F6D706C6574652C0D
:1038D0002077616974696E67206F6E2061636B0D7C
:1038E0000A00000042616368656C6F723A494E4697
:1038F0004F3A0973656E64696E6720636F6D706C13
:10390000657465200A0D00002C4D02000148FEF789
:10391000F1BB0000042200202DE9F0410C460A46CC
:103920008046014601260E48FBF7DAFDE2B20C495B
:103930000C48FEF759FB00B1002600255FF00A078E
:1039400008EB050122460020FBF786FF0544241AF8
:1039500008B97F1E01D0002CF2D13046BDE8F081BD
:10396000A87E00200422002018B10349C86000206E
:1039700070470E2070470000102200201CB504463E
:10398000114801900246009010A10420FEF7C0FEED
:103990006946204660DF0446DDE9002082420AD005
:1039A00016490220FEF7B4FEFFF704FE0099421A02
:1039B00013A1022003E024B122461EA10120FEF73C
:1039C000A7FE20461CBD0000282100205344483A91
:1039D00044454255473A73645F626C655F656E614A
:1039E000626C653A2052414D20737461727420619B
:1039F0007420307825780D0A00000000685002001D
:103A00005344483A5741524E494E473A52414D204D
:103A100073697A652073686F756C642062652061D4
:103A2000646A757374656420746F2030782578201B
:103A30000D0A00005344483A4552524F523A7364BB
:103A40005F626C655F656E61626C653A206572727B
:103A50006F7220307825780D0A00000070B50E4690
:103A6000054614461C211046FBF753FD012020801B
:103A70000021A16121752672657205B1A072002036
:103A800070BDFCF7F5BB00002DE9F041074619B108
:103A900088074FF0000402D00720BDE8F081114DE7
:103AA0004FF0E0200126A9606A806B60D0F8000129
:103AB00010F0010F03D034460020FBF763FE0A49E3
:103AC000384610DF070005D014B10020FBF765FE73
:103AD0003846E2E72E70FDF7F7FFBDE8F04116200B
:103AE000FFF7E8BD10220020833A02000148007869
:103AF000704700001022002000F0AEB910B5144647
:103B000002004FF001000CD00846136806A24FF4E3
:103B10008071FCF7C9F801462046BDE81040FDF76A
:103B2000ABBB0021216010BD5B253038645D000017
:103B300070B50C4605464FF48E71FEF7C0FEA18AA3
:103B4000A068415CA08A401CA082C5F81C1570BD0D
:103B50001FB500228DF800208DF8081081680191B2
:103B60008275D0E90012684690471FBD0178002990
:103B700006D0012901D0022902D14068FCF7A6BB7A
:103B8000704700007CB50178244D81B301290BD02A
:103B900002292BD18DF80010C068691C0190012208
:103BA000C81DFEF705F92EE0406801781C48FCF7B7
:103BB000B3FB1B4C012618B18DF80060019006E0A4
:103BC000A068E168814205D000208DF80000696896
:103BD00068468847A068E168081AA188884207D823
:103BE0000E490122491CC81DFEF7E2F87CBD01E028
:103BF000AE70FBE70A4809491030FCF772FB30B1A0
:103C000003208DF80000696868468847EEE703499D
:103C1000012201F10800FEF7E7F9E7E7F0210020B3
:103C2000887E00200078012801D101498870704702
:103C3000002200202DE9FF470C4605464FF4007195
:103C4000FEF743FE01274FF40178002618B34FF426
:103C5000927949462846FEF72DFEE0B149462846AE
:103C6000FEF72DFEC5F80883A07E00B96F60022024
:103C70008DF80000D5F88004C5F880040390E07D3D
:103C80008DF80800E0680190E6752676D4E9001208
:103C90006846904727E004212846FEF716FE10B339
:103CA0004FF484712846FEF705FEE0B12146284610
:103CB000FFF7A4FCE07D617E884214D1207E38B1FC
:103CC000617EE268E0752069E0602676667607E04E
:103CD000A07E00B96F60C5F80883E675617EE26872
:103CE0002046FFF7A4FC4FF48E7841462846FEF7A5
:103CF000E1FD88B1A08AA17D884204D221462846F0
:103D0000FFF716FF08E041462846FEF7D8FDA17DE3
:103D100011B12046FFF71CFF4FF4A2784146284618
:103D2000FEF7C8FD002812D041462846FEF7C7FD21
:103D3000A07E00B12F60E07D002808D0E675617E8E
:103D4000E26804B02046BDE8F047FFF770BCBDE86C
:103D5000FF87002000F0E0FAFBE72DE9FF410C4669
:103D60004FF4927705463946FEF7B5FD0026C0B1FF
:103D700039462846FEF7B4FD02208DF80000D5F83C
:103D80008004C5F880040390D5F83C058DF8080040
:103D9000E0680190E6752676D4E9001268469047FF
:103DA00024E04FF4887739462846FEF794FDE8B1C1
:103DB00039462846FEF794FDD5F83C05C1B2E07DB2
:103DC000884213D1207E60B1E268D5F8000220F06D
:103DD0002000C5F80002207EE0752069E0602676AC
:103DE00001E0E675E2682046FFF721FC4FF4A27778
:103DF00039462846FEF76FFD68B139462846FEF77A
:103E00006FFDE07D38B1E675D5F83C05E268C1B2DA
:103E10002046FFF70CFC4FF4907631462846FEF71B
:103E20005AFD00280FD031462846FEF759FDA07DE7
:103E3000002808D0D5F84C0504B0C1B22046BDE832
:103E4000F041FFF785BEBDE8FF81EFF3118020212F
:103E500081F311887047000070B5114CA078401CA8
:103E6000C0B2A0703C2819D30025A5706078401C12
:103E70006070FFF745F860783C2807D365702078BC
:103E8000401CC0B22070182800D3257063782278B7
:103E9000BDE8704003A10320FEF766BC70BD0000C2
:103EA0002821002042616368656C6F723A494E4672
:103EB0004F3A5468652074696D652069733A20250E
:103EC0003032643A25303264200D0A00D0E90132E4
:103ED00001699A60D0E901235A604A68824201D19F
:103EE00082684A60002202610868401E08607047CC
:103EF0000148C06900F0A0B92821002000F10801A4
:103F00004FF0FF32C0E90112C16001610021016080
:103F1000704700210161704730B50B685A1C02D010
:103F200000F1080202E0026904E0224654682568B4
:103F30009D42FAD953684B6099608A60516008616C
:103F40000168491C016030BD42684A6093688B601B
:103F500093685960916008610168491C016070476D
:103F6000202080F3118802480168491C01607047D5
:103F70007421002003490868401E086001D180F3C5
:103F800011887047742100207047000010B5002090
:103F9000FDF766FD09482021C0F808150121C0F889
:103FA0000413816001600649E02081F800044FF0AD
:103FB000E0214FF40030C1F8000110BD00100140B5
:103FC00011E000E02DE9F04704463948844200D969
:103FD00004460021EFF3108072B6DFF8D880D8F8DD
:103FE000082001234FF0E02582B9C8F80830D5F841
:103FF0008061314B1E40C8F80060C5F88031D5F8AB
:104000008431C8F804306A17C5F8842100B962B653
:104010008A462A4ED6F80475FDF7EEFA90B33819A1
:10402000012120F07F40C6F80813C6F840054FF480
:10403000A0713046FEF738FC4FF48030C6F8040318
:10404000BFF34F8F34B120BFD5F80012D5F804224A
:104050001143F8D0B146C6F808033046D6F80465D7
:104060004FF48071FEF720FC0120C9F80403B74229
:1040700001D906F18076F01BA04200D9204608B194
:1040800000F042F9D8F80800414600280DD0EFF3BF
:10409000108072B60A68C5F800214A68C5F8042184
:1040A000C1F808A0002800D162B6BDE8F087000082
:1040B000FDFFFF007C7E0020FC06FFBC00100140DD
:1040C00010B5084B002200BF53F832401CB1521CFF
:1040D000022AF9D310BD43F8321003EBC201486045
:1040E00010BD0000247A002070B50D460446FFF78D
:1040F00037FF616C0020491C00D16064A16C491C31
:1041000000D1A064FFF736FFA06B20B9294604F167
:10411000240000F033F82046BDE87040FFF7C6B930
:1041200001490120086270477821002070B5114CC8
:104130000D4621681831FFF7EFFE2068001DFFF7DC
:10414000C5FE38B9206890F82C10012088406169BC
:1041500081436161681C05D020692844BDE8704036
:10416000FEF786BF2168BDE870400348091DFFF7D0
:10417000EBBE000078210020C07A002070B50C4C06
:104180000D4621681831FFF7DFFE2068001DFFF79C
:104190009DFE38B9206890F82C1001208840616994
:1041A0008143616120692844BDE87040FEF760BF2B
:1041B0007821002070B5040039D01D4DE06A2968CF
:1041C000C96A884233D2A069002804DB2868C06A23
:1041D000C0F10300A061E16A164E01EB8101606944
:1041E00006EB810188421FD1201DFFF76FFE0121E0
:1041F00050B9E06A00EB800256F8222022B96A69C1
:1042000001FA00F082436A612868C06AE0626A6964
:1042100081401143696100EB800006EB8000211DA5
:10422000BDE87040FFF790BE2868C06AE06270BDCC
:1042300078210020347A002070B504002DD0174D6D
:104240002868844229D0FFF78BFE2046FFF70CF93F
:1042500001281ED1201DFFF739FEE06A01216A699D
:104260008140114369610E4900EB800001EB800041
:10427000211DFFF769FEE06A2968C96A884208D3F0
:1042800008494FF08050086040BFBFF34F8FBFF325
:104290006F8FBDE87040FFF76DBE70BD78210020C4
:1042A000347A002004ED00E002494A6A026009699C
:1042B00041607047782100201FB500240E48029409
:1042C000CDE9004023463C220CA10E48039400F0A7
:1042D000C9FA01280FD100F0D1FC01280BD1202010
:1042E00080F3118804480121083881610461BDE828
:1042F0001F4000F08BB81FBD8021002049444C4571
:10430000000000000132020002490A6910440861FD
:10431000704700007821002070B50446FFF720FEAA
:10432000224D04B92C68201DFFF7D0FD58B9E06A72
:104330001F4A00EB800152F8211021B90121814070
:10434000686988436861A06A18B104F11800FFF732
:10435000BDFD1748211D8C30FFF7F6FDFFF70AFE63
:1043600028688442A86917D148B112494FF080509B
:10437000086040BFBFF34F8FBFF36F8F70BD0C4815
:10438000E9688C300068884202D10020286070BD46
:10439000BDE8704000F018B80028F8D0FFF7E0FD45
:1043A000FFF70EF8BDE87040FFF7E4BD782100206C
:1043B000347A002004ED00E00248016B491C0163DF
:1043C00070470000782100200E48016B11B10121D7
:1043D000016270470021016241690B4AB1FA81F123
:1043E000C1F11F0101EB810102EB810101F1080321
:1043F0004A6852684A609A4201D152684A60D1685C
:104400000160704778210020347A00200E49E020B6
:1044100081F8140DFFF7BAFD0C49002008600C4824
:10442000016841F4700101600A48016841F04041AF
:10443000016007487838016841F010010160FAF71F
:10444000F9FFFFF70DF800000EE000E074210020F6
:1044500088ED00E034EF00E010B54C20FFF758F88D
:10446000040019D0002060602060A060E060A063BC
:104470000121C4E90F10401E6064A06404F1100023
:10448000FFF73CFD04F12400FFF738FD00231A4636
:104490001946204600F0ECF8204610BD70B50E001D
:1044A00005464FF0000413D005FB06F0401C4C30CD
:1044B000FFF72EF850B1044666B104F14C002060BD
:1044C000C4E90F560121204600F09AF8204670BD3D
:1044D0000020ECE72460F3E72DE9FF470027474E73
:1044E00082B099468A460446B8464FF0805500BFD0
:1044F000FFF736FDA06B68B351462046E768FEF72C
:1045000023FEB9F1000F13D0E760606A50B104F1E7
:10451000240000F007FB28B1356040BFBFF34F8F88
:10452000BFF36F8FFFF726FD012006B0BDE8F087CF
:10453000A06B401EA063206810B9FFF70FF8606001
:1045400020690028EED004F1100000F0EBFA0128F9
:10455000E2D0E7E7049808B11FB106E0FFF70AFDD3
:104560001FE06846FFF7A0FE0127FFF703FDFFF7F6
:1045700023FFFFF7F5FC606C401C01D1C4F84480B8
:10458000A06C401C01D1C4F84880FFF7F3FC04A9DB
:10459000684600F043F930B12046FEF787FF00F08F
:1045A000F7FA0020C1E7FFF7DBFCA06B38B1FFF79B
:1045B000E1FC2046FEF77AFF00F0EAFA98E7FFF701
:1045C000D9FC206830B9FFF7CBFC6068FFF7F2FD3B
:1045D000FFF7D0FC04F124000499FFF7A7FD204663
:1045E000FEF764FF00F0D4FA002881D1356040BFA7
:1045F000BFF34F8FBFF36F8F7AE7000004ED00E049
:1046000070B50D460446FFF7ABFCD4E90F122068E5
:1046100001FB020060600020A0632068A0600146EA
:10462000E06B401E00FB0210E0604FF0FF30606462
:10463000A06404F110004DB1FFF760FC04F1240008
:10464000FFF75CFCFFF796FC012070BD2169002993
:10465000F8D000F067FA0128F4D104490007086097
:1046600040BFBFF34F8FBFF36F8FEBE704ED00E068
:104670002DE9FF4700273C4E82B099468A46044602
:10468000B8464FF0805500BFFFF76AFCA06BE16BA6
:10469000884206D3B9F1020F03D00498E0B1F7B114
:1046A00021E04A4651462046FEF761FD616A31B17C
:1046B00004F1240000F036FA012801D006E028B108
:1046C000356040BFBFF34F8FBFF36F8FFFF752FCD2
:1046D000012006B0BDE8F087FFF74CFC1FE06846FC
:1046E000FFF7E2FD0127FFF745FCFFF765FEFFF747
:1046F00037FC606C401C01D1C4F84480A06C401CA5
:1047000001D1C4F84880FFF735FC04A9684600F0E1
:1047100085F830B12046FEF7C9FE00F039FA0020D6
:10472000D7E7FFF71DFCA06BE16B884214D1FFF7C0
:1047300021FC04F110000499FFF7F8FC2046FEF775
:10474000B5FE00F025FA00289ED1356040BFBFF3CA
:104750004F8FBFF36F8F97E7FFF70CFC2046FEF7F4
:10476000A5FE00F015FA8FE704ED00E02DE9F04119
:104770001F46164688460446FFF767FB0546A06BB2
:10478000E16B884207D3022F05D00020E9B281F304
:104790001188BDE8F0813A4641462046FEF7E7FC25
:1047A000A06C401C04D0A06C401CA0640120EDE76C
:1047B000606A0028FAD004F1240000F0B3F9002860
:1047C000F4D0002EF2D001203060EFE770B50E4635
:1047D0000446FFF73AFB0546A06BE16B884218D20E
:1047E000A06B401CA063A06C401C04D0A06C401CBB
:1047F000A06401200EE0606A0028FAD004F12400D1
:1048000000F090F90028F4D0002EF2D001203060A2
:10481000EFE70020E9B281F3118870BD70B50D4655
:104820000446FFF79DFB0E4A11692868431C0FD010
:104830002368526A934202D062688A420AD9626847
:10484000891A814206D2401A28602046FFF72CFDC3
:10485000002400E00124FFF78DFB204670BD00001E
:10486000782100202DE9FF5F8A46DDE90F90910055
:104870000E9F9B461546884610B90846FEF748FE2F
:10488000060018D04820FEF743FE0400304610D042
:10489000A52241462063FAF735FE6FF0030101EBD4
:1048A0008501206B3D46084420F007085146002052
:1048B00004E0FFF769FB4FF0FF3486E022180B5C41
:1048C00082F834300A5C12B1401C0428F6D300266A
:1048D00084F83760032D00D30225E562C4E90E5643
:1048E000201DFFF716FB04F11800FFF712FB2461EF
:1048F000C5F103016462A161266484F844605A46EC
:1049000040460099FEF740FE2060B9F1000F01D04B
:10491000C9F80040FFF724FB2E4DE868401CE86012
:104920002868DFF8B48010B1A86940B32CE02C608F
:10493000E868012828D1002606EB860108EB8100F3
:10494000FFF7DCFA761C032EF6D323483C30FFF742
:10495000D5FA21485030FFF7D1FA1F486430FFF7ED
:10496000CDFA1D487830FFF7C9FA1B488C30FFF7A5
:10497000C5FA19483C3068631430A86304E028681D
:10498000C06AB84200D82C60A86A0121401CA86205
:10499000E06A6A6981401143696100EB800108EBBC
:1049A0008100211DFFF7D0FA0124FFF7E3FAA8697F
:1049B00058B12868C06AB84207D208492007086081
:1049C00040BFBFF34F8FBFF36F8F04B02046BDE8E9
:1049D000F09F000078210020347A002004ED00E0F0
:1049E0000548816919B1006B18B10020704701209A
:1049F00070470220704700007821002001480069BC
:104A000070470000782100200148006970470000CD
:104A1000782100202DE9F041244C0027206B40B183
:104A2000E069401CE061206A00B101273846BDE81A
:104A3000F0812069401C2061266946B9606BA16B3A
:104A40006163A063606A401C6062FEF7B9FCE06AC3
:104A50008642E8D3606B006838B1606BC068C56897
:104A60006868864204D2E062DDE74FF0FF30FAE783
:104A7000281DFFF72BFAA86A18B105F11800FFF7F7
:104A800025FAE96A0120626988401043606101EB00
:104A90008100074901EB8000291DFFF755FAE86AFC
:104AA0002168C96A8842D5D30127D3E7782100203D
:104AB000347A002070B504004FF000012BD0E06B79
:104AC000401EE063A36BE26A9A4224D018BB201D0B
:104AD000FFF7FCF9114B124A012150B9E06A00EBD3
:104AE000800553F8255025B9556901FA00F0854332
:104AF0005561A06BE062C0F10300A061E06A5569F6
:104B000081402943516100EB800003EB8000211DAF
:104B1000FFF71AFA0121084670BD0000347A002020
:104B2000782100202DE9F041C068C46804F1180024
:104B30000746FFF7CBF9144D286B012660B11348E7
:104B4000394600BFFFF700FAE06A2968C96A88425F
:104B500013D901242E6211E0201DFFF7B7F9E16A95
:104B60006A6906FA01F01043686101EB81000749A8
:104B7000643901EB8000211DE4E70024FEF720FCEE
:104B80002046BDE8F081000078210020987A0020BE
:104B90002DE9F0470027FFF7E3F9264C206B401E74
:104BA0002063206B98BBE168234E012079B3A6F106
:104BB000640980463068E8B1F068C56805F11800FE
:104BC000FFF784F9281DFFF781F9E96A626908FA9D
:104BD00001F01043606101EB810109EB8100291DA7
:104BE000FFF7B2F9E86A2168C96A8842E2D3C4F8DB
:104BF0002080DFE7E06958B14546E06940B1FFF742
:104C000009FF00B12562E069401EE061F5E70BE0B5
:104C1000206A012808D1094901270007086040BF20
:104C2000BFF34F8FBFF36F8FFFF7A4F93846BDE88E
:104C3000F087000078210020987A002004ED00E041
:104C40002DE9F0471E46DDF8209017460D008046FE
:104C500012D02820FEF75CFC04000AD0FEF722FAEE
:104C6000C4F80080C4E90657C4E90869201DFFF7AD
:104C700050F92046BDE8F0870024FAE71FB500246C
:104C8000FEF710FA0A48006870B1094902220020B4
:104C90000092091DCDE9011003460390502205A1A1
:104CA0000648FFF7DFFD044604B0204610BD0000B3
:104CB000B4210020546D72205376630089340200C1
:104CC0002DE9FF41114C1F460346266800200A9D2E
:104CD000002E0ED08DE80E0006290FDAFFF780FEB9
:104CE00002284FF0000307D0002269462068FFF732
:104CF000BFFC04B0BDE8F0812A46F6E700233A463F
:104D000069463046FFF732FDF3E70000B42100208A
:104D100010B50446FFF724F9606908B1012400E0EA
:104D20000024FFF727F9204610BD000028220020AC
:104D300048220020010002000100000710003C0092
:104D4000000090010100A0005000000008000000D9
:104D50000600000005000000070000000000000041
:104D600000502700111213140D0E0F10B839002037
:104D7000D8390020043A00200D000300050F02007E
:104D80000E000300050F02000F000300050F0200D4
:104D900010000300050F0200000000019ECADC2481
:104DA0000EE5A9E093F3A3B50000406E01010000F9
