:020000040001F9
:10F0000090450020E9F40100F1F40100B5F401009D
:10F01000F5F40100F7F40100F9F40100000000002C
:10F0200000000000000000000000000015F40100D6
:10F03000FDF401000000000059F4010001F5010099
:10F04000E5F7010003F5010039FB010003F50100BC
:10F0500003F5010003F501001DF6010003F50100B1
:10F0600003F5010003F5010003F5010003F50100BC
:10F0700003F5010003F5010003F5010003F50100AC
:10F0800003F501003DF8010003F5010003F501005F
:10F0900003F5010003F5010079F8010003F5010013
:10F0A00003F5010003F5010003F5010003F501007C
:10F0B00003F5010003F5010000000000000000005E
:10F0C00003F5010003F5010003F5010003F501005C
:10F0D00003F5010003F5010003F501000000000045
:10F0E0000000000000000000000000000000000020
:10F0F0000000000000000000000000000000000010
:10F1000000000000000000000000000000000000FF
:10F1100000000000000000000000000000000000EF
:10F40000DFF80CD000F0D8F800480047791A020065
:10F4100090450020264B19680868B0E8F04F80F34B
:10F420000988BFF36F8F4FF0000080F31188704799
:10F43000000000000748006880F3088862B661B6E3
:10F44000BFF34F8FBFF36F8F4FF4F07080F31188CD
:10F4500000DF000000F00100EFF30980BFF36F8FC1
:10F46000134B1A681EF0100F08BF20ED108A20E918
:10F47000F04F106008B44FF0200080F31188BFF304
:10F480004F8FBFF36F8F04F021FB4FF0000080F32C
:10F49000118808BC19680868B0E8F04F1EF0100F1A
:10F4A00008BFB0EC108A80F30988BFF36F8F7047F4
:10F4B00060210020094B1EF0040F1CBFEFF30980F0
:10F4C0001847EFF308800649064A884201D890425F
:10F4D00002D88D464FF000001847000091F7010058
:10F4E00090450020903D0020064880470648004790
:10F4F000FEE7FEE7FEE7FEE7FEE7FEE7FEE7FEE7E4
:10F50000FEE7FEE79DF8010001F4010040EA010377
:10F510009B0703D009E008C9121F08C0042AFAD2C9
:10F5200003E011F8013B00F8013B521EF9D270478D
:10F53000D2B201E000F8012B491EFBD27047002235
:10F54000F6E710B513460A4604461946FFF7F0FFE2
:10F55000204610BD2DE9F05F0546002092469B46EF
:10F5600088460646814640241BE0284641464746D9
:10F57000224600F042F853465A46C01A914110D331
:10F5800011461846224600F029F82D1A67EB0108AB
:10F590004F4622460120002100F020F817EB000919
:10F5A0004E41201EA4F10104DFDC484631462A46C4
:10F5B0004346BDE8F09F0000064C074D06E0E068BA
:10F5C00040F0010394E8070098471034AC42F6D3AA
:10F5D000FFF71AFFA4450200C4450200202A04DBFD
:10F5E000203A00FA02F1002070479140C2F1200356
:10F5F00020FA03F3194390407047202A04DB203A95
:10F6000021FA02F00021704721FA02F3D040C2F142
:10F610002002914008431946704700002DE9F04749
:10F6200000268CB0DFF86091B0464FF4807501245D
:10F6300037460696284602F07DFE38B1D9F8040315
:10F64000204203D0284602F06BFE26432D1D6400A5
:10F650007F1CADB2082FEDD34FF4BE74204602F0EC
:10F6600069FE48B1204602F05BFE46F0004606AA5D
:10F670000121002002F040FE444D16F0FF0F15D08E
:10F680000127002437420DD009EB8401D1F8100581
:10F69000D1F81015C0F3042055F82420C1F301411E
:10F6A00002B190477F00641C082CEBD3002E67DA70
:10F6B0004FF0FF30CDE9088000263446281910F8B5
:10F6C000507F90F9000027F0C008401C44D009A9E1
:10F6D000404602F015FA58B34FEA9719404601F038
:10F6E0008DFC55F820701FB1B9F1030F03D00FE066
:10F6F000B9F1030F30D108A84FEAD80208F0070388
:10F70000815C4FF0010C0CFA03FC41EA0C018154BE
:10F710004FF0A04101EB8800D0F8000706A9C0F324
:10F72000014A404602F0ECF918B1BAF1020F03D0D9
:10F7300012E0BAF1030F0FD1B9F1030F08D1BAF1FA
:10F74000020F1BD00221404602F0BAFD761CF6B231
:10F7500017B149464046B847641C042CAED3002E6E
:10F760000ED06A460121002002F0C6FD06990098DD
:10F77000884205D00690089809909DE70321E2E7AA
:10F780000CB0BDE8F087000000600040443B002062
:10F7900000F000F8BFF34F8F05480168054A01F4F7
:10F7A000E06111430160BFF34F8F00BFFDE7000030
:10F7B0000CED00E00400FA0500F01F020121914069
:10F7C0004009800000F1E020C0F88011704700F08F
:10F7D0001F02012191404009800000F1E020C0F8A3
:10F7E000001170472DE9F0414FF48077384602F060
:10F7F0008FF90124104EA50748B1384602F08FF961
:10F800000120C5F808037470002001F031FC4FF4AA
:10F810008277384602F07CF900280BD0384602F097
:10F820007EF90220C5F80803B470BDE8F04101205C
:10F8300001F01EBCBDE8F081303B002010B50C4C3F
:10F840004FF48071204602F07DFD4FF4A0712046F8
:10F8500002F078FD202080F3118804F0AFFC18B18D
:10F8600004492004086040BF002080F3118810BDC7
:10F870000010014004ED00E0074810B5406830B1C9
:10F880008047002807D0BDE8104000F041BCBDE82B
:10F89000104001F0C7BF10BD04220020F0B5984809
:10F8A0000023021D01780125101D4FF08056062906
:10F8B00007D11478240704D10478C4F30314032C6B
:10F8C00002D0062904D00FE08F4F8E4C7C670EE0EB
:10F8D0001478240708D10478C4F30314032C06D049
:10F8E000042C04D0052C02D0062907D00EE0D6F84F
:10F8F0004442864FC4F342343C6002E0147824074B
:10F9000004D10478C4F30314032C02D0062906D0D2
:10F9100011E07F4C276827F0807727600EE014788D
:10F92000240708D10478C4F30314032C06D0042C54
:10F9300004D0052C02D006290AD011E04FF08044F3
:10F94000C4F80C31C4F81031704C241F236002E05D
:10F950001478240704D10478C4F30314032C02D0D0
:10F96000062905D00CE0694F032464373C600AE0A7
:10F970001478240704D10478C4F30314032C02D0B0
:10F9800006290DD014E0634F05243C60614C7834A7
:10F990002560604C083423603F243F1D3C6002E03A
:10F9A0001478240704D10478C4F30314052C02D07E
:10F9B000062957D068E058490968584A11605649E5
:10F9C000091D0968121D1160534908310968121D8B
:10F9D000116051490C310968121D11604E491031F6
:10F9E0000968121D11604C4914310968121D11601B
:10F9F000494918310968494A2032116046491C3189
:10FA00000968121D1160444920310968121D1160F6
:10FA1000414924310968121D11603F4928310968A4
:10FA2000121D11603C492C310968121D11603A49C0
:10FA300030310968394A4032116037493431096838
:10FA4000121D1160344938310968121D11603249A4
:10FA50003C310968121D11602F4940310968121D9F
:10FA6000116002E0117809070ED10078C0F303108D
:10FA7000032803D0042801D0052805D1D6F8580260
:10FA8000274900F04F00086021487438016841F4AC
:10FA900070010160BFF34F8FBFF36F8F4FF01021E4
:10FAA000D1F80002002803DBD1F80402002822DA92
:10FAB0001C4A15601C480468002CFCD01524C1F8B1
:10FAC00000420568002DFCD0C1F8044201680029FD
:10FAD000FCD0136001680029FCD0BFF34F8F0C48A5
:10FAE000F0380168114A01F4E06111430160BFF38D
:10FAF0004F8F00BFFDE70F490D480860F0BD0000C3
:10FB0000E00F00F00DF0ADBA00C007403C0500402A
:10FB1000FCED00E0105600400404001020C5004039
:10FB2000E40E004004E5014000E401400400FA0551
:10FB30000090D003182200200448017F04480029C7
:10FB4000024901D003F015BD03F084BC9C3B0020AA
:10FB5000002000400FB4054B10B503A9044A0298D9
:10FB600000F02AF810BC5DF814FB00000914020034
:10FB70001C22002002E008C8121F08C1002AFAD186
:10FB800070477047002001E001C1121F002AFBD11D
:10FB9000704700000121202803DA81400548014018
:10FBA00003E0402802DA2038814009B10120704783
:10FBB00000207047FC06FFBC2DE9FF4F8DB00F46BB
:10FBC0000546002606E025280BD0DDE90F129047F8
:10FBD0006D1C761C28780028F5D111B03046BDE8A0
:10FBE000F08F0024A246A1460122EC4900E0044324
:10FBF00015F8013F203B02FA03F00842F7D12878BC
:10FC00002A2810D06FF02F022878A0F1300109299E
:10FC100014D80AEB8A0102EB410144F0020400EB24
:10FC2000010A6D1CF0E701CF5FEA000A03D544F436
:10FC30000054CAF1000A44F002046D1C28782E28F2
:10FC400017D115F8010F44F004042A280ED06FF0E4
:10FC50002F022878A0F1300109290AD809EB89017F
:10FC600002EB410100EB01096D1CF2E757F8049B20
:10FC70006D1C28786C280FD006DC4C2817D068281B
:10FC80000DD06A2814D104E0742810D07A280FD13E
:10FC90000DE044F400140AE044F4801401E044F45C
:10FCA00040146978814202D104F580146D1C6D1CEA
:10FCB0002A786E2A1FD00CDC632A31D004DC002A9B
:10FCC0008BD0582A11D1A3E0642A68D0692A0CD1BC
:10FCD00065E0732A2ED004DC6F2A73D0702A04D119
:10FCE0009BE0752A6FD0782A6ED01046DDE90F129E
:10FCF0009047761C50E1C4F30250022806D0032836
:10FD000009D0042801CF09D0066045E101CFF117E1
:10FD1000C0E9006140E101CF06803DE106703BE1B2
:10FD200017F8040B8DF8000000208DF80100EB4659
:10FD3000012003E057F804BB4FF0FF3061074FF09C
:10FD4000000102D40DE008F10101884649450FDAAF
:10FD50008045F8DB1BF808100029F4D108E008F111
:10FD6000010188468142FADB1BF808100029F6D110
:10FD7000DDE90F23AAEB08008146214600F036F9A1
:10FD8000304400EB080604E0DDE90F121BF8010B1C
:10FD90009047B8F10108F7D221464846F7E00A211A
:10FDA000C4F302534FF0000B0891022B04D001CF93
:10FDB000C117032B09D00AE0FF1D27F00707F7E85A
:10FDC000020108E032E01FE020E000B2C117042B7E
:10FDD00001D140B2C117031E71F1000307DA4FF0E1
:10FDE000000CD0EB0C006CEB01012D2302E023058D
:10FDF00004D52B238DF82430012303E0E30701D041
:10FE00002023F7E7984658E00A2110E010210EE081
:10FE100010204FF0000B08900CE010214FF0000B69
:10FE200044F004044FF00809089103E008214FF062
:10FE3000000B0891C4F30253022B04D001CF002120
:10FE4000032B06D006E0FF1D27F00707F7E80201A5
:10FE500003E080B2042B00D1C0B24FF000082307AA
:10FE60002BD5702A07D0DDF820C08CF0100C5CEA8E
:10FE70000B0C05D00EE040238DF82430012308E060
:10FE800050EA010306D030238DF824308DF8252068
:10FE900002239846DDF820C08CF0080C5CEA0B0CBD
:10FEA0000BD150EA010301D1630706D530238DF849
:10FEB00024304FF00108A9F10109582A04D038A2D2
:10FEC0000B9208AA0A920BE03AA2F9E75B46089A5D
:10FED000FFF740FB0B9B9B5C0A9A521E0A92137021
:10FEE00050EA0102F2D10A98ADEB000000F1200BBC
:10FEF000600702D524F4803401E04FF00109D945B0
:10FF000002DDA9EB0B0000E0002000EB0B014144F7
:10FF10000890AAEB010AE00306D4DDE90F2321468D
:10FF2000504600F063F806444FF0000908E009A9C4
:10FF300011F80900DDE90F12904709F10109761C5B
:10FF4000C145F4DBE0030CD5DDE90F232146504623
:10FF500000F04CF8064404E0DDE90F123020904731
:10FF6000761C0899481E08900029F5DC08E00A98DC
:10FF70000A990078491C0A91DDE90F129047761C16
:10FF8000BBF10001ABF1010BF1DC21465046DDE98C
:10FF90000F2300F019F806446D1C1BE60928010028
:10FFA00030313233343536373839616263646566EF
:10FFB00000000000303132333435363738394142B1
:10FFC00043444546000000002DE9F0410446002569
:10FFD0001E461746880404D405E039462020B04761
:10FFE0006D1C641EF9D52846BDE8F0812DE9F0416D
:10FFF000044600251E469046C80301D5302700E080
:020000040002F8
:100000002027880404D505E041463846B0476D1CDA
:10001000641EF9D52846BDE8F08110B50122022101
:10002000002000F079FE08B1072810D10722022134
:10003000012000F071FE08B1072808D100210A2232
:10004000084600F069FE08B1072800D1002010BD65
:10005000022000F023BD000070B50024064D06E02C
:100060006868012110F8340001F0F6FD641C28785E
:100070008442F5D3002070BDC0210020F8B515469C
:100080000C460646052A01D20720F8BD01F0CAFE3B
:1000900018B901F099FE0028F7D1104900204E60F0
:1000A0000C70C1E902500E4D08610DE006EBC40072
:1000B0006968009181788DF801100078094A6946D5
:1000C00001F01CFE0028E0D1641EE4B2EED2BDE8CF
:1000D000F840054A0021024800F05AB8C02100202B
:1000E00068450200F5160200CD110200BFF34F8FE4
:1000F00005480168054A01F4E06111430160BFF35E
:100100004F8F00BFFDE700000CED00E00400FA0592
:100110000EB500210091CDE901106A4644F20100BC
:10012000FFF7E4FF0EBD10B58268C368934203D0A9
:1001300001F046F9002010BD052010BD29B112B113
:10014000531E134203D0092070470E2070470160F0
:10015000838000218160C1600846704710B58268C5
:10016000C3689A1A83889A4203D801F033F90020B1
:1001700010BD042010BD10B502F0D6FD017B002992
:1001800005D001688268BDE810400846104710BDE0
:1001900038B5046800251AB110B1207B20B901E000
:1001A000072038BD606808B1082038BD00202060F5
:1001B000A060E06069B10120A26008490246009198
:1001C00023464FF47A7106A004F00EF9606010B176
:1001D00002E00020F0E70E25284638BD7701020036
:1001E000200000000249401C086000207047000009
:1001F000D42100202DE9FC41044646682C481546D0
:1002000000682C4A12685143401C01EB5001B1FBBD
:10021000F0F756B1207B002809D0304604F04CF9A5
:10022000002804D00020BDE8FC810820FBE7EFF3A4
:100230000580256008B30025019501AB3A460921E8
:100240003046009504F010F901282BD103F0B0FFDF
:10025000024601AB06213046009504F005F901285D
:1002600020D1019800B314494FF08050086040BF7E
:10027000BFF34F8FBFF36F8F16E0022500233A467E
:1002800004213046009504F0EFF801280AD103F06C
:1002900089FF0246002301213046009504F0E4F86E
:1002A000012801D00420BEE701202073BAE7000036
:1002B00008150140D421002004ED00E07CB5416820
:1002C0000024054600290CD0EFF30581B9B1019453
:1002D00001AB00220821009404F0C6F8012817D1D0
:1002E00001E008207CBD0198A0B10C494FF080507E
:1002F000086040BFBFF34F8FBFF36F8F0AE002214A
:10030000002300911A46032104F0AEF8012801D021
:1003100004207CBD2C7300207CBD000004ED00E0B7
:1003200070B50A4E01460A48B578FFF7FCFE044650
:100330004DB10020B070711C0122C81D01F0B8FD44
:1003400008B1FFF7E5FE204670BD0000F421002053
:100350006C3D0020F0B5284E89B01F460D000446C4
:1003600072603BD0A888296882B22448FFF7E6FE75
:10037000002834D1A889A96882B220481030FFF73C
:10038000DDFE00282BD120221D496846FFF7BEF86C
:1003900060690690207C00B101208DF814008DF872
:1003A0001C70607C00B10E208DF81500E068029092
:1003B000A068039020680190606800900E48114A80
:1003C0006946083001F040FD002808D1B07020686F
:1003D000401C04D09DF81D0018B106E0072009B0AC
:1003E000F0BD0548083001F0BBFD03490122491C5E
:1003F000C81D01F05DFDF2E7F42100206C3D0020F6
:1004000084450200B533020010B501460B48FFF7E2
:10041000A5FE040010D10A4801F0ECFE60B90849BD
:1004200006480839FFF77FFE30B90549012208392F
:10043000034801F059FE0446204610BD7C3D0020D3
:10044000FC21002030B5EFF3108172B60D4A94689C
:10045000012324B10370002900D162B630BD93603E
:100460004FF0E023D3F88051074C25401560C3F8C6
:100470008041D3F8844154605A17C3F88421002284
:100480000270E8E7DC3B0020FC06FFBC0B498A68F1
:10049000002A11D000280FD1EFF3108072B60B683C
:1004A0004FF0E022C2F800314B68C2F8043100225C
:1004B0008A60002800D162B670470000DC3B002053
:1004C0002DE9F041064608680C46411C4FF0A04754
:1004D0004FF0010506D005FA00F1C7F808152068AD
:1004E00001F0D3FE6068411C02D0002101F0C4FE7F
:1004F0003079204901EB4010A169007F0028306865
:10050000C0F8241525D0607D227D31681043C1F8E4
:100510006C05D4E900123068C0F80C15C0F8142539
:1005200024E0A068411C02D0002101F0A5FEE06893
:10053000411C05D08540C7F80855E06801F0A5FECC
:10054000D4E902123068C0F80825C0F81015BDE8DB
:10055000F081607D217D32680843C2F86C05D4E9E2
:1005600000123068C0F81425C0F80C15207D012851
:10057000D7D0ECE79C3B002070B540B10C4D2978FA
:1005800039B1044602F0A8FD28B1002070BD0E204C
:1005900070BD082070BDE868062807D205492268AA
:1005A00001EB8001401C0A60E860EEE7042070BDAA
:1005B000B02100209038002040B1054900220123DD
:1005C000CA600B70C1E90102104670470E207047E7
:1005D000B021002000281FD000291DD00F4A12781A
:1005E000002A19D00A88112A0ED0302A06D0322AC1
:1005F00007D0332A10D1091D01F0E6BF091D02F012
:100600005BB8091D01F056BF8988B0F85E2291429F
:1006100002D1002180F85B1270470000B021002059
:1006200010B50B46040009D0124A107840B1D068CA
:1006300030B194F85B0228B1112010BD0E2010BD1E
:10064000082010BDA4F85E320020906084F85C029F
:1006500084F85A0284F859020748224601210068AA
:100660002060184694DF0028EBD1012084F85B025B
:10067000002010BDB02100209038002010B50446A5
:1006800001F082FE204600F091FA21460448FFF76F
:10069000A1FF21460248BDE81040103800F0A0B884
:1006A000EC24002008B50020009009486946406805
:1006B00003F060FC009840B106494FF0805008609C
:1006C00040BFBFF34F8FBFF36F8F002008BD000006
:1006D0002821002004ED00E070B5054608780C469E
:1006E00001280AD002281CD0032826D113A0FFF726
:1006F00031FABDE8704002F041BD618804F10A02A0
:10070000284600F039F808B1FFF702FD284600F04E
:10071000D7F808B1FFF7FCFCBDE870400BA0FFF76D
:1007200019BA002506E06068405DFFF76DFE0028FD
:10073000F9D16D1C207AA842F5D870BD4469736365
:100740006F6E6E65637465640D0A00005468652001
:100750006465766963652068617320746865204EFE
:100760006F726469632055415254205365727669F3
:1007700063650D0A0000000048B141802AB151882C
:10078000C1801188818091880181002070470E20EE
:100790007047000030B5114B0D4604000FCB85B0FB
:1007A0008DE80F0018D0BDB12146684663DF0028F0
:1007B00010D120788DF812000120ADF810004FF60E
:1007C000FF7060802868E0600020A080208104A87D
:1007D000FFF7D2FE05B030BD0E20FBE73C4502001E
:1007E0001FB500282ED000292CD042884FF6FF7369
:1007F0009A4202D08C88A24224D10C88112C14D0A9
:10080000392C1FD18288002A1CD04B89934219D1E0
:10081000C268002A16D002228DF8002001F11002D1
:100820000192897B8DF8081009E08988914209D1ED
:10083000C168002906D003218DF800104380C268EA
:10084000694690471FBD7FB5002200920192029237
:1008500003920B7801F10E02002B2FD18B88012B14
:100860002CD18B790478A34228D1002317E003EB25
:10087000C30432F81450022D02D0032D0ED105E02E
:1008800002EB44042489ADF80E4007E002EB440477
:100890002589ADF80A506489ADF80C405B1C0C7AD0
:1008A0009C42E4D8C268002A08D04988ADF80210FA
:1008B00001218DF80010C268694690477FBD000095
:1008C0001FB5010019D04888A0F57F42FF3A16D025
:1008D000C988A1B101228DF80C200A4B00228DF8A5
:1008E0000D20D3E90423CDE90023ADF8021003A9BC
:1008F000029169469CDF04B010BD0E20FBE7082082
:10090000F9E700003C4502003EB518B1142A03D9AE
:1009100007203EBD0E203EBD4388A3F57F44FF3C2B
:100920000DD0084D38CD8DE8380003890291ADF81F
:100930000230ADF80620408869469CDF3EBD0820A5
:100940003EBD00005845020000B5134889B0134B66
:10095000406807905022124907A802F0A9FC08B18C
:10096000FFF7D6FB6A460021012002F08BFC08B19C
:10097000FFF7CEFB1720ADF81000684602F078FCB8
:1009800008B1FFF7C5FB074802F068FC002801D05A
:10099000FFF7BEFB09B000BDD4440200A50602006B
:1009A000442200207D06020000238AB0274A03214A
:1009B0001846FFF717FC08B1FFF7AAFB18222449D5
:1009C0006846FEF7A3FD2348069023494FF4807044
:1009D000CDE9070109900723204A06A96846FFF7D9
:1009E000B9FC08B1FFF794FB1D4A40F6CD41012048
:1009F00000F0C0F908B1FFF78BFB6946002000F05A
:100A0000B9F808B1FFF784FB1648FFF7D5FD08B128
:100A1000FFF77EFBFFF798FF134800900B486946ED
:100A20004830FFF7B7FE08B1FFF772FB02F0A6FBF4
:100A30000E4D4FF0FF34002322461946686803F03C
:100A40001FF90028F7D000F0EDFEF4E79424002011
:100A5000EC44020094220020942300205D33020025
:100A6000D50C020099100200D906020028210020AE
:100A70000149085C70470000084502000649095C0E
:100A80004FF0A040D0F81005C84010F0010000D091
:100A9000012080F0010070470845020007490B5C07
:100AA0004FF0A041D1F804250120984020EA02032C
:100AB000C1F808351040C1F80C0570470445020024
:100AC0000249085C012101F00CBC00000445020051
:100AD0000249085C002101F004BC0000044502004A
:100AE0000649095C4FF0A040D0F80405C84010F05A
:100AF000010000D0012080F0010070470445020091
:100B00007CB50024084E25460122305D0095002367
:100B10001146019501F07AFB641C042CF4D3BDE866
:100B20007C4000F003B800000445020010B500242A
:100B30002046FFF7C5FF641C042CF9D310BD10B587
:100B400000242046FFF7C4FF641C042CF9D310BD19
:100B500010B50246064B4FF0FF3000215C5C94421A
:100B600001D1084610BD491C0429F7D310BD00006F
:100B70000845020070B50C4E0C004FF000053060C7
:100B80000BD0012000F0A4F808B1022004E00020FE
:100B900000F09EF800B10B202070706810B9FFF7CC
:100BA0003CFA0546284670BD4C21002010B51A4C71
:100BB0000188606810290ED011292BD1401E606079
:100BC00028D1FFF72AFA002824D02168002921D053
:100BD000BDE810400847D0B900210122084600F0C6
:100BE0009BF808B107280FD107220221012000F04D
:100BF00093F808B1072807D104220221002000F051
:100C00008BF820B1072802D0216801B188476068BD
:100C1000401C606010BD00004C21002010B5002079
:100C200000F0AEF908B1062806D1012000F0A8F9BD
:100C300008B1062800D1002010BD00002DE9F047C2
:100C40000D468146FFF784FF0446042838D2DFF8BA
:100C500078801C481D4EA8F1100735B3012D0ED029
:100C6000022D2DD104EB440030444578002D27D0CF
:100C7000F968002924D02846BDE8F047084704EB6E
:100C80004401755C0E44717859B179680E4A01EBE4
:100C9000810149000E3A8068FFF7ACFA08B987F87D
:100CA0000290B17808F80410E0E78068FFF706FBCF
:100CB00004EB4401314418F804008D78A842D5D0E3
:100CC000BDE8F0870C450200482100208C27002059
:100CD000FFF7D4BE10B504280ED00A2818D1002082
:100CE00000F03CF808B1FFF713FAFFF797FF08B1DF
:100CF000FFF70EFA32DF05E006481321408876DF61
:100D0000082805D0002803D0BDE81040FFF700BA3E
:100D100010BD0000DC24002070B50023042810D290
:100D20000D4D00EB4004012A02D101290CD0002214
:100D3000094E00EB4000304461B1012906D0022980
:100D400006D00723184670BD0E30C2B22A55F9E707
:100D50004270F7E78270F5E78C270020044A0146CD
:100D60000020127AD20702D0084600F04FB8704730
:100D7000382100202DE9F04106461F4800240F4687
:100D80004160C0E90262B0071FD50025012211466B
:100D90002846FFF7C1FF6D1C0446042D02D2002C2B
:100DA000F4D012E08CB97A0804211448FFF766F9F0
:100DB00004000AD1FFF750F9040006D10F48104A89
:100DC0000021001FFFF7E4F90446F00701D0FFF708
:100DD00097FE74B909480B4A00210C38FFF7D8F97F
:100DE000040006D10548084A01210838FFF7D0F968
:100DF00004462046BDE8F081382100201845020055
:100E0000910F0200651A0200510002002DE9F0471F
:100E1000594C05460026607818B100206070FFF735
:100E200085FE0120554F4FF47A694FF4C87A4FF090
:100E30006408182D2CD2DFE805F0890C0C2C3A47F9
:100E400051565A615A619B6969696969898C8F92A7
:100E50009B9B0020FFF744FE00284FF0000008D0C5
:100E6000FFF72EFE022D02D14FF4E16006E0484666
:100E700004E0FFF72DFE022D2ED05046B0FBF8F116
:100E800025706068414300223868FFF7B3F90646D1
:100E900059E00020FFF724FE28B10020FFF710FEE4
:100EA0004FF44870EAE70020FFF712FE14E000203C
:100EB000FFF716FE00284FF0000002D0FFF700FEFB
:100EC000D5E7FFF705FED8E70020FFF709FE002869
:100ED000E9D00020FFF7F4FDC820CFE70020FFF79E
:100EE000DDFD257007E000203FE025702BE06070FD
:100EF0000120FFF7D3FD00226168C5E76070012083
:100F0000FFF7CCFD606800EB8001BCE77868FFF775
:100F1000D5F90646D5F1110000D01EB10220FFF729
:100F2000CFFD10E001280BD9C82110FB01F1B1FB66
:100F3000F8F16068002241437868FFF75BF90646E4
:100F40000220FFF7C5FD3046BDE8F087FFF7EEFD54
:100F5000CBE7FFF7EBFDC6E7FFF7E8FD04E0FFF79F
:100F6000E5FD0020FFF7B4FD0120FFF7B1FDBCE770
:100F7000FFF7E5FDB9E70000382100200C4502002D
:100F800010B5FFF775FD032101F089F9002010BDB0
:100F900000780221FFF752BE05494FF0FF320828C2
:100FA00041F8202002D3084480F848207047000010
:100FB000443B0020F0B54FF0FF3512B10023082666
:100FC00001E008230C260C4C05E000BF54F8237008
:100FD0007F1C04D05B1CB342F8D32846F0BD261812
:100FE0005DB286F8305044F82310002AF5D1E1189C
:100FF00081F84800F1E70000443B00200249084422
:1010000090F9300070470000443B002008B50246CC
:1010100090F85A020B4600EBC00101EB001002EB06
:10102000800092F8592242B1521ED2B202EBC201A4
:1010300000EB4102518A491C00E0C188ADF8001064
:101040000089ADF802006946184696DF08BD000029
:1010500038B10549814204D80449814201D90120AF
:10106000704700207047000020220020302200201E
:1010700070B5084C050009D010342168002907D04C
:1010800008682060496828468847F6E70834F4E78E
:1010900070BD0000303B002001460148FFF7D3BB84
:1010A000DC2400202DE9FF410C4618B1012004B0DA
:1010B000BDE8F08120790027DFF87C80012638B177
:1010C00041F61D5501281ED0022829D00F20EEE739
:1010D00002970397E0680190694601A801F048FF74
:1010E00068B102988188E18000882081029801F02F
:1010F000B3FFBDF8002008EB02118E7300E00A2058
:1011000002212171D3E70D4B6A460021A01D01F099
:10111000EBFE38B1094908398F60CF600A28C6D183
:101120002846C4E7019801F097FF04498A8808EB34
:1011300002118E73F2E70000D43C0020E021002071
:101140002DE9F843054690F85A020F4600EBC0011E
:1011500001EB001005EB800695F85942914604EB2F
:10116000C40006EB40013279601C0A31904226D15E
:101170006B460022284600F0CDFB18B310E0401E5D
:10118000A04201D1002004E004EBC40006EB4000C3
:101190001C30804602466B46284600F0BBFB30B14F
:1011A000002038706946484697DFBDE8F88395F817
:1011B00059024146401C641C85F85902E4B230795A
:1011C000A042DCD8012038700020EEE72DE9F04184
:1011D00000260125144C22E06068226900EBC60756
:1011E000387805FA00F1114217D08A43226100F0E5
:1011F000E1FD02463878E36805FA00F1194002FA89
:1012000000F3994209D17978012901D0012100E048
:10121000002151407A6802B19047761CF6B22078DE
:101220008642D9D3BDE8F081C02100202DE9F047E6
:10123000894690F85A12904601EBC10202EB011167
:1012400000EB8107384601F047FF060041D0224CF1
:10125000A06806283DD200EBC000204D00EB400006
:1012600005EB80006422A0F802803946001DFEF7DD
:101270004DF90027B9F1000F07D0A06800EBC000BE
:1012800000EB400005F8207007E0A168022001EBA8
:10129000C10101EB410105F82100A06800EBC0018C
:1012A00001EB410105EB8101401C8E66A060E16805
:1012B00088420ED1002608E006EBC60000EB400095
:1012C00005EB8000816E8847761CE0688642F3D388
:1012D000A760BDE8F0870000B0210020A8380020FA
:1012E00030B50D4690F85A12144601EBC10202EBDC
:1012F00001119BB000EB810001F0EEFE030007D06E
:10130000ADF8024001208DF800006846019598472D
:101310001BB030BD05490120096809B100207047A4
:101320000349096A0029F9D1704700002C380020D0
:101330006021002010B503780022072B06D2DFE8D9
:1013400003F00504060C1C252B000A7010BD0122B9
:101350000A7002898A81828814E002220A70028956
:101360008A818288CA81C2688A60007C062802D08D
:101370000020087410BD0120FBE703220A70C28818
:101380008A810289CA81C068886010BD04230B70FD
:10139000C0888881CA8110BD0520087010BD00007A
:1013A00070B5064D0646002455F8241009B13046A4
:1013B0008847641C082CF7D370BD0000F43B002064
:1013C000826883881A4003689A5C0A708168491CA5
:1013D00081607047C26883881A4003689954C16865
:1013E000491CC1607047000002490A7882430A70B4
:1013F00070470000D821002002490A7802430A7091
:1014000070470000D821002038B504468DF8000050
:1014100069460320ABBE204638BD0000F8B506463D
:101420001A481F46154600780C46C00708D03046BB
:10143000FFF70EFE30B13CB1200507D00620F8BD05
:101440000120F8BD0220F8BD0320F8BD3068A0429D
:1014500004D8716804EB0530884201D90520F8BD35
:101460007DB1684601F080FC68B100980221C0E9B6
:1014700000670172210B8181058201F027FD0020A8
:10148000F8BD0420F8BD0720F8BD0000F0210020C1
:10149000084601F085BC00002DE9F84307461D48C9
:1014A000DDF820801E46007815460C46C0070CD09B
:1014B0003846FFF7CDFD50B15DB154B145EA0400A7
:1014C000800708D00620BDE8F8830120FBE7022052
:1014D000F9E70320F7E73868A04204D8786804EBFE
:1014E0008601884201D20520EDE77EB1684601F011
:1014F0003BFC68B100980121C0E900780172C0E9A5
:101500000354868201F0E2FC0020DCE70420DAE7E5
:101510000720D8E7F021002070B508B1012070BD88
:10152000184C0025207B08B1257301E000F0A2F8DB
:101530002078082824D2DFE800F02304080C1023C8
:10154000141EBDE8704000F01FB8BDE8704000F008
:101550007FB8BDE8704000F061B8BDE8704000F0B1
:1015600037B808496088203901EB00104068BDE8B1
:10157000704001F01FB96560BDE8704001F028B906
:101580000F2070BDF43C00201049F0B48A1C0020EC
:101590000346A1F120050C18A67A3EB1A37205EB13
:1015A0000014A68916B9A47B012C0AD0401C80B275
:1015B0000228F0D30B704B804B60F0BC41F61D50FD
:1015C00070471080F0BC00F043B80000F43C0020ED
:1015D00010B50F4CA4F12001608801EB0010818947
:1015E00061B1052020700B48022100238180016831
:1015F000BDE8104001220848FFF710BF41680023F2
:1016000001220548FFF70AFF0421217010BD0000E8
:10161000F43C0020E82100202022002038B50A49AF
:10162000084803240B684268898803EB81015388CA
:1016300004700020DB1C00909BB20448FFF72CFFD5
:1016400038BD0000F43C0020E821002020220020CA
:10165000074910B54888091D01F0D8FC18B1BDE84C
:101660001040FFF7DBBFBDE81040FFF7B1BF00003F
:10167000F43C0020F0B51D481D49012506780224E0
:101680008B88A0F12002082E18D2DFE806F004179C
:10169000171A212C2C160189491C01810021418037
:1016A00080F80C1002EB01131B7843B1002344189F
:1016B000491C89B2A3720229F4D30570F0BD01233D
:1016C000F5E742685288D21C1A448A800470F0BD43
:1016D00046880D6802EB061256680E60556013814D
:1016E0008C80062100E007210170F0BDF43C002051
:1016F000E82100202DE9F041124E07460125BD40AA
:101700003068FEF7DBFD00280DD10F4C2069284220
:1017100007D1384600F04EFB0028E06805D028438A
:1017200004E0A8432061BDE8F081A843E06020699F
:1017300028432061A1683068BDE8F0410022FEF72F
:1017400059BD000068450200C02100208188A1F534
:101750007F42FF3A03D0008808B101207047002083
:10176000704700002DE9F0410F4628B10120FFF736
:101770003BFE0120BDE8F081397961B10026264D9C
:1017800001290DD0254C4FF002080229206822D0F3
:1017900003293CD128E001F01BF80121397134E024
:1017A0005FF0000005EB0011097802290CD0401C05
:1017B00080B20228F6D30220FFF71EFE0120FFF7B9
:1017C00013FE41F61D50D5E705EB0014606800F0EC
:1017D000F1FF267019E00146002301221048FFF7AF
:1017E0001DFEA4F804800FE000F0E4FF0A4922681F
:1017F0002031498805EB01114B6823604A60A288BB
:101800000A81A4F804800E703E710028B2D0012035
:10181000FFF7EAFD0E20ADE7D43C0020E8210020D0
:1018200020220020F8B51C4C2078002832D0E06837
:10183000002658B10025607800282BD1684648DF83
:10184000052805D030B1FEF763FC0AE00125F2E778
:10185000012606E0009800F0DBF9216909B1009843
:1018600088479DB96078002814D16088ADF80000E1
:101870006946A06861DF052803D020B1FEF748FC67
:1018800004E0012502E0D4E902018847002ED2D00D
:10189000002DE6D0F8BD00000422002070B50E46F1
:1018A0000446007918494FF4A27501EB4010017FFE
:1018B0002068A1B14FF4887100F060FD4FF4907181
:1018C000206800F05BFD4FF49271206800F056FD37
:1018D0002946206800F052FD0C49206809E04FF4C9
:1018E0008E7100F03AFD2946206800F036FD084967
:1018F0002068C0F80413206800F0ABF93146BDE859
:10190000704000F08AB900009C3B002010030200E8
:101910008000020010B509892AB1D088491C814293
:1019200018D1002010BD90F85A2202EBC20404EB3B
:10193000021200EB820212899142F2D0491C1980F6
:1019400090F85A1201EBC10202EB011100EB810089
:10195000008902E01980D088401E5880012010BD07
:101960002DE9F8430E468146002401F1100561E09F
:1019700029192F5D487802280AD0032808D00428A6
:1019800024D0052822D006283ED007283CD04FE09E
:101990004FF0000816E000BF04EB48004119022098
:1019A0006A46891C64DF58B9BDF80010B9F8000018
:1019B000814205D19DF8021099F80200814234D08D
:1019C00008F10108B8EB570FE6D331E04FF00008FB
:1019D00016E000BF04EB8800411902206A46891C0A
:1019E00064DF58B9BDF80010B9F80000814205D194
:1019F0009DF8021099F80200814216D008F1010802
:101A0000B8EB970FE6D313E010206A46891C64DF19
:101A100070B9BDF80010B9F80000814208D19DF8F6
:101A2000021099F80200814202D10120BDE8F8833A
:101A30003C44641CF07BB4EBD00F99D30020F5E755
:101A4000800701D0002070470120704702681346CC
:101A500002E08A4204D01268002AFAD10B600160C9
:101A6000704700000348017AC90702D00078FFF7E9
:101A7000CDB97047382100201FB518A0FEF76AF8CD
:101A800000F056F808B1FEF743FB032200210120C5
:101A900002F0D8F81649486010B90420FEF738FB68
:101AA00013490222002000920831CDE901100346BB
:101AB0000390D2010FA1104802F0A8FA012802D029
:101AC0000420FEF725FB0D48016841F00401016088
:101AD00001F0C4FF0F20FEF71BFBFBE75465737496
:101AE000696E672C2054657374696E67000000008E
:101AF00028210020424C4500A909020010ED00E019
:101B0000C20800F007030120895C98400840704734
:101B100000F180400068002800D00120704708B51F
:101B200000F18040002101600068009008BD0000C5
:101B300070B50F4C0025207808B1852516E00021EE
:101B4000A16061602161E1604FF0E020D0F8000108
:101B5000012610F0010F03D10721002000F05DF8ED
:101B600001F0D8FB08B9034806602670284670BD0E
:101B7000303B002018050040F8B5174D0446A87802
:101B8000002648B114B16168012088478DF80060D3
:101B90006846FEF757FC17E08DF800606846FEF7D0
:101BA00051FC24B10C4821461030FFF74FFFE86884
:101BB00050B94FF48270FFF7B2FF02204107C1F81D
:101BC0000403064901200860E868401CE8609DF8AD
:101BD0000000FEF75BFCF8BD303B00200800004031
:101BE00038B500208DF800006846FEF72BFC074C46
:101BF000207808B9FFF79CFFE068401CE0600120F6
:101C0000A0709DF80000FEF741FC38BD303B00207D
:101C1000002801D1FFF72CBA70474907090E0028A8
:101C200006DA00F00F0202F1E02282F8141D03E050
:101C300000F1E02282F8001400F01F02012191401F
:101C40004009800000F1E020C0F88012C0F80011C7
:101C50007047000B40B270472DE9F04188460546B9
:101C600000F0C8FD234E002828461AD0FFF7C6F919
:101C7000304490F848008009032802D001280ED093
:101C800007E04FF0A040D0F81005E84010F0010F39
:101C900005D003212846BDE8F04100F011BB022128
:101CA000F8E700F0B3FD002822D02846FFF7A6F998
:101CB00004464FF4807000EB84000F4F81B207EBB5
:101CC0008400D0F8102542F00102C0F81025084623
:101CD00000F026FBB8F1000F0AD02846FFF78EF976
:101CE00056F82000002803D00120A040C7F80403C4
:101CF000BDE8F081443B0020006000402DE9FC413C
:101D0000DFF8A480044608EB0400002790F93000B7
:101D10001346C0170E46401C01D0082741E0F27858
:101D200019462046FFF746F90546401C38D0B078E2
:101D300050B14FF0A04000EB8400D0F8001721F024
:101D40000201C0F8001707E00021737820460091D7
:101D50000A46019100F06CFAF078C0B1134831786E
:101D600000EB8500D0F81025114B1A40C0F8102563
:101D70004FF4F8524FF4403302EA042203EA0141DF
:101D80000A43D0F810150A43C0F8102509E008EB03
:101D90000500327810F8481F41EA8211017000E016
:101DA00004273846BDE8FC81443B00200060004029
:101DB000FFE0FCFF4FF0A041D1F81015C14011F039
:101DC000010000D00120704770B5144D95F8540003
:101DD00008B1082070BD0020411E2A18401CC0B266
:101DE00082F830102028F8D300242046FFF7D4F8DA
:101DF000641CE4B20C2CF8D307210620FFF70DFF7A
:101E00004FF4BE7000F08CFA05494FF00040C1F865
:101E10000403012085F85400002070BD443B0020DD
:101E200000600040034890F85400002800D00120D2
:101E300070470000443B00200121B1EB507F01D1ED
:101E400001207047002070472DE9F04105460079D8
:101E5000164F904607EB40140E46E07E10B1082066
:101E6000BDE8F081707F20772846FEF729FB5FEA06
:101E7000080060603169216003D0317F2846FFF798
:101E80000DFD287907EB4010007F0028286801D05D
:101E9000082100E00421C0F800150020E07520763C
:101EA000A0750121E176A076DAE700009C3B0020D6
:101EB0002DE9F04105460079284E904606EB401486
:101EC0000F46207F18B10846FFF7B6FF80B1626861
:101ED00000234FF404704FF4017172B12A7906EBBC
:101EE0004212127F002A2A6805D0C2F8080304E0D3
:101EF0001020BDE8F081C2F80813E27DB2B1227E65
:101F00007AB162685AB12A7906EB4212127F1AB18D
:101F10002968C1F8040302E02868C0F804131120FE
:101F2000E7E72761012384F8188005E084F817802B
:101F30000020E760607620762879424606EB401064
:101F40003946007F0028284603D0BDE8F04100F064
:101F500073B8BDE8F04100F01BB800009C3B0020C6
:101F600070B504460079094D05EB4010017F00294A
:101F70000AD1807E002807D1204601F0EEF82179B1
:101F8000012005EB4111887670BD00009C3B0020CC
:101F90002DE9F05F04460079264901EB4015A87E43
:101FA000184302D1204601F0D8F86868002820685C
:101FB00006D04FF40171C0F804130020BDE8F09F73
:101FC0004FF4A276314600F0C8F9B1464FF4927A48
:101FD0004FF4847B5146206800F0BAF90646594612
:101FE000206800F0B5F980464946206800F0B0F955
:101FF000074648EA07003043ECD056EA070007D10D
:102000002946206801F084F8E87D697E8842E1D89D
:102010000020E8750EB10320D0E70FB10F20CDE707
:10202000A97E01200029216801D00860C5E7486029
:10203000C3E700009C3B00202DE9F05F8946044681
:102040004FF488759A46904600260068294600F0AD
:1020500095F94FF4A2773946206800F08FF920688F
:10206000C0F83495C0F838852068BAF1000F14D054
:10207000D0F8001241F02001C0F800122179DFF8F9
:10208000648008EB4110406850B120684FF404713F
:10209000C0F804133046BDE8F09F01210160EDE770
:1020A000AA46B9464FF4927B5146206800F061F988
:1020B00007464946206800F05CF905465946206805
:1020C00000F057F9014647EA05000843ECD02379B0
:1020D000002208EB4310C27501B10326002DD9D0B0
:1020E0000F26D7E79C3B00202DE9F04705460079F5
:1020F0003F4E904606EB40140F46207F18B108462D
:10210000FFF79AFE30B1284600F074F820B1112094
:10211000BDE8F0871020FBE784F81680A760002751
:10212000A78228794FF0010806EB40143E46207F35
:102130000028286825D04FF49079494600F01EF910
:102140004FF4AC7A5146286800F018F92868A17D50
:10215000A268C0F84425C0F848152868C0F808806F
:102160006068F0B94946286800F003F98046514696
:10217000286800F0FEF858EA0001F3D058BBA775B4
:102180000FE04FF48E7A514600F0E7F82868C0F867
:1021900008802146286801F0C3F861684FF4807018
:1021A00089B13046B4E75146286800F0D1F810B93B
:1021B000A08A4845F7D1A08A484505D0214628681D
:1021C00001F0AEF800E08146A08AA17D8842EAD302
:1021D000A08A484501D10F26D1E75146286800F072
:1021E000B7F80028F9D02868C0F80C80C7E70000CD
:1021F0009C3B00200079044901EB4010807D0028C1
:1022000000D00120704700009C3B002070B541EADF
:102210004201DDE904564FF0A04441EA830141EA5E
:10222000052104EB800041EA0641C0F8001770BDAB
:1022300070B541EA4201DDE904564FF0A04441EA9D
:10224000830141EA052104EB800041EA0641C0F820
:10225000001770BD70B541EA4201DDE904564FF048
:10226000A04441EA830141EA052104EB800041EAF0
:102270000641C0F8001770BD1CB500220B46009245
:1022800011460192FFF7E6FF1CBD1CB5002100912D
:102290000B46012201911146FFF7DCFF1CBD4FF0F8
:1022A000A04202EB8000D0F8002722F44032C0F8B0
:1022B0000027D0F8002742EA0141C0F80017704714
:1022C0004FF0A04202EB8000D0F8002722F4403209
:1022D000C0F80027D0F8002742EA0141C0F80017F3
:1022E000704701224FF0A043824011B1C3F8082586
:1022F0007047C3F80C25704718B5084B6C4601446D
:102300001B68009306E000BF54F82030D3F8103566
:10231000401C08C28142F7D818BD00006445020085
:10232000034908B50844002101600068009008BD19
:102330000060004002494058012800D0002070474A
:102340000060004008B5002242504058009008BD8F
:102350004058002800D00120704708B500224250A4
:102360004058009008BDD0F80403084000D0012078
:1023700070474058002800D00120704708B500225F
:1023800042504058009008BD3EB50446011D0088EB
:102390001F2856D027DC10282FD013284BD01B28FD
:1023A0003BD01D281ED1091D0C462C48FFF7D8FA3A
:1023B000002817D0294A2046083202F108018CDF94
:1023C00000280FD1FEF7CAFC08B1FDF7A1FE207965
:1023D000A27961798DE80700E378A278617820A07E
:1023E000FDF7B8FB3EBD3B282FD0552831D05628ED
:1023F000F8D1A088132176DF09E00720FEF7AEFCB4
:1024000008B1FDF785FEA1882148FEF709F90028EB
:10241000E8D0BDE83E40FDF77BBE0879022806D033
:102420000328DFD1BDE83E401AA0FDF793BBBDE80D
:102430003E4000F0A3BE0023A0881A4685217FDF1E
:10244000E5E731F8040B75DFE1E7A088132176DFBB
:10245000DDE7A0881721ADDFD9E70000D4440200F2
:10246000436F6E6E656374696E6720746F2074616C
:102470007267657420253032782530327825303205
:10248000782530327825303278253032780D0A00C0
:10249000EC240020436F6E6E656374696F6E20528A
:1024A0006571756573742074696D6564206F7574EA
:1024B0002E0D0A002DE9F84F05460C460888B5F8A0
:1024C0005E12884259D195F85A02DFF8F8A000EB65
:1024D000C00101EB001005EB800160884FF003099B
:1024E0004FF00008F0BBE6880879A21DF3B250FA5D
:1024F00086F6052E01D8034400E005230B71002663
:102500001CE000BF00EBC00306EB860702EB4707A9
:1025100001EB4303D7F802C0C3F80AC0D7F806C0DE
:10252000C3F80EC07F895F82A3F81480A3F81680D9
:10253000A3F81880401CA3F81A80761C0B798342FC
:10254000E0D895F85A2200EBC00002EBC20303EB7F
:10255000021205EB820231F81000128990420ED26D
:10256000087900E00BE0052809D085F85902218898
:102570002846FEF74BFD01000AD1BDE8F88F85F82B
:102580005982228869462846FEF7DAFD01000BD001
:1025900085F85B8222882846FEF7A2FE8AF8009022
:1025A0002188AAF80210E8E79DF800000028E4D08E
:1025B000228801212846FEF739FE2188284600F0AE
:1025C000B1F8DAE7A8380020F8B505460C460888C7
:1025D000B5F85E1288425DD195F85A02A61D00EB4F
:1025E000C00101EB001005EB800395F859026188EA
:1025F00000EBC00003EB40000A3039B329E000BF14
:1026000001EB410206EB42029788B7F5245F0CD03C
:102610006FF4245C17EB0C070AD0012F02D0072FB0
:102620000BD108E05288428107E05288828104E0A1
:102630005288C28101E05288028242892AB182898D
:102640001AB1C2890AB1028A1AB9491C32888A426F
:10265000D6D800268DF8006095F859021979401CEB
:10266000884203D101208DF8000018E085F8590256
:10267000228869462846FEF763FD01000BD085F8E5
:102680005B6222882846FEF72BFE0A480321017070
:1026900021884180F8BD9DF800000028FAD02288EA
:1026A00001212846FEF7C2FD2188284600F03AF8AD
:1026B000F8BD0000A838002070B505460C4690F81B
:1026C0005A02228800EBC00101EB001005EB8001EB
:1026D000B5F85E02824222D1608848B100212846C6
:1026E000FEF7A4FD21882846BDE8704000F01AB826
:1026F000A2680A60E068C1F8060021882846FEF753
:1027000085FC01000BD0002085F85B02228828465A
:10271000FEF7E6FD0248032101702188418070BD6B
:10272000A83800202DE9F041044690F85C020E46DE
:10273000401C1949C0B284F85C02C9680327174DD0
:102740004FF0000E884224D284F859E294F85A02DD
:10275000401CC0B200EBC00101EB001104EB810290
:1027600084F85A02A5F1180101EB800001210068EC
:10277000106082F804E0304694DF010007D084F84E
:102780005BE232462046FEF7ABFD2F706E80BDE85F
:10279000F08184F85BE2F8E7B0210020A83800203F
:1027A0000389CA1C1A4402814289511AC91E4181F7
:1027B0007047000008B50021009101460223024A3B
:1027C0000248FEF769FE08BD7C4502002022002079
:1027D00008B50020009004480223044A0168044818
:1027E000FEF75AFE08BD0000E821002074450200F3
:1027F000202200200449084490F93000082801DB19
:102800000120704700207047443B002004490844E1
:1028100090F93000082801D201207047002070474D
:10282000443B002070B50B4C05462068456020698C
:102830002168854205D2A06BBDE87040091D00F0FB
:102840003DBF606B091D00F039FFE06A854200D290
:10285000E56270BD6021002010B500F053FF0E4C02
:102860002068A0B90D4800F01BFF0C48143000F0A0
:1028700017FF0A48E0601430206100221021202058
:1028800001F0E0F9206010B105A100F0EBFFBDE818
:10289000104000F041BF00009C210020683800205B
:1028A000546D72510000000070B5124E124C1AE0C7
:1028B00001F004F93068D0B101F03EFD00F022FFD4
:1028C000F068C568281D00F0D2FEE068401EE06098
:1028D0006068401E606000F01FFF286B00F026FF5C
:1028E000284600F023FF60680028E1D170BD01F0A8
:1028F00023FDF8E7403800206021002030B4026C4E
:102900000B46002A0BD0C1681144C1604468A14243
:1029100001D30168C16030BC1846FCF7F7BD30BC7C
:10292000704770B51646026C0446002582B1C6B1E8
:10293000E068FCF7EBFDE168206C091AE1602268B1
:10294000914202D26168081AE060022E16D01AE0A5
:102950002068C0B9606801F081FC05460020606015
:1029600011E0A068FCF7D2FD216CA0680844A060CB
:102970006168884207D32068A06004E0A06B10B1B2
:10298000A06B401EA063A06B401CA063284670BDD6
:1029900006480168C96A09B10020704704490968FE
:1029A0000129F9D8C16A0069081A7047602100201E
:1029B000C83700200F4C4FF080550F4EFFF774FFC3
:1029C0002068012805D9356040BFBFF34F8FBFF3A2
:1029D0006F8F00F05FFEFFF7DBFF0228EED301F000
:1029E0006DF8FFF7D5FF022801D300F0BDFE01F01E
:1029F000A3FCE3E7C837002004ED00E070B5002435
:102A000041600B4D0061914206D8D11A8269914212
:102A100006D2011D286907E09A4203D2994201D3E8
:102A2000012403E0011DE86800F048FE204670BD67
:102A30009C21002030B589B0274D42E00498002841
:102A400006DADDE90601059A90470498002838DB8C
:102A5000069C606910B1201D00F009FE02A800F07C
:102A600099F8024604980A282BD2DFE800F0050501
:102A7000052A1F2705052A1F0598A1690346014459
:102A80002046FFF7BBFF01281BD1616A204688471B
:102A9000E069012815D1002000900598A169002364
:102AA00042181946204601F0DFFC0AE00598A061B3
:102AB000811813462046FFF7A1FF02E0204600F0F0
:102AC00035FE00231A4604A9286801F0D9F8002829
:102AD000B4D109B030BD00009C2100202DE9FC419B
:102AE0000F46054600F0EAFF01A800F053F804463F
:102AF000019818B101F020FCBDE8FC811B4E17BB0A
:102B0000A54220D801F018FCF0682746C068C468C8
:102B1000201D00F0ACFDE069012810D1A0692B4612
:102B200041193A462046FFF769FF012807D10020E6
:102B30000346014600902A46204601F095FC616A52
:102B400020468847D8E7291B306800F09FFE01F037
:102B5000F3FB0028D0D106494FF08050086040BFF9
:102B6000BFF34F8FBFF36F8FC6E700009C2100209B
:102B700004ED00E00648416B096829B1416BC96862
:102B8000C9684968C16270474FF0FF31FAE7000039
:102B90006021002070B5054601F004FB064E044696
:102BA000B068844203D200F009F8012000E0002060
:102BB00028602046B46070BD9C210020F8B5144DFB
:102BC0001EE0C068C4680668201D00F050FD616A00
:102BD00020468847E069012812D1A0693044B042FC
:102BE00006D924616060211DE86800F067FD07E0F8
:102BF00000200346014600903246204601F034FC96
:102C0000E86801680029DCD12969C5E90310F8BD2D
:102C10009C210020202080F31188FEE7064B4269AA
:102C200000219A4206D1806AA3F12802904201D085
:102C300000B901210846704754380020074CE0686D
:102C4000016841B1C0680021D0F80000FFF746FFDD
:102C5000FFF7F0FEF3E701210020F7E79C210020B9
:102C600070B5044600F04EFD04F124050AE0606AE8
:102C700058B1284601F02AFB08B100F023FEA06CF1
:102C8000401EA064A06C0028F1DC4FF0FF36A66463
:102C900000F042FD00F036FD04F110050AE0206965
:102CA00058B1284601F012FB08B100F00BFE606C31
:102CB000401E6064606C0028F1DC6664BDE8704012
:102CC00000F02ABD70B504460025400704D004F08A
:102CD0000700C0F10800044400F0F0FE0A4948680B
:102CE00018B90A4820F0070048600A6840F6F873EF
:102CF0001019984204D2904202D94B6808609D187E
:102D000001F01AFB284670BD54210020C027002086
:102D10000449086818B10868C26B521CC26308688D
:102D2000704700006021002010B5044600F0EAFC66
:102D3000246A00F0F1FC204610BD000010B5084CDC
:102D4000031F24681C601B1F1960191F054B0B60B3
:102D500014390A60091F6FF0020244380A6010BD7E
:102D600038450200152C020070B50C490446486E27
:102D7000042811D00A6E0244042A00D3121F401CFA
:102D8000486602EB420001EBC00005461821FCF743
:102D9000D6FB0120256070BD002070BD043D0020E1
:102DA000F0B52D4C002785B0216F41F61D56C1EBC3
:102DB000C10104EB81052978072919D2DFE801F068
:102DC000180408080C0C10002946FEF7CBFC09E09B
:102DD000294600F09DFE05E02946FEF763F901E073
:102DE000FEF79AFB002831D0B04202D1019710E0E3
:102DF0000F2001902878022801D0032809D1164815
:102E0000AA7D7830016C11440164AA7D416C891A55
:102E1000416469462846FEF78DFA6846FEF7C0FA17
:102E2000206F1C21C0EBC00004EB8000FCF787FB87
:102E3000606F68B194F87010491C01F00301401EE6
:102E4000C4E91C1004D00020FFF7AAFF05B0F0BDB4
:102E50000420FEF7C9FAF9E7143C0020194830B401
:102E6000016E01EB410100EBC104406E002827D048
:102E7000207A012802D0022816D10FE0A18AE08A28
:102E80004FF48062091A914200DA8AB2E16823693C
:102E900001EB800103EB800029DF01E0A08928DF3E
:102EA000112806D000280BD0204630BC092100F0A4
:102EB000AFB90549087820F0020040F0040008701E
:102EC00030BC7047043D0020F021002005490878FF
:102ED00010F0060F04D140F002000870FFF7BEBFEB
:102EE00070470000F02100202DE9F04707461E48FA
:102EF0001C46154600780E46800702D40220BDE825
:102F0000F08765B15CB1DFF864804FF00009A088FC
:102F1000022827D208EB00100078F8B916E0052047
:102F2000EDE720681FB181883A8891420ED11EB129
:102F300001883288914209D18068286020686860E1
:102F40000A482030008928810020D8E7A08821463F
:102F500000F05CF80028E4D1C4F80090A088401C80
:102F6000A080D4E70A20CAE7D8210020D43C002062
:102F7000F8B505464068234F0C46002638B3224971
:102F80000A68824223D84968814220D3FEF758FD5F
:102F9000E8B128893989884219D1D5E900018A68C0
:102FA000904214D10020A7F1200300BF03EB0012D0
:102FB00052688A4205D202F580528A4201D92080A5
:102FC00011E0401C80B20228F0D30020F8BD26801A
:102FD00000960AE0009829688068884205D1009828
:102FE0006860388928810120F8BD2088694600F092
:102FF0000DF80028EED12088401C80B220800228E5
:10300000E6D3E2E7F43C00202022002070B50E4613
:103010000A68104901EB00151AB1508802EB8004D0
:103020000CE06C6808340AE02046FEF78FFB10B114
:103030000120346070BD608804EB80040C34686843
:1030400000F58050A04202D92068401CECD100203D
:1030500070BD0000D43C002008B50021009101465D
:103060000123044A0448FEF717FA002800D00E2076
:1030700008BD0000704502002022002038B504463B
:1030800013480025426C42B1036C00EBC3055B1C86
:1030900003F00703521EC0E9103200200090A08AFE
:1030A000AB8801EB80010B482A68FEF7F5F9A18A8D
:1030B000AA881144A182A17D491E11F0FF01A175CA
:1030C00001D101212174002800D00E2038BD00005C
:1030D0008C3C00202022002070B50C4B00210A4AB5
:1030E000DC680DE002EB81058678AD78B54206D14B
:1030F00032F821500688B54201D1586870BD491C8C
:10310000A142EFD3002070BD90380020B0210020F4
:1031100070B50546C87D0C4600284FF484712846DA
:103120000AD0FFF71AF9D5F81805627EE1688854CD
:10313000607E401C607670BDFFF70FF9D5F818056A
:1031400070BD1FB501238DF800308DF80810019275
:10315000D0E90012684690471FBD10B504460068CC
:103160004FF49271FFF7F9F84FF484712068FFF77C
:10317000F4F820680121016010BD000010B5074877
:103180008ADF08B1FCF7C4FF0120FDF7E7FD002846
:1031900003D0BDE81040FCF7BBBF10BDE444020003
:1031A00010B50446FCF7F6FC40B1002C09DA04F037
:1031B0000F0000F1E02090F8140D06E042F201004B
:1031C00010BD04F1E02090F800044109082914D250
:1031D00099B1012911D004290FD005290DD00B4830
:1031E0000122816861B1610950F8213004F01F04A7
:1031F000A240134340F8213005E042F2020010BD26
:103200002046FCF7E4FA002010BD0000DC3B002063
:103210001FB500220092019202920392037A012BC1
:1032200002D0022B13D107E08DF800200269029230
:10323000828AADF80C200AE001228DF800208289F4
:10324000C389D21AADF808208289ADF80A204268F5
:10325000019200688268684690471FBD18B1034913
:10326000C860002070470E20704700000422002034
:103270001CB5034901910091694660DF1CBD000047
:103280002821002070B50E46054614461C21104624
:10329000FCF755F9012020800021A16121752672DB
:1032A000657205B1A072002070BDFCF71FBF000061
:1032B0002DE9F041074619B188074FF0000402D00C
:1032C0000720BDE8F081114D4FF0E0200126A960F4
:1032D0006A806B60D0F8000110F0010F03D0344613
:1032E0000020FCF769FA0A49384610DF070005D0CC
:1032F00014B10020FCF76BFA3846E2E72E70FEF7B7
:103300006FFCBDE8F0411620FFF74ABF0422002001
:10331000AB32020001480078704700000422002010
:1033200070B50C4605464FF48E71FFF716F8A18A6A
:10333000A068415CA08A401CA082C5F81C1570BD25
:103340001FB500228DF800208DF8081081680191CA
:103350008275D0E90012684690471FBD70B50178AC
:1033600041B1012901D002291ED14068BDE8704059
:10337000FCF7CEBE0E4C0D4D20782844FCF7D0FF54
:103380002078401CC0B22918207011F8011C0A29AD
:1033900001D0142808D30549227801F52B70FDF7D8
:1033A000B3FA0028F7D1207070BD00003022002051
:1033B000282100207CB50178244D81B301290BD050
:1033C00002292BD18DF80010C068691C01900122E0
:1033D000C81DFEF76DFD2EE0406801781C48FCF723
:1033E000BDFE1B4C012618B18DF80060019006E06F
:1033F000A068E168814205D000208DF8000069686E
:1034000068468847A068E168081AA188884207D8FA
:103410000E490122491CC81DFEF74AFD7CBD01E092
:10342000AE70FBE70A4809491030FCF77CFE30B16A
:1034300003208DF80000696868468847EEE7034975
:10344000012201F10800FEF74FFEE7E7F42100201A
:103450006C3D00202DE9FF470C4605464FF40071F6
:10346000FEF781FF01274FF40178002618B34FF4CF
:10347000927949462846FEF76BFFE0B14946284657
:10348000FEF76BFFC5F80883A07E00B96F600220CD
:103490008DF80000D5F88004C5F880040390E07D25
:1034A0008DF80800E0680190E6752676D4E90012F0
:1034B0006846904727E004212846FEF754FF10B3E2
:1034C0004FF484712846FEF743FFE0B121462846B9
:1034D000FFF71EFEE07D617E884214D1207E38B168
:1034E000617EE268E0752069E0602676667607E036
:1034F000A07E00B96F60C5F80883E675617EE2685A
:103500002046FFF71EFE4FF48E7841462846FEF710
:103510001FFF88B1A08AA17D884204D22146284697
:10352000FFF7FEFE08E041462846FEF716FFA17DA4
:1035300011B12046FFF704FF4FF4A2784146284618
:10354000FEF706FF002812D041462846FEF705FF89
:10355000A07E00B12F60E07D002808D0E675617E76
:10356000E26804B02046BDE8F047FFF7EABDBDE8D9
:10357000FF872DE9FF410C464FF492770546394607
:10358000FEF7F7FE0026C0B139462846FEF7F6FEE4
:1035900002208DF80000D5F88004C5F8800403905F
:1035A000D5F83C058DF80800E0680190E6752676B0
:1035B000D4E900126846904724E04FF488773946F2
:1035C0002846FEF7D6FEE8B139462846FEF7D6FE75
:1035D000D5F83C05C1B2E07D884213D1207E60B1B0
:1035E000E268D5F8000220F02000C5F80002207E35
:1035F000E0752069E060267601E0E675E268204625
:10360000FFF79FFD4FF4A27739462846FEF7B1FE3B
:1036100068B139462846FEF7B1FEE07D38B1E6755F
:10362000D5F83C05E268C1B22046FFF78AFD4FF4A9
:10363000907631462846FEF79CFE00280FD0314692
:103640002846FEF79BFEA07D002808D0D5F84C0543
:1036500004B0C1B22046BDE8F041FFF771BEBDE83D
:10366000FF81EFF31180202181F311887047D0E9A9
:10367000013201699A60D0E901235A604A688242A6
:1036800001D182684A60002202610868401E086019
:10369000704700000148C06800F0A0B92821002050
:1036A00000F108014FF0FF32C0E90112C160016171
:1036B00000210160704700210161704730B50B683F
:1036C0005A1C02D000F1080202E0026904E022461E
:1036D000546825689D42FAD953684B6099608A60A6
:1036E000516008610168491C016030BD42684A6050
:1036F00093688B6093685960916008610168491C08
:1037000001607047202080F3118802480168491C3D
:10371000016070475C21002003490868401E086072
:1037200001D180F3118870475C21002070470000B0
:1037300010B50020FEF720FA09482021C0F808152E
:103740000121C0F80413816001600649E02081F87E
:1037500000044FF0E0214FF40030C1F8000110BD2B
:103760000010014011E000E02DE9F047044639481F
:10377000844200D904460021EFF3108072B6DFF8CE
:10378000D880D8F8082001234FF0E02582B9C8F886
:103790000830D5F88061314B1E40C8F80060C5F88C
:1037A0008031D5F88431C8F804306A17C5F884210F
:1037B00000B962B68A462A4ED6F80475FDF7AAFD0E
:1037C00090B33819012120F07F40C6F80813C6F8DD
:1037D00040054FF4A0713046FEF7B4FD4FF4803041
:1037E000C6F80403BFF34F8F34B120BFD5F80012E1
:1037F000D5F804221143F8D0B146C6F80803304684
:10380000D6F804654FF48071FEF79CFD0120C9F8DD
:103810000403B74201D906F18076F01BA04200D91B
:10382000204608B100F042F9D8F8080041460028C7
:103830000DD0EFF3108072B60A68C5F800214A680F
:10384000C5F80421C1F808A0002800D162B6BDE87F
:10385000F0870000FDFFFF00DC3B0020FC06FFBC02
:103860000010014010B5084B002200BF53F8324051
:103870001CB1521C022AF9D310BD43F8321003EBDD
:10388000C201486010BD0000B837002070B50D4679
:103890000446FFF737FF616C0020491C00D16064CB
:1038A000A16C491C00D1A064FFF736FFA06B20B9C2
:1038B000294604F1240000F033F82046BDE87040AA
:1038C000FFF7CEB90149012008627047602100204E
:1038D00070B5114C0D4621681831FFF7EFFE2068D6
:1038E000001DFFF7C4FE38B9206890F82C100120A5
:1038F0008840616981436161681C05D02069284462
:10390000BDE87040FEF78EBF2168BDE870400348F7
:10391000091DFFF7EBBE0000602100205438002095
:1039200070B50C4C0D4621681831FFF7DFFE20689A
:10393000001DFFF79CFE38B9206890F82C1001207C
:10394000884061698143616120692844BDE8704015
:10395000FEF768BF6021002070B5040039D01D4D0E
:10396000E06A2968C96A884233D2A069002804DB6A
:103970002868C06AC0F10300A061E16A164E01EB3D
:103980008101606906EB810188421FD1201DFFF78C
:103990006EFE012150B9E06A00EB800256F8222049
:1039A00022B96A6901FA00F082436A612868C06A34
:1039B000E0626A6981401143696100EB800006EBB7
:1039C0008000211DBDE87040FFF790BE2868C06AE6
:1039D000E06270BD60210020C837002070B504008F
:1039E0002DD0174D2868844229D0FFF78BFE204642
:1039F000FFF714F901281ED1201DFFF738FEE06AF9
:103A000001216A698140114369610E4900EB800020
:103A100001EB8000211DFFF769FEE06A2968C96A91
:103A2000884208D308494FF08050086040BFBFF378
:103A30004F8FBFF36F8FBDE87040FFF76DBE70BD55
:103A400060210020C837002004ED00E002494A6AE6
:103A50000260096941607047602100201FB50024A1
:103A60000E480294CDE9004023463C220CA10E48AA
:103A7000039400F0CBFA01280FD100F0D3FC012809
:103A80000BD1202080F3118804480121083881617E
:103A90000461BDE81F4000F0AFB81FBD68210020E1
:103AA00049444C4500000000B529020002490A695A
:103AB0001044086170470000602100200248016B3B
:103AC000491C016370470000602100200E48016B13
:103AD00011B10121016270470021016241690B4A65
:103AE000B1FA81F1C1F11F0101EB810102EB81010A
:103AF00001F108034A6852684A609A4201D152684B
:103B00004A60D1680160704760210020C8370020FA
:103B10002DE9F8430D46498A354A02EB011730B1C9
:103B2000E9883846FEF73CFE0120BDE8F883398974
:103B30007868002400EB81062D48297CEC384FF092
:103B40000E08072951D2DFE801F00D2E1928044094
:103B50004D004460A969016025486946EC38FFF7CB
:103B600007FA48B1314601232A1D22480094FDF787
:103B700093FC0221297423E00A20D6E7012305F1F2
:103B80000C0206F108011B480094FDF785FCA97D95
:103B900009B1032213E0012211E031462846FFF764
:103BA0006DFA044617E0012305F10802311D1148A2
:103BB0000094FDF771FC2978032904D006222A74A9
:103BC00070B1444608E00522F9E74068FFF744FA7F
:103BD0000446062028741CB1E9883846FEF7E0FD4B
:103BE0002046A2E741F61D54F6E70F24F4E7000053
:103BF000D43C0020202200200E49E02081F8140D42
:103C0000FFF796FD0C49002008600C48016841F45C
:103C1000700101600A48016841F0404101600748B5
:103C20007838016841F010010160FBF703FCFEF7F2
:103C3000F1FF00000EE000E05C21002088ED00E0D4
:103C400034EF00E070B50E0005464FF0000413D0CD
:103C500005FB06F0401C4C30FFF734F850B1044629
:103C600066B104F14C002060C4E90F5601212046E2
:103C700000F09AF8204670BD0020ECE72460F3E7DE
:103C80002DE9FF470027474E82B099468A460446F1
:103C9000B8464FF0805500BFFFF734FDA06B68B306
:103CA00051462046E768FEF729FEB9F1000F13D010
:103CB000E760606A50B104F1240000F007FB28B10E
:103CC000356040BFBFF34F8FBFF36F8FFFF724FD09
:103CD000012006B0BDE8F087A06B401EA0632068FD
:103CE00010B9FFF715F8606020690028EED004F1E4
:103CF000100000F0EBFA0128E2D0E7E7049808B1E1
:103D00001FB106E0FFF708FD1FE06846FFF79EFEC3
:103D10000127FFF701FDFFF7D1FEFFF7F3FC606C11
:103D2000401C01D1C4F84480A06C401C01D1C4F8EF
:103D30004880FFF7F1FC04A9684600F043F930B170
:103D40002046FEF78DFF00F0F7FA0020C1E7FFF7ED
:103D5000D9FCA06B38B1FFF7DFFC2046FEF780FFEF
:103D600000F0EAFA98E7FFF7D7FC206830B9FFF7D0
:103D7000C9FC6068FFF7F0FDFFF7CEFC04F12400FA
:103D80000499FFF7A5FD2046FEF76AFF00F0D4FA7C
:103D9000002881D1356040BFBFF34F8FBFF36F8FD5
:103DA0007AE7000004ED00E070B50D460446FFF729
:103DB000A9FCD4E90F12206801FB0200606000201A
:103DC000A0632068A0600146E06B401E00FB02106B
:103DD000E0604FF0FF306064A06404F110004DB16A
:103DE000FFF75EFC04F12400FFF75AFCFFF794FC98
:103DF000012070BD21690029F8D000F067FA012880
:103E0000F4D104490007086040BFBFF34F8FBFF3F0
:103E10006F8FEBE704ED00E02DE9FF4700273C4EF4
:103E200082B099468A460446B8464FF0805500BF96
:103E3000FFF768FCA06BE16B884206D3B9F1020F73
:103E400003D00498E0B1F7B121E04A46514620463C
:103E5000FEF767FD616A31B104F1240000F036FA23
:103E6000012801D006E028B1356040BFBFF34F8F75
:103E7000BFF36F8FFFF750FC012006B0BDE8F0875D
:103E8000FFF74AFC1FE06846FFF7E0FD0127FFF758
:103E900043FCFFF713FEFFF735FC606C401C01D1BB
:103EA000C4F84480A06C401C01D1C4F84880FFF7DE
:103EB00033FC04A9684600F085F830B12046FEF7CF
:103EC000CFFE00F039FA0020D7E7FFF71BFCA06B0C
:103ED000E16B884214D1FFF71FFC04F11000049934
:103EE000FFF7F6FC2046FEF7BBFE00F025FA00289F
:103EF0009ED1356040BFBFF34F8FBFF36F8F97E701
:103F0000FFF70AFC2046FEF7ABFE00F015FA8FE73C
:103F100004ED00E02DE9F0411F46164688460446B0
:103F2000FFF79FFB0546A06BE16B884207D3022F8A
:103F300005D00020E9B281F31188BDE8F0813A464E
:103F400041462046FEF7EDFCA06C401C04D0A06C5E
:103F5000401CA0640120EDE7606A0028FAD004F15B
:103F6000240000F0B3F90028F4D0002EF2D0012094
:103F70003060EFE770B50E460446FFF772FB05466A
:103F8000A06BE16B884218D2A06B401CA063A06CB0
:103F9000401C04D0A06C401CA06401200EE0606AAC
:103FA0000028FAD004F1240000F090F90028F4D0A1
:103FB000002EF2D001203060EFE70020E9B281F35B
:103FC000118870BD70B50D460446FFF79BFB0E4A85
:103FD00011692868431C0FD02368526A934202D0AB
:103FE00062688A420AD96268891A814206D2401AF6
:103FF00028602046FFF72AFD002400E00124FFF797
:104000008BFB204670BD0000602100202DE9FF5F82
:104010008A46DDE90F9091000E9F9B461546884623
:1040200010B90846FEF74EFE060018D04820FEF7ED
:1040300049FE0400304610D0A52241462063FBF71C
:1040400077FA6FF0030101EB8501206B3D460844D0
:1040500020F007085146002004E0FFF767FB4FF00F
:10406000FF3486E022180B5C82F834300A5C12B10F
:10407000401C0428F6D3002684F83760032D00D3B3
:104080000225E562C4E90E56201DFFF714FB04F17A
:104090001800FFF710FB2461C5F103016462A16100
:1040A000266484F844605A4640460099FEF746FE6E
:1040B0002060B9F1000F01D0C9F80040FFF722FBE2
:1040C0002E4DE868401CE8602868DFF8B48010B125
:1040D000A86940B32CE02C60E868012828D10026AC
:1040E00006EB860108EB8100FFF7DAFA761C032E57
:1040F000F6D323483C30FFF7D3FA21485030FFF77E
:10410000CFFA1F486430FFF7CBFA1D487830FFF72D
:10411000C7FA1B488C30FFF7C3FA19483C30686374
:104120001430A86304E02868C06AB84200D82C6044
:10413000A86A0121401CA862E06A6A6981401143B3
:10414000696100EB800108EB8100211DFFF7CEFAC9
:104150000124FFF7E1FAA86958B12868C06AB8429B
:1041600007D208492007086040BFBFF34F8FBFF355
:104170006F8F04B02046BDE8F09F00006021002052
:10418000C837002004ED00E00548816919B1006BD3
:1041900018B10020704701207047022070470000CE
:1041A0006021002001480069704700006021002064
:1041B0000148006970470000602100202DE9F041AE
:1041C000244C0027206B40B1E069401CE061206A6C
:1041D00000B101273846BDE8F0812069401C20610C
:1041E000266946B9606BA16B6163A063606A401C7D
:1041F0006062FEF7BFFCE06A8642E8D3606B00684D
:1042000038B1606BC068C5686868864204D2E062F5
:10421000DDE74FF0FF30FAE7281DFFF728FAA86A1C
:1042200018B105F11800FFF722FAE96A0120626966
:1042300088401043606101EB8100074901EB800079
:10424000291DFFF753FAE86A2168C96A8842D5D365
:104250000127D3E760210020C837002070B5040093
:104260004FF000012BD0E06B401EE063A36BE26ACD
:104270009A4224D018BB201DFFF7F9F9114B124ABE
:10428000012150B9E06A00EB800553F8255025B9AB
:10429000556901FA00F085435561A06BE062C0F1F9
:1042A0000300A061E06A556981402943516100EB38
:1042B000800003EB8000211DFFF718FA012108465A
:1042C00070BD0000C8370020602100202DE9F041BA
:1042D000C068C46804F118000746FFF7C8F9144D18
:1042E000286B012660B11348394600BFFFF7FEF97D
:1042F000E06A2968C96A884213D901242E6211E054
:10430000201DFFF7B4F9E16A6A6906FA01F010436B
:10431000686101EB81000749643901EB8000211DD0
:10432000E4E70024FEF726FC2046BDE8F08100000B
:10433000602100202C3800202DE9F0470027FFF7EE
:10434000E1F9264C206B401E2063206B98BBE1688E
:10435000234E012079B3A6F1640980463068E8B1A4
:10436000F068C56805F11800FFF781F9281DFFF70F
:104370007EF9E96A626908FA01F01043606101EBB5
:10438000810109EB8100291DFFF7B0F9E86A216876
:10439000C96A8842E2D3C4F82080DFE7E06958B1F7
:1043A0004546E06940B1FFF709FF00B12562E069C9
:1043B000401EE061F5E70BE0206A012808D10949B9
:1043C00001270007086040BFBFF34F8FBFF36F8F17
:1043D000FFF7A2F93846BDE8F08700006021002011
:1043E0002C38002004ED00E02DE9F0471E46DDF8F2
:1043F000209017460D00804612D02820FEF762FC60
:1044000004000AD0FEF728FAC4F80080C4E9065771
:10441000C4E90869201DFFF74EF92046BDE8F08782
:104420000024FAE71FB50024FEF716FA0A480068D0
:1044300070B10949022200200092091DCDE9011046
:1044400003460390502205A10648FFF7DFFD04460E
:1044500004B0204610BD00009C210020546D722045
:10446000537663003D2C02002DE9FF41114C1F469D
:104470000346266800200A9D002E0ED08DE80E000F
:1044800006290FDAFFF780FE02284FF0000307D05D
:10449000002269462068FFF7BFFC04B0BDE8F08148
:1044A0002A46F6E700233A4669463046FFF732FDD2
:1044B000F3E700009C21002010B50446FFF722F925
:1044C000606908B1012400E00024FFF725F92046C7
:1044D00010BD0000010002000100000710003C00B8
:1044E000000090010100A000500000000600000044
:1044F00008000000050000000700000001000000A7
:1045000000E0D701111213140D0E0F104C270020DC
:104510006C270020982700200D0003003D0C0200AE
:104520000E0003003D0C02000F0003003D0C0200D2
:10453000100003003D0C0200000000019ECADC24B4
:104540000EE5A9E093F3A3B50000406E0101000061
:104550000000020000000000020100000000000056
:104560000000000000000050BC3B002003000000E1
:104570000000FFFFDEC0ADDEFF011EF1DEC0ADDEDC
:10458000FE011EF1FFFFFFFFFFFFFFFFFFFFFFFF29
:10459000FFFFFFFF00000000000000000000D60148
:1045A00007010000C4450200282100200801000086
:1045B00074FB0100CC460200302200206023000082
:1045C00084FB01000000000000000000000000006B
:1045D00000000000000000000000000000000000DB
:1045E00000000000000000000000000000000000CB
:1045F00000000000000000000000000000000000BB
:1046000000000000000000000000000000000000AA
:10461000000000000000000000000000000000009A
:104620000000000000000000FFFFFFFF000000008E
:10463000000000000000000000000000000000007A
:10464000000000000000000000000000000000006A
:10465000000000000000000000000000000000005A
:10466000000000000000000000000000000000004A
:10467000000000000000000000000000000000003A
:10468000000000000000000000000000000000002A
:1046900000000000000000000020004000000000BA
:1046A000000000000000000000000000000000000A
:1046B000000000000090D003000000000000000097
:0C46C000000000009114020003FF000045
:040000050001F40101
:00000001FF
