:020000021000EC
:10F00000000001208D490200B5490200B749020005
:10F01000B9490200BB490200BD49020000000000DE
:10F02000000000000000000000000000F5060200E3
:10F03000C14902000000000015070200C549020096
:10F0400099250200C7490200D5330200C7490200D2
:10F05000C7490200C7490200F9290200C749020056
:10F06000C7490200C7490200C7490200C749020058
:10F07000C7490200C7490200C7490200C749020048
:10F08000C74902001D080200C7490200C749020023
:10F09000C7490200C749020049600200C74902008F
:10F0A000C7490200C7490200C7490200C749020018
:10F0B000C7490200C749020000000000000000002C
:10F0C000C7490200C7490200C7490200C7490200F8
:10F0D000C7490200C7490200C749020000000000FA
:10F0E0000000000000000000000000000000000020
:10F0F0000000000000000000000000000000000010
:10F1000000000000000000000000000000000000FF
:10F1100000000000000000000000000000000000EF
:10F4000010B5054C237833B9044B13B10448AFF35E
:10F4100000800123237010BD0C410020000000007B
:10F42000E0710200084B10B51BB108480849AFF362
:10F4300000800848036803B910BD074B002BFBD0C0
:10F44000BDE81040184700BF00000000E071020056
:10F45000104100200841002000000000154B002B47
:10F4600008BF134B9D46A3F5803A00218B460F46FB
:10F470001348144A121A00F065F80F4B002B00D005
:10F4800098470E4B002B00D0984700200021040025
:10F490000D000D48002802D00C48AFF3008000F0AA
:10F4A0002BF82000290005F0E3F800F011F800BF68
:10F4B0000000080000000120000000000000000023
:10F4C0000C41002004A60020000000000000000005
:10F4D00008B5074B044613B10021AFF30080054B7C
:10F4E0001868836A03B19847204600F033F800BFDC
:10F4F00000000000C869020070B50E4B0E4CE41A03
:10F50000A41000251E46A54204D056F82530984781
:10F510000135F8E707F04AFA084C094BE41AA41041
:10F5200000251E46A54204D056F8253098470135DF
:10F53000F8E770BD00410020004100200441002098
:10F540000041002002440346934202D003F8011B0D
:10F55000FAE77047FEE700BF0378012B04BF014ABA
:10F5600013707047284200202DE9F0416248C6B070
:10F570000C4690461F4603F0D1FDA8B9D4B106AEA3
:10F5800023685E4A30464FF4807106F0D9FD0028AA
:10F590000ADB4C9B0546062B00F2AC80DFE803F04B
:10F5A0004F5F6A77869716004FF00008404646B0D6
:10F5B000BDE8F0814C9B062B00F29A80DFE803F057
:10F5C0003E4D586574850400002506AE07F10C0118
:10F5D0007A683B68D7F808C092C970190092029106
:10F5E00003944246CDF804C00497C5F5807106F037
:10F5F000A7FD0446002CD7DB2C44B4F5807FD3D87C
:10F6000006AE314622463E4806F08EFD3A483C4959
:10F61000E2B203F0C9FC0A27B0FA80F800254FEAED
:10F62000581871192246002005F0ACF80544241A38
:10F6300008B9013FBAD0002CF3D1B7E70025404606
:10F6400006F0B8FD4319FF2B0446D3D806AB41465C
:10F650005819224606F068FDCCE7002506AE701961
:10F6600042463B68C5F5807106F06AFD0446C1E775
:10F67000002506AE7A683B68009270194246C5F5CF
:10F68000807106F05DFD0446B4E7002506AE7A6899
:10F69000B9683B680092019170194246C5F58071C6
:10F6A00006F04EFD0446A5E7002506AE7A68BC6864
:10F6B000F9683B6800920194029170194246C5F5C1
:10F6C000807106F03DFD044694E7002506AE07F183
:10F6D00008017A683B6892C97019009201910294FE
:10F6E00042460397C5F5807106F02AFD044681E77E
:10F6F000002485E700247FE7E4400020EC69020055
:10F70000284100202DE9F04FC5B01C469B48002938
:10F7100014BF0A23002317460D46019303F0FEFC95
:10F72000002840F0FB80002C00F0FC80014604AE75
:10F730004F9B519A202503EB020B08460199431871
:10F7400003933133F31802933318002960D05A42DF
:10F7500002F003028A4228BF0A46062900F200810D
:10F76000019A3554012A03F1010100F0F780022AC1
:10F770005D7003F1020100F0F180032A9D7003F136
:10F78000030100F0EB80042ADD7003F1040100F0B6
:10F79000E580062A1D7103F1050140F0E8805D71E6
:10F7A000991D9446019F974230D0C2EB0709A9F1F9
:10F7B000040E07F1FF3A4FEA9E0EC2EB0A0A0EF161
:10F7C000010EBAF1020F4FEA8E0813D90244BEF1BE
:10F7D000010F4FF0203006EB020AB05006D0BEF108
:10F7E000020FCAF8040001D0CAF80800C845414415
:10F7F000C4440BD0019F0D700CF10102BA4205D236
:10F800000CF1020C67454D7000D98D70019A1344BC
:10F810005B4A0299D2F800804F9FDDF84091DA1CD4
:10F82000481C03F1330C0CE002F8035C02F8025CA4
:10F8300002F8015C0332624500F8015C00F101004E
:10F8400033D0A345F0D9A74295BFE11B4E9919F8D3
:10F850000110095D02F8015C4FEA211E5FFA8EFA81
:10F86000BEF1090F01F00F0ED4BF0AF1300A0AF100
:10F87000370ABEF1090F02F803AC94BF0EF1300E47
:10F880000EF1370E08EB010A02F802EC9AF801E0DB
:10F8900003321EF0970F08BF2E21624500F8011CAD
:10F8A00004F1010400F10100CBD1039A4F97029FAC
:10F8B000344802F1430A0D214FF00A0839745246C8
:10F8C00087F81180314683F8305006F02DFC5FFA3E
:10F8D0008AF22A482B4903F067FB23464F9F029088
:10F8E00054464FF000099A4606EB090122460020D3
:10F8F00004F048FF8144241A10B9B8F1010801D07E
:10F90000002CF1D14F97029F54463FB91B4803F09A
:10F9100005FC18B9D34538463FF610AF204645B030
:10F92000BDE8F08F35B304AE2B68174A30464FF46C
:10F93000807106F005FC0028F0DB0546384606F02D
:10F9400039FCC22828BFC2208046394602467019B9
:10F9500006F0EAFB08EB05031946E9E6944621E7C1
:10F96000002A7FF4FEAE19469446019F1DE74FF032
:10F97000050C17E7254604AEE0E700BFE440002091
:10F98000FC40002028410020EC690200F0B51B4F2C
:10F990003B7889B006461BB1194B1B7883422AD0AD
:10F9A000184D04F0B7FF0FCD6C460FC495E80F005B
:10F9B000DFF85CE084E80F0000250821052207231A
:10F9C00011480191062403928DF81450009402937B
:10F9D000CDF818E003F062FAAE420C4A0A4818BFAC
:10F9E0002A46694603F06CF918B9054A01231670D6
:10F9F0003B7009B0F0BD002009B0F0BD2A420020E4
:10FA000029420020CC690200E440002059F50100A1
:10FA1000005027000048704769F501000048704712
:10FA200005F7010038B50020FFF7B0FF044668B9BC
:10FA3000FFF7F0FF0546FFF7F1FF054BFF22C3F884
:10FA400010541C605C60C3F814049A60204638BDF2
:10FA50002C4200200120FFF799BF00BF2DE9F043A1
:10FA600083B002AB4FF0000903F8019D254C074617
:10FA700018460E46A56800F039FCA2686368D4F801
:10FA8000008013440133C8EB0303012B07D80BBBE1
:10FA90009DF8070000F052FC03B0BDE8F08308F1C8
:10FAA00001039DF80700236000F048FC01220023B9
:10FAB00062F3010369F3820308EA050567F3C503EE
:10FAC00004EB850469F3891366F39F23E36003B0B5
:10FAD000BDE8F08301214B4661F3010369F3820322
:10FAE000052161F3C50302EA0802074904EB82021B
:10FAF00069F3891308F1010561F39F232560D36041
:10FB0000C6E700BF2C420020F46902002DE9F0474F
:10FB100082B002AB4FF0000903F8019DDFF8B4801A
:10FB20000746184615460E46D8F8084000F0DEFB9A
:10FB3000D8F80820D8F80430D8F800A013440133CE
:10FB4000CAEB0303022B07D853BB9DF8070000F054
:10FB5000F5FB02B0BDE8F0870AF102039DF807004B
:10FB6000C8F8003000F0EAFB0122002362F3010331
:10FB70000AEB020169F3820367F3C5030AEA040A88
:10FB80000C4008EB8A0A62F3891308EB840866F3D9
:10FB90009F23CAF80C30C8F80C5002B0BDE8F087BB
:10FBA00001214B4661F3010369F38203052161F3EF
:10FBB000C50302EA0A02064808EB820269F38913C8
:10FBC0000AF1010160F39F23C8F80010D360BCE77D
:10FBD000F46902002C4200202DE9F04F83B002AD01
:10FBE0004FF0000A05F801AD2C4C81462846174617
:10FBF0001E468846A56800F079FBA2686368D4F8C1
:10FC000000B013440133CBEB0303032B07D873BBC2
:10FC10009DF8070000F092FB03B0BDE8F08F0BF1F8
:10FC200003039DF80700236000F088FB01220023F6
:10FC300062F301030BF102006AF382035A4469F391
:10FC4000C50302210BEA050B2A40054004EB8B0B90
:10FC500004EB820261F3891304EB850468F39F23AC
:10FC6000CBF80C30D760E66003B0BDE8F08F01211F
:10FC7000534661F301036AF38203052161F3C5036F
:10FC800002EA0B02064804EB82026AF389130BF1C5
:10FC9000010160F39F232160D360B9E72C4200206B
:10FCA000F46902002DE9F04F83B002AD4FF0000B74
:10FCB00005F801BD394C8246284690461F46A66885
:10FCC000894600F013FBA26863682568134401337A
:10FCD0005B1B072B08D8002B4BD19DF8070000F0C9
:10FCE0002DFB03B0BDE8F08FEB1D9DF807002360EE
:10FCF00000F024FB0122002362F301036BF3820373
:10FD000005EB020C05F1060B05F1020EE81C291D9E
:10FD10006A1D6AF3C50335404FF0060A04EB8505FA
:10FD20000CEA060C0EEA060E30406AF3891304EB67
:10FD30008C0C04EB8E0E04EB800069F39F233140A2
:10FD4000EB6004EB81010C9BCCF80C803240CEF8C8
:10FD50000C7004EB8202C3600D9BCB600BEA0606BD
:10FD60000E9BD36004EB86040F9BE36003B0BDE8F9
:10FD7000F08F01215B4661F301036BF382030521E0
:10FD80002A4061F3C503064904EB82026BF3891331
:10FD9000013561F39F232560D3609EE72C4200204C
:10FDA000F46902002DE9F0474C4E96E80C009342AE
:10FDB0008AB070D0B06804E0C4F3891202EB9452A8
:10FDC000134400EA0305023506EB8502013354684B
:10FDD00014F00302F0D0022A28D0C4F38312C4F333
:10FDE000952C002A75D00DF1100E75469F1803EA68
:10FDF000000106EB81010133C96845F8041BBB42D1
:10FE0000F5D10092C4F3C20062467346D6F810449E
:10FE1000324D0021A04738B177603068C01B18BF51
:10FE200001200AB0BDE8F0876F68F6E703F1010A28
:10FE300020EA0A010340013106EB830389004FEAFF
:10FE400094588845DA68DFF894E0C4F3891326D91A
:10FE5000A9B30AEA000C5FFA81F90EEB8C0CC9EB2E
:10FE600008010CF10C0C0EF10C00C9B202900391C8
:10FE7000CDF800C0CDF80490C4F3C2000021D6F83C
:10FE80001474B847404520D006EB850560F38F1405
:10FE90006C607768C1E700200AB0BDE8F08700EA2F
:10FEA0000A000EEB80000C308DE801010021DEF825
:10FEB00014C402910391C4F3C200E047E2E70EF1DB
:10FEC0000C0C08465FFA88F9D0E703300AEB90077C
:10FED000A2E71F460DF1100E93E700BF2C42002051
:10FEE0002DE9F84F234B1A788AB3DFF88CB0DFF88E
:10FEF0008C80DFF88C9000244FF0010A03E001347D
:10FF0000E4B2944223D226B2D8F80050DBF8003095
:10FF100015F836000AFA00F1194205EBC607EED0D3
:10FF2000154A23EA0103136002F05CFD15F8365010
:10FF3000D9F800300AFA05F10B4000FA05F18B42BE
:10FF400007D00C4B01341A78E4B29442DBD3BDE8FD
:10FF5000F88F79787B68A1F10101B1FA81F1490943
:10FF6000002BEED0091A2846B1FA81F149099847C9
:10FF7000E7E700BF4C4600207446002048460020BA
:10FF80007046002070B50646114800F07FF940B970
:10FF9000104D01242B68B4401C4203D023EA040412
:10FFA0002C6070BD304602F01DFD0B4E326860B112
:10FFB00022432B68094932601C432C6004480968BD
:10FFC0000022BDE8704000F0EFB822EA0402F0E73A
:10FFD0005046002074460020704600204446002011
:10FFE000F0B5042A85B0174602D8072005B0F0BD49
:10FFF0000191054602F0C0FB0199002830D01C4C4D
:020000022000DC
:10000000DFF888E01B481C4A1C4B256000264C1E6C
:1000100007608EF8001016601E60E4B2032709B96D
:1000200018E01C4623B205EBC30215F833009378A1
:10003000134A8DF80D3003A98DF80C708DF80E6001
:100040008DF80F6002F0A2FB631E0028CED1DBB258
:10005000002CE6D10B4A0C48002100F079F8C5E7E6
:10006000019102F047FB01990028C8D0BEE700BF0C
:100070004846002044460020704600207446002078
:1000800085FF0100E1FE0100006A02004C460020ED
:1000900070B5084D2B785BB1074E00243368012101
:1000A00013F8340002F03CFC2B780134A342F5D85D
:1000B000002070BD4C4600204846002000B585B0A9
:1000C00000230390194644F2010001AAADF8043060
:1000D000029300F003F805B05DF804FB08B50120B9
:1000E0000D49FFF7BBFCFFF7B5FCFFF75BFE0028EF
:1000F000FBD10A4B1B68DB0700D5FFDEBFF34F8F38
:100100000749084BCA6802F4E0621343CB60BFF3AF
:100110004F8F00BFFDE700BF046A0200F0ED00E072
:1001200000ED00E00400FA0510B502F015F9037BBC
:1001300003B910BD83680068BDE81040184700BFD0
:10014000024B013018600020704700BF7846002045
:1001500070B582B0056822B12B7B2BB1082002B0AC
:1001600070BD072002B070BD6B68002BF6D114463D
:100170000E46102219462846FFF7E4F9321C084BB8
:10018000AC6018BF0122009306484FF47A712B46E9
:1001900001F0F2FE0028686014BF00200E20DEE7A8
:1001A000290102001C6A02002DE9F043344B354C52
:1001B0004768D4F80885D3F8009085B0002F46D062
:1001C000037B15460C460646002B44D108F101037B
:1001D000590809FB04113560B1FBF3F2EFF3058414
:1001E0007CB94FF00208CDF8008038460421234640
:1001F00001F016FF0128054634D0042005B0BDE803
:10020000F08304AC002544F8045D3846009523468D
:10021000092101F005FF0128EFD101F0DBFA00957B
:10022000024623463846062101F0FAFE0128E4D1B1
:10023000039B43B1144B4FF080525A6040BFBFF351
:100240004F8FBFF36F8F012333730020D6E7082051
:1002500005B0BDE8F083384602F072F80028B5D04A
:100260000020CBE701F0B0FACDF800800246294625
:100270003846234601F0D4FE0128BED1E3E700BF93
:10028000784600200010014000ED00E042684AB3CB
:1002900010B5044684B0EFF3058252B902230093EF
:1002A0000321134601F0BCFE012817D0042004B03E
:1002B00010BD04AB002243F8042D0821009201F088
:1002C000AFFE0128F2D1039B43B1074B4FF08052A0
:1002D0005A6040BFBFF34F8FBFF36F8F0020207372
:1002E00004B010BD0820704700ED00E0F0B4EFF35B
:1002F000108472B60E4B9A68B2B90E4901259D6002
:10030000D1F880700C4D2E463D401D60C1F88060D4
:10031000D1F884505D604FF0FF33C1F88430027033
:1003200004B962B6F0BC704701230370F8E700BF60
:1003300034A5002000E100E0FC06FFBC094B9A68F0
:1003400072B168B910B4EFF3108272B606491C6836
:100350000C605C684C60986002B962B65DF8044B52
:10036000704700BF34A5002000E100E030B50478FC
:10037000012C83B01FD010D3022C0CD1C3682649A6
:100380002648019301228DF8004002F0D3FE244B51
:1003900068461B68984703B030BD2248224900F0E8
:1003A000E7F828B302A8032300F8083D1C4B1B689C
:1003B000984703B030BD43681C4D1978284600F0BB
:1003C000BFF8D8B9AA68EB689A4206D002AB144AC3
:1003D00003F8080D126818469047A968EB68AA88C8
:1003E0005B1A9A4212D2124B01221A7003B030BD2E
:1003F0000D490A48012202F0D7FDCCE7084B0190D5
:100400008DF800401B6868469847E6E702490348B4
:10041000012202F08FFEBEE784460020EC4000205F
:1004200080460020884600207C4600209C46002014
:10043000984600202DE9F047314C88B022600C46E8
:10044000002954D0814609682E48A288984600F0B9
:1004500067F810B108B0BDE8F0872B48A168A28901
:1004600000F05EF80028F5D1284C99F810A099F812
:1004700011C0D9F81460D9F80C500FCC6F460FC7D3
:1004800094E80F001AF1000E87E80F0018BF4FF034
:10049000010ED9F80070D9F80430D9F808401C488A
:1004A0001C4A8DF81C80BCF1000F14BF4FF00E0CDD
:1004B0004FF0000C69468DF814E08DF815C00696D3
:1004C000029503948DE8880002F0FAFB0028C1D160
:1004D000D9F80030104A01331070BBD09DF81D30A0
:1004E0004BB10E490A48012202F024FEB2E7072070
:1004F00008B0BDE8F087064802F046FFF1E700BF0C
:10050000804600209C46002088460020206A020089
:10051000EC4000206D030200984600208446002035
:1005200059B10AB909207047531E1A40FAD18260A6
:1005300001608380C260104670470E20704700BF84
:1005400010B48468C26803468088121B904203D2AC
:1005500004205DF8044B7047DA681C6802400020F4
:10056000A154DA680132DA605DF8044B704700BFCD
:1005700003468068DA6890420DD010B49A68988873
:100580001C6802400020A25C0A709A6801329A60DE
:100590005DF8044B70470520704700BF00F0010371
:1005A0005A1C10F0020F18BF13465A1C10F0040F0B
:1005B00018BF13465A1C10F0080F18BF13465A1CD8
:1005C00010F0100F18BF13465A1C10F0200F18BF60
:1005D00013465A1C10F0400F18BF134603EBD010FF
:1005E000704700BF38B5430704461CBF20F007041E
:1005F000083401F0E1F80E4B1D689DB10D4A1368F7
:1006000043F6F7711C448C4207D8A34205D21D441F
:10061000146001F07BF9284638BD002501F076F919
:10062000284638BD044D25F007051D60E6E700BFEC
:10063000B0460020AC460020BC460020704700BFFA
:1006400000F108034FF0FF310022816080E80C00C8
:10065000C3600361704700BF00230361704700BFA0
:1006600043684B609A688A609A6851609960086133
:10067000036801330360704730B40D686B1C11D000
:1006800000F1080200E01A4653681C68A542FAD23D
:100690004B6099608A6051600861036801330360B0
:1006A00030BC704702695368F2E700BF4268816856
:1006B000036991608268416851605A68824204BF50
:1006C00082685A6000220261186801381860704719
:1006D0000748006880F3088862B661B6BFF34F8FA1
:1006E000BFF36F8F4FF4F07080F3118800DF00BF0D
:1006F00000F00100064B19680868B0E8F04F80F37D
:100700000988BFF36F8F4FF0000080F311887047A6
:1007100030870020EFF30980BFF36F8F144B1A6806
:100720001EF0100F08BF20ED108A20E9F04F106076
:100730004DF8043D4FF0200080F31188BFF34F8F38
:10074000BFF36F8F01F0D2F94FF0000080F31188F2
:1007500008BC19680868B0E8F04F1EF0100F08BF19
:10076000B0EC108A80F30988BFF36F8F704700BF29
:1007700030870020202383F31188FEE730B46FF028
:1007800002034FF08075074C40F8081C40F8202CFD
:1007900040F8045C40F80C4C40F8243C30BC443831
:1007A000704700BF750702000F4C08B5E02384F8BE
:1007B000223000F059F80D4B0D4A00211960D4F891
:1007C000883043F47003C4F88830536843F04043E2
:1007D0005360236943F010032361FFF779FF20235F
:1007E00083F31188FEE700BF00ED00E0B48600202F
:1007F00030EF00E0202383F31188024A13680133AD
:1008000013607047B4860020034A1368013B1360ED
:100810000BB983F311887047B486002000B50F49E7
:100820000F4B00220A6083B00968009100991A609A
:100830001B680193019BEFF31183202383F311883D
:1008400000F0D6FF20B1074B4FF080525A6040BFF6
:10085000002383F3118803B05DF804FB001101400D
:100860004011014000ED00E070B5002001F048FEAD
:10087000084D094B094901222026E0244FF400309D
:10088000C3F80865C3F804232A601A6081F811438D
:10089000086070BD081001400010014000E100E058
:1008A000F0B5074683B0EFF3108372B63D4CA268F3
:1008B0008AB93D4A0121A160D2F880503B490846DF
:1008C00029402160C2F88000D2F8841061604FF0A6
:1008D000FF31C2F8841003B962B6354DD5F804650E
:1008E00001F04AFA00283BD03248334AB84228BFC8
:1008F0003846831923F07F4301210027C5F80813E8
:10090000C5F840351760136800934FF48033009AA0
:10091000C5F80433BFF34F8F002832D0224B20BFDD
:10092000D3F80021D3F804110A43F8D0204A234910
:100930004FF48033C2F808330025D2F804350D6037
:1009400009680191B3424FF00101019DC2F80413FF
:1009500001D203F180739B1B984228BF1846F0B95F
:10096000A268104B5AB1EFF3108272B60E491868A4
:100970000860586848600021996002B962B603B007
:10098000F0BD0E4AC5F80833D5F80435106012687A
:100990000192B342019AC5F80413DAD3E0E700F0FC
:1009A0001FFFDDE734A5002000E100E0FC06FFBCEE
:1009B00000100140FDFFFF00401101400011014007
:1009C00070B506460D4651B300FB01F04D30FFF700
:1009D00009FE044600F14C0340B32360E66325643E
:1009E000FFF708FF226CE36B2168A16003FB02F3B1
:1009F0009A1A0A440B4400204FF0FF31A063E260D2
:100A00006164636004F11000A164FFF719FE04F152
:100A10002400FFF715FEFFF7F7FE204670BD4C20BF
:100A2000FFF7E0FD044603460028D6D10024F4E792
:100A30002DE9F047044684B01D4601928846FFF731
:100A4000D9FEA26BE36BA64F4FF000099A424E46C7
:100A500070D3022D00F0EF800198002800F0428151
:100A6000B9F1000F7AD0FFF7CFFE00F0A5FEFFF737
:100A7000C1FE636C013308BF6664A36C013308BF19
:100A8000A664FFF7C1FE02A801A901F03FF9002802
:100A900040F0E280FFF7AEFEA36BE26B9A4261D0BA
:100AA000FFF7B2FEFFF7A6FEA36C002B14DD636A0E
:100AB00093B104F1240907E0A36C013BA364A36C88
:100AC000002B09DD636A3BB1484601F0C5F80028F8
:100AD000F2D001F04BF9EFE74FF0FF33A364FFF7DB
:100AE00093FEFFF787FE636C002B14DD236993B13F
:100AF00004F1100907E0636C013B6364636C002B35
:100B000009DD23693BB1484601F0A6F80028F2D080
:100B100001F02CF9EFE74FF0FF336364FFF774FE49
:100B200000F0F4FEFFF766FEA26BE36B9A424FF013
:100B300001098ED2226C002A63D12568002D00F0B5
:100B4000F780A36B626A0133A363002A40F0DF8061
:100B5000FFF75AFE012004B0BDE8F08702A801F0BB
:100B6000C9F880E704F11009FFF74EFE48460199E5
:100B700000F0E8FFFFF73EFEA36C002B14DD636A74
:100B800093B104F1240A07E0A36C013BA364A36CB6
:100B9000002B09DD636A3BB1504601F05DF8002887
:100BA000F2D001F0E3F8EFE74FF0FF33A364FFF773
:100BB0002BFEFFF71FFE636C002B06DC0FE0636C5F
:100BC000013B6364636C002B09DD23693BB148463C
:100BD00001F042F80028F2D001F0C8F8EFE74FF03A
:100BE000FF336364FFF710FE00F090FE002899D1F8
:100BF0004FF080537B6040BFBFF34F8FBFF36F8FC9
:100C000090E74146002D74D0E06805F08DFA236C22
:100C1000E26821685B421A448A42E26002D262685A
:100C20001344E360022D8CD1A36B002B89D0A36BFE
:100C3000013BA36385E7226C002A3FF47EAF414667
:100C4000E06805F071FA236CE26821685B421A449F
:100C50008A42E260E3D3E7E7FFF7CCFDA36C002B09
:100C600014DD636A93B104F1240507E0A36C013B32
:100C7000A364A36C002B09DD636A3BB1284600F036
:100C8000EBFF0028F2D001F071F8EFE74FF0FF33EF
:100C9000A364FFF7B9FDFFF7ADFD636C002B14DD16
:100CA000236993B104F1100507E0636C013B6364B1
:100CB000636C002B09DD23693BB1284600F0CCFFB3
:100CC0000028F2D001F052F8EFE74FF0FF336364F1
:100CD000FFF79AFD00F01AFE002004B0BDE8F0878F
:100CE00000ED00E00090FFF78FFD009804B0BDE834
:100CF000F087A06805F018FAA168236C62680B44BD
:100D00009342A360FFF41DAF2368A36019E704F1C9
:100D1000240000F0A1FF01287FF41AAF0B4B4FF025
:100D200080525A6040BFBFF34F8FBFF36F8F0FE702
:100D3000606801F08FF8A36B626A65600133A3639A
:100D4000002AE4D10028E9D102E700BF00ED00E06D
:100D500038B54C20FFF746FC0446C8B100254FF0DB
:100D6000FF3301228563C263436445608364056089
:100D70008560C56005641030FFF762FC04F1240053
:100D8000FFF75EFC204629462A462B46FFF750FE19
:100D9000204638BDF8B5044617461D46EFF31186C8
:100DA000202383F31188826BC36B9A4205D3022DF3
:100DB0002DD0002086F31188F8BD026C7AB9256821
:100DC000002D4ED0A36B0133A363A36C01333AD043
:100DD000A36C0133A364012086F31188F8BD2DB301
:100DE000C06805F0A1F9236CE26821685B421A44EF
:100DF0008A42E26002D262681344E360022DE1D1CC
:100E0000A36B002BDED0A36B013BA363DAE7026C7C
:100E1000002AD4D0C06805F087F9236CE268216805
:100E20005B421A448A42E260E5D3E9E7806805F054
:100E30007BF9A168236C62680B449342A360C1D321
:100E40002368A360BEE7636A002BC4D004F12400CA
:100E500000F002FF0028BED0002FBCD00120386077
:100E6000A8E7606800F0F6FF6560ABE738B5EFF320
:100E70001184202383F31188826BC36B9A420CD2B6
:100E8000836B01338363836C01330AD0836C01333A
:100E90008364012084F3118838BD002084F3118815
:100EA00038BD436A002BF4D024300D4600F0D4FE48
:100EB0000028EED0002DECD001202860EAE700BF2A
:100EC0002DE9F047044684B09A4688460192FFF720
:100ED00091FCA36BA34E00273D46002B7AD10198CD
:100EE000002800F0F380002F00F0DC80FFF78CFC7E
:100EF00000F062FCFFF77EFC636C013308BF6564A1
:100F0000A36C013308BFA564FFF77EFC02A801A90A
:100F100000F0FCFE002840F0E080FFF76BFCA36BC4
:100F2000002B40F08480FFF76FFC2368002B00F05B
:100F3000C58004F124094846019900F003FEFFF73B
:100F400059FCA36C002B06DC0FE0A36C013BA364EF
:100F5000A36C002B09DD636A3BB1484600F07CFEC0
:100F60000028F2D000F002FFEFE74FF0FF33A36458
:100F7000FFF74AFCFFF73EFC636C002B14DD23698E
:100F800093B104F1100907E0636C013B6364636C87
:100F9000002B09DD23693BB1484600F05DFE0028C7
:100FA000F2D000F0E3FEEFE74FF0FF336364FFF7AA
:100FB0002BFC00F0ABFC38B94FF08053736040BF9E
:100FC000BFF34F8FBFF36F8FFFF714FCA36B0127A5
:100FD000002B84D0226CE5684AB16368A918994255
:100FE000E16024BF2168E160404605F09DF8BAF158
:100FF000000F40F0B980A36B2268013BA363002A75
:1010000000F0C3802369002B00F0B18004F11000D0
:1010100000F022FE012840F0AA80524B4FF080528F
:101020005A6040BFBFF34F8FBFF36F8F9FE0FFF752
:10103000EBFBFFF7DFFBA36C002B14DD636A93B1BE
:1010400004F1240907E0A36C013BA364A36C002B0B
:1010500009DD636A3BB1484600F0FEFD0028F2D08E
:1010600000F084FEEFE74FF0FF33A364FFF7CCFB03
:10107000FFF7C0FB636C002B18DD2369B3B104F1EB
:10108000100907E0636C013B6364636C002B0DDDAA
:1010900023695BB1484600F0DFFD0028F2D000F084
:1010A00065FEEFE702A800F025FE1FE74FF0FF33D3
:1010B0006364FFF7A9FB00F029FC85E7FFF79AFBC3
:1010C000606800F079FEFFF79FFB32E70090FFF7C2
:1010D0009BFB009804B0BDE8F087FFF78BFBA36C87
:1010E000002B14DD636A93B104F1240507E0A36CBF
:1010F000013BA364A36C002B09DD636A3BB1284666
:1011000000F0AAFD0028F2D000F030FEEFE74FF02B
:10111000FF33A364FFF778FBFFF76CFB636C002BD6
:1011200014DD236993B104F1100507E0636C013B02
:101130006364636C002B09DD23693BB1284600F032
:101140008BFD0028F2D000F011FEEFE74FF0FF33E7
:101150006364FFF759FB00F0D9FB002004B0BDE841
:10116000F08700BF00ED00E0636AE5602BB9FFF790
:101170004BFB012004B0BDE8F08704F1240000F02F
:101180006BFD00287FF449AFF1E700F0A5FE606039
:1011900038E700BF10B4074B1A682AB19A6812B139
:1011A0005DF8044B7047012203EBC20443F8321090
:1011B0006060F5E740A5002038B504460D46FFF70E
:1011C00019FB636C013304BF00236364A36C013318
:1011D00004BF0023A364FFF717FBA36B23B92946C1
:1011E00004F1240000F0F8FCFFF704FBA36C002BD3
:1011F00014DD636A93B104F1240507E0A36C013B9D
:10120000A364A36C002B09DD636A3BB1284600F0A0
:1012100023FD0028F2D000F0A9FDEFE74FF0FF33E7
:10122000A364FFF7F1FAFFF7E5FA636C002B14DD16
:10123000236993B104F1100507E0636C013B63641B
:10124000636C002B09DD23693BB1284600F004FDE7
:101250000028F2D000F08AFDEFE74FF0FF3363641F
:10126000BDE83840FFF7D0BA2DE9F84F0C9C0B9E33
:1012700081468A46154698462746002C00F09780FE
:101280004820FFF7AFF90446002800F09B80AD002E
:101290002A460763A5213846FEF754F99AF800302C
:1012A000226B84F83430043D9AF80030154425F060
:1012B000070553B19AF8013084F835309AF80130B7
:1012C0001BB19AF8023084F836300A9B022B28BFF3
:1012D0000223002704F1040AE362A363504684F862
:1012E0003770E7639B46FFF7B7F904F11800FFF783
:1012F000B3F9CBF103032764A361246184F844703C
:101300006462284649464246FFF738FA206006B133
:101310003460FFF76FFA3F4A3F4D136801331360A3
:101320002B68002B3CD0DFF82081D8F800306BB35D
:10133000DFF818E1394EE36ADEF800003768384A12
:10134000012404FA03FC03EB83034CEA000C51462E
:1013500002EB83003A19CEF800C03260FFF780F943
:10136000FFF752FAD8F80030BBB12B680A9ADB6A53
:101370009A4212D92B4B4FF080525A6040BFBFF3B4
:101380004F8FBFF36F8F2046BDE8F88F2B680A9A06
:10139000DB6A9A4228BF2C60CAE72046BDE8F88F76
:1013A0002C601368012B11D0DFF89C80C0E79000FF
:1013B000FFF718F9074600287FF462AF4FF0FF30BF
:1013C000BDE8F88F3846FFF739F9F7E71448DFF83A
:1013D0008090154EDFF87080FFF732F91348FFF761
:1013E0002FF91348FFF72CF94846FFF729F9304643
:1013F000FFF726F90F48FFF723F90F48FFF720F909
:101400000E48FFF71DF90E4A0E4BC2F800901E6001
:101410008EE700BF8487002030870020548700209B
:10142000F086002000ED00E06C870020048700209B
:101430001887002034870020C8860020DC86002022
:10144000BC86002050870020C086002088870020AE
:1014500058870020F8B504463D4EFFF7CBF9002C25
:101460004ED0251D2846FFF721F930B9E36A394AE5
:1014700003EB830152F82120A2B1A36A1BB104F14E
:101480001800FFF713F9344F29463846FFF7E8F8FC
:10149000FFF7BAF933682E4A9C42304B1B6822D0C2
:1014A0004BB9F8BD2E480121026801FA03F322EA84
:1014B00003030360E1E7FFF79DF92A4B1A681268FE
:1014C0004AB11A68284BD268D26852681A60BDE8DF
:1014D000F840FFF799B9244B4FF0FF321A60BDE88E
:1014E000F840FFF791B96BB920493868096888421C
:1014F0002BD01F4B1B687BB11E4B01221A60F8BD1D
:101500003468AEE71C4B4FF080525A6040BFBFF3C7
:101510004F8FBFF36F8FF8BD1649114A0B601368E8
:10152000B3FA83F3C3F11F030A4803EB83039B0061
:10153000C11808334A6852684A6003449A4204BF9B
:1015400052684A60D3683360F8BD1360F8BD00BFCD
:1015500030870020F0860020DC860020C086002036
:1015600088870020BC860020F4400020848700206B
:101570002C8700208C87002000ED00E000283BD065
:101580002DE9F0411D4D2B6898420AD00446FFF723
:1015900031F91B4B62699A4205D0BDE8F041FFF773
:1015A00033B9BDE8F081A36A164A9342F5D0002B07
:1015B000F3D104F10408144F4046FFF777F8E36ACB
:1015C0003E68124801229A4003EB8303324300EB4A
:1015D000830041463A60FFF743F82B68E26ADB6A12
:1015E0009A42DAD30A4B4FF080525A6040BFBFF3A1
:1015F0004F8FBFF36F8FD0E7704700BF3087002059
:10160000DC8600203487002088870020F0860020B8
:1016100000ED00E02DE9F843F020FEF7E3FF05467A
:10162000002875D04820FEF7DDFF0446002877D05B
:101630000563A5212846F022FDF784FF206B4C4F5F
:101640000025492144224C2304F1040884F8341075
:1016500084F8352084F8363000F1EC0684F83750F1
:101660004046E562A563E563FEF7F6FF04F1180066
:10167000FEF7F2FF26F0070603232A462564A3613E
:101680003C4984F84450304624616462FFF776F8A0
:10169000394B20601C60FFF7ADF8384A13680133FE
:1016A00013603B68002B35D0354E33681BB93B685F
:1016B000DB6A03B93C60DFF8F4C0DFF8F4E0E36A0A
:1016C000DCF80050DEF800202E4801249C4003EB9B
:1016D000830300EB8300013241462C43CCF80040E9
:1016E000CEF80020FEF7BCFFFFF78EF8336803B199
:1016F0003B6800F0FDFB01280AD1202383F3118809
:10170000214B306000221A60BDE8F843FFF74CB867
:10171000BDE8F8833C601368012B06D0184ECAE779
:101720002846BDE8F843FEF789BF1648DFF88490E5
:10173000164D134EFEF784FF1548FEF781FF15483E
:10174000FEF77EFF4846FEF77BFF2846FEF778FF50
:101750001148FEF775FF1148FEF772FF1048FEF7BB
:101760006FFF104A104BC2F800901D60A3E700BF46
:1017700030870020011A020048870020848700205B
:10178000C0860020F08600204C8700206C87002057
:10179000048700201887002034870020C886002096
:1017A000DC860020BC86002050870020888700202F
:1017B0005487002058870020024A136801331360C1
:1017C000704700BF2C870020014B1868704700BF8E
:1017D0004C870020014B1868704700BF4C870020E1
:1017E000024A136818441060704700BF4C870020FD
:1017F0002DE9F04F3A4B1B6883B0002B43D1394B96
:101800001A6801321A601F68002F4AD0364B0193C4
:101810001B689F423BD3DFF8E480344EDFF8E8904A
:10182000C246002525E0DAF80030DB68DC68636832
:1018300004F1040B9F42584622D3FEF737FFA36AF8
:1018400004F118000BB1FEF731FFE06A33680122A2
:10185000824000EB80001343594609EB800033605F
:10186000FEF7FEFE224BE26A1B68DB6A9A4228BF43
:101870000125D8F800301B68002BD4D14FF0FF337E
:10188000019A136004E01B4A1368013313600025BA
:10189000194B1B68002B18BF0125284603B0BDE873
:1018A000F08F164B164A1868164914681C601060B1
:1018B0000A6801320A601A6812683AB90A4B019341
:1018C0001A464FF0FF3313601346A1E71B68064A20
:1018D000DB680192DB685B681360134698E700BF22
:1018E0002C8700204C870020F440002088870020AF
:1018F00030870020808700208C870020BC86002055
:1019000050870020B8860020F08600202DE9F84F8F
:10191000FEF770FF314B1A68013A1A601B68002B02
:1019200047D12F4B1B68002B43D0DFF8C8B02D4F99
:10193000DFF8C490DFF8C480DA4620E0DAF80C3033
:10194000DC68251D04F11800FEF7B0FE2846FEF7FE
:10195000ADFEE06A3B6806FA00FE00EB80004EEA4E
:101960000303294609EB80003B60FEF779FED8F8B7
:101970000030E16ADB6A994224BF1B4B1E60DBF832
:1019800000300126002BD9D1184C23686BB1236895
:101990005BB10125FFF72CFF08B1134B1D602368D5
:1019A000013B23602368002BF4D10F4B1C68012CF2
:1019B00005D00024FEF728FF2046BDE8F88F0C4B29
:1019C0004FF080525A6040BFBFF34F8FBFF36F8F0D
:1019D000FEF71AFF2046BDE8F88F00BF2C870020D5
:1019E00084870020888700208C8700208087002043
:1019F00000ED00E034870020F086002030870020D2
:101A00002DE9F04B304E314D314CDFF8D880DFF806
:101A1000D890B34607E02368376801332360FFF7A7
:101A200075FF002F34D12B68002BF4D1D9F800308A
:101A3000012B08D9274B4FF080525A6040BFBFF3AB
:101A40004F8FBFF36F8F02F00DFE234B224A1B68AE
:101A5000DB6A002BE7D1D9F80030012BE3D81F4B0C
:101A60001F491B6809681D4F1D485B1A012BDAD9F5
:101A70002368013323601368DB6A33B93B6800686D
:101A8000181A012801D9FEF70BFFFFF73FFFCAE73D
:101A9000FEF7B0FEDBF80C30DF68381DFEF706FEFF
:101AA000D8F80030094A013BC8F80030074B1B68E2
:101AB000013B1360FEF7A8FE386BFEF7BFFD38460A
:101AC000FEF7BCFDAFE700BFC8860020C48600203B
:101AD0002C87002000ED00E030870020F44000203B
:101AE0004C87002084870020F0860020104B1B6864
:101AF000CBB91049104A0B601368B3FA83F3C3F1F2
:101B00001F030E4803EB83039B00C11808334A6888
:101B100052684A6003449A4204BF52684A60084BC4
:101B2000D2681A607047034B01221A60704700BFE9
:101B30002C8700208C87002088870020F0860020DA
:101B40003087002038B51D4D2B680C4603F1180175
:101B5000FEF792FD28680430FEF7A8FD40B92B6817
:101B60001749D86A0A680123834022EA03030B60FD
:101B7000631C1CD0134A11491368286812681C445E
:101B8000944244600BD3104B186809680431FEF787
:101B900073FD0E4B1A68944238BF1C6038BD0C4B65
:101BA00018680968BDE838400431FEF765BD29684A
:101BB00008480431BDE83840FEF752BD30870020A8
:101BC000888700204C870020BC860020F44000203D
:101BD00050870020DC86002038B5194D2B680C4654
:101BE00003F11801FEF73CFD28680430FEF75EFDA6
:101BF00040B92B681349D86A0A680123834022EA56
:101C000003030B60104A0E491368286812681C44CD
:101C1000944244600BD30D4B186809680431FEF7F9
:101C20002BFD0B4B1A68944238BF1C6038BD094B22
:101C300018680968BDE838400431FEF71DBD00BFD3
:101C400030870020888700204C870020BC86002039
:101C5000F440002050870020F8B5C368DC6804F128
:101C600018052846FEF722FD1A4B1B6833BB271DBB
:101C7000194E3846FEF71AFDE36A35681748012207
:101C80009A4003EB83032A43394600EB830032601A
:101C9000FEF7E6FC124BE26A1B68DB6A9A4282BFDF
:101CA000104B01201860104B1A68126898BF002072
:101CB0004AB90E4B4FF0FF321A60F8BD29460C4866
:101CC000FEF7CEFCE6E71A68084BD268D268526885
:101CD0001A60F8BD2C87002088870020F08600203D
:101CE000308700208C870020BC860020F440002034
:101CF00034870020034A044B12681B6880E80C00FC
:101D0000704700BFB88600204C870020F8B50D460C
:101D10000446FEF76FFD2B6812495A1C08681BD059
:101D2000114E276832689742626801D090420ED205
:101D3000871ABB420BD91B1A134430680A682B6000
:101D400084E805000025FEF75FFD2846F8BD012563
:101D5000FEF75AFD2846F8BD0025FEF755FD28463A
:101D6000F8BD00BF4C870020B8860020014B01223F
:101D70001A6070478C870020054B1B682BB9054BF8
:101D80001868B0FA80F0400970470020704700BF23
:101D9000348700208C870020054B1B6833B1054B2E
:101DA0001B68002B0CBF02200020704701207047E9
:101DB000C08600202C870020002842D02DE9F04169
:101DC000214CC36A2268D26A934212D28269002AE5
:101DD00004DB2268D26AC2F1030282611B4D4269B0
:101DE00003EB830305EB83039A4204D02368DB6A89
:101DF000C362BDE8F08100F1040807464046FEF7E3
:101E000055FCF8B9FB6A124E03EB830255F8222009
:101E100032B93268012101FA03F322EA0303336085
:101E200023683268D86AF86201238340134300EBC9
:101E300080003360414605EB8000BDE8F041FEF7CD
:101E40000FBC7047024EEBE730870020F086002081
:101E500088870020002838D0F8B5C36BC16A826B30
:101E6000013B9142C36300D00BB10020F8BD071DB8
:101E700004463846FEF71AFC78B9E36A1448154E52
:101E800003EB830250F822204AB93268012101FA9B
:101E900003F322EA0303336001E00D480D4EA36B08
:101EA0003268E362012505FA03FCC3F1030E03EB7C
:101EB00083034CEA020200EB83003946C4F818E0C1
:101EC0003260FEF7CDFB2846F8BD0020704700BF0A
:101ED000F086002088870020044B1A681AB1196820
:101EE000CA6B0132CA631868704700BF3087002090
:101EF000F0B5184C85B0FEF77DFC25688DB1FEF776
:101F000083FC206858B10223134A009300230192F6
:101F100002930393114812495022FFF7A5F905B027
:101F2000F0BD104F104E3846FEF78AFB3046FEF7E4
:101F300087FB0E4A0E4B176020202A4610211E6098
:101F4000FEF73EFD20600028D9D00A49FFF722F9AC
:101F5000D5E700BFBC870020C4870020792002009D
:101F6000486A020094870020A887002090870020FC
:101F7000C0870020406A02002DE9F04F83B0F9B11C
:101F8000064628200D4698461746FEF72BFB0446CA
:101F9000B0B1DFF88090FEF72DFCD9F80020A2B197
:101FA000FEF732FC0C9B2660201DA561E761C4F89A
:101FB00020806362FEF750FB204603B0BDE8F08F3F
:101FC0000024204603B0BDE8F08FDFF84CB0DFF806
:101FD0004CA001925846FEF733FB5046FEF730FB0B
:101FE00009490A4BC1F800B0019AC3F800A02020AB
:101FF0001021FEF7E5FCC9F800000028D0D0044904
:10200000FFF7C8F8CCE700BF90870020C08700200A
:10201000406A0200BC87002094870020A887002027
:1020200030B5144D2C6885B004B305298DE8060041
:1020300002900BDCFFF7B0FE02280FD000222868C8
:1020400013466946FEF7F4FC05B030BD1A4620463B
:1020500069460023FEF79EFE05B030BD2868089A49
:1020600069460023FEF7E4FC05B030BD204605B00C
:1020700030BD00BFBC8700202DE9F04FAB4DAC4C0C
:10208000DFF8B0828BB02B681E68002E6ED0DB6844
:102090001E68FFF791FBFFF797FBD8F80030A54AC1
:1020A000834207466ED88642106040F2A480F11B3E
:1020B0002068FFF781F8FFF729FC40B99E4B4FF0ED
:1020C00080525A6040BFBFF34F8FBFF36F8F002223
:1020D0001346206802A9FEF7F3FE0028D3D0029B26
:1020E000002B3BDB049E736913B1301DFEF7DEFA53
:1020F000FFF76AFBD8F800309842814623D3029A52
:10210000C8F80090092AE2D80123934013F4047F11
:1021100040F0D68013F0C70F40F0B6809B06D6D5AE
:102120003046FEF78BFAD2E7DB68DF68D3F800B001
:1021300007F1040A5046FEF7B9FA7B6A3846984719
:10214000FB69012B4BD02B681A68002AECD17B4A23
:10215000764912680A60794A1360D0E7039B0498B5
:1021600005999847029B002BB1DBBBE7FFF724FBE7
:10217000FFF72AFBD8F800306E4A8342074601D8A1
:10218000176094E74FF000090EE0DB68DE68D3F8D3
:1021900000B006F1040A5046FEF788FA736A30462A
:1021A0009847F369012B0ED02B681A68002AECD1EE
:1021B000624A5E4912680A60604AC8F8007013609B
:1021C000FFF7A4FB83E7B3695B445B45514627D91E
:1021D0007360564B36611868FEF74EFAE4E7BB6948
:1021E0005B445B4551462DD97B60504B3F6118687D
:1021F000FEF742FAA7E7FFF789FB4C4B1B68DB6849
:10220000D3F80C9009F1040A5046FEF74FFAD9F8BA
:102210001C30012B29D0D9F824304846984756E77E
:102220002368002BC0D0CDF81890CDF81CB00896CC
:10223000FFF7B2FD3E4900221346086806A9FEF7E3
:10224000F7FBB1E72368002B3FF47DAF0023069333
:10225000CDF81CB00897FFF79FFD354900221346C3
:10226000086806A9FEF7E4FB6DE7D9F81830C9F84D
:1022700010909A19BA42C9F8042032D92B4B514612
:102280001868FEF7F9F9C6E7039BB1693661CA1809
:102290004A4572603AD8C3EB090399421BD8736A66
:1022A00030469847F369012B7FF411AFB269039B65
:1022B00000211A44009130460B46FFF7B1FE06E7B5
:1022C000039B366109EB03024A45B361726021D872
:1022D000002B3FF4FCAE194B311D1868FEF7CCF90A
:1022E000F5E6BF1BBB421AD82368002B93D000270A
:1022F0000796CDF820900697FFF74EFD0C493A4619
:102300003B46086806A9FEF793FB84E74B4501D9D5
:102310009342C4D9311D2868FEF7AEF9D7E6074BC2
:1023200051461868FEF7A8F975E700BF90870020AE
:10233000BC870020C887002000ED00E0C087002097
:1023400010B50446FEF756FA6469003418BF01243C
:10235000FEF75AFA204610BD10B50446FEF74AFAB9
:10236000246AFEF751FA204610BD00BF4FF0A0438B
:10237000044AD3F80435125CD34003F0010080F026
:1023800001007047546A0200044B195C4FF0A042F0
:1023900001238B40C2F80C35704700BF546A02001D
:1023A000044B195C4FF0A04201238B40C2F8083562
:1023B000704700BF546A02004FF0A04310B44FF4BE
:1023C00080204FF400344FF400214FF48012C3F802
:1023D0000845C3F80805C3F80815C3F808255DF8D3
:1023E000044B70474FF0A04310B44FF480204FF4DB
:1023F00000344FF400214FF48012C3F80C45C3F8A9
:102400000C05C3F80C15C3F80C255DF8044B704798
:10241000074B4FF0A041185CD1F8043501228240EF
:1024200022EA03001340C1F80805C1F80C357047D3
:10243000546A020030B44FF0A04303224FF4003539
:102440004FF480244FF400204FF48011C3F8442748
:10245000C3F84827C3F84C27C3F85027C3F80855DA
:10246000C3F80845C3F80805C3F8081530BC704721
:102470004FF0A043044AD3F81035125CD34003F068
:10248000010080F001007047506A02000D2809D059
:102490000E2809D00F2809D0102814BF4FF0FF30A4
:1024A00003207047002070470120704702207047CA
:1024B000014B185C704700BF506A020010B50E4C0B
:1024C00023780BB1852010BD0C4A6360E36010686F
:1024D000A36010F00100236102D1072100F0E2F8AF
:1024E00003F056FD20B94FF080430122C3F81825B0
:1024F00001232370002010BDCC87002000E100E004
:1025000030B5224DAB7883B0044603F0FF0293B19F
:1025100010B143680120984702A8002300F8043D49
:10252000FDF7E4FEEB689DF804000133EB60FDF776
:1025300005FF03B030BD02A800F8052DFDF7D6FE5B
:1025400064B12A6942B1944208D0134601E09C422A
:1025500004D01B68002BFAD122602C61EB6863B9B0
:102560000B4A0C491360136801934FF0804202201C
:102570000123019CC2F804030B60EB689DF8030083
:102580000133EB60FDF7DAFE03B030BDCC870020ED
:10259000040100400800004010B51D4B1A6882B0CD
:1025A000F2B91C4B1A680AB902B010BD00221A60B9
:1025B0001B6801934FF080430222174C0199C3F826
:1025C000082323690122A270002BEDD01A68226132
:1025D0005B68012098472369002BF7D102B010BD3A
:1025E00000221A601B6800934FF0804301220A4CBE
:1025F0000099C3F80823A3686270002BD1D01A6831
:10260000A2605B6800209847A368002BF7D1C8E759
:102610000001004004010040CC87002000B1704759
:1026200010B5064CA3683BB11A68A2605B68002035
:102630009847A368002BF7D110BD00BFCC870020BE
:1026400010B582B002A80023144C00F8013DFDF73C
:102650004DFE237893B9124A6360E3601068A3606B
:1026600010F00100236114D003F092FC20B94FF068
:1026700080430122C3F8182501232370E3689DF8E5
:10268000070001330122E360A270FDF757FE02B09C
:1026900010BD072100F006F8E6E700BFCC87002058
:1026A00000E100E0002810B418DB00F1604303F5FE
:1026B00061434901C9B283F80013C3B240098000E5
:1026C00000F1604000F5614003F01F0201239340D8
:1026D000C0F8803103605DF8044B7047C3B2044A10
:1026E00003F00F0449012244C9B21176E6E700BFA6
:1026F000FCEC00E030B51D4C94F8545083B015B19B
:10270000082003B030BD4FF0FF33FF220620072121
:1027100023636363A363E36323646364A364E36485
:1027200023606360A360E36023616361A361E3618D
:10273000236284F850306362A36284F85230E3620B
:1027400084F8533084F85120FFF7ACFF084B094A56
:102750001D601B68019301984FF00043012128463A
:1027600084F85410C2F8043303B030BDE087002071
:102770007C61004000600040034B93F8540000303F
:1027800018BF0120704700BFE0870020F0B5634C00
:10279000251895F93030002B01DB0820F0BD91F8A9
:1027A00003E09446BEF1000F56D02368013300F0D9
:1027B000AD80082600256B1C584F54F823200132A9
:1027C00051D0AB1C9E4245D957F8232001324AD044
:1027D000EB1C9E423ED957F82320013243D02B1DDB
:1027E0009E4237D957F8232001323CD06B1D9E42C0
:1027F00030D957F82370013735D0AB1D9E4229D907
:1028000054F82320454F01322DD0EB1D9E4221D993
:1028100057F82320013226D005F108039E4219D92A
:1028200057F8232001321ED005F109039E4211D929
:1028300057F82320013216D005F10A039E4209D928
:1028400057F8237001370ED00B35AE4202D9E36A38
:10285000013307D00420F0BD236A01334ED00C268B
:102860000825A8E70B232618DDB244F823C086F814
:102870003050BEF1000F02D1234483F848008B781A
:10288000ABB94A784FF0A04600F5E073920046F8E5
:102890002320CB78ABB96AB2083A1444097894F88B
:1028A000502042EA811284F850201846F0BD83007F
:1028B00003F1A043D3F8002722F00202C3F8002757
:1028C000E7E76BB29B0003F1804303F5C0430A784E
:1028D000D3F8101521F4473121F44071C3F81015D5
:1028E0001204000202F44031D3F8104500F4F8520B
:1028F0000A432243C3F810250020F0BD082685F8BE
:1029000030603346C4F820C03546B5E7002385F86B
:102910003030C4F800C01D46B1E700BFE08700209A
:10292000F0B42E4D2E1882B096F8302053B2072BFB
:102930001CDD2B4493F848309B09032B40D0012B1E
:102940000CBF4FF400314FF44031800000F1A04043
:10295000D0F8002722F44032C0F80027D0F8003722
:102960000B43C0F8003702B0F0BC7047072AFAD812
:10297000980000F1804000F5C04003F14002920051
:10298000D0F8104592B202F18042002744F00104D1
:1029900002F5C042C0F81045019701981760002960
:1029A000E1D096F9302055F82220002ADBD0012210
:1029B0000B4902FA03F3C1F8043302B0F0BC7047CC
:1029C0004FF0A043D3F81035C34013F0010F14BFEC
:1029D0004FF440314FF40031B7E700BFE0870020EB
:1029E000006000404FF0A043D3F8103523FA00F008
:1029F00000F00100704700BF2DE9F04786B00026C7
:102A0000A24B01961A68012A00F03281A04B1A6885
:102A1000012A00F01F819F4B1A68012A00F00C81E7
:102A20009D4B1A68012A00F0F9809C4B1A68012A14
:102A300000F0E6809A4B1A68012A00F0D380994B87
:102A40001A68012A00F0C080974B1A68012A00F02A
:102A5000AD80964B1A68012A00F09B8016F0FF0F9C
:102A60001AD0934F01250024A30003F1804335427F
:102A700003F5C0434FEA45050BD0D3F8100557F8CE
:102A80002420D3F81015C0F30420C1F3014102B192
:102A900090470134082CE7D1002E02DB06B0BDE8D8
:102AA000F087844D00224FF0FF33A5F153070292C7
:102AB0000393814C4FF00008012614F8011FFF29F1
:102AC0002BD0C9B221F0C00006AB4FEAD00E03EB09
:102AD0000E0201F0070312F80CCC06FA03F31CEA0D
:102AE000030F1AD007EB000C89099CF930C057F886
:102AF0002CC0BCF1000F3CD003293CD04FEA800E23
:102B00000EF1A04E12F8149CDEF8002719EA030F0C
:102B1000C2F3014211D1032A36D0AC42CDD1B8F173
:102B2000000FBBD04FF0A043019AD3F81035934269
:102B3000B4D0029A01930392BBE7022AEDD1032994
:102B400004D0BCF1000FE8D0E047E6E74FF440398D
:102B5000DEF8002722F44032CEF80027DEF80037F6
:102B600008F1010849EA03035FFA88F8CEF8003754
:102B7000E7E70329D1D10DF1080A1AF80E9049EAC6
:102B800003090AF80E90B9E70329DAD14FF40039A6
:102B9000DEE700221A601B6805934FF0A043059AF8
:102BA000D3F81035019346F0004657E7434AD2F870
:102BB000042312067FF54DAF00221A601B680493B0
:102BC000049B46F0800644E73C4AD2F804235106B1
:102BD0007FF53AAF00221A601B680493049B46F00D
:102BE000400631E7354AD2F8042390067FF527AF37
:102BF00000221A601B680493049B46F020061EE71F
:102C00002E4AD2F80423D4067FF514AF00221A60AE
:102C10001B680493049B46F010060BE7274AD2F882
:102C2000042315077FF501AF00221A601B68049387
:102C3000049B46F00806F8E6204AD2F8042357071A
:102C40007FF5EEAE00221A601B680493049B46F0E9
:102C50000406E5E6194AD2F8042392077FF5DBAEB5
:102C600000221A601B680493049B46F00206D2E619
:102C70001249D1F8041311F0010105D01E601B6840
:102C80000493049B1646C1E60E46BFE60061004071
:102C900004610040086100400C6100401061004088
:102CA00014610040186100401C6100407C610040DC
:102CB000E0870020338800202F880020006000403B
:102CC000F0B50479724E6401331987B0DD7E183394
:102CD00015B1082007B0F0BD4D7F1D710D686B1C4C
:102CE0000BD04FF0A0470123AB40C7F808350B6865
:102CF00003F5E073032547F823504B685F1C06D0AB
:102D000003F5E0734FF0A045002745F823700379E1
:102D100006EB43131B7F002B4DD003688D69C3F86E
:102D200024550F7D4B7D05683B43C5F86C35036822
:102D30000F684D68C3F80C75C3F814550B7D012B53
:102D400000F09B80331905465A600B695048335197
:102D5000EAB12B79097F2A6800EB4310037F002B2F
:102D600065D1C2F81C31D2F81C712A680197019F05
:102D7000C2F84431D2F844212B6846480092009AA8
:102D8000C3F80403286840F30730FFF78BFC2B7966
:102D90002A6806EB43131B7F002B44D00823C2F89C
:102DA0000035344400200121E075A0752076A0761E
:102DB000E17607B0F0BD05688F69C5F8247591F814
:102DC00014E04D7D07684EEA0505C7F86C550568A7
:102DD000D1F800E04F68C5F81475C5F80CE50D7D15
:102DE000012DAFD18D686F1C05D005F5E0754FF052
:102DF000A04747F82530CB685D1C0DD001254FF06A
:102E0000A04705FA03F3C7F80835CB6803F5E0736C
:102E1000032547F82350CB6805688F68C5F8083547
:102E2000C5F810758EE70423C2F80035B9E7002312
:102E3000C2F81031D2F810712A680597059FC2F8C0
:102E40002031D2F820712A680497049FC2F82431F7
:102E5000D2F824712A680397039FC2F84431D2F84C
:102E600044212B6802920C48029AC3F80403286894
:102E700040F30730FFF716FC89E78B685D1CBAD07A
:102E800003F5E0734FF0A045002745F82370B2E743
:102E9000388800208000020010030200F0B503799A
:102EA0003D4A04685B01D118097F00296DD00021DB
:102EB000C4F80015D118384C4968B1B1017904EB58
:102EC0004114217F002963D10168344CC1F80843C3
:102ED0000168334E090B4CB26409203401F01F0124
:102EE000012505FA01F146F824100179076802EB83
:102EF0004111D7F80C65097FD7F814554FF0FF3E04
:102F0000A9B3D7F80815D7F81045C7F80CE5C7F8E6
:102F100014E50068C0F808E5C0F810E5771C06D095
:102F200006F5E0764FF0A040022740F826706E1CB0
:102F300006D005F5E0754FF0A040022640F8256068
:102F4000651C06D004F5E0744FF0A040022540F85F
:102F50002450481C06D001F5E0714FF0A040022437
:102F600040F8214013440022DA765A60F0BDD7F8C9
:102F70000815D7F81045C7F814E5C7F80CE5006840
:102F8000C0F808E5C0F810E5C8E7C4F8001591E7F7
:102F90000168044C9AE700BF3888002084020200D0
:102FA00000E100E0100302002DE9F04103795A4DE1
:102FB0005B01EC1886B0247F44B101F06044B4F1A9
:102FC000005F03D0102006B0BDE8F0812B44DFF88D
:102FD00048E19F7D1FB1112006B0BDE8F0819960E6
:102FE0009A759F82067976010EEB06010B7F2BBB4B
:102FF0000268C2F81C31D2F81C4102680594012411
:10300000059F94600468D1F808C0C4F81C31D4F856
:103010001C310493049B8F8A8B8AD1F804E0BFB2E1
:1030200001331CF807709BB28B82C4F81C75BEF18B
:10303000000F33D0002006B0BDE8F08103688A6835
:10304000C3F82071D3F8204103680294029CC3F8AE
:103050005871D3F85841036801948C7D019FC3F8DF
:103060004425C3F84845036801229A604B68002B49
:10307000E0D1026801E0002B4CD1D2F82011D2F847
:103080005831003318BF01230029F4D0002B0CBFA6
:1030900000200F20AB1900229A7594E78F7D8B8A50
:1030A00001F110029BB2BB4226D2046804E093886F
:1030B0009BB2B3F5807F05D0D4F81C3101F110022A
:1030C000002BF4D001F1100293889BB2B3F5807FFE
:1030D000E5D0C4F81CE1D4F81C310393039BB2F88B
:1030E000048093881FFA88F801331CF808809BB28B
:1030F0009380C4F81C85D2E793889BB2B3F5807F98
:1031000008D00268D2F81C31002BFBD00123D36019
:103110000020BFE70F20BDE7388800200279044B6C
:1031200003EB4213987D003018BF0120704700BFA9
:1031300038880020F0B50379924C5B01E51889B01E
:103140002E7F3EB101F06046B6F1005F52D01020F4
:1031500009B0F0BD6F6827B105684FF40176C5F876
:103160000863234403F11006F579DFF818E255BB34
:10317000F271D9601D765D7606797601A319183350
:103180001F79002F47D19B788BB985B90368C3F8A5
:103190002451D3F8242103680492049AC3F80851F7
:1031A000D3F8082103680392012203991A60A51934
:1031B0006B68002B64D003684FF401720020C3F8E1
:1031C000042309B0F0BD1D7E85B1002F00F0AC8056
:1031D00003790EEB431E9EF81C30002B49D0036888
:1031E0004FF40472C3F804231120B1E719611A7671
:1031F0000125C1E76F68002FB3D00568DFF884E1CF
:103200004FF404762344C5F8086303F11006F579FA
:10321000002DADD0D7E703680026C3F81061D3F8BE
:10322000107103680297029FC3F84461D3F84461A8
:1032300003680196019EC3F83415C3F8382585B993
:10324000036801221A6005796D0163195B68002B20
:103250006CD003684FF404720020C3F8042309B053
:10326000F0BD0268D2F8003243F02003C2F8003209
:10327000E9E703684FF40172C3F80423112067E7FC
:103280000268C2F84431D2F844310593059B0168C5
:10329000D1F82421D1F80871D1F84431003218BF97
:1032A0000122003318BF012347B9002B35D1002A72
:1032B000EED0A3190022DA75032049E7002AF8D1DD
:1032C0006BBBEA7D02B3C1F80831D1F8083106932F
:1032D000069A6F7EEA68D1F81815D1556A7E0132D8
:1032E000D2B26A7605F1180305F110025978D77940
:1032F0008F42CCD89B780021D171002B3CD0036841
:10330000012208461A6023E7C1F80821D1F80831E4
:103310000793079BD1F81835E4E7002AC9D1A31910
:103320000022DA750F2013E7112011E7016801E090
:10333000D3B9EAB9D1F81061D1F84431D1F82421D8
:10334000003318BF0123003218BF0122002EEFD036
:10335000002A4FF000012C4414BF032008468B4282
:10336000E17518BF0F20F3E62C440F20E675EFE659
:103370002C440320E375EBE60268012118465160F6
:10338000E6E600BF38880020114A037902EB4313B8
:1033900018331979D9B99B78CBB910B4016883B0C7
:1033A000C1F82431D1F8244101680194019CC1F88D
:1033B0000831D1F80831016800930123009C0B60AB
:1033C000017902EB4112937603B05DF8044B70472C
:1033D00038880020F0B59B4C237F8FB0002B75D12F
:1033E000994AD2F80413890548D4974BD3F804239B
:1033F000520704D5D3F80821002A40F0CA80924B26
:10340000D3F81C21C2B1A28AA07D8E4992B2824219
:103410004FF00002C3F81C2180F0A980D3F81C21D2
:103420000692069A888A8A8A8D6880B20132285C60
:1034300092B28A82C3F81C05834BD3F84421DAB1D7
:103440000022C3F84421D3F84411A27E04910499C8
:10345000002A40F08980E27D7A4B6AB10022587ED2
:10346000D968DA7501228DF830000B918DF828208B
:103470000AA893E8060090470FB0F0BDD2F82411D7
:103480000029B2D0C2F82431D2F82411A37E0791CA
:103490004FF401710798C2F808130BB90123536068
:1034A000694A02238DF82830D2F88034C2F880347B
:1034B000E07DE2680D9300238DF83000E3752376FC
:1034C00021680B9263680AA8984798E75E4BD3F887
:1034D0002421002A40F09380D3F8101161B1C3F881
:1034E0001021D3F8101103910399D3F83C15E07D16
:1034F000C9B2884200F0AA80534BD3F84421B2B13C
:103500000022C3F84421D3F84411E07D01910199D0
:103510004C4960B1D3F83C35C8688DF83030012390
:10352000CA750B908DF828300AA80AC99847464BEF
:10353000D3F82021002A9FD00022C3F82021D3F8FD
:103540002011A07D009100993E49002894D0D3F825
:103550004C058B688DF830008A750B938DF8282008
:103560000AC90AA8984787E701221A6073E7D3F8C7
:103570001C310593059B00283FF45EAF8B688DF8E6
:1035800030008A750B938DF828200AC90AA898473D
:1035900052E7E17D2B4A002970D00021C3F80811C1
:1035A000D3F8081108910899D068517ED3F81835DE
:1035B0004354537ED17D0133DBB25376627E214B7F
:1035C0008A427FF41CAF1A7E002A6DD19B7E13B90C
:1035D0001D4B01225A601C4AE06863684FF4017178
:1035E000C2F80813627E8DF83020002501220B906E
:1035F0002168E5758DF828200AA89847FFE6002283
:10360000C3F82421D3F82411029102218DF8281047
:103610000299D3F88014C3F880140D91D3F83C15A7
:10362000E368E27522768DF830100B9321686368A9
:103630000AA89847044BD3F84421002A3FF477AFF7
:103640005EE700BF3888002000200040217EF1B1F5
:10365000D3F80072E17527F02001E6682569C3F808
:10366000001201238DF830008DF828302276216871
:103670000B96E56063680AA898473DE7C3F8081110
:10368000D3F808210992099AD3F8183596E7E26829
:10369000E17501238DF830008DF828300B9294E805
:1036A0000A000AA8984727E7DE685D7E1869DA7580
:1036B00001210022D8601A765A768DF828100B96D0
:1036C0008DF8305093E806000AA8904797E600BFAF
:1036D0000220FEF79DBE00BF2DE9F0470D460646CD
:1036E000FEF7D4FE032804461DD8012D1FD00ED3AB
:1036F000022D1AD11E4B00EB40041C44657895B195
:103700001C4B1B687BB12846BDE8F04718471A4898
:10371000FCF7BCFD1649194A04EB44030B44155D44
:103720009B789D42EBD0BDE8F087BDE8F087DFF8DD
:10373000408047003B1808EB030218F80350537809
:103740002BB9274447440D4BBA781A55D7E70C4B91
:10375000DFF830901968084801EB810149004A46BA
:10376000FCF722FD0028ECD189F80060E9E700BFF2
:10377000D48800208C880020908800208088002039
:1037800088880020588800207F4B1B68DB0700D406
:10379000704770B57D4E7E4D33782C789BB9172CD1
:1037A00010D8DFE804F0666B6B879CB0C2AA2415C2
:1037B000241582313131313151565ECF0C0CFEF778
:1037C00011FE2C7070BD00233370FEF7F5FDE6E7A7
:1037D000012318463370FEF71BFE6E4B6E481968C6
:1037E000002201EB8101BDE87040FCF7DDBC012344
:1037F00018463370FEF70CFE664B674819680022C6
:10380000BDE87040FCF7D0BC6448FCF73FFDD4F144
:103810001104024600F0A180002840F09E80012C97
:103820000DD0C8255E4B5B495C48096805FB04F474
:10383000A3FB04435B0901FB03F1FCF7B5FC022089
:10384000BDE87040FEF7A0BDFEF7B6FD12232B7059
:1038500070BDFEF7B1FD0020FEF796FD13232B701F
:1038600070BDFEF7A9FD0120FEF78EFD14232B701D
:1038700070BDFEF7A1FD00232B7070BD0020FEF788
:1038800075FD002879D00020FEF78AFD022C0CBFC0
:10389000122328233F4A2C7011683F4801FB03F193
:1038A0000022BDE87040FCF77FBCFEF79BFD0C23B7
:1038B0002B7070BD0020FEF759FD002856D0002067
:1038C000FEF76EFD0822334B3348196803232B7033
:1038D00001FB02F1BDE870400022FCF765BC00204E
:1038E000FEF744FD00283DD00020FEF759FD2822B8
:1038F000284B294819680423E9E70020FEF744FD16
:1039000007232B7070BD0020FEF730FD90B3002020
:10391000FEF746FD1F4B2048196805232B70490010
:103920000022BDE87040FCF73FBC0020FEF770FDB0
:10393000184B1948196806232B700022BDE8704007
:10394000FCF732BCFEF738FD0020FEF71DFD01201C
:10395000FEF71AFD15232B7070BD0220BDE87040E4
:10396000FEF71EBDFEF710FD0422C1E7FEF70CFDB9
:103970000222A8E7FEF708FDCCE7FEF705FD022CC2
:103980000CBF0223042385E75C8800208488002084
:10399000B08800208888002060880020B48800203B
:1039A0001F85EB5110B50078FEF770FD03280BD88A
:1039B000064B00EB40001844407828B1044B1B68CC
:1039C00013B1BDE81040184710BD00BFD4880020D7
:1039D0008C880020FEF74CBD70B5964B1A6812F02B
:1039E000010202D11646304670BD934D2B78044635
:1039F000E3B9172C00F21C81DFE814F0E600ED00BB
:103A0000ED0054006B008200970046002C001D0062
:103A10002C001D00A500AC00AC00AC00AC00AC005C
:103A2000CB00D200DC0039004E004E0000232B708A
:103A3000FEF7C2FCDDE7012318462B70FEF7E8FC19
:103A40007E4B7F481968002201EB8101BDE8704080
:103A5000FCF7AABB012318462B70FEF7D9FC774B65
:103A6000774819680022BDE87040FCF79DBBFEF75F
:103A7000A3FC0020FEF788FC0120FEF785FC714BBB
:103A800015221A700026AEE70020FEF77DFC6D4B74
:103A900007221A700026A6E7FEF7A4FC694B002651
:103AA0001C70A0E70020FEF761FC002800F0BC803D
:103AB0000020FEF775FC08226049624B09686048E7
:103AC00003241C7001FB02F1BDE870400022FCF7EA
:103AD0006BBB0020FEF74AFC002800F09E8000200F
:103AE000FEF75EFC28225549564B096854480424C9
:103AF0001C7001FB02F1BDE870400022FCF754BBD2
:103B00000020FEF733FC002800F08B800020FEF739
:103B100047FC4A4A4B4B1168494805241C70490030
:103B20000022BDE87040FCF73FBB0020FEF770FCB0
:103B3000444B424A4248116806241C700022BDE8EA
:103B40007040FCF731BBFEF74DFC3E4B0C221A7067
:103B5000002648E73C48FCF799FBD4F111040646DF
:103B600050D000284ED1012C0FD0C825374B3349F7
:103B70003548096805FB04F4A3FB04235B093246BE
:103B800001FB03F1FCF710FB06460220FEF7FCFBED
:103B900029E7FEF711FC2B4B12221A70002622E7B0
:103BA000FEF70AFC0020FEF7EFFB264B13221A70EB
:103BB000002618E7FEF700FC0120FEF7E5FB214B8D
:103BC00014221A7000260EE7FEF7F6FB1D4B0022AA
:103BD0001A70164607E70020FEF7C8FBB0B10020B8
:103BE000FEF7DEFB022C0CBF122328231349154AD3
:103BF00009681470124801FB03F10022BDE870400F
:103C0000FCF7D2BA0220FEF7CBFBECE6FEF7BCFBDA
:103C1000022C0CBF02230423E8E7FEF7B5FB0422C5
:103C200061E7FEF7B1FB74E7FEF7AEFB022243E764
:103C30000026D8E65C880020848800208888002040
:103C400060880020B0880020B48800201F85EB51D8
:103C5000F0B5224D224E234B2860044610F002009E
:103C600083B031601A6014D01F4B20484FF00E0E05
:103C70000F27102611254A0883F800E00421DF7081
:103C80009E715D72FCF7ACF9A0B1E3071DD403B0DF
:103C9000F0BDE20719D41648164A0021FCF758FA7D
:103CA0000028F4D11448154A012103B0BDE8F040C2
:103CB000FCF74EBAFCF7ECF90028E6D10146104AB1
:103CC0001048FCF745FAE10703D50190FEF7B2FB77
:103CD00001980028DFD003B0F0BD00BF5C88002051
:103CE000888800208C880020D4880020606A020028
:103CF0005C6A020089370200806A0200D136020045
:103D0000A5390200586A0200032801D9072070472C
:103D1000012A12D0012917D008D30229F6D10D4B60
:103D200000EB4000034400205A707047094B00EB41
:103D30004000034400209A707047012901D00022FE
:103D4000E8E700F10E02D2B200EB40030149002087
:103D5000CA547047D488002008B5FEF7A9FB80003C
:103D600000F1A0430020D3F8002722F44032C3F82A
:103D70000027D3F8002742F44032C3F8002708BDDB
:103D800008B50020FFF7E8FF10B1062800D008BDF5
:103D90000120FFF7E1FF0028F9D0062808BF002026
:103DA00008BD00BF10B50388102B08D0112B05D11A
:103DB000264B18680138186038B110BD10BD234C6F
:103DC000206880B10130206010BD02210122FFF780
:103DD0009BFF48B3072827D01D4B1B68002BECD056
:103DE000BDE81040184701460122FFF78DFF48B19A
:103DF000072807D0164B1B6803B19847206801308D
:103E0000206010BD012002210722FFF77DFF08B1CD
:103E10000728EFD1002002210422FFF775FF0028B8
:103E2000ECD00728E6D1E9E7012002210722FFF7BD
:103E30006BFF08B10728CFD1002001460A22FFF707
:103E400063FF0028B9D00728C6D110BDE488002040
:103E5000E08800201A4B10B50C46186029B10120EB
:103E6000FFF7B8FD30B102232370164B186848B134
:103E7000002010BDFFF7AEFDF8B9124B2070186896
:103E80000028F5D102210122FFF73EFF10B10728DB
:103E900000D010BD012002210722FFF735FF08B135
:103EA0000728F6D1002001460A22FFF72DFF00283F
:103EB000DED0072808BF0020EBE70B232370D4E7F0
:103EC000E0880020E488002032DF704775DF70470B
:103ED00076DF70477FDF70478ADF70478CDF70477F
:103EE000ADDF704764DF70470378012B01D0022BF0
:103EF00002D14068FCF7E2B8704700BF0A280BD136
:103F000008B50020FFF768FD38B9FFF739FF50B951
:103F1000FFF7DAFF68B908BD7047FCF7CFF8FFF785
:103F20002FFF0028F4D0FCF7C9F8FFF7CDFF0028D9
:103F3000F1D0BDE80840FCF7C1B800BF08B5FBF7F9
:103F400031FF0028FBD1FDF785FAF8E708B500201E
:103F5000FDF780FAFBE700BF10B542880849044628
:103F600013460320FBF738FE064B6088214603EB1F
:103F7000001001F099FE044B62881A7010BD00BF5A
:103F8000A86A0200A09F00209C9E002070B500201F
:103F90008CB0034603214E4AFCF7D2F808B1FCF777
:103FA0008DF84C4D4C4B01930FCD05AC0FC495E8EB
:103FB00003004FF4007384E80300484E02934FF46B
:103FC000807405A801A9464A039607230494FCF7C8
:103FD00031FA08B1FCF772F80020FBF723FD08B1B5
:103FE000FCF76CF8012040F6CD413E4AFFF730FE69
:103FF00008B1FCF763F8002005A9FFF72BFF08B113
:10400000FCF75CF8384800F06BFF08B1FCF756F895
:10401000364B374918680190502201A8354B01F002
:10402000BDFF08B1FCF74AF80820002105AA02F0FC
:1040300023F80446FBF7B6FE0028FBD114B1204656
:10404000FCF73CF8172305A8ADF8243002F02CF853
:1040500008B1FCF733F82848284C01F0EBFF024682
:1040600010B1FCF72BF80022254B264D227005934A
:10407000002005EB001005A901F058FE08B1FCF77F
:104080001DF820781D4B0130C0B207282070F0D9F0
:1040900000221D481A70FFF71FFF08B1FCF70EF849
:1040A0000120FFF799FC08B1FCF708F80320174935
:1040B000174CFBF7D3FC00210B4620684FF0FF3272
:1040C000FCF7FEFE0028F6D001F05AFFF3E700BF30
:1040D000F0880020846A02008C890020A09E0020C5
:1040E000E93E0200FD3E0200593F02009C6A0200C8
:1040F00038890020154102005141020088890020C2
:104100007D450200A09F0020186E0200F86A0200A0
:10411000EC88002000B583B002A9002341F8043DDB
:10412000094B1868FCF7A2FE019B43B1074B4FF007
:1041300080525A6040BFBFF34F8FBFF36F8F002094
:1041400003B05DF804FB00BFEC88002000ED00E048
:104150002DE9F04F0388B0F80490103B87B08046FB
:10416000462B7BD8DFE813F04700A1007A00C60099
:104170007A007A007A007A007A007A007A00CF001A
:104180007A00D8007A002F017A007A007A007A004B
:104190007A007A007A007A007A007A007A007A004F
:1041A0007A007A007A007A007A007A007A007A003F
:1041B0007A007A007A007A007A007A007A00910018
:1041C0007A007A007A007A007A007A007A007A001F
:1041D0007A007A007A007A007A007A007A007A000F
:1041E0007A007A007A007A007A007A007A007A00FF
:1041F0007A009A00910003209D494A46FBF786FC0D
:104200000720FFF7E9FB002840F02481B8F80410EC
:10421000984B4FF4187000FB013000F0E3FE0446A9
:10422000002840F00E8100F0A9FB082800F015815D
:104230000120FFF7D1FB08B1FBF740FF8E48FFF7E5
:104240004BFE002840F010810120FFF7C5FB08B1AC
:10425000FBF734FF03208949FBF700FC4046FFF7DA
:10426000A1FDB9F1070F0DD8824B4FF4187000FB78
:104270000930414600F0F2FE8148414600EB09104A
:1042800001F07EFD07B0BDE8F08F48461321FFF72F
:104290001FFE0028E2D0FBF711FFDFE74846172199
:1042A000FFF71EFE0028D9D0F5E70320754998F8DE
:1042B00008304A46FBF790FC6F48FFF70DFE0028D8
:1042C00040F0BC800120FFF787FB08B1FBF7F6FE4A
:1042D00003206A49FBF7C2FB0120FFF77DFB0028A2
:1042E00040F0A98000F04AFB0028B7D10120FEF77A
:1042F00057F8B3E70022134648468521FFF7EAFD49
:104300000028ABD0C7E7007A022897D00328A5D1B0
:104310005D49FBF7A3FBA1E7C37DDA0800F1180AAA
:104320009CD0002509E0191F012968D9063B012B03
:1043300052D901373D44954290D20AEB05031AF851
:1043400005705B78991E0129EDD87E08F1D0AC1C70
:1043500054444FF0000B01E0B3454CD021460220FD
:1043600005AAFFF7BFFD0BF1010B02340028F3D1C2
:10437000BDF81430012BEFD19DF81630022BEBD194
:1043800008F108003C49414AFFF7A8FD00287FF4E6
:1043900065AFFFF721FB08B1FBF790FE98F80D0021
:1043A00098F80E1098F80B5098F80C4098F80920DF
:1043B00098F80A3002900391009501940320344943
:1043C000FBF770FC4AE7484608F10801FFF77EFD5D
:1043D00000283FF443AF5EE7A91C5144102005AA12
:1043E000FFF780FD38B9BDF81430012B03D19DF8DB
:1043F0001630022BC4D098F81720D20899E7BE08CF
:1044000097D0AC1C54444FF0000B01E0B345F2D000
:104410002146022005AAFFF765FD0BF1010B0434CC
:104420000028F3D1BDF81430012BEFD19DF81630E0
:10443000022BEBD1A4E7FBF741FE53E7FBF73EFE6F
:1044400040E7FBF73BFE112C3FF4EDAE2046FBF7B7
:1044500035FEE8E6FBF732FED8E60020FFF7BCFAAF
:1044600000283FF4FBAE16E7FBF728FEECE600BFA2
:104470005C6B0200948B0020186E0200F86A020048
:10448000A09F0020A06B0200E46B0200A06A020063
:104490001C6B0200F0B52F492F4CC0EBC00283B05B
:1044A0008B188A5C93F801E09F78DE781D798DF88F
:1044B000002004EB001069465C799B798DF801E0DF
:1044C00007228DF806308DF805408DF802708DF8C2
:1044D00003608DF8045001F0B9FC20499DF80020DC
:1044E00004460320FBF712FB03201D499DF8012021
:1044F000FBF70CFB03201B499DF80220FBF706FB92
:10450000032018499DF80320FBF700FB0320164900
:104510009DF80420FBF7FAFA032014499DF80520C2
:10452000FBF7F4FA032012499DF80620FBF7EEFA98
:1045300034B903200F49FBF791FA012003B0F0BD15
:104540002046FBF7BBFD03200B49FBF787FA002051
:1045500003B0F0BD50A50020A09F0020146C020005
:10456000446C0200746C0200A06C0200D06C02006B
:10457000046D0200606D0200386D0200F8B50B7822
:10458000022B0C462BD0032B15D0012B00D0F8BDED
:10459000498804F10A02054601F07EFC002850D14A
:1045A000284601F02BFC002845D103202649BDE810
:1045B000F840FBF753BA18462449FBF74FFA244852
:1045C000FFF78AFC002839D10120FFF705FA0028FF
:1045D0002ED103201F49BDE8F840FBF73FBA0A205F
:1045E000FFF7FAF908BB1C4D63682A781B4E1F7849
:1045F0001B49C2EBC200331837545A706068807888
:1046000098706068C078D8706068007918716068C8
:10461000407958716068807998710320FBF776FAC9
:104620002878BDE8F840FFF735BFFBF747FDDAE72C
:10463000FBF744FDCDE7FBF741FDB6E7FBF73EFD99
:10464000C2E7FBF73BFDABE7846D0200E46D0200BF
:10465000186E0200F86A02009C9E002050A50020FF
:10466000BC6D0200014B1868FCF788BF949E0020C7
:1046700000B585B0FDF722FF002865D1012000219B
:104680000322FCF79DF9324B1860002858D0012016
:1046900000210322FCF794F92E4B186000284BD020
:1046A0000120FCF755FB2C4B1860002840D0032359
:1046B0002A4A009300230192029303932848294930
:1046C0004FF48072FCF7D0FD012802D00420FBF7E4
:1046D000F5FC0223244A00930023019202930393E2
:1046E000224823494FF48072FCF7BEFD012802D016
:1046F0000420FBF7E3FC01231E4A009300230192F0
:10470000029303931C481D494FF48072FCF7ACFDE3
:10471000012802D00420FBF7D1FC194A136943F0A9
:1047200004031361FCF776FF0F20FBF7C7FCFBE7E0
:104730000420FBF7C3FCBAE70420FBF7BFFCAFE79C
:104740000420FBF7BBFCA2E7FBF7B8FC96E700BF31
:10475000EC8800208C8B0020989E0020908B0020FD
:104760008D3F0200046E0200E88800204D3F0200E9
:10477000086E0200949E00203D3F0200106E020071
:1047800000ED00E02DE9F84F43001F18DFF880B17D
:10479000FF000BEB07048846E16A0129164644D066
:1047A00034D302293CD1013000EB4000656A0BEBA9
:1047B000C0094FF0000A1DE0126A641BB442234690
:1047C000A2EB050428BF33469C42D9F8040028BF59
:1047D0001C4622462844414601F0A6FC0BEB070389
:1047E00025441A6A954208BF0025361BA244A044FE
:1047F0005D6217D00BEB0702936AAB4203F1FF3403
:10480000DAD8126A1344013B5C1BD7E7A16A626ADB
:1048100091429CBF246A091901398A1A964238D9F3
:104820004FF0000A5046BDE8F88FA16A656AA942B8
:1048300029D90139226AC5EB010A03440BEBC30BEA
:104840000BF1200BDBF80450314BB24528BFB246C8
:10485000561B0130B24500EB40003FD303EBC004D0
:104860004146606832462844C6EB0A0501F05CFC0C
:10487000606808EB06012A4601F056FCCBF80450AC
:104880005046BDE8F88F226A8C18013CC5EB040A3B
:10489000D3E703440BEBC30B0BF12007DBF82040FD
:1048A000D7F804901A4BC9EB04040130A64200EB80
:1048B00040001FD303EBC0054146686822464844C8
:1048C000C4EB060901F030FC686808EB04014A46B5
:1048D00001F02AFCB246C7F80490A3E703EBC0033B
:1048E0004146586852462844554401F01DFCCBF817
:1048F000045097E703EBC0034146586832464844EA
:1049000001F012FC06EB09037B60B2468AE700BFA8
:1049100088A50020F8B5134C23780BBB124ADFF8AA
:1049200058C0124FA3624FF4007E10266362E36208
:10493000A365E365636502250D49A261A264C4F81D
:104940001CC0C4F820E0E01DE764266525616561B0
:1049500001F028FC2046074901F024FC2023A37124
:10496000F8BD00BF88A50020206E020020A0002016
:104970002C6E0200306E020030A00020024B587DE9
:104980009B7D1840FBF70ABE30A200200649074A6B
:10499000074B9B1A03DD043BC858D050FBDC00F0EA
:1049A00013F8FAF75BFD0000EC7102008040002074
:1049B0000C410020FEE7FEE7FEE7FEE7FEE7FEE72C
:1049C000FEE7FEE7FEE7FEE7F0B5A44B1B78062BFB
:1049D0001AD0A34AD2F8883043F47003C2F8883062
:1049E000BFF34F8FBFF36F8F4FF01023D3F8002228
:1049F000002AC0F20281D3F80432002BC0F2FD80FD
:104A0000984B994A1A60F0BD984B1B681E07E0D17D
:104A1000974B1B6803F0F003302B62D0944B1B685C
:104A200003F0F002302A4BD003F0E003402B47D0D4
:104A30008F4B1B6803F0F003302B00F0CF808C4BC2
:104A40001B6803F0F002302A28D003F0E003402B6B
:104A500024D0874B1B6803F0F003302B00F0B080AC
:104A6000834B1B6803F0F003302B00F09080804BE9
:104A70001B6803F0F003502B37D07D4B1B6803F00D
:104A8000F002302A03D003F0E003402BA1D1794B90
:104A9000794A1B6803F04F0313609AE76F4B1B784A
:104AA0004FF080420021062BC2F80C11C2F8101101
:104AB000C2F838158DD16D4B1B68180789D1C8E72E
:104AC0006E4B664A1B6812786D49C3F34233062A5F
:104AD0000B607FF47EAF654B1B681D077FF479AFD9
:104AE000A6E7684B684A1A6098E74FF08052674B18
:104AF000D2F80414C3F82015D2F80814C3F824150A
:104B0000D2F80C14C3F82815D2F81014C3F82C15D9
:104B1000D2F81414C3F83015D2F81814C3F83415A9
:104B2000D2F81C14C3F84015D2F82014C3F8441569
:104B3000D2F82414C3F84815D2F82814C3F84C1539
:104B4000D2F82C14C3F85015D2F83014C3F8541509
:104B5000D2F83414C3F86015D2F83814C3F86415C9
:104B6000D2F83C14C3F86815D2F84014C3F86C1599
:104B7000D2F84424C3F87025384B1B78062B7FF4F9
:104B800028AF3A4B1B681B077FF423AF75E7334B05
:104B90003F4F1A783F4D4048404B4FF0050E0126DD
:104BA00000243F21062AC7F800E02E600460196047
:104BB0007FF40FAF2D4B1B681A077FF40AAF56E73F
:104BC000264B374A1B780321062B11607FF401AF77
:104BD000264B1B6819077FF4FCAE41E7314A1F4999
:104BE000D368097823F080730629D360C4D11F4BA2
:104BF0001B681C077FF4EDAE21E72B4B0122C3F8A5
:104C00000425D3F80024002AFBD04FF010231522EE
:104C10002549C3F80022D1F80034002BFBD04FF017
:104C2000102315222049C3F80422D1F800241E4B7A
:104C3000002AFAD00022C3F80425D3F80024002A61
:104C4000FBD0BFF34F8F0649184BCA6802F4E062ED
:104C50001343CB60BFF34F8F00BFFDE7E00F00F0C1
:104C600000ED00E0F84000200090D003E40F00F0D9
:104C7000E80F00F058020010E40E0040440200105B
:104C80003C05004074C007400DF0ADBA00C00040C4
:104C900010560040885600401856004014560040F8
:104CA000A0050040F0ED00E000E001400400FA053E
:104CB00094DF704796DF704797DF70472DE9F04328
:104CC00090F85A3290F8594203EB830707EB8707B5
:104CD00000EB87074FF0640C0CFB03FC97F804E033
:104CE00004EBC4030CEB4303661C0344764583B01A
:104CF00003F10A053CD0744538BF0EF1FF382DD2C0
:104D0000661C06EBC6030CEB4303A04500EB03094E
:104D100013D02C89B9F810500134AC4217D0013DA2
:104D2000ADF80650ADF8044000230B70104601A901
:104D3000FFF7C2FF03B0BDE8F0832B893C89A34293
:104D400012D00133ADF80430ADF80640ECE709F1BC
:104D50000A05F4B2A64580F85942D1D801230020B3
:104D60000B7003B0BDE8F083002508F10106F0E701
:104D70002B8938898342F1D00133ADF80430ADF886
:104D80000600D1E72DE9F043504E90F85C323268CE
:104D90000133DBB293429BB004460F4680F85C328D
:104DA00009D34B4B032100225F80197080F85B22EE
