:020000021000EC
:10F0000000000120BD4A0200E54A0200E74A020072
:10F01000E94A0200EB4A0200ED4A0200000000004B
:10F020000000000000000000000000007108020065
:10F03000F14A02000000000091080200F54A0200B7
:10F040003D270200F74A02005D370200F74A02003E
:10F05000F74A0200F74A0200892B0200F74A020031
:10F06000F74A0200F74A0200F74A0200F74A020094
:10F07000F74A0200F74A0200F74A0200F74A020084
:10F08000F74A020099090200F74A0200F74A020013
:10F09000F74A0200F74A020029620200F74A02001A
:10F0A000F74A0200F74A0200F74A0200F74A020054
:10F0B000F74A0200F74A02000000000000000000CA
:10F0C000F74A0200F74A0200F74A0200F74A020034
:10F0D000F74A0200F74A0200F74A02000000000067
:10F0E0000000000000000000000000000000000020
:10F0F0000000000000000000000000000000000010
:10F1000000000000000000000000000000000000FF
:10F1100000000000000000000000000000000000EF
:10F4000010B5054C237833B9044B13B10448AFF35E
:10F4100000800123237010BDDC21002000000000CB
:10F420000C730200084B10B51BB108490848AFF334
:10F4300000800848036803B910BD074B002BFBD0C0
:10F44000BDE81040184700BF00000000E021002088
:10F450000C730200D821002000000000154B002B87
:10F4600008BF134B9D46A3F5803A00218B460F46FB
:10F470001348144A121A00F065F80F4B002B00D005
:10F4800098470E4B002B00D0984700200021040025
:10F490000D000D48002802D00C48AFF3008000F0AA
:10F4A0002BF82000290005F099F900F011F800BFB1
:10F4B0000000080000000120000000000000000023
:10F4C000DC21002058750020000000000000000032
:10F4D00008B5074B044613B10021AFF30080054B7C
:10F4E0001868836A03B19847204600F033F800BFDC
:10F4F00000000000C86C020070B50E4B0E4CE41A00
:10F50000A41000251E46A54204D056F82530984781
:10F510000135F8E707F0CCFB084C094BE41AA410BE
:10F5200000251E46A54204D056F8253098470135DF
:10F53000F8E770BDD0210020D0210020D421002088
:10F54000D021002002440346934202D003F8011B5D
:10F55000FAE77047FEE700BF0378012B04BF014ABA
:10F5600013707047F82200202DE9F0417448C6B0AE
:10F570000C4617461D4603F0A1FFA8B9D4B106AE4C
:10F580002368704A30464FF4807106F0F1FE00287F
:10F590000ADB4C9B8046062B00F2CF80DFE803F0AD
:10F5A00016889244526274004FF00008404646B0FC
:10F5B000BDE8F0814C9B062B00F2BC80DFE803F035
:10F5C00004ACA6A09A948E004FF00008384606F0CE
:10F5D00009FF00EB0803FF2B044640F2A380002C38
:10F5E000E2DB4444B4F5807FDED8E5B206AE3146B6
:10F5F0002246554806F0B0FE2A465349504803F0CB
:10F60000B1FEB0FA80F84FEA58180A2700252246C2
:10F610007119002005F064F90544241A08B9013F66
:10F62000C4D0002CF3D1C1E7C0F58071AA686C6822
:10F630002B68019200943A4606EB080006F098FE0B
:10F640000446CCE7C0F58071EA68AC682B686D6849
:10F650000095029201943A4606EB080006F088FEF7
:10F660000446BCE7C0F580712869EA682B680390FE
:10F67000AC686D680095029201943A4606EB08006A
:10F6800006F076FE0446AAE7C0F580716A6928692B
:10F690002B680492EA680390AC686D68009502924A
:10F6A00001943A4606EB080006F062FE044696E72F
:10F6B000C0F580712B683A4606EB080006F058FE4C
:10F6C00004468CE7C0F580716A682B68009206EBEF
:10F6D00008003A4606F04CFE044680E74FF480717D
:10F6E0004FF0000806AED1E74FF480714FF00008EC
:10F6F00006AEB9E74FF480714FF0000806AEA3E7FD
:10F700004FF480714FF0000806AE8FE74FF4807120
:10F710004FF0000806AED7E74FF480714FF00008B5
:10F7200006AEC7E706AB394603EB0800224606F0F3
:10F7300013FE54E700252C4658E7002451E700BF8C
:10F740004C200020EC6C0200F82100202DE9F04F45
:10F75000C7B01D469A48002914BF0A230023164645
:10F760000C46029303F0AAFE002840F0F880002D1A
:10F7700000F0F980834606AF519B539A134420262C
:10F78000994602990B465B4404933133FB1803936B
:10F7900007EB0B031A460193002962D0534203F092
:10F7A00003038B4228BF0B46062900F2FE800B465E
:10F7B000019907F80B600A46012B02F1010200F0E3
:10F7C000F280022B4E7001F1020200F0EC80032B5C
:10F7D0008E7001F1030200F0E6800A46042BCE7021
:10F7E00002F1040200F0DF80062B0E7101F1050228
:10F7F00040F0E1804E718A1D1846029999422CD042
:10F80000029CC3EB040804F1FF3EA8F1040189083F
:10F81000C3EB0E0E0131BEF1020F4FEA810412D983
:10F820005B444FF0203E012907EB030C47F803E04F
:10F8300005D00229CCF804E001D0CCF808E044451A
:10F840002244204409D0029C1670431CA34204D2D7
:10F8500002308442567000D99670019B029A13447C
:10F860000193019B039A059703F1330A2F46DC1C91
:10F87000554602F10108DDF844A10CE004F8036CE0
:10F8800004F8026C04F8016C0334AC4208F8016C13
:10F8900008F101082ED0B945F0D9BA457DD9509B61
:10F8A00013F807B004F8016C4FEA2B105FFA80FEE2
:10F8B00009280BF00F00D4BF0EF1300E0EF1370EF9
:10F8C000092894BF3030373004F803EC04F8020CF8
:10F8D00006F026FD58440334407810F0970F08BF17
:10F8E0004FF02E0BAC4208F801BC07F1010708F1FC
:10F8F0000108D0D10398049C0D2303743D46019B5D
:10F90000059F4FF00A0B433480F811B02246394668
:10F9100083F830602B4806F01FFDE2B229492848E1
:10F9200003F020FDD84682464FF0000B224607EB3D
:10F930000B01002004F0D4FF8344241A10B9B8F15D
:10F94000010801D0002CF1D1BAF1000F07D11C48F9
:10F9500003F0B4FD18B94D45D346FFF412AF284665
:10F9600047B0BDE8F08F44B306AF2368164A384667
:10F970004FF4807106F0FCFC0028F0DB04463046B2
:10F9800006F030FDC22828BFC22083460246314619
:10F99000381906F0E1FCA344EEE6CAEB0700529BDF
:10F9A00013F800B07EE7184627E7002B7FF400AF7E
:10F9B000019A184624E705201FE72C4606AFDEE72C
:10F9C0004C200020F8210020EC6C0200F0B51B4F09
:10F9D0003B7889B01BB11A4B1B7883422BD0194D51
:10F9E000064605F03BF80FCD6C460FC495E80F00B6
:10F9F000DFF85CE084E80F000025082105220723DA
:10FA000011480191062403928DF81450009402933A
:10FA1000CDF818E003F020FCAE420C4A0A4818BFAB
:10FA20002A46694603F02AFB18B9054A01231670D5
:10FA30003B7009B0F0BD002009B0F0BDFA220020F3
:10FA4000F9220020CC6C02004C20002059F5010066
:10FA5000005027000048704769F5010000487047D2
:10FA60004DF7010038B50020FFF7B0FF044668B934
:10FA7000FFF7F0FF0546FFF7F1FF054BFF22C3F844
:10FA800010541C605C60C3F814049A60204638BDB2
:10FA9000FC2200200120FFF799BF00BF2DE9F043B1
:10FAA00083B002AB4FF0000803F8018D254C0646E9
:10FAB00018460D46A76800F0B3FCA2686368D4F846
:10FAC000009013440133C9EB0303012B07D80BBB90
:10FAD0009DF8070000F0CCFC03B0BDE8F08309F10D
:10FAE00001039DF80700236000F0C2FC01220023FF
:10FAF00062F3010368F3820307EA090766F3C503AB
:10FB000004EB870468F3891365F39F23E36003B074
:10FB1000BDE8F0830121434661F3010368F38203EA
:10FB2000052161F3C50309EA0202074904EB8202D9
:10FB300068F3891309F1010761F39F232760D360FC
:10FB4000C6E700BFFC220020F46C02002DE9F0475C
:10FB500082B002AB002603F8016D294C814618469D
:10FB600017468846A56800F05BFCA2686368D4F875
:10FB700000A013440133CAEB0303022B07D843BB95
:10FB80009DF8070000F074FC02B0BDE8F0870AF1B0
:10FB900002039DF80700236000F06AFC01220023A5
:10FBA00062F301030AEB020166F3820369F3C50302
:10FBB00005EA0A0A0D4004EB8A0A62F3891304EB92
:10FBC000850468F39F23CAF80C30E76002B0BDE8F3
:10FBD000F0870121334661F3010366F382030521B7
:10FBE00061F3C5030AEA0202064804EB820266F3E7
:10FBF00089130AF1010160F39F232160D360BFE7FD
:10FC0000FC220020F46C02002DE9F04F83B002AD1D
:10FC1000002605F8016D2D4C8246284690461F4669
:10FC20008946A56800F0FCFBA2686368D4F800B0C0
:10FC300013440133CBEB0303032B07D87BBB9DF8A5
:10FC4000070000F015FC03B0BDE8F08F0BF10303D3
:10FC50009DF80700236000F00BFC0122002362F3F3
:10FC600001030BF1020066F382035A446AF3C503F1
:10FC7000022105EA0B0B2A40054004EB8B0B04EB39
:10FC8000820261F3891304EB850469F39F23CBF8A7
:10FC90000C30C2F80C80E76003B0BDE8F08F0121A2
:10FCA000334661F3010366F38203052161F3C50363
:10FCB0000BEA0202064804EB820266F389130BF199
:10FCC000010160F39F232160D360B8E7FC2200208C
:10FCD000F46C02002DE9F04F83B002AF002607F864
:10FCE000016D314C8246384690461F46A5688946CC
:10FCF00000F096FBA2686368D4F800B013440133A7
:10FD0000CBEB0303042B07D8BBBB9DF8070000F027
:10FD1000AFFB03B0BDE8F08F0BF104039DF80700C3
:10FD2000236000F0A5FB0122002362F3010366F3C8
:10FD300082030BEB02010BF103060BF102026AF3E3
:10FD4000C503032005EA0B0B04EB8B0B60F389134F
:10FD500069F39F2329402A403540CBF80C3004EB4F
:10FD6000810104EB82020C9BC1F80C8004EB85043A
:10FD7000D760E36003B0BDE8F08F0121334661F343
:10FD8000010366F38203052161F3C5030BEA020256
:10FD9000064804EB820266F389130BF1010160F35C
:10FDA0009F232160D360B0E7FC220020F46C0200A6
:10FDB0002DE9F04F83B002AD002705F8017D384CE6
:10FDC0008346284691469846A6688A4600F028FB56
:10FDD000A26863682568134401335B1B072B08D8AE
:10FDE000002B47D19DF8070000F042FB03B0BDE8AF
:10FDF000F08FEB1D9DF80700236000F039FB012216
:10FE0000002362F3010367F3820305EB020E6BF339
:10FE1000C503062206EA050CAF1CE81C62F3891331
:10FE2000291D6A1D063535400EEA060E3740304062
:10FE30003140324004EB8C0604EB8E0E04EB870756
:10FE400004EB80006AF39F23F36004EB81010C9BB9
:10FE5000CEF80C9004EB8202C7F80C80C3600D9BB7
:10FE6000CB600E9BD36004EB85040F9BE36003B073
:10FE7000BDE8F08F01213B4661F3010367F3820384
:10FE800005212A4061F3C503064904EB820267F3AA
:10FE90008913013561F39F232560D360A2E700BF7A
:10FEA000FC220020F46C02002DE9F0474C4E96E84D
:10FEB0000C009A428AB070D0B06804E0C4F3891292
:10FEC00002EB9452134400EA0305023506EB850267
:10FED0000133546814F00302F0D0022A28D0C4F38E
:10FEE0008312C4F3952C002A75D00DF1100E7546BF
:10FEF000D71800EA030106EB81010133C96845F810
:10FF0000041BBB42F5D10092C4F3C20073466246A3
:10FF1000D6F81044324D0021A04738B177603068E0
:10FF2000C01B18BF01200AB0BDE8F0876F68F6E774
:10FF300003F1010A20EA0A010340013106EB8303C1
:10FF400089004FEA94588845DA68DFF894E0C4F3F2
:10FF5000891326D9A9B300EA0A0C5FFA81F90EEBDE
:10FF60008C0CC9EB08010CF10C0C0EF10C00C9B2A1
:10FF700003910290CDF80490CDF800C00021C4F3A5
:10FF8000C200D6F81474B847404520D006EB85056A
:10FF900060F38F146C607768C1E700200AB0BDE899
:10FFA000F08700EA0A000EEB80000C308DE80101BA
:10FFB0000021DEF8149403910291C4F3C200C847F3
:10FFC000E2E70EF10C0C08465FFA88F9D0E703303F
:10FFD0000AEB9007A2E71F460DF1100E93E700BF52
:10FFE000FC2200202DE9F84F244B1A788AB3DFF861
:10FFF00090B0DFF89090DFF890A00024012703E094
:020000022000DC
:100000000134E4B2944224D226B2D9F80050DBF88D
:10001000003015F8360007FA00FE1EEA030F05EB64
:10002000C608EDD0164A23EA0E03136002F0A2FDC3
:1000300015F83650DAF8003007FA05F6334000FAC2
:1000400005F6B34207D00D4B01341A78E4B294425E
:10005000DAD3BDE8F88FD8F80430002BF3D098F845
:100060000110A1F10101B1FA81F14909091AB1FAAE
:1000700081F1490928469847E5E700BF1C27002081
:1000800044270020182700204027002070B506468E
:10009000114800F095F940B9104D01242B68B44087
:1000A0001C4203D023EA04042C6070BD304602F0E9
:1000B00061FD0B4A136860B123432E680949136040
:1000C00034432C60044809680022BDE8704000F009
:1000D00005B923EA0403F0E7202700204427002085
:1000E0004027002014270020042A01D80720704749
:1000F0002DE9F04182B088460546174602F006FC1D
:10010000002834D01C4C1D481D491E4A1E4B25603A
:10011000002608F1FF340F6080F8008016601E6032
:10012000E4B20327B8F1000F03D11AE0DBB2C4B187
:100130001C4623B205EBC30215F833009378134A2B
:100140008DF8053001A98DF804708DF806608DF8E2
:10015000076002F0E5FB631E0028E7D002B0BDE8AF
:10016000F0810B4A0B48002100F08CF8F6E702F012
:100170008BFB0028C6D0F1E7182700201C270020A1
:100180001427002040270020442700208D00020073
:10019000E5FF0100006D020070B5084D2B785BB1E2
:1001A000074E00243368012113F8340002F080FC6C
:1001B0002B780134A342F5D8002070BD1C27002005
:1001C0001827002010B584B000230446014601AA78
:1001D00044F201000394ADF80430029300F002F8F9
:1001E00004B010BD70B582B0164604460D4601201D
:1001F0001449FFF753FC2B4622461349009603206F
:10020000FFF768FD2B462246104900960320FFF7B2
:1002100061FDFFF73FFCFFF747FE0028FBD10C4BC9
:100220001B68DB0700D5FFDEBFF34F8F09490A4B80
:10023000CA6802F4E0621343CB60BFF34F8F00BF84
:10024000FDE700BF046D02001C6D0200546D02004A
:10025000F0ED00E000ED00E00400FA0510B502F05A
:1002600045F9037B03B910BD83680068BDE8104001
:10027000184700BF024B013018600020704700BFD4
:10028000482700203AB170B505682B7B82B023B1B6
:10029000082002B070BD072070476B68002BF7D1B3
:1002A00014460E46102219462846FFF74BF9321C19
:1002B000084BAC6018BF012200934FF47A712B46B3
:1002C000054801F023FF0028686014BF00200E20BD
:1002D000DFE700BF5D0202008C6D02002DE9F043F4
:1002E000344B4768D3F8088585B0002F49D0914634
:1002F000037B314A0D4606461468002B45D108F1B0
:1003000001035A0805FB0424C6F80090B4FBF3F27D
:10031000EFF305847CB94FF00208CDF80080234646
:100320000421384601F046FF0128054634D0042058
:1003300005B0BDE8F08304AC002544F8045D092154
:1003400000952346384601F035FF0128EFD101F032
:1003500005FB0095024623463846062101F02AFF98
:100360000128E4D1039B43B1144B4FF080525A60F3
:1003700040BFBFF34F8FBFF36F8F01233373002054
:10038000D6E7082005B0BDE8F083384602F0A2F8B1
:100390000028B4D00020CBE701F0DAFACDF80080D5
:1003A000024623462946384601F004FF0128BED103
:1003B000E3E700BF001001404827002000ED00E007
:1003C00042684AB310B5044684B0EFF3058353B9CD
:1003D0000222009203211A4601F0ECFE012817D0F8
:1003E000042004B010BD04AB002243F8042D082102
:1003F000009201F0DFFE0128F2D1039B43B1074BCD
:100400004FF080525A6040BFBFF34F8FBFF36F8FE2
:100410000020207304B010BD0820704700ED00E0FC
:10042000F0B4EFF3108472B60E4B9A68B2B90E496D
:1004300001259D60D1F880700C4D2E463D401D6019
:10044000C1F88060D1F884505D604FF0FF33C1F88F
:100450008430027004B962B6F0BC704701230370A7
:10046000F8E700BFC074002000E100E0FC06FFBC1C
:10047000094B9A6872B168B910B4EFF3108272B682
:1004800006491C680C605C684C60986002B962B6F2
:100490005DF8044B704700BFC074002000E100E02D
:1004A00030B50478012C83B01FD010D3022C0CD1AE
:1004B000C36827492748019301228DF8004003F0C3
:1004C00009F8254B68461B68984703B030BD23499F
:1004D000234800F027F9F0B102A8032300F8083DF3
:1004E0001D4B1B68984703B030BD43681D4D1978FC
:1004F000284600F0FFF8A0B9AA68EB689A421ED11E
:10050000A968EB68AA885B1A9A4212D2164B01229C
:100510001A7003B030BD012210490E4802F022FFCC
:10052000D3E70D4B01908DF800401B686846984753
:10053000E6E701220649074802F0CCFFC5E702AB17
:10054000054A03F8080D126818469047D8E700BF1F
:100550005427002054200020502700204C27002042
:10056000582700206C270020682700202DE9F04341
:100570002F4C89B02260002952D00C4680468A88D0
:100580002C480968994600F0A5F810B109B0BDE8FB
:10059000F083A289A168284800F09CF80028F5D1D2
:1005A000264D98F810E0D8F80C70D8F808600FCDF8
:1005B0006C460FC495E80F0098F8115002971EF191
:1005C000000E18BF4FF0010E002D84E80F00D8F880
:1005D0000050D8F804401A4A1A488DF81C9014BFED
:1005E0000E2300238DF815306946D8F814308DF8A5
:1005F00014E0069303968DE8300002F03FFD0028DA
:10060000C4D1D8F80030104A01331070BED09DF824
:100610001D304BB101220D490A4802F05BFFB5E7DE
:10062000072009B0BDE8F083064803F071F8F1E750
:10063000502700206C27002058270020906D0200D2
:10064000A104020054200020682700205427002025
:1006500070B50B4C01460B48267800F063F8054650
:100660000EB9284670BD00230122074907482370B0
:1006700002F030FF0028F4D0FFF7A4FD284670BD3B
:10068000682700206C2700205427002054200020D9
:1006900010B501460C4800F02DF8044608B120467C
:1006A00010BD0A4802F00AFF0028F8D108490648A0
:1006B00000F038F80028F2D1012205490348BDE8CE
:1006C000104002F04FBE00BF5827002054200020E9
:1006D0004C27002059B10AB909207047531E1A400F
:1006E000FAD1826001608380C260104670470E209C
:1006F000704700BF10B48468C26803468088121B2C
:10070000904203D204205DF8044B7047DA681C68FD
:1007100002400020A154DA680132DA605DF8044B2F
:10072000704700BF03468068DA68904201D1052017
:10073000704710B49A6898881C6802400020A25C38
:100740000A709A6801329A605DF8044B704700BFE6
:1007500038B5430704461CBF20F00704083401F0F5
:10076000EFF80E4B1D689DB10D4A136843F6F77103
:100770001C448C4207D8A34205D21D44146001F0EA
:100780008DF9284638BD002501F088F9284638BD86
:10079000044D25F007051D60E6E700BF80670020D7
:1007A0007C27002088270020704700BF024B186874
:1007B000C0F57F50383070477C27002000F10803D7
:1007C0004FF0FF310022816080E80C00C3600361BC
:1007D000704700BF00230361704700BF43684B6050
:1007E0009A688A609A685160996008610368013369
:1007F0000360704730B40D686B1C11D000F1080223
:1008000000E01A4653681C68A542FAD24B60996012
:100810008A605160086103680133036030BC70472F
:1008200002695368F2E700BF42688168036991601A
:100830008268416851605A68904204BF82685A6079
:100840000022026118680138186070470748006884
:1008500080F3088862B661B6BFF34F8FBFF36F8F26
:100860004FF4F07080F3118800DF00BF00F001004A
:10087000064B19680868B0E8F04F80F30988BFF3A9
:100880006F8F4FF0000080F31188704700680020E0
:10089000EFF30980BFF36F8F144B1A681EF0100F2F
:1008A00008BF20ED108A20E9F04F10604DF8043D9C
:1008B0004FF0200080F31188BFF34F8FBFF36F8F8D
:1008C00001F0DCF94FF0000080F3118808BC1968D2
:1008D0000868B0E8F04F1EF0100F08BFB0EC108AA7
:1008E00080F30988BFF36F8F704700BF0068002056
:1008F000202383F31188FEE730B46FF002034FF03A
:100900008075074C40F8081C40F8202C40F8045C27
:1009100040F80C4C40F8243C30BC4438704700BFD1
:10092000F10802000F4C08B5E02384F8223000F0F3
:1009300059F80D4B0D4A00211960D4F8883043F462
:100940007003C4F88830536843F040435360236910
:1009500043F010032361FFF779FF202383F311880D
:10096000FEE700BF00ED00E08467002030EF00E00C
:10097000202383F31188024A136801331360704700
:1009800084670020034A1368013B13600BB983F3AB
:10099000118870478467002000B50F490F4B002273
:1009A0000A6083B00968019101991A601B6800937D
:1009B000009BEFF31183202383F3118800F0DCFF09
:1009C00020B1074B4FF080525A6040BF002383F3A1
:1009D000118803B05DF804FB001101404011014093
:1009E00000ED00E070B5002001F05CFE084D094B01
:1009F000094901222026E0244FF40030C3F808659D
:100A0000C3F804232A601A6081F81143086070BD9E
:100A1000081001400010014000E100E0F0B5074679
:100A200083B0EFF3108172B63E4CA2688AB93E4A99
:100A30003E4D0123A360D2F880002B46054025607F
:100A4000C2F88030D2F8843063604FF0FF33C2F8D0
:100A5000843001B962B6364DD5F8046501F056FA16
:100A600000283BD033483449B84228BF38463218B2
:100A700022F07F4201270023C5F80873C5F84025FE
:100A80000B600B6800934FF48033009AC5F8043371
:100A9000BFF34F8F002832D0234B20BFD3F8001173
:100AA000D3F804210A43F8D0214A24494FF4803373
:100AB000C2F808330025D2F804350D6009680191A9
:100AC0009E424FF00101019DC2F8041301D903F1C8
:100AD00080739B1B984228BF184600BBA268114B2D
:100AE0005AB1EFF3108272B60F491868086058685F
:100AF00048600021996002B962B603B0F0BD0F4AA8
:100B0000C5F80833D5F804351060126801929E428A
:100B1000019AC5F80473E1D903F18073D9E700F0B5
:100B200023FFDBE7C074002000E100E0FC06FFBC0F
:100B300000100140FDFFFF00401101400011014085
:100B400070B506460D4651B300FB01F04D30FFF77E
:100B5000FFFD044600F14C0340B32360E6632564C7
:100B6000FFF706FF226CE36B2168A16003FB02F331
:100B70009A1A0A440B4400204FF0FF31A063E26050
:100B80006164636004F11000A164FFF717FE04F1D3
:100B90002400FFF713FEFFF7F5FE204670BD4C2042
:100BA000FFF7D6FD044603460028D6D10024F4E71B
:100BB0002DE9F047044684B01D4601928846FFF7B0
:100BC000D7FEA26BE36BA04F4FF000099A424E464E
:100BD00071D3022D00F0F0800198002800F05181BF
:100BE000B9F1000F00F0CE80FFF7CCFE00F0A8FEB8
:100BF000FFF7BEFE636C013308BF6664A36C01336C
:100C000008BFA664FFF7BEFE01A902A801F048F9DB
:100C1000002840F0EF80FFF7ABFEA26BE36B9A4237
:100C200061D0FFF7AFFEFFF7A3FEA36C002B14DD2E
:100C3000636A93B104F1240907E0A36C013BA36448
:100C4000A36C002B09DD636A3BB1484601F0CCF888
:100C50000028F2D001F054F9EFE74FF0FF33A3641E
:100C6000FFF790FEFFF784FE636C002B14DD236911
:100C700093B104F1100907E0636C013B6364636C9A
:100C8000002B09DD23693BB1484601F0ADF800288F
:100C9000F2D001F035F9EFE74FF0FF336364FFF76F
:100CA00071FE00F0FBFEFFF763FEA26BE36B9A425E
:100CB0004FF001098DD2226C002A40F0E9802568AE
:100CC000002D63D0A36B626A0133A3632AB104F1E0
:100CD000240001F089F8012864D0FFF753FE0120B9
:100CE00004B0BDE8F08704F11009FFF74BFE484659
:100CF000019900F0EFFFFFF73BFEA36C002B14DD22
:100D0000636A93B104F1240A07E0A36C013BA36476
:100D1000A36C002B09DD636A3BB1504601F064F817
:100D20000028F2D001F0ECF8EFE74FF0FF33A364B6
:100D3000FFF728FEFFF71CFE636C002B06DC0FE0BC
:100D4000636C013B6364636C002B09DD23693BB179
:100D5000484601F049F80028F2D001F0D1F8EFE759
:100D60004FF0FF336364FFF70DFE00F097FE00289D
:100D700099D14FF080537B6040BFBFF34F8FBFF3DB
:100D80006F8F90E702A801F07FF82DE7606801F00F
:100D90002BF9A36B626A65600133A363002A96D1C5
:100DA00000289AD0284B4FF080525A6040BFBFF3C2
:100DB0004F8FBFF36F8F90E7226C002A3FF47FAF15
:100DC0004146E06805F0C8FA236CE26821685B429E
:100DD0001A448A42E26005D262681344E360022D3D
:100DE0007FF470AFA36B002B3FF46CAFA36B013BA0
:100DF000A36367E7FFF7BCFDA36C002B14DD636AF8
:100E000093B104F1240507E0A36C013BA364A36C38
:100E1000002B09DD636A3BB1284600F0E5FF00289E
:100E2000F2D001F06DF8EFE74FF0FF33A364FFF766
:100E3000A9FDFFF79DFD636C002B17DD2369ABB1A6
:100E400004F110050AE000BF00ED00E0636C013B17
:100E50006364636C002B09DD23693BB1284600F015
:100E6000C3FF0028F2D001F04BF8EFE74FF0FF335B
:100E70006364FFF787FD00F011FE002004B0BDE8B9
:100E8000F0870090FFF77EFD009804B0BDE8F08782
:100E900041466DB9A06805F05FFAA168236C6268ED
:100EA0000B449342A360FFF40DAF2368A36009E7EE
:100EB000E06805F051FA236CE26821685B421A444D
:100EC0008A42E2608BD287E738B54C20FFF740FCBE
:100ED0000446C8B100254FF0FF3301228563C26389
:100EE00043644560836405608560C56005641030B7
:100EF000FFF764FC04F12400FFF760FC2B462A4650
:100F000029462046FFF754FE204638BDF0B504467A
:100F100083B01646EFF31185202282F31188806B8F
:100F2000E26B90421AD3022B04D0002085F3118883
:100F300003B0F0BD226C019312BB2768002F45D08F
:100F4000A36B0133A363A36C013331D0A36C0133D2
:100F5000A364012085F3118803B0F0BD226C002A40
:100F6000EBD0002B37D1A06805F0F6F9A168236C0F
:100F700062680B449342A360E2D32368A360DFE777
:100F8000E06805F0E9F9226CE1682068019B5242B3
:100F900011448142E16004D261680A44E260022B9C
:100FA000CED1A36B002BCBD0A36B013BA363C7E7D0
:100FB000636A002BCDD004F1240000F015FF002857
:100FC000C7D0002EC5D001203060AFE7606801F0C7
:100FD0000BF86760B4E7E068019305F0BDF9226C97
:100FE000E1682068019B524211448142E160D6D2FF
:100FF000D2E700BF38B5EFF31184202383F31188C3
:10100000826BC36B9A420CD2836B01338363836C14
:1010100001330AD0836C01338364012084F3118887
:1010200038BD002084F3118838BD436A002BF4D00A
:1010300024300D4600F0D8FE0028EED0002DECD074
:1010400001202860EAE700BF2DE9F047044684B09C
:101050009A4688460192FFF78BFCA36BA64E0027A9
:101060003D46002B40F09C800198002800F0F8805D
:10107000002F00F0E180FFF785FC00F061FCFFF736
:1010800077FC636C013308BF6564A36C013308BF50
:10109000A564FFF777FC01A902A800F001FF002872
:1010A00040F0E580FFF764FCA36B0BB3FFF76AFC2D
:1010B000FFF75EFCA36C002B40F39F80636A002B5C
:1010C00000F09B8004F124090AE0A36C013BA364B7
:1010D000A36C002B40F39180636A002B00F08D809D
:1010E000484600F081FE0028EFD000F009FFECE751
:1010F000FFF748FC2368002B00F0AA8004F12409C4
:101100004846019900F0E6FDFFF732FCA36C002B86
:1011100006DC0FE0A36C013BA364A36C002B09DD8C
:10112000636A3BB1484600F05FFE0028F2D000F051
:10113000E7FEEFE74FF0FF33A364FFF723FCFFF771
:1011400017FC636C002B14DD236993B104F11009C3
:1011500007E0636C013B6364636C002B09DD23696A
:101160003BB1484600F040FE0028F2D000F0C8FE37
:10117000EFE74FF0FF336364FFF704FC00F08EFCF1
:1011800038B94FF08053736040BFBFF34F8FBFF348
:101190006F8FFFF7EDFBA36B0127002B3FF464AFCC
:1011A000226CE5684AB16368A9189942E16024BFDE
:1011B0002168E160404605F0CFF8BAF1000F40F039
:1011C0009D80A36B2268013BA363002A00F0A780E7
:1011D0002369002B00F0958004F1100000F004FE5C
:1011E000012840F08E80444B4FF080525A6040BF3F
:1011F000BFF34F8FBFF36F8F83E04FF0FF33A364D4
:10120000FFF7C0FBFFF7B4FB636C002B18DD23690D
:10121000B3B104F1100907E0636C013B6364636CD4
:10122000002B0DDD23695BB1484600F0DDFD002891
:10123000F2D000F065FEEFE702A800F025FE1AE705
:101240004FF0FF336364FFF79DFB00F027FCA0E73E
:10125000FFF78EFB606800F079FEFFF793FB4DE728
:101260000090FFF78FFB009804B0BDE8F087FFF710
:101270007FFBA36C002B14DD636A93B104F124059A
:1012800007E0A36C013BA364A36C002B09DD636A38
:101290003BB1284600F0A8FD0028F2D000F030FE57
:1012A000EFE74FF0FF33A364FFF76CFBFFF760FB42
:1012B000636C002B14DD236993B104F1100507E082
:1012C000636C013B6364636C002B09DD23693BB1F4
:1012D000284600F089FD0028F2D000F011FEEFE76B
:1012E0004FF0FF336364FFF74DFB00F0D7FB0020A6
:1012F00004B0BDE8F08700BF00ED00E0636AE56080
:101300002BB9FFF73FFB012004B0BDE8F08704F1E3
:10131000240000F069FD00287FF465AFF1E700F0DC
:10132000A5FE606054E700BF10B4074B1A682AB1ED
:101330009A6812B15DF8044B7047012203EBC204B6
:1013400043F832106060F5E7CC74002038B50446ED
:101350000D46FFF70DFB636C013304BF002363648C
:10136000A36C013304BF0023A364FFF70BFBA36B43
:1013700023B9294604F1240000F0F6FCFFF7F8FA3F
:10138000A36C002B14DD636A93B104F1240507E01C
:10139000A36C013BA364A36C002B09DD636A3BB122
:1013A000284600F021FD0028F2D000F0A9FDEFE76B
:1013B0004FF0FF33A364FFF7E5FAFFF7D9FA636C48
:1013C000002B14DD236993B104F1100507E0636C71
:1013D000013B6364636C002B09DD23693BB1284644
:1013E00000F002FD0028F2D000F08AFDEFE74FF098
:1013F000FF336364BDE83840FFF7C4BA2DE9F84F06
:101400000C9CDDF8288081460E4615469A462746F4
:10141000002C00F094804820FFF79AF90446002839
:1014200000F09880AD002A460763A5213846FEF7F4
:1014300089F83378226B84F83430043D33781544CE
:1014400025F007053BB1737884F83530737813B114
:10145000B37884F83630B8F1020F4FF00007C34676
:1014600004F1040628BF4FF0020B304684F83770B1
:10147000E763C4F82CB0C4F838B0FFF7ABF904F157
:101480001800FFF7A7F9CBF10303A36127642461D8
:1014900084F844706462524649462846FFF72CFAA5
:1014A0000B9B206003B11C60FFF762FA3D4A3E4D82
:1014B0001368013313602B68002B3AD03B4F3B6815
:1014C00073B3E36ADFF80CC1DFF80CE13848DCF8ED
:1014D0000020012404FA03F903EB830300EB8300EB
:1014E000DEF8003049EA020223443146CEF80030EB
:1014F000CCF80020FFF772F9FFF744FA3B68ABB174
:101500002B68DB6A984511D92A4B4FF080525A60FC
:1015100040BFBFF34F8FBFF36F8F2046BDE8F88FFA
:101520002B68DB6A984528BF2C60CAE72046BDE8D7
:10153000F88F2C601368012B10D01C4FC1E790006E
:10154000FFF706F9074600287FF465AF4FF0FF303C
:10155000BDE8F88F3846FFF727F9F7E71448DFF8BA
:101560007CA0DFF87C90114FFFF728F91248FFF7B5
:1015700025F91248FFF722F95046FFF71FF94846B0
:10158000FFF71CF90E48FFF719F90E48FFF716F997
:101590000D48FFF713F90D4A0D4BC2F800A0C3F830
:1015A00000908EE7546800200068002090670020BB
:1015B000C067002000ED00E0D4670020E86700204D
:1015C0000468002098670020AC6700208C6700202A
:1015D0002068002058680020246800202868002027
:1015E0003C680020F8B504463D4EFFF7C1F9002CD9
:1015F0004ED0251D2846FFF717F930B9E36A394A5E
:1016000003EB830152F82120A2B1A36A1BB104F1BC
:101610001800FFF709F9344F29463846FFF7DEF87E
:10162000FFF7B0F933682E4A9C42304B1B6822D03A
:101630004BB9F8BD2E480121026801FA03F322EAF2
:1016400003030360E1E7FFF793F92A4B1A68126876
:101650003AB9294B4FF0FF321A60BDE8F840FFF766
:1016600091B91A68244BD268D26852681A60BDE8F2
:10167000F840FFF787B96BB9204938680968884294
:101680002BD01F4B1B687BB11E4B01221A60F8BD8B
:101690003468AEE71C4B4FF080525A6040BFBFF336
:1016A0004F8FBFF36F8FF8BD1649114A0B60136857
:1016B0000C48B3FA83F3C3F11F0303EB83039B00CE
:1016C000C11808334A6852684A6003449A4204BF0A
:1016D00052684A60D3683360F8BD1360F8BD00BF3C
:1016E00000680020C0670020AC67002090670020E1
:1016F000586800208C6700205C200020546800207F
:10170000FC6700205C68002000ED00E000283BD072
:101710002DE9F0411D4D2B68984233D00446FFF768
:1017200027F91B4B62699A4203D0BDE8F041FFF7ED
:1017300029B9A36A174A9342F7D0002BF5D104F1D7
:101740000408154F4046FFF76FF8E36A3E681348F8
:1017500001229A4003EB8303324300EB83004146AE
:101760003A60FFF73BF82B68E26ADB6A9A42DCD307
:101770000B4B4FF080525A6040BFBFF34F8FBFF307
:101780006F8FD2E7BDE8F081704700BF006800208E
:10179000AC6700200468002058680020C067002063
:1017A00000ED00E02DE9F843F020FEF7D1FF00281E
:1017B00073D005464820FEF7CBFF0446002874D0BE
:1017C0000563F0222846A521FDF7BCFE206B4A4F99
:1017D0000025492144224C2304F1040884F83410E4
:1017E00084F8352084F8363000F1EC0684F8375060
:1017F0004046E562A563E563FEF7ECFF04F11800DF
:10180000FEF7E8FF26F0070603232A462564A361B6
:101810003A4984F84450304624616462FFF76CF81A
:10182000374B20601C60FFF7A3F8364A136801337A
:1018300013603B68002B32D0334D2B681BB93B68DB
:10184000DB6A03B93C60E36ADFF8ECE02F4E304816
:10185000DEF8004001229A4003EB830300EB830093
:1018600033682243013341463360CEF80020FEF74F
:10187000B5FFFFF787F82B6803B13B6800F002FC67
:1018800001280AD1202383F31188224B28600022EB
:101890001A60BDE8F843FFF745B8BDE8F8833C603F
:1018A0001368012B06D0184DCDE72846BDE8F84354
:1018B000FEF77ABF1648DFF88490174E124DFEF7F8
:1018C0007DFF1648FEF77AFF1548FEF777FF48467A
:1018D000FEF774FF3046FEF771FF1248FEF76EFF09
:1018E0001148FEF76BFF1148FEF768FF104A114BD5
:1018F000C2F800901E60A6E700680020911B02005D
:101900001868002054680020906700202468002098
:10191000C06700201C6800203C680020D4670020BD
:10192000E86700200468002098670020AC6700206A
:101930008C6700202068002058680020286800205C
:10194000024A136801331360704700BFFC67002030
:10195000014B1868704700BF1C680020014B1868D5
:10196000704700BF1C680020024A136818441060CA
:10197000704700BF1C6800202DE9F04F3C4B1B68EE
:1019800083B0002B43D13B4B1A6801321A601F68A9
:10199000002F4AD0384B01931B689F425CD3DFF87D
:1019A000EC80364EDFF8F0A0C146002525E0D9F8DE
:1019B0000030DB68DC68636804F1040B9F42584622
:1019C00022D3FEF731FFA36A04F118000BB1FEF732
:1019D0002BFFE06A33680122824000EB8000134352
:1019E00059460AEB80003360FEF7F8FE244BE26AAA
:1019F0001B68DB6A9A4228BF0125D8F800301B68B3
:101A0000002BD4D14FF0FF33019A136004E01D4A3C
:101A100013680133136000251B4B1B68002B18BF94
:101A20000125284603B0BDE8F08F184B184A186806
:101A3000184914681C6010600A6801320A601A684C
:101A400012685AB90C4B01931A464FF0FF331360DA
:101A500013461B689F42A2D20025DDE71B68064A99
:101A6000DB680192DB685B681360134694E700BF94
:101A7000FC6700201C6800205C20002058680020C3
:101A800000680020506800205C6800208C670020FF
:101A90002068002088670020C06700202DE9F84FEB
:101AA000FEF766FF314B1A68013A1A601B68002B7B
:101AB00047D12F4B1B68002B43D0DFF8C8B02D4F08
:101AC000DFF8C490DFF8C480DA4620E0DAF80C20B2
:101AD000D468251D04F11800FEF7A6FE2846FEF77F
:101AE000A3FEE06A3A6806FA00FE00EB80004EEAC8
:101AF0000202294609EB80003A60FEF76FFED8F833
:101B00000020E16AD26A914224BF1B4B1E60DBF8C1
:101B100000200126002AD9D1184C23686BB1236814
:101B20005BB10125FFF728FF08B1134B1D60236847
:101B3000013B23602368002BF4D10F4B1C68012C60
:101B400005D00024FEF71EFF2046BDE8F88F0C4BA1
:101B50004FF080525A6040BFBFF34F8FBFF36F8F7B
:101B6000FEF710FF2046BDE8F88F00BFFC6700209D
:101B700054680020586800205C68002050680020ED
:101B800000ED00E004680020C0670020006800202D
:101B90002DE9F04B304E314D314CDFF8D880DFF875
:101BA000D890B34607E02368376801332360FFF716
:101BB00075FF002F34D12B68002BF4D1D9F80030F9
:101BC000012B08D9274B4FF080525A6040BFBFF31A
:101BD0004F8FBFF36F8F02F0FBFD234B22491B6831
:101BE000DB6A002BE7D1D9F80030012BE3D81F4B7B
:101BF0001F4A1B6812681D4F1D489B1A012BDAD91A
:101C00002368013323600B68DB6A33B93B680068E3
:101C1000181A012801D9FEF701FFFFF73FFFCAE7B5
:101C2000FEF7A6FEDBF80C30DF68381DFEF7FCFD82
:101C3000D8F80030094A013BC8F80030074B1B6850
:101C4000013B1360FEF79EFE386BFEF7ADFD384694
:101C5000FEF7AAFDAFE700BF986700209467002059
:101C6000FC67002000ED00E0006800205C20002000
:101C70001C68002054680020C0670020104B1B68BF
:101C8000CBB91049104A0B6013681048B3FA83F3BC
:101C9000C3F11F0303EB83039B00C11808334A6899
:101CA00052684A6003449A4204BF52684A60084B33
:101CB000D2681A607047034B01221A60704700BF58
:101CC000FC6700205C68002058680020C067002086
:101CD0000068002038B51D4D2B680C4603F1180133
:101CE000FEF788FD28680430FEF79EFD40B92B689A
:101CF0001749D86A0A680123834022EA03030B606C
:101D0000631C1CD0134A11491368286812681C44CC
:101D1000944244600BD3104B186809680431FEF7F5
:101D200069FD0E4B1A68944238BF1C6038BD0C4BDD
:101D300018680968BDE838400431FEF75BBD2968C2
:101D400008480431BDE83840FEF748BD006800206F
:101D5000586800201C6800208C6700205C20002050
:101D600020680020AC67002038B5194D2B680C4660
:101D700003F11801FEF732FD28680430FEF754FD28
:101D800040B92B681349D86A0A680123834022EAC4
:101D900003030B60104B0E4A186829681B68044443
:101DA0009C424C600BD30D4B186811680431FEF750
:101DB00021FD0B4B1A68944238BF1C6038BD094B9B
:101DC00018681168BDE838400431FEF713BD00BF44
:101DD00000680020586800201C6800208C670020E4
:101DE0005C20002020680020F8B5C368DC6804F19E
:101DF00018052846FEF718FD1B4B1B68002B2DD13C
:101E0000271D1A4E3846FEF70FFDE36A356818485D
:101E100001229A4003EB83032A43394600EB8300F7
:101E20003260FEF7DBFC134BE26A1B68DB6A9A4206
:101E300082BF114B01201860104B1A68126898BFBE
:101E4000002032B11A680E4BD268D26852681A600C
:101E5000F8BD0B4B4FF0FF321A60F8BD2946094818
:101E6000FEF7BCFCDFE700BFFC67002058680020DD
:101E7000C0670020006800205C6800208C6700209C
:101E80005C20002004680020034A044B12681B6891
:101E900080E80C00704700BF886700201C680020A5
:101EA000F8B50D460446FEF763FD2B6812495A1C2F
:101EB00008681BD0114E276832689742626801D0CB
:101EC00090420ED2871ABB420BD91B1A13443068BA
:101ED0000A682B6084E805000025FEF753FD2846BC
:101EE000F8BD0125FEF74EFD2846F8BD0025FEF79A
:101EF00049FD2846F8BD00BF1C6800208867002007
:101F0000014B01221A6070475C680020054B1B687A
:101F10002BB9054B1868B0FA80F0400970470020D3
:101F2000704700BF046800205C680020054B1B68F8
:101F300033B1054B1B68002B0CBF022000207047FB
:101F40000120704790670020FC670020002842D0E5
:101F50002DE9F041214CC36A2268D26A934212D221
:101F60008269002A04DB2268D26AC2F1030282611C
:101F70001B4D426903EB830305EB83039A4204D0B4
:101F80002368DB6AC362BDE8F08100F104080746FC
:101F90004046FEF749FCF8B9FB6A124E03EB830298
:101FA00055F8222032B93268012101FA03F322EAFE
:101FB0000303336023683268D86AF86201238340E0
:101FC000134300EB80003360414605EB8000BDE821
:101FD000F041FEF703BC7047024EEBE700680020BB
:101FE000C067002058680020002838D0F8B5C36BBF
:101FF000C16A826B013B9142C36300D00BB10020E8
:10200000F8BD071D04463846FEF70EFC78B9E36AB2
:102010001448154E03EB830250F822204AB9326867
:10202000012101FA03F322EA0303336001E00D48C2
:102030000D4EA36B3268E362012505FA03FCC3F180
:10204000030E03EB83034CEA020200EB83003946E4
:10205000C4F818E03260FEF7C1FB2846F8BD002046
:10206000704700BFC067002058680020044B1A6802
:102070001AB11968CA6B0132CA631868704700BF89
:1020800000680020F0B5184C85B0FEF771FC25689B
:102090008DB1FEF777FC206858B1002313490191F8
:1020A0000222009203930293502211491148FFF734
:1020B000A5F905B0F0BD104F104E3846FEF77EFB77
:1020C0003046FEF77BFB0E4A0E4B176010212A4666
:1020D00020201E60FEF734FD20600028D9D00A4978
:1020E000FFF722F9D5E700BF90680020986800202C
:1020F000B86D02000D22020064680020786800209C
:102100006068002094680020B06D02002DE9F04F57
:1021100083B0F9B1064628200D4698461746FEF7CB
:1021200017FB0446B0B1DFF88090FEF721FCD9F828
:102130000020A2B1FEF726FC0C9B2660201DA561A5
:10214000E761C4F820806362FEF744FB204603B0D9
:10215000BDE8F08F0024204603B0BDE8F08FDFF823
:102160004CB0DFF84CA001925846FEF727FB5046D2
:10217000FEF724FB09490A4BC1F800B0019AC3F8E5
:1021800000A010212020FEF7DBFCC9F80000002889
:10219000D0D00449FFF7C8F8CCE700BF6068002042
:1021A00094680020B06D02009068002064680020F0
:1021B0007868002030B5144D2C6885B004B305292B
:1021C0008DE8060002900BDCFFF7B0FE02280FD06E
:1021D000002328681A466946FEF7EAFC05B030BDC0
:1021E0001A46204600236946FEF790FE05B030BD32
:1021F0002868089A00236946FEF7DAFC05B030BD6E
:10220000204605B030BD00BF906800202DE9F04F9A
:10221000AB4EAC4DDFF8B0828BB033681C68002C3D
:102220006ED0DB681C68FFF78BFBFFF791FBD8F8DB
:102230000020A54B904207466CD38442186040F2C0
:10224000A480E11B2868FFF781F8FFF727FC40B95D
:102250009E4B4FF080525A6040BFBFF34F8FBFF389
:102260006F8F00231A4602A92868FEF7EDFE0028AA
:10227000D3D0029B002B3BDB049C636913B1201D70
:10228000FEF7D2FAFFF764FBD8F800309842814697
:1022900023D3029AC8F80090092AE2D80123934078
:1022A00013F4047F40F0D68013F0C70F40F0B680DF
:1022B0009B06D6D52046FEF777FAD2E7DB68DF68C3
:1022C000D3F800B007F1040A5046FEF7ADFA7B6A76
:1022D00038469847FB69012B4BD033681A68002AAF
:1022E000ECD17B4A764912680A60794A1360D0E7DC
:1022F000039B059904989847029B002BB1DBBBE731
:10230000FFF71EFBFFF724FBD8F800306E4A984217
:10231000074620D24FF000090EE0DB68DC68D3F8F6
:1023200000B004F1040A5046FEF77EFA636A2046C4
:102330009847E369012B10D033681A68002AECD162
:10234000634A5F4912680A60614AC8F80070136006
:10235000FFF7A4FB85E7176073E7A3695B449B4520
:10236000514627D26360564B24611868FEF742FA43
:10237000E2E7BB695B449B4551462DD27B60504BE5
:102380003F611868FEF736FAA7E7FFF787FB4C4B6B
:102390001B68DB68D3F80C9009F1040A5046FEF77D
:1023A00043FAD9F81C30012B29D0D9F824304846FB
:1023B000984756E72B68002BBED0CDF81890CDF883
:1023C0001CB00894FFF7B2FD3E4800231A4606A948
:1023D0000068FEF7EDFBAFE72B68002B3FF47DAF05
:1023E00000230693CDF81CB00897FFF79FFD3548F2
:1023F00000231A4606A90068FEF7DAFB6DE7D9F854
:102400001830C9F81090E218BA42C9F8042032D93D
:102410002B4B51461868FEF7EDF9C6E7039BA169FF
:1024200024615A184A4562603AD8C3EB09039942BD
:102430001BD8636A20469847E369012B7FF411AFEC
:102440000399A26900230A44009320461946FFF726
:10245000B1FE06E7039B246103EB09024A45A36131
:10246000626021D8002B3FF4FCAE194B211D186887
:10247000FEF7C0F9F5E63F1BBB421AD82B68002BCC
:1024800093D000270794CDF820900697FFF74EFDD4
:102490000C483B463A4606A90068FEF789FB84E7EC
:1024A0004B4501D99342C4D9211D3068FEF7A2F9EA
:1024B000D7E6074B51461868FEF79CF975E700BF51
:1024C00060680020906800208C68002000ED00E02B
:1024D0009468002010B50446FEF74AFA6469003497
:1024E00018BF0124FEF74EFA204610BD10B5044671
:1024F000FEF73EFA246AFEF745FA204610BD00BFFB
:10250000064A4FF0A043105CD3F8043523FA00F0DC
:1025100000F0010080F00100704700BFC46D0200B0
:10252000044B195C4FF0A04201238B40C2F80C35DC
:10253000704700BFC46D0200044B195C4FF0A0420D
:1025400001238B40C2F80835704700BFC46D0200FC
:102550004FF0A04310B44FF480204FF400344FF4F8
:1025600000214FF48012C3F80845C3F80805C3F8EA
:102570000815C3F808255DF8044B70474FF0A043D9
:1025800010B44FF480204FF400344FF400214FF486
:102590008012C3F80C45C3F80C05C3F80C15C3F83A
:1025A0000C255DF8044B7047084B4FF0A0411B5CB5
:1025B000D1F80405012202FA03F323EA00020340E2
:1025C000C1F80825C1F80C35704700BFC46D020082
:1025D00030B44FF0A04303224FF400354FF4802471
:1025E0004FF400204FF48011C3F84427C3F8482764
:1025F000C3F84C27C3F85027C3F80855C3F808455B
:10260000C3F80805C3F8081530BC7047064A4FF0F8
:10261000A043105CD3F8103523FA00F000F001005D
:1026200080F00100704700BFC06D02000D2809D086
:102630000E2809D00F2809D010280CBF03204FF016
:10264000FF3070470020704701207047022070471C
:10265000014B185C704700BFC06D020010B50F4CF5
:1026600023780BB1852010BD0D4A6360E3601068CC
:10267000A36010F0010023610BD003F07BFD20B9B3
:102680004FF080430122C3F8182501232370002056
:1026900010BD072100F0D0F8EFE700BF9C680020D4
:1026A00000E100E030B5224DAB7883B0044693B131
:1026B00010B143680120984702A8002300F8043DA8
:1026C000FDF7AEFEEB689DF804000133EB60FDF70B
:1026D000CFFE03B030BD02A803F0FF0200F8052DC5
:1026E000FDF79EFE64B12A6942B1944208D01346B8
:1026F00001E09C4204D01B68002BFAD122602C61BF
:10270000EB6863B90B4A0C491360136801934FF0EF
:10271000804202200123019CC2F804030B60EB6895
:102720009DF803000133EB60FDF7A2FE03B030BD5E
:102730009C680020040100400800004010B51A4BBE
:102740001A6882B0A2B100221A601B6800934FF091
:1027500080430122154C0099C3F80823A3686270D6
:1027600033B10CCB0020A2609847A368002BF8D1AE
:102770000F4B1A68AAB100221A601B6801934FF030
:1027800080430222094C0199C3F8082323690122DE
:10279000A27033B10CCB0120226198472369002B32
:1027A000F8D102B010BD00BF000100409C680020BD
:1027B0000401004058B910B5054CA36833B10CCBE7
:1027C0000020A2609847A368002BF8D110BD704785
:1027D0009C68002010B582B002A80023144C00F8B9
:1027E000013DFDF71DFE237893B9124A6360E36053
:1027F0001068A36010F00100236114D003F0BAFC4C
:1028000020B94FF080430122C3F81825012323701B
:10281000E3689DF8070001330122E360A270FDF731
:1028200027FE02B010BD072100F006F8E6E700BF62
:102830009C68002000E100E0002810B418DB00F1E3
:10284000604303F561434901C9B283F80013C3B281
:102850004009800000F1604000F5614003F01F0274
:1028600001239340C0F8803103605DF8044B70474A
:10287000C3B2044A03F00F0449012244C9B21176DD
:10288000E6E700BFFCEC00E030B51D4C94F8545076
:1028900083B015B1082003B030BD4FF0FF33FF22E5
:1028A0000721062023636363A363E36323646364F4
:1028B000A364E36423606360A360E36023616361F6
:1028C000A361E361236284F850306362A36284F8F9
:1028D0005230E36284F8533084F85120FFF7ACFFA4
:1028E000084B094A1D601B68019301984FF0004393
:1028F0000121284684F85410C2F8043303B030BDD7
:10290000B06800207C61004000600040034B93F8F9
:102910005400003018BF0120704700BFB06800208D
:10292000F0B5624C251895F93030002B01DB0820FA
:10293000F0BD91F803E09446BEF1000F56D0236835
:10294000013300F0A380002508266B1C574F54F874
:102950002320013251D0AB1C9E4245D957F8232089
:1029600001324AD0EB1C9E423ED957F82320013257
:1029700043D02B1D9E4237D957F8232001323CD03B
:102980006B1D9E4230D957F82370013735D0AB1DEF
:102990009E4229D954F82320444F01322DD0EB1DFB
:1029A0009E4221D957F82320013226D005F1080391
:1029B0009E4219D957F8232001321ED005F1090390
:1029C0009E4211D957F82320013216D005F10A038F
:1029D0009E4209D957F8237001370ED00B35AE420D
:1029E00002D9E36A013307D00420F0BD236A013322
:1029F00053D008250C26A8E70B2326185DB244F80F
:102A000023C086F83050BEF1000F02D1234483F872
:102A100048008B78A3B94A784FF0A04600F5E073E0
:102A2000920046F82320CB78A3B9083D2C440978BE
:102A300094F8502042EA811284F850201846F0BDE4
:102A4000830003F1A043D3F8002722F00202C3F869
:102A50000027E8E7AB0003F1804303F5C0430A78A1
:102A6000D3F8101521F4473121F44071C3F8101543
:102A70001204000202F44031D3F8104500F4F85279
:102A80000A432243C3F810250020F0BD002385F837
:102A90003030C4F800C01D46BBE7082685F830601A
:102AA0003346C4F820C03546B0E700BFB068002008
:102AB000F0B42E4D2E1882B096F93030072B1CDD65
:102AC0002B4493F848309B09032B41D0012B14BFB2
:102AD0004FF440334FF40033800000F1A040D0F8B1
:102AE000002722F44032C0F80027D0F80027134313
:102AF000C0F8003702B0F0BC7047DAB2072AF9D844
:102B0000980000F1804000F5C04003F140029200BF
:102B1000D0F8104592B202F18042002744F001043F
:102B200002F5C042C0F810450197019817600029CE
:102B3000E0D096F9302055F82220002ADAD0012280
:102B40000B4902FA03F3C1F8043302B0F0BC70473A
:102B50004FF0A043D3F81035C34013F0010F0CBF62
:102B60004FF400334FF44033B6E700BFB0680020A5
:102B7000006000404FF0A043D3F8103523FA00F076
:102B800000F00100704700BF2DE9F04387B0002638
:102B9000C94B01961A68012A00F00482C74B1A68D3
:102BA000012A00F0F181C64B1A68012A00F0DE818B
:102BB000C44B1A68012A00F0CB81C34B1A68012A62
:102BC00000F0B881C14B1A68012A00F0A581C04B02
:102BD0001A68012A00F09281BE4B1A68012A00F09F
:102BE0007F81BD4B1A68012A00F0598116F0FF0F52
:102BF0001AD0BA4F01250024A30003F180432E42CE
:102C000003F5C0434FEA45050BD0D3F8100557F83C
:102C10002420D3F81015C0F30420C1F3014102B100
:102C200090470134082CE7D1002E02DB07B0BDE845
:102C3000F083AA4C00224FF0FF3327460292039301
:102C400001260DF1080894F950104D1C2DD0C9B281
:102C500021F0C00006AB4FEAD00E03EB0E0201F0EC
:102C6000070312F80CCC06FA03F31CEA030F1CD07E
:102C70003D18890995F9305057F82590B9F1000FA2
:102C800000F0E880032900F0E8804FEA800E0EF1A2
:102C9000A04E12F8145CDEF800271D40C2F301427A
:102CA00040F0B580032A00F0A281002594F951106C
:102CB000481C2FD0C9B221F0C00006AB4FEAD00E9D
:102CC00003EB0E0201F0070312F80CCC06FA03F333
:102CD0001CEA030F1ED007EB000C89099CF930C0D9
:102CE00057F82C90B9F1000F00F0C680032900F0CE
:102CF000C6804FEA800E0EF1A04E12F814CCDEF81A
:102D000000271CEA030FC2F3014240F08D80032A22
:102D100000F0928194F952104A1C2ED0C9B221F0D1
:102D2000C00006AB4FEAD00E03EB0E0201F0070322
:102D300012F80CCC06FA03F31CEA030F1DD007EBC4
:102D4000000C89099CF930C057F82C90B9F1000F9C
:102D500000F08980032900F088804FEA800E0EF190
:102D6000A04E12F814CCDEF800271CEA030FC2F3C1
:102D7000014265D1032A00F04C8194F953104B1C99
:102D80002CD0C9B221F0C00006AB4FEAD00E03EB45
:102D90000E0201F0070312F80CCC06FA03F31CEA4A
:102DA000030F1BD007EB000C89099CF930C057F8C2
:102DB0002C90B9F1000F69D0032969D04FEA800E39
:102DC0000EF1A04E12F814CCDEF800271CEA030F17
:102DD000C2F3014211D1032A00F0F080002D3FF42C
:102DE00025AF4FF0A043019AD3F8103593423FF43A
:102DF0001DAF029A0193039225E7022AEED103291F
:102E000000F02D81B9F1000FE8D0C847E6E7022AAB
:102E10007FF44BAF032900F02B810025B9F1000F9F
:102E20003FF444AFC84741E7022A7FF473AF032958
:102E300000F01881B9F1000F3FF46CAFC84769E7A3
:102E4000022A9AD1032900F01081B9F1000F94D021
:102E5000C84792E703297FF428AF18F80E501D43A6
:102E600008F80E5011E7032987D118F80EC04CEA74
:102E7000030C08F80EC070E703297FF44BAF18F875
:102E80000EC04CEA030C08F80EC032E70329A5D1A6
:102E900018F80EC04CEA030C08F80EC08EE70022AA
:102EA0001A601B6805934FF0A043059AD3F81035BC
:102EB000019346F0004699E600610040046100403D
:102EC000086100400C610040106100401461004046
:102ED000186100401C6100407C610040B068002027
:102EE000654AD2F8042317067FF57BAE00221A60EC
:102EF0001B680493049B46F0800672E65E4AD2F893
:102F0000042352067FF568AE00221A601B68049302
:102F1000049B46F040065FE6574AD2F80423910628
:102F20007FF555AE00221A601B680493049B46F09F
:102F300020064CE6504AD2F80423D0067FF542AE74
:102F400000221A601B680493049B46F0100639E6C1
:102F5000494AD2F8042314077FF52FAE00221A60E5
:102F60001B680493049B46F0080626E6424AD2F802
:102F7000042355077FF51CAE00221A601B680493DA
:102F8000049B46F0040613E63B4AD2F80423970755
:102F90007FF509AE00221A601B680493049B46F07B
:102FA000020600E63449D1F8041311F001011CD0E7
:102FB0001E601B680493049B1646EFE503297FF40B
:102FC00021AF4FF40033DEF8002722F44032CEF870
:102FD0000027DEF8002701351343EDB2CEF80037A5
:102FE000B9F1000F7FF411AFFBE60E46D6E50329D9
:102FF0007FF414AF4FF40033DEF8002722F44032A0
:10300000CEF80027DEF800271343CEF8003701255D
:1030100004E703297FF419AF4FF40033DEF80027EB
:1030200022F44032CEF80027DEF8002701351343A2
:10303000EDB2CEF8003708E703297FF4FBAE4FF47A
:103040000033DEF8002722F44032CEF80027DEF805
:10305000002701351343EDB2CEF80037EAE64FF40E
:103060004033B0E74FF44033EBE74FF44033D5E75C
:103070004FF44033C0E700BF00600040F0B5047972
:10308000724E6401331987B0DD7E15B1082007B098
:10309000F0BD4D7F1D770D686B1C0BD04FF0A04726
:1030A0000123AB40C7F808350B6803F5E07303252F
:1030B00047F823504B685F1C06D003F5E0734FF0D0
:1030C000A045002745F82370037906EB43131B7FC7
:1030D000002B4DD003688D69C3F824554F7D0B7DBF
:1030E00005683B43C5F86C3503680F684D68C3F845
:1030F0000C75C3F814550B7D012B00F09B80331920
:1031000005465A600B6951483351EAB12B79097F62
:103110002A6800EB4310037F002B65D1C2F81C31F5
:10312000D2F81C712A680097009FC2F84431D2F887
:1031300044212B6846480192019AC3F80403286889
:1031400040F30730FFF778FB2B792A6806EB43132F
:103150001B7F002B44D00823C2F8003534440020E4
:103160000123E376E0752076A075A07607B0F0BD68
:1031700005688F69C5F8247591F815E00D7D07681D
:103180004EEA0505C7F86C550568D1F800E04F68B0
:10319000C5F81475C5F80CE50D7D012DAFD18D680E
:1031A0006F1C05D005F5E0754FF0A04747F82530B6
:1031B000CB685D1C0DD001254FF0A04705FA03F345
:1031C000C7F80835CB6803F5E073032547F82350AB
:1031D000CB6805688F68C5F80835C5F810758EE7A7
:1031E0000423C2F80035B9E70023C2F81031D2F841
:1031F00010712A680297029FC2F82031D2F820711C
:103200002A680397039FC2F82431D2F824712A68F0
:103210000497049FC2F84431D2F844212B680592E8
:103220000C48059AC3F80403286840F30730FFF7F9
:1032300003FB89E78B685D1CBAD003F5E0734FF0A0
:10324000A045002745F82370B2E700BF08690020B9
:103250008000020010030200F0B503793D4A0468C3
:103260005B01D118097F00296DD00021C4F8001539
:10327000D118384C4968B1B1017904EB4114217F70
:10328000002963D10168344CC1F808430168334E0A
:10329000090B4CB26409203401F01F01012505FA25
:1032A00001F146F824100179076802EB4111D7F8C3
:1032B0000C65097FD7F814554FF0FF3EA9B3D7F836
:1032C0000815D7F81045C7F80CE5C7F814E50068ED
:1032D000C0F808E5C0F810E5771C06D006F5E076E2
:1032E0004FF0A040022740F826706E1C06D005F56E
:1032F000E0754FF0A040022640F82560651C06D01E
:1033000004F5E0744FF0A040022540F82450481C1A
:1033100006D001F5E0714FF0A040022440F82140B2
:1033200013440022DA765A60F0BDD7F80815D7F8B2
:103330001045C7F814E5C7F80CE50068C0F808E5C3
:10334000C0F810E5C8E7C4F8001591E70168044C1F
:103350009AE700BF086900208402020000E100E053
:1033600010030200F0B50379534C5B01E51887B0F8
:103370002D7F3DB101F06045B5F1005F02D0102016
:1033800007B0F0BD23444C4F9E7D16B1112007B00D
:10339000F0BD9A7599609E8205796D017A19137F47
:1033A00013BB0168C1F81C31D1F81C610168049697
:1033B0000126049F8E600168D2F808E0C1F81C3134
:1033C000D1F81C310593059B968A938A5768B6B24B
:1033D00001331EF806609BB29382C1F81C65002F72
:1033E0002FD0002007B0F0BD03689168C3F82061BA
:1033F000D3F8207103680197019FC3F85861D3F88F
:10340000586103680296967D029FC3F84415C3F87D
:1034100048650368012199605368002BE1D1036876
:1034200001E0002945D1D3F82021D3F85811002A12
:10343000F7D0002914BF0F2000202C440023A375CF
:103440009EE7967D938A9BB29E4202F1140122D997
:10345000016804E0938A9BB2B3F5807F03D0D1F872
:103460001C31002BF6D0938A9BB2B3F5807FE9D054
:10347000C1F81C71D1F81C310393039BB2F814C03E
:10348000938A1FFA8CFC01331EF80CC09BB2938206
:10349000C1F81CC5D6E70B889BB2B3F5807F08D076
:1034A0000268D2F81C31002BFBD00123D36000202E
:1034B000C3E70F20C1E700BF086900200279044B71
:1034C00003EB4213987D003018BF0120704700BF06
:1034D00008690020F0B403798C4E5B01F41888B0C1
:1034E000257F4DB101F06045B5F1005F59D0102244
:1034F000104608B0F0BC70476568002D42D13344D7
:10350000824FDC7D002C2BD1DA75D9605C761C767D
:1035100005796D0173191F7F002F50D19B7E8BB9E8
:1035200084B90368C3F82441D3F8242103680392C3
:10353000039AC3F80841D3F80821036804920122D2
:1035400004991A6071194B68002B6FD003684FF40F
:103550000172C3F804230022104608B0F0BC704783
:103560001C7ED4B1002D00F0AA80037907EB43172D
:103570003B7F002B53D003684FF40472C3F804233D
:103580001122B5E704684FF401773344C4F8087397
:10359000DC7D5E4F002CB7D0E2E719611A7601247A
:1035A000B6E76568002DAAD004684FF40477334469
:1035B000C4F80873DC7D554F002CA5D0D0E7036814
:1035C0000025C3F81051D3F8107103680197019FCB
:1035D000C3F84451D3F8445103680295029DC3F8DF
:1035E0003415C3F8382594B9036801221A600279AA
:1035F0005201B3185B68002B63D003684FF4047268
:10360000C3F804230022104608B0F0BC70470268DB
:10361000D2F8003243F02003C2F80032E7E7036833
:103620004FF40172C3F80423112261E70268C2F863
:103630004431D2F844310593059B0368D3F82471D3
:10364000D3F80841D3F8442144B9002A30D1002FDF
:10365000F4D035440023EB75032249E7002FF8D15D
:1036600042BBCC7DC3F80821D4B1D3F808410694FD
:10367000069CCF684C7ED3F818353B554B7ECC7DED
:103680000133DBB24B764B7E9C42D6D835440021C9
:10369000AB7EE975002B34D003680121196027E760
:1036A000D3F808410794079CD3F818354B7EEDE713
:1036B000002FCED135440023EB750F2218E71122DD
:1036C00016E7036801E0A0B9BCB9D3F81011D3F82C
:1036D0004401D3F824410029F5D01644002C4FF0C2
:1036E000000314BF03221A469842F37518BF0F2235
:1036F000FEE616440F22F175FAE616440322F07531
:10370000F6E6036801215960F2E600BF086900206F
:10371000114A037902EB4313197FD9B99B7ECBB9C8
:1037200010B4016883B0C1F82431D1F82441016894
:103730000094009CC1F80831D1F808310168019368
:103740000123019C0B60017902EB4112937603B0D7
:103750005DF8044B704700BF0869002070B59B4CB2
:10376000237F8EB0002B75D1994AD2F804138905B6
:1037700048D4974BD3F80423520704D5D3F8082133
:10378000002A40F0CA80924BD3F81C21C2B1A28A11
:10379000A07D8E4992B282424FF00002C3F81C21F4
:1037A00080F0A980D3F81C210692069A888A8A8A1A
:1037B0008D6880B20132285C92B28A82C3F81C05FF
:1037C000834BD3F84421DAB10022C3F84421D3F863
:1037D0004411A27E04910499002A40F08980E27D80
:1037E0007A4B6AB10022587ED968DA7501228DF8C9
:1037F00030000B918DF828200AA893E80600904726
:103800000EB070BDD2F824110029B2D0C2F8243114
:10381000D2F82411A37E07914FF401710798C2F8E2
:1038200008130BB901235360694A02238DF828302D
:10383000D2F88034C2F88034E07DE2680D93002332
:103840008DF83000E375237621680B9263680AA82F
:10385000984798E75E4BD3F82421002A40F09380E4
:10386000D3F8101161B1C3F81021D3F810110391EE
:103870000399D3F83C15E07DC9B2884200F0AA80D4
:10388000534BD3F84421B2B10022C3F84421D3F8FA
:103890004411E07D019101994C4960B1D3F83C3568
:1038A000C8688DF830300123CA750B908DF8283028
:1038B0000AA80AC99847464BD3F82021002A9FD06E
:1038C0000022C3F82021D3F82011A07D0091009997
:1038D0003E49002894D0D3F84C058B688DF8300011
:1038E0008A750B938DF828200AC90AA8984787E79C
:1038F00001221A6073E7D3F81C310593059B002859
:103900003FF45EAF8B688DF830008A750B938DF8AD
:1039100028200AC90AA8984752E7E17D2B4A0029C6
:1039200070D00021C3F80811D3F808110891089944
:10393000D068517ED3F818354354537ED17D01337E
:10394000DBB25376627E214B8A427FF41CAF1A7E33
:10395000002A6DD19B7E13B91D4B01225A601C4A6F
:10396000E06863684FF40171C2F80813627E8DF855
:103970003020002501220B902168E5758DF8282064
:103980000AA89847FFE60022C3F82421D3F824119F
:10399000029102218DF828100299D3F88014C3F8FF
:1039A00080140D91D3F83C15E368E27522768DF80A
:1039B00030100B93216863680AA89847044BD3F82A
:1039C0004421002A3FF477AF5EE700BF086900207A
:1039D00000200040217EF1B1D3F80062E17526F0AD
:1039E0002001E568C3F8001226698DF83000012334
:1039F0008DF82830227621680B95E66063680AA866
:103A000098473DE7C3F80811D3F808210992099AAD
:103A1000D3F8183596E7E268E17501238DF8300098
:103A20008DF828300B9294E80A000AA8984727E7F7
:103A3000DE685D7E1869DA7501210022D8601A7689
:103A40005A768DF828100B968DF8305093E80600C2
:103A50000AA8904797E600BF0220FEF7A5BD00BF69
:103A60002DE9F0470D460646FEF7E0FD03281ED877
:103A7000012D04461FD00ED3022D1AD11E4B00EB90
:103A800040041C44657895B11C4B1B687BB12846EB
:103A9000BDE8F04718471A48FCF792FC1649194A46
:103AA00004EB44030B44155D9B789D42EBD0BDE8CD
:103AB000F087BDE8F087DFF8408047003B1808EB4F
:103AC000030218F8035053782BB9274447440D4B91
:103AD000BA781A55D7E70C4BDFF8309019680848C8
:103AE00001EB810149004A46FCF7F8FB0028ECD1C4
:103AF00089F80060E9E700BF9C6900205469002054
:103B00005869002078690020506900204C69002025
:103B10007F4B1B68DB0700D4704770B57D4E7E4D30
:103B200033782C789BB9172C10D8DFE804F0666B3B
:103B30006B879CB0C2AA24152415823131313131F2
:103B400051565ECF0C0CFEF719FD2C7070BD002392
:103B50003370FEF7FDFCE6E7012318463370FEF7ED
:103B600023FD6E4B6E481968002201EB8101BDE810
:103B70007040FCF7B3BB012318463370FEF714FD09
:103B8000664B674819680022BDE87040FCF7A6BB89
:103B90006448FCF715FCD4F11104024600F0A18042
:103BA000002840F09E80012C0DD0C8255E4B5B495B
:103BB0005C48096805FB04F4A3FB04435B0901FBB3
:103BC00003F1FCF78BFB0220BDE87040FEF7A8BCB8
:103BD000FEF7BEFC12232B7070BDFEF7B9FC00206F
:103BE000FEF79EFC13232B7070BDFEF7B1FC012085
:103BF000FEF796FC14232B7070BDFEF7A9FC002382
:103C00002B7070BD0020FEF77BFC002879D00020CF
:103C1000FEF792FC022C14BF282312233F4A2C707B
:103C200011683F4801FB03F10022BDE87040FCF73A
:103C300055BBFEF7A3FC0C232B7070BD0020FEF7D4
:103C40005FFC002856D00020FEF776FC0822334B9C
:103C50003348196803232B7001FB02F1BDE8704063
:103C60000022FCF73BBB0020FEF74AFC00283DD0B9
:103C70000020FEF761FC2822284B294819680423FC
:103C8000E9E70020FEF74CFC07232B7070BD0020F5
:103C9000FEF736FC90B30020FEF74EFC1F4B204889
:103CA000196805232B7049000022BDE87040FCF71D
:103CB00015BB0020FEF778FC184B1948196806233D
:103CC0002B700022BDE87040FCF708BBFEF740FCFB
:103CD0000020FEF725FC0120FEF722FC15232B70A7
:103CE00070BD0220BDE87040FEF726BCFEF718FC50
:103CF0000422C1E7FEF714FC0222A8E7FEF710FC3D
:103D0000CCE7FEF70DFC022C14BF0423022385E749
:103D1000486900204D6900204E690020506900204C
:103D2000286900207C6900201F85EB5110B50078C0
:103D3000FEF77CFC03280BD8064B00EB4000184430
:103D4000407828B1044B1B6813B1BDE810401847F8
:103D500010BD00BF9C69002054690020FEF756BCCE
:103D600070B5964B1A6812F0010202D11646304621
:103D700070BD934D2B780446E3B9172C00F21C81DB
:103D8000DFE814F0E600ED00ED0054006B00820067
:103D9000970046002C001D002C001D00A500AC0063
:103DA000AC00AC00AC00AC00CB00D200DC003900B1
:103DB0004E004E0000232B70FEF7CAFBDDE7012307
:103DC00018462B70FEF7F0FB7E4B7F4819680022E7
:103DD00001EB8101BDE87040FCF780BA0123184671
:103DE0002B70FEF7E1FB774B774819680022BDE89E
:103DF0007040FCF773BAFEF7ABFB0020FEF790FBB8
:103E00000120FEF78DFB714B15221A700026AEE7DC
:103E10000020FEF785FB6D4B07221A700026A6E7EF
:103E2000FEF7ACFB694B00261C70A0E70020FEF7F4
:103E300067FB002800F0BC800020FEF77DFB082215
:103E40006049624B0968604803241C7001FB02F161
:103E5000BDE870400022FCF741BA0020FEF750FB9D
:103E6000002800F09E800020FEF766FB28225549BE
:103E7000564B0968544804241C7001FB02F1BDE84C
:103E800070400022FCF72ABA0020FEF739FB002818
:103E900000F08B800020FEF74FFB4A4A4B4B116825
:103EA000494805241C7049000022BDE87040FCF719
:103EB00015BA0020FEF778FB444B424A424811688D
:103EC00006241C700022BDE87040FCF707BAFEF71C
:103ED00055FB3E4B0C221A70002648E73C48FCF785
:103EE0006FFAD4F11104064650D000284ED1012CAF
:103EF0000FD0C825374B33493548096805FB04F412
:103F0000A3FB04235B09324601FB03F1FCF7E6F94E
:103F100006460220FEF704FB29E7FEF719FB2B4BB0
:103F200012221A70002622E7FEF712FB0020FEF78D
:103F3000F7FA264B13221A70002618E7FEF708FB43
:103F40000120FEF7EDFA214B14221A7000260EE72D
:103F5000FEF7FEFA1D4B00221A70164607E70020F6
:103F6000FEF7CEFAB0B10020FEF7E6FA022C14BF3D
:103F7000282312231349154A09681470124801FBBB
:103F800003F10022BDE87040FCF7A8B90220FEF75B
:103F9000D3FAECE6FEF7C4FA022C14BF0423022382
:103FA000E8E7FEF7BDFA042261E7FEF7B9FA74E725
:103FB000FEF7B6FA022243E70026D8E64869002059
:103FC0004D69002050690020286900204E690020BA
:103FD0007C6900201F85EB51F0B5214D214E224B0D
:103FE0002860044610F0020083B031601A6012D0DD
:103FF0001E4B1F484A080F270E2110261125197045
:10400000DF7004219E715D72FCF76EF8A0B1E307CA
:104010001DD403B0F0BDE20719D4164A164800219A
:10402000FCF730F90028F4D1144A1548012103B0F7
:10403000BDE8F040FCF726B9FCF7AEF80028E6D161
:104040000146104A1048FCF71DF9E10703D501901D
:10405000FEF7BEFA01980028DFD003B0F0BD00BF24
:104060004869002050690020546900209C690020A4
:10407000D06D0200113B0200CC6D0200593A0200E3
:10408000F06D02002D3D0200C86D0200032801D929
:1040900007207047012A12D0012917D008D302291E
:1040A000F6D10D4B00EB4000034400205A707047DE
:1040B000094B00EB4000034400209A70704701292F
:1040C00001D00022E8E700F10E02D2B200EB40037B
:1040D00001490020CA5470479C69002008B5FEF7CA
:1040E000B7FA800000F1A0430020D3F8002722F4A3
:1040F0004032C3F80027D3F8002742F44032C3F817
:10410000002708BD08B50020FFF7E8FF10B106281A
:1041100000D008BD0120FFF7E1FF0028F9D00628F4
:1041200008BF002008BD00BF10B50388102B08D0C1
:10413000112B05D1264B18680138186038B110BD15
:1041400010BD234C216881B10131216010BD0122D5
:104150000221FFF79BFF48B3072827D01D4B1B68A0
:10416000002BECD0BDE81040184701220846FFF7AD
:104170008DFF48B1072807D0164B1B6803B198473D
:1041800021680131216010BD072202210120FFF7C3
:104190007DFF08B10728EFD1042202210020FFF79C
:1041A00075FF0028ECD00728E6D1E9E707220221B5
:1041B0000120FFF76BFF08B10728CFD10021084687
:1041C0000A22FFF763FF0028B9D00728C6D110BD27
:1041D000AC690020A8690020194B10B5186031B1F6
:1041E00001200C46FFF7BAFD30B102232370154BB6
:1041F000186848B1002010BDFFF7B0FDE8B9114BB9
:10420000207018680028F5D101220221FFF73EFF37
:1042100008B10728EFD1072202210120FFF736FF5E
:1042200008B10728E7D1002108460A22FFF72EFF30
:104230000028DFD00728DED1DCE70B232370D6E788
:10424000A8690020AC69002032DF704775DF704735
:1042500076DF70477FDF70478ADF70478CDF7047FB
:10426000ADDF704764DF704708B5FCF79FFA064979
:1042700002460320FBF76AFCFBF716FE0028FBD181
:10428000FDF7B0F9F1E700BF186E020008B5002095
:10429000FDF7A8F9FBE700BF0146014801F0E2BDC8
:1042A000D06F002030B500238DB01846464A032158
:1042B000FBF7E0FF08B1FBF785FF444D444B01934A
:1042C0000FCD05AC0FC495E803004FF4007384E8EC
:1042D0000300404D02934FF4807401A905A83E4AA3
:1042E000039507230494FCF741F908B1FBF76AFF33
:1042F0000020FBF7B7FB08B1FBF764FF374A40F635
:10430000CD410120FFF768FE08B1FBF75BFF05A96F
:104310000020FFF761FF08B1FBF754FF304800F0C1
:104320003DFE08B1FBF74EFF2E4A2F4B106801905F
:10433000502201A82D4901F023FF08B1FBF742FFED
:1043400005AA0021012001F087FF0446FBF7ACFD20
:104350000028FBD114B12046FBF734FF172305A832
:10436000ADF8243001F090FF08B1FBF72BFF204897
:1043700001F050FF08B1FBF725FF1E4B1E480593C7
:1043800005A901F0C1FD08B1FBF71CFF1B48FFF7B1
:1043900063FF08B1FBF716FF0120FFF7E1FC08B14E
:1043A000FBF710FF1649174C0320FBF777FB0023A0
:1043B00019464FF0FF322068FCF746FE0028F6D081
:1043C00001F0D0FEF3E700BF0C6B0020F46D02009B
:1043D000686B0020B06900200944020065440200B7
:1043E000994202000C6E0200AD440200BC6A00203B
:1043F000A1450200E9440200D06F0020386F02009E
:10440000386E0200B46A002038B50378012B02D060
:1044100007D3022B04D14068BDE83840FBF7D2BE79
:1044200038BD0D4C0D4D20782844FCF711F9227849
:104430000132D2B21544227015F8013C0A2B03D088
:10444000132A01D838BD22780449054801F0ECFD53
:104450000028F8D1207038BDB86A0020546B0020C5
:10446000D06F0020042808B50CD00A2809D10020FC
:10447000FFF776FC90B9FFF745FE90B9FFF7E4FE31
:1044800040B908BD084B13215888FFF7E1FE30F012
:104490000803F6D0BDE80840FBF794BEFBF792FE98
:1044A000E9E7FBF78FFEE9E7D06F002000B583B0A6
:1044B00002A9002341F8043D094B1868FCF79AFD56
:1044C000019B43B1074B4FF080525A6040BFBFF38E
:1044D0004F8FBFF36F8F002003B05DF804FB00BF68
:1044E000B46A002000ED00E038B50B78022B0D46D1
:1044F00028D0032B14D0012B00D038BD01F10A02C3
:104500004988044601F0B6FD00283CD1204601F060
:1045100063FD68BB1E490320BDE83840FBF7BEBA07
:1045200018461C49FBF7BAFA1B48FFF795FE38BB43
:104530000120FFF715FC98B918490320BDE8384061
:10454000FBF7ACBA0B7A002403B36B68185DFCF779
:104550009FF80028F9D12B7A0134A342F5D838BD51
:10456000FBF730FE0D490320BDE83840FBF796BA53
:10457000FBF728FE06490320BDE83840FBF78EBA5A
:10458000FBF720FED4E7FBF71DFEBFE738BD00BFF9
:104590005C6E0200946E0200386F0200386E0200FA
:1045A0002DE9F0430388103B87B00646462B35D8EB
:1045B000DFE803F09B3434C234343434343434AE62
:1045C000344B34B93434343434343434343434340F
:1045D000343434343434343434343434343434428D
:1045E000343434343434343434343434343434348B
:1045F000343434343434343434A742006D48FFF753
:104600002BFE002840F0D3800120FFF7A9FB08B162
:10461000FBF7D8FD68490320FBF740FA3046FFF767
:1046200083FD3146654800F077FD3146644801F06E
:1046300095FC07B0BDE8F08313218088FFF708FEE2
:104640000028EBD0FBF7BEFDE8E7C37DDA0800F1F8
:104650001808E3D000250AE0191F012940F28880DC
:10466000063B012B72D901373D449542D6D208EB67
:10467000050318F805705B78991E0129ECD85FEAEC
:104680005709F0D0AB1C4344002401E04C456CD0EA
:10469000194605AA0220FFF7E5FD01340233002880
:1046A000F4D1BDF81420012AF0D19DF81620022A79
:1046B000ECD1444A3F4906F10800FFF7CFFD00283E
:1046C000ACD1FFF74DFB08B1FBF77CFD307BF17AF5
:1046D000B57B747BB37A727A019000910395029452
:1046E00039490320FBF764FB98E70720FFF738FB05
:1046F000002859D1B188314800F0D2FC00288DD073
:10470000A0E717218088FFF7ABFD002886D099E746
:10471000007A02283FF472AF03287FF47FAF2B4961
:10472000FBF7BCF97AE700F108018088FFF78EFDFE
:1047300000283FF473AF85E700231A46852180885F
:10474000FFF788FD00283FF469AF7BE7A91C4144CF
:1047500005AA1020FFF786FD38B9BDF81430012BEB
:1047600003D19DF81630022BA3D0F27DD2087AE750
:104770005FEA97093FF477AFAB1C4344002401E0A4
:10478000A145F2D0194605AA0220FFF76BFD0134BE
:1047900004330028F4D1BDF81420012AF0D19DF88B
:1047A0001620022AECD184E7FBF70CFDA2E7FBF709
:1047B00009FD29E7386F0200386E02006C6D002099
:1047C000D06F0020106E0200B46E0200F46E020082
:1047D000014B1868FCF79ABF686D002000B585B0E2
:1047E000FDF73CFF002861D1032200210120FCF7E6
:1047F000A7F9304B1860002854D003220021012073
:10480000FCF79EF9002849D00120FCF75DFB002849
:1048100040D0002328490191032200920393029380
:104820004FF4807225492648FCF7E8FD012802D0A4
:104830000420FBF7C7FC00232249019102220092C9
:10484000039302934FF480721F492048FCF7D6FD72
:10485000012802D00420FBF7B5FC00231C4901917C
:1048600001220092039302934FF4807219491A486F
:10487000FCF7C4FD012802D00420FBF7A3FC174A73
:10488000136943F004031361FCF78CFF0F20FBF75F
:1048900099FCFBE70420FBF795FCBAE70420FBF743
:1048A00091FCB1E70420FBF78DFCA6E7FBF78AFC3F
:1048B0009AE700BFB46A0020CC6F0020246F02008A
:1048C000A5420200B06A0020286F02008D4202005B
:1048D000686D0020306F02006942020000ED00E0C8
:1048E0002DE9F84F4300DFF870A11E180AEBC60649
:1048F0008846F16A0129174641D031D3022939D1BE
:10490000013000EB4000756A4FEAC0094FF0000B20
:104910001CE0326A641BBC420AEB09012346A2EB8D
:10492000050428BF3B469C42486828BF1C462844D3
:104930004146224601F010FD336A25449D4208BFDE
:1049400000253F1BA344A044756215D0B36AAB4257
:1049500003F1FF34DDD8326A1344013B5C1BDAE714
:10496000B16A726A91429CBF346A091901398A1A84
:10497000974236D94FF0000B5846BDE8F88FB16A20
:10498000756AA94227D90139326AC5EB010B034484
:104990000AEBC30ABB45DAF824502F4B28BFBB46AD
:1049A000561B0130B34500EB40003BD303EBC00482
:1049B0003246606841462844C6EB0B0501F0CCFC4A
:1049C000606808EB06012A4601F0C6FCCAF82450CC
:1049D0005846BDE8F88F326A8C18013CC5EB040BD1
:1049E000D5E703440AEBC30A0130DAF82460DAF8A9
:1049F0002040194BA41BA74200EB40001ED303EB41
:104A0000C00522466868414630443E1B01F0A4FCC4
:104A1000686808EB0401324601F09EFCBB46CAF808
:104A20002460A9E703EBC003414658685A4628446E
:104A30005D4401F091FCCAF824509DE703EBC003EC
:104A4000414658683A4630443E4401F085FCBB4636
:104A5000CAF8246090E700BFDC740020F8B5114C60
:104A60002378F3B9A362104A63620220A365E3626C
:104A7000E36563650D4F0E4D0E49206110234FF421
:104A8000007623656061A261A264E01DE761266291
:104A9000E56401F09FFC0849204601F09BFC2023BF
:104AA000A371F8BDDC740020406F0200F06F00209D
:104AB000E06F00204C6F0200506F02000649074A69
:104AC000074B9B1A03DD043BC858D050FBDC00F0B9
:104AD00013F8FAF7C3FC000018730200E81F002067
:104AE000DC210020FEE7FEE7FEE7FEE7FEE7FEE74B
:104AF000FEE7FEE7FEE7FEE7F0B4A64B1B78062BC9
:104B00001BD0A54AD2F8883043F47003C2F888302D
:104B1000BFF34F8FBFF36F8F4FF01023D3F80022F6
:104B2000002AC0F20581D3F80432002BC0F20081C4
:104B30009A4B9B4A1A60F0BC70479A4B1B681E0741
:104B4000DFD1994B1B6803F0F003302B02D1974B58
:104B5000974A1A60944B1B6803F0F002302A00F069
:104B6000D68003F0E003402B00F0D1808E4B1B6811
:104B700003F0F003302B00F0BB808B4B1B6803F07D
:104B8000F002302A00F0A08003F0E003402B00F098
:104B90009B80854B1B6803F0F003302B00F0868070
:104BA000814B1B6803F0F003302B68D07E4B1B68F1
:104BB00003F0F003502B10D07B4B1B6803F0F00286
:104BC000302A03D003F0E003402B9AD1794B7A4A84
:104BD0001B6803F04F03136093E74FF08052774B4D
:104BE000D2F80414C3F82015D2F80814C3F8241519
:104BF000D2F80C14C3F82815D2F81014C3F82C15E9
:104C0000D2F81414C3F83015D2F81814C3F83415B8
:104C1000D2F81C14C3F84015D2F82014C3F8441578
:104C2000D2F82414C3F84815D2F82814C3F84C1548
:104C3000D2F82C14C3F85015D2F83014C3F8541518
:104C4000D2F83414C3F86015D2F83814C3F86415D8
:104C5000D2F83C14C3F86815D2F84014C3F86C15A8
:104C6000D2F844244B49C3F870250A78062A7FF409
:104C700048AF4C4B1B681B077FF443AF9CE7454B89
:104C80004F491B784F4D5048504A05270F60012669
:104C900000243F21062B2E60046011607FF431AFA9
:104CA000404B1B681A077FF42CAF7FE7394B484A0B
:104CB0001B780321062B11607FF423AF394B1B684F
:104CC00019077FF41EAF6BE7324B1B784FF0804221
:104CD0000021062BC2F80C11C2F81011C2F83815C9
:104CE0007FF40FAF2F4B1B6818077FF40AAF50E714
:104CF0003849284ACB68127823F08073062ACB60A3
:104D0000B4D1284B1B681C077FF4FBAE35E7324A51
:104D1000204B12681B783149C2F34232062B0A60DD
:104D20007FF4EFAE1F4B1B681D077FF4EAAE1DE753
:104D30002B4B0122C3F80425D3F80024002AFBD012
:104D40004FF0102315222649C3F80022D1F8003471
:104D5000002BFBD04FF0102315222149C3F8042269
:104D6000D1F800241E4B002AFAD00022C3F80425F3
:104D7000D3F80024002AFBD0BFF34F8F0649194B0C
:104D8000CA6802F4E0621343CB60BFF34F8F00BFE9
:104D9000FDE700BFE00F00F000ED00E06020002024
:104DA0000090D003E40F00F0E80F00F074C007405B
