:020000021000EC
:10F0000000000120C1480200E9480200EB4802006C
:10F01000ED480200EF480200F14802000000000045
:10F02000000000000000000000000000490702008E
:10F03000F54802000000000069070200F9480200DC
:10F04000ED250200FB48020029340200FB480200C3
:10F05000FB480200FB4802004D2A0200FB48020068
:10F06000FB480200FB480200FB480200FB4802008C
:10F07000FB480200FB480200FB480200FB4802007C
:10F08000FB48020071080200FB480200FB48020036
:10F09000FB480200FB480200315F0200FB4802000F
:10F0A000FB480200FB480200FB480200FB4802004C
:10F0B000FB480200FB4802000000000000000000C6
:10F0C000FB480200FB480200FB480200FB4802002C
:10F0D000FB480200FB480200FB4802000000000061
:10F0E0000000000000000000000000000000000020
:10F0F0000000000000000000000000000000000010
:10F1000000000000000000000000000000000000FF
:10F1100000000000000000000000000000000000EF
:10F4000010B5054C237833B9044B13B10448AFF35E
:10F4100000800123237010BD742000200000000034
:10F4200014790200084B10B51BB108480849AFF326
:10F4300000800848036803B910BD074B002BFBD0C0
:10F44000BDE81040184700BF00000000147902001A
:10F45000782000207020002000000000154B002BB9
:10F4600008BF134B9D46A3F5803A00218B460F46FB
:10F470001348144A121A00F065F80F4B002B00D005
:10F4800098470E4B002B00D0984700200021040025
:10F490000D000D48002802D00C48AFF3008000F0AA
:10F4A0002BF82000290005F07DF800F011F800BFCE
:10F4B0000000080000000120000000000000000023
:10F4C00074200020207400200000000000000000D4
:10F4D00008B5074B044613B10021AFF30080054B7C
:10F4E0001868836A03B19847204600F033F800BFDC
:10F4F000000000000072020070B50E4B0E4CE41AC2
:10F50000A41000251E46A54204D056F82530984781
:10F510000135F8E707F066FE084C094BE41AA41021
:10F5200000251E46A54204D056F8253098470135DF
:10F53000F8E770BD68200020682000206C200020C3
:10F540006820002002440346934202D003F8011BC6
:10F55000FAE77047FEE700BF0378012B04BF014ABA
:10F5600013707047902100202DE9F0416248C6B029
:10F570000C4690461F4603F0FBFDA8B9D4B106AE79
:10F5800023685E4A30464FF4807106F065FD00281E
:10F590000ADB4C9B0546062B00F2AC80DFE803F04B
:10F5A0004F5F6A77869716004FF00008404646B0D6
:10F5B000BDE8F0814C9B062B00F29A80DFE803F057
:10F5C0003E4D586574850400002506AE07F10C0118
:10F5D0007A683B68D7F808C092C970190092029106
:10F5E00003944246CDF804C00497C5F5807106F037
:10F5F00033FD0446002CD7DB2C44B4F5807FD3D8F0
:10F6000006AE314622463E4806F002FD3A483C49E5
:10F61000E2B203F0F3FC0A27B0FA80F800254FEAC3
:10F62000581871192246002005F046F80544241A9E
:10F6300008B9013FBAD0002CF3D1B7E70025404606
:10F6400006F044FD4319FF2B0446D3D806AB4146D0
:10F650005819224606F0DCFCCCE7002506AE7019EE
:10F6600042463B68C5F5807106F0F6FC0446C1E7EA
:10F67000002506AE7A683B68009270194246C5F5CF
:10F68000807106F0E9FC0446B4E7002506AE7A680E
:10F69000B9683B680092019170194246C5F58071C6
:10F6A00006F0DAFC0446A5E7002506AE7A68BC68D9
:10F6B000F9683B6800920194029170194246C5F5C1
:10F6C000807106F0C9FC044694E7002506AE07F1F8
:10F6D00008017A683B6892C97019009201910294FE
:10F6E00042460397C5F5807106F0B6FC044681E7F3
:10F6F000002485E700247FE74C20002024720200CC
:10F70000902000202DE9F04FC5B01C469B480029F1
:10F7100014BF0A23002317460D46019303F028FD6A
:10F72000002840F0FB80002C00F0FC80014604AE75
:10F730004F9B519A202503EB020B08460199431871
:10F7400003933133F31802933318002960D05A42DF
:10F7500002F003028A4228BF0A46062900F200810D
:10F76000019A3554012A03F1010100F0F780022AC1
:10F770005D7003F1020100F0F180032A9D7003F136
:10F78000030100F0EB80042ADD7003F1040100F0B6
:10F79000E580062A1D7103F1050140F0E8805D71E6
:10F7A000991D9446019F974230D0C2EB0709A9F1F9
:10F7B000040E07F1FF3A4FEA9E0EC2EB0A0A0EF161
:10F7C000010EBAF1020F4FEA8E0813D90244BEF1BE
:10F7D000010F4FF0203006EB020AB05006D0BEF108
:10F7E000020FCAF8040001D0CAF80800C845414415
:10F7F000C4440BD0019F0D700CF10102BA4205D236
:10F800000CF1020C67454D7000D98D70019A1344BC
:10F810005B4A0299D2F800804F9FDDF84091DA1CD4
:10F82000481C03F1330C0CE002F8035C02F8025CA4
:10F8300002F8015C0332624500F8015C00F101004E
:10F8400033D0A345F0D9A74295BFE11B4E9919F8D3
:10F850000110095D02F8015C4FEA211E5FFA8EFA81
:10F86000BEF1090F01F00F0ED4BF0AF1300A0AF100
:10F87000370ABEF1090F02F803AC94BF0EF1300E47
:10F880000EF1370E08EB010A02F802EC9AF801E0DB
:10F8900003321EF0970F08BF2E21624500F8011CAD
:10F8A00004F1010400F10100CBD1039A4F97029FAC
:10F8B000344802F1430A0D214FF00A0839745246C8
:10F8C00087F81180314683F8305006F0A1FB5FFACB
:10F8D0008AF22A482B4903F091FB23464F9F02905E
:10F8E00054464FF000099A4606EB090122460020D3
:10F8F00004F0E2FE8144241A10B9B8F1010801D0E5
:10F90000002CF1D14F97029F54463FB91B4803F09A
:10F910002FFC18B9D34538463FF610AF204645B006
:10F92000BDE8F08F35B304AE2B68174A30464FF46C
:10F93000807106F091FB0028F0DB0546384606F0A2
:10F94000C5FBC22828BFC22080463946024670192E
:10F9500006F05EFB08EB05031946E9E6944621E74D
:10F96000002A7FF4FEAE19469446019F1DE74FF032
:10F97000050C17E7254604AEE0E700BF4C20002049
:10F98000642000209020002024720200F0B51B4F5C
:10F990003B7889B006461BB1194B1B7883422AD0AD
:10F9A000184D04F051FF0FCD6C460FC495E80F00C1
:10F9B000DFF85CE084E80F0000250821052207231A
:10F9C00011480191062403928DF81450009402937B
:10F9D000CDF818E003F08CFAAE420C4A0A4818BF82
:10F9E0002A46694603F096F918B9054A01231670AC
:10F9F0003B7009B0F0BD002009B0F0BD922100209D
:10FA000091210020047202004C20002059F50100D1
:10FA1000005027000048704769F501000048704712
:10FA200005F7010038B50020FFF7B0FF044668B9BC
:10FA3000FFF7F0FF0546FFF7F1FF054BFF22C3F884
:10FA400010541C605C60C3F814049A60204638BDF2
:10FA5000942100200120FFF799BF00BF2DE9F0435A
:10FA600083B002AB4FF0000903F8019D254C074617
:10FA700018460E46A56800F039FCA2686368D4F801
:10FA8000008013440133C8EB0303012B07D80BBBE1
:10FA90009DF8070000F052FC03B0BDE8F08308F1C8
:10FAA00001039DF80700236000F048FC01220023B9
:10FAB00062F3010369F3820308EA050567F3C503EE
:10FAC00004EB850469F3891366F39F23E36003B0B5
:10FAD000BDE8F08301214B4661F3010369F3820322
:10FAE000052161F3C50302EA0802074904EB82021B
:10FAF00069F3891308F1010561F39F232560D36041
:10FB0000C6E700BF942100202C7202002DE9F047C7
:10FB100082B002AB4FF0000903F8019DDFF8B4801A
:10FB20000746184615460E46D8F8084000F0DEFB9A
:10FB3000D8F80820D8F80430D8F800A013440133CE
:10FB4000CAEB0303022B07D853BB9DF8070000F054
:10FB5000F5FB02B0BDE8F0870AF102039DF807004B
:10FB6000C8F8003000F0EAFB0122002362F3010331
:10FB70000AEB020169F3820367F3C5030AEA040A88
:10FB80000C4008EB8A0A62F3891308EB840866F3D9
:10FB90009F23CAF80C30C8F80C5002B0BDE8F087BB
:10FBA00001214B4661F3010369F38203052161F3EF
:10FBB000C50302EA0A02064808EB820269F38913C8
:10FBC0000AF1010160F39F23C8F80010D360BCE77D
:10FBD0002C720200942100202DE9F04F83B002AD79
:10FBE0004FF0000A05F801AD2C4C81462846174617
:10FBF0001E468846A56800F079FBA2686368D4F8C1
:10FC000000B013440133CBEB0303032B07D873BBC2
:10FC10009DF8070000F092FB03B0BDE8F08F0BF1F8
:10FC200003039DF80700236000F088FB01220023F6
:10FC300062F301030BF102006AF382035A4469F391
:10FC4000C50302210BEA050B2A40054004EB8B0B90
:10FC500004EB820261F3891304EB850468F39F23AC
:10FC6000CBF80C30D760E66003B0BDE8F08F01211F
:10FC7000534661F301036AF38203052161F3C5036F
:10FC800002EA0B02064804EB82026AF389130BF1C5
:10FC9000010160F39F232160D360B9E79421002024
:10FCA0002C7202002DE9F04F83B002AD4FF0000B33
:10FCB00005F801BD394C8246284690461F46A66885
:10FCC000894600F013FBA26863682568134401337A
:10FCD0005B1B072B08D8002B4BD19DF8070000F0C9
:10FCE0002DFB03B0BDE8F08FEB1D9DF807002360EE
:10FCF00000F024FB0122002362F301036BF3820373
:10FD000005EB020C05F1060B05F1020EE81C291D9E
:10FD10006A1D6AF3C50335404FF0060A04EB8505FA
:10FD20000CEA060C0EEA060E30406AF3891304EB67
:10FD30008C0C04EB8E0E04EB800069F39F233140A2
:10FD4000EB6004EB81010C9BCCF80C803240CEF8C8
:10FD50000C7004EB8202C3600D9BCB600BEA0606BD
:10FD60000E9BD36004EB86040F9BE36003B0BDE8F9
:10FD7000F08F01215B4661F301036BF382030521E0
:10FD80002A4061F3C503064904EB82026BF3891331
:10FD9000013561F39F232560D3609EE79421002005
:10FDA0002C7202002DE9F0474C4E96E80C0093426D
:10FDB0008AB070D0B06804E0C4F3891202EB9452A8
:10FDC000134400EA0305023506EB8502013354684B
:10FDD00014F00302F0D0022A28D0C4F38312C4F333
:10FDE000952C002A75D00DF1100E75469F1803EA68
:10FDF000000106EB81010133C96845F8041BBB42D1
:10FE0000F5D10092C4F3C20062467346D6F810449E
:10FE1000324D0021A04738B177603068C01B18BF51
:10FE200001200AB0BDE8F0876F68F6E703F1010A28
:10FE300020EA0A010340013106EB830389004FEAFF
:10FE400094588845DA68DFF894E0C4F3891326D91A
:10FE5000A9B30AEA000C5FFA81F90EEB8C0CC9EB2E
:10FE600008010CF10C0C0EF10C00C9B202900391C8
:10FE7000CDF800C0CDF80490C4F3C2000021D6F83C
:10FE80001474B847404520D006EB850560F38F1405
:10FE90006C607768C1E700200AB0BDE8F08700EA2F
:10FEA0000A000EEB80000C308DE801010021DEF825
:10FEB00014C402910391C4F3C200E047E2E70EF1DB
:10FEC0000C0C08465FFA88F9D0E703300AEB90077C
:10FED000A2E71F460DF1100E93E700BF942100200A
:10FEE0002DE9F84F234B1A788AB3DFF88CB0DFF88E
:10FEF0008C80DFF88C9000244FF0010A03E001347D
:10FF0000E4B2944223D226B2D8F80050DBF8003095
:10FF100015F836000AFA00F1194205EBC607EED0D3
:10FF2000154A23EA0103136002F086FD15F83650E6
:10FF3000D9F800300AFA05F10B4000FA05F18B42BE
:10FF400007D00C4B01341A78E4B29442DBD3BDE8FD
:10FF5000F88F79787B68A1F10101B1FA81F1490943
:10FF6000002BEED0091A2846B1FA81F149099847C9
:10FF7000E7E700BFB4250020DC250020B0250020E5
:10FF8000D825002070B50646114800F07FF940B929
:10FF9000104D01242B68B4401C4203D023EA040412
:10FFA0002C6070BD304602F047FD0B4E326860B1E8
:10FFB00022432B68094932601C432C6004480968BD
:10FFC0000022BDE8704000F0EFB822EA0402F0E73A
:10FFD000B8250020DC250020D8250020AC250020F5
:10FFE000F0B5042A85B0174602D8072005B0F0BD49
:10FFF0000191054602F0EAFB0199002830D01C4C23
:020000022000DC
:10000000DFF888E01B481C4A1C4B256000264C1E6C
:1000100007608EF8001016601E60E4B2032709B96D
:1000200018E01C4623B205EBC30215F833009378A1
:10003000134A8DF80D3003A98DF80C708DF80E6001
:100040008DF80F6002F0CCFB631E0028CED1DBB22E
:10005000002CE6D10B4A0C48002100F079F8C5E7E6
:10006000019102F071FB01990028C8D0BEE700BFE2
:10007000B0250020AC250020D8250020DC2500205C
:1000800085FF0100E1FE010038720200B425002066
:1000900070B5084D2B785BB1074E00243368012101
:1000A00013F8340002F066FC2B780134A342F5D833
:1000B000002070BDB4250020B025002000B585B01B
:1000C00000230390194644F2010001AAADF8043060
:1000D000029300F003F805B05DF804FB08B50120B9
:1000E0000D49FFF7BBFCFFF7B5FCFFF75BFE0028EF
:1000F000FBD10A4B1B68DB0700D5FFDEBFF34F8F38
:100100000749084BCA6802F4E0621343CB60BFF3AF
:100110004F8F00BFFDE700BF3C720200F0ED00E032
:1001200000ED00E00400FA0510B502F03FF9037B92
:1001300003B910BD83680068BDE81040184700BFD0
:10014000024B013018600020704700BFE0250020FE
:1001500070B582B0056822B12B7B2BB1082002B0AC
:1001600070BD072002B070BD6B68002BF6D114463D
:100170000E46102219462846FFF7E4F9321C084BB8
:10018000AC6018BF0122009306484FF47A712B46E9
:1001900001F01CFF0028686014BF00200E20DEE77D
:1001A00029010200547202002DE9F043344B354C12
:1001B0004768D4F80885D3F8009085B0002F46D062
:1001C000037B15460C460646002B44D108F101037B
:1001D000590809FB04113560B1FBF3F2EFF3058414
:1001E0007CB94FF00208CDF8008038460421234640
:1001F00001F040FF0128054634D0042005B0BDE8D9
:10020000F08304AC002544F8045D3846009523468D
:10021000092101F02FFF0128EFD101F005FB009526
:10022000024623463846062101F024FF0128E4D186
:10023000039B43B1144B4FF080525A6040BFBFF351
:100240004F8FBFF36F8F012333730020D6E7082051
:1002500005B0BDE8F083384602F09CF80028B5D020
:100260000020CBE701F0DAFACDF8008002462946FB
:100270003846234601F0FEFE0128BED1E3E700BF69
:10028000E02500200010014000ED00E042684AB384
:1002900010B5044684B0EFF3058252B902230093EF
:1002A0000321134601F0E6FE012817D0042004B014
:1002B00010BD04AB002243F8042D0821009201F088
:1002C000D9FE0128F2D1039B43B1074B4FF0805276
:1002D0005A6040BFBFF34F8FBFF36F8F0020207372
:1002E00004B010BD0820704700ED00E0F0B4EFF35B
:1002F000108472B60E4B9A68B2B90E4901259D6002
:10030000D1F880700C4D2E463D401D60C1F88060D4
:10031000D1F884505D604FF0FF33C1F88430027033
:1003200004B962B6F0BC704701230370F8E700BF60
:100330008873002000E100E0FC06FFBC094B9A68CE
:1003400072B168B910B4EFF3108272B606491C6836
:100350000C605C684C60986002B962B65DF8044B52
:10036000704700BF8873002000E100E030B50478DA
:10037000012C83B01FD010D3022C0CD1C3682649A6
:100380002648019301228DF8004002F0FDFE244B27
:1003900068461B68984703B030BD2248224900F0E8
:1003A00009F928B302A8032300F8083D1C4B1B6879
:1003B000984703B030BD43681C4D1978284600F0BB
:1003C000E1F8D8B9AA68EB689A4206D002AB144AA1
:1003D00003F8080D126818469047A968EB68AA88C8
:1003E0005B1A9A4212D2124B01221A7003B030BD2E
:1003F0000D490A48012202F001FECCE7084B0190AA
:100400008DF800401B6868469847E6E702490348B4
:10041000012202F0B9FEBEE7EC25002054200020A6
:10042000E8250020F0250020E425002004260020F7
:10043000002600202DE9F047314C88B022600C46A0
:10044000002954D0814609682E48A288984600F0B9
:1004500089F810B108B0BDE8F0872B48A168A289DF
:1004600000F080F80028F5D1284C99F810A099F8F0
:1004700011C0D9F81460D9F80C500FCC6F460FC7D3
:1004800094E80F001AF1000E87E80F0018BF4FF034
:10049000010ED9F80070D9F80430D9F808401C488A
:1004A0001C4A8DF81C80BCF1000F14BF4FF00E0CDD
:1004B0004FF0000C69468DF814E08DF815C00696D3
:1004C000029503948DE8880002F024FC0028C1D135
:1004D000D9F80030104A01331070BBD09DF81D30A0
:1004E0004BB10E490A48012202F04EFEB2E7072046
:1004F00008B0BDE8F087064802F070FFF1E700BFE2
:10050000E825002004260020F02500205872020073
:10051000542000206D03020000260020EC2500205E
:1005200010B501460C4800F02DF8044608B12046ED
:1005300010BD0A4802F01CFE0028F8D10648084900
:1005400000F038F80028F2D1044805490122BDE83E
:10055000104002F053BD00BFF025002054200020C1
:10056000E425002059B10AB909207047531E1A40EA
:10057000FAD1826001608380C260104670470E200D
:10058000704700BF10B48468C26803468088121B9D
:10059000904203D204205DF8044B7047DA681C686F
:1005A00002400020A154DA680132DA605DF8044BA1
:1005B000704700BF03468068DA6890420DD010B4DF
:1005C0009A6898881C6802400020A25C0A709A68A9
:1005D00001329A605DF8044B70470520704700BFF8
:1005E00000F001035A1C10F0020F18BF13465A1CEA
:1005F00010F0040F18BF13465A1C10F0080F18BF54
:1006000013465A1C10F0100F18BF13465A1C10F056
:10061000200F18BF13465A1C10F0400F18BF134686
:1006200003EBD010704700BF38B5430704461CBF2A
:1006300020F00704083401F0E9F80E4B1D689DB165
:100640000D4A136843F6F7711C448C4207D8A34245
:1006500005D21D44146001F083F9284638BD0025F9
:1006600001F07EF9284638BD044D25F007051D60D0
:10067000E6E700BF182600201426002024260020CC
:10068000704700BF024B1868C0F57F503830704784
:100690001426002000F108034FF0FF310022816092
:1006A00080E80C00C3600361704700BF0023036152
:1006B000704700BF43684B609A688A609A685160CF
:1006C00099600861036801330360704730B40D68B6
:1006D0006B1C11D000F1080200E01A4653681C6838
:1006E000A542FAD24B6099608A6051600861036844
:1006F0000133036030BC704702695368F2E700BF02
:1007000042688168036991608268416851605A68F3
:10071000824204BF82685A60002202611868013870
:10072000186070470748006880F3088862B661B6B1
:10073000BFF34F8FBFF36F8F4FF4F07080F31188CA
:1007400000DF00BF00F00100064B19680868B0E840
:10075000F04F80F30988BFF36F8F4FF0000080F3F4
:100760001188704798660020EFF30980BFF36F8F00
:10077000144B1A681EF0100F08BF20ED108A20E9F4
:10078000F04F10604DF8043D4FF0200080F31188C9
:10079000BFF34F8FBFF36F8F01F0D2F94FF000001E
:1007A00080F3118808BC19680868B0E8F04F1EF0A3
:1007B000100F08BFB0EC108A80F30988BFF36F8F69
:1007C000704700BF98660020202383F31188FEE75E
:1007D00030B46FF002034FF08075074C40F8081CEE
:1007E00040F8202C40F8045C40F80C4C40F8243CC5
:1007F00030BC4438704700BFC90702000F4C08B531
:10080000E02384F8223000F059F80D4B0D4A002106
:100810001960D4F8883043F47003C4F88830536802
:1008200043F040435360236943F010032361FFF713
:1008300079FF202383F31188FEE700BF00ED00E07D
:100840001C66002030EF00E0202383F31188024A69
:1008500013680133136070471C660020034A136855
:10086000013B13600BB983F3118870471C660020AD
:1008700000B50F490F4B00220A6083B00968009150
:1008800000991A601B680193019BEFF311832023E9
:1008900083F3118800F0D6FF20B1074B4FF0805250
:1008A0005A6040BF002383F3118803B05DF804FB56
:1008B000001101404011014000ED00E070B5002042
:1008C00001F048FE084D094B094901222026E02489
:1008D0004FF40030C3F80865C3F804232A601A6097
:1008E00081F81143086070BD0810014000100140FC
:1008F00000E100E0F0B5074683B0EFF3108372B675
:100900003D4CA2688AB93D4A0121A160D2F88050CD
:100910003B49084629402160C2F88000D2F8841083
:1009200061604FF0FF31C2F8841003B962B6354DF3
:10093000D5F8046501F04AFA00283BD03248334A22
:10094000B84228BF3846831923F07F43012100278E
:10095000C5F80813C5F840351760136800934FF4C5
:100960008033009AC5F80433BFF34F8F002832D08C
:10097000224B20BFD3F80021D3F804110A43F8D04A
:10098000204A23494FF48033C2F808330025D2F8B7
:1009900004350D6009680191B3424FF00101019DDA
:1009A000C2F8041301D203F180739B1B984228BF45
:1009B0001846F0B9A268104B5AB1EFF3108272B624
:1009C0000E4918680860586848600021996002B9AB
:1009D00062B603B0F0BD0E4AC5F80833D5F8043549
:1009E000106012680192B342019AC5F80413DAD379
:1009F000E0E700F01FFFDDE78873002000E100E082
:100A0000FC06FFBC00100140FDFFFF00401101404B
:100A10000011014070B506460D4651B300FB01F0D0
:100A20004D30FFF701FE044600F14C0340B3236054
:100A3000E6632564FFF708FF226CE36B2168A16081
:100A400003FB02F39A1A0A440B4400204FF0FF31D3
:100A5000A063E2606164636004F11000A164FFF7C9
:100A600019FE04F12400FFF715FEFFF7F7FE2046FC
:100A700070BD4C20FFF7D8FD044603460028D6D1B0
:100A80000024F4E72DE9F047044684B01D460192A6
:100A90008846FFF7D9FEA26BE36BA64F4FF0000923
:100AA0009A424E4670D3022D00F0EF800198002844
:100AB00000F04281B9F1000F7AD0FFF7CFFE00F0CD
:100AC000A5FEFFF7C1FE636C013308BF6664A36C2B
:100AD000013308BFA664FFF7C1FE02A801A901F017
:100AE0003FF9002840F0E280FFF7AEFEA36BE26B17
:100AF0009A4261D0FFF7B2FEFFF7A6FEA36C002B6F
:100B000014DD636A93B104F1240907E0A36C013B8F
:100B1000A364A36C002B09DD636A3BB1484601F076
:100B2000C5F80028F2D001F04BF9EFE74FF0FF33A2
:100B3000A364FFF793FEFFF787FE636C002B14DDC1
:100B4000236993B104F1100907E0636C013B63640E
:100B5000636C002B09DD23693BB1484601F0A6F820
:100B60000028F2D001F02CF9EFE74FF0FF33636477
:100B7000FFF774FE00F0F4FEFFF766FEA26BE36B76
:100B80009A424FF001098ED2226C002A63D1256867
:100B9000002D00F0F780A36B626A0133A363002A83
:100BA00040F0DF80FFF75AFE012004B0BDE8F08777
:100BB00002A801F0C9F880E704F11009FFF74EFE22
:100BC0004846019900F0E8FFFFF73EFEA36C002BBA
:100BD00014DD636A93B104F1240A07E0A36C013BBE
:100BE000A364A36C002B09DD636A3BB1504601F09E
:100BF0005DF80028F2D001F0E3F8EFE74FF0FF33A3
:100C0000A364FFF72BFEFFF71FFE636C002B06DCCF
:100C10000FE0636C013B6364636C002B09DD2369A7
:100C20003BB1484601F042F80028F2D001F0C8F884
:100C3000EFE74FF0FF336364FFF710FE00F090FE24
:100C4000002899D14FF080537B6040BFBFF34F8F96
:100C5000BFF36F8F90E74146002D74D0E06805F038
:100C6000D7F9236CE26821685B421A448A42E26049
:100C700002D262681344E360022D8CD1A36B002B77
:100C800089D0A36B013BA36385E7226C002A3FF464
:100C90007EAF4146E06805F0BBF9236CE26821684D
:100CA0005B421A448A42E260E3D3E7E7FFF7CCFDF8
:100CB000A36C002B14DD636A93B104F1240507E0F3
:100CC000A36C013BA364A36C002B09DD636A3BB1F9
:100CD000284600F0EBFF0028F2D001F071F8EFE7B2
:100CE0004FF0FF33A364FFF7B9FDFFF7ADFD636C71
:100CF000002B14DD236993B104F1100507E0636C48
:100D0000013B6364636C002B09DD23693BB128461A
:100D100000F0CCFF0028F2D001F052F8EFE74FF0DE
:100D2000FF336364FFF79AFD00F01AFE002004B061
:100D3000BDE8F08700ED00E00090FFF78FFD009820
:100D400004B0BDE8F087A06805F062F9A168236CE3
:100D500062680B449342A360FFF41DAF2368A36055
:100D600019E704F1240000F0A1FF01287FF41AAF75
:100D70000B4B4FF080525A6040BFBFF34F8FBFF311
:100D80006F8F0FE7606801F08FF8A36B626A656090
:100D90000133A363002AE4D10028E9D102E700BFB0
:100DA00000ED00E038B54C20FFF73EFC0446C8B12A
:100DB00000254FF0FF3301228563C2634364456021
:100DC000836405608560C56005641030FFF762FCD0
:100DD00004F12400FFF75EFC204629462A462B46F4
:100DE000FFF750FE204638BDF8B5044617461D46AD
:100DF000EFF31186202383F31188826BC36B9A4231
:100E000005D3022D2DD0002086F31188F8BD026C89
:100E10007AB92568002D4ED0A36B0133A363A36C70
:100E200001333AD0A36C0133A364012086F3118807
:100E3000F8BD2DB3C06805F0EBF8236CE2682168BB
:100E40005B421A448A42E26002D262681344E36061
:100E5000022DE1D1A36B002BDED0A36B013BA3637A
:100E6000DAE7026C002AD4D0C06805F0D1F8236C10
:100E7000E26821685B421A448A42E260E5D3E9E70E
:100E8000806805F0C5F8A168236C62680B44934242
:100E9000A360C1D32368A360BEE7636A002BC4D0FC
:100EA00004F1240000F002FF0028BED0002FBCD0C7
:100EB00001203860A8E7606800F0F6FF6560ABE7E6
:100EC00038B5EFF31184202383F31188826BC36B51
:100ED0009A420CD2836B01338363836C01330AD053
:100EE000836C01338364012084F3118838BD0020B2
:100EF00084F3118838BD436A002BF4D024300D46AA
:100F000000F0D4FE0028EED0002DECD001202860A7
:100F1000EAE700BF2DE9F047044684B09A468846C8
:100F20000192FFF791FCA36BA34E00273D46002BD7
:100F30007AD10198002800F0F380002F00F0DC80C7
:100F4000FFF78CFC00F062FCFFF77EFC636C013362
:100F500008BF6564A36C013308BFA564FFF77EFC7E
:100F600002A801A900F0FCFE002840F0E080FFF795
:100F70006BFCA36B002B40F08480FFF76FFC2368B1
:100F8000002B00F0C58004F124094846019900F0C7
:100F900003FEFFF759FCA36C002B06DC0FE0A36CEB
:100FA000013BA364A36C002B09DD636A3BB1484697
:100FB00000F07CFE0028F2D000F002FFEFE74FF0D7
:100FC000FF33A364FFF74AFCFFF73EFC636C002B82
:100FD00014DD236993B104F1100907E0636C013B50
:100FE0006364636C002B09DD23693BB1484600F064
:100FF0005DFE0028F2D000F0E3FEEFE74FF0FF3394
:101000006364FFF72BFC00F0ABFC38B94FF0805362
:10101000736040BFBFF34F8FBFF36F8FFFF714FCB8
:10102000A36B0127002B84D0226CE5684AB163686A
:10103000A9189942E16024BF2168E160404604F0AC
:10104000E7FFBAF1000F40F0B980A36B2268013BC3
:10105000A363002A00F0C3802369002B00F0B18055
:1010600004F1100000F022FE012840F0AA80524B4B
:101070004FF080525A6040BFBFF34F8FBFF36F8F66
:101080009FE0FFF7EBFBFFF7DFFBA36C002B14DD0A
:10109000636A93B104F1240907E0A36C013BA364E4
:1010A000A36C002B09DD636A3BB1484600F0FEFDEE
:1010B0000028F2D000F084FEEFE74FF0FF33A36486
:1010C000FFF7CCFBFFF7C0FB636C002B18DD236937
:1010D000B3B104F1100907E0636C013B6364636C16
:1010E000002B0DDD23695BB1484600F0DFFD0028D1
:1010F000F2D000F065FEEFE702A800F025FE1FE742
:101100004FF0FF336364FFF7A9FB00F029FC85E78C
:10111000FFF79AFB606800F079FEFFF79FFB32E76C
:101120000090FFF79BFB009804B0BDE8F087FFF745
:101130008BFBA36C002B14DD636A93B104F12405CF
:1011400007E0A36C013BA364A36C002B09DD636A79
:101150003BB1284600F0AAFD0028F2D000F030FE96
:10116000EFE74FF0FF33A364FFF778FBFFF76CFB6B
:10117000636C002B14DD236993B104F1100507E0C3
:10118000636C013B6364636C002B09DD23693BB135
:10119000284600F08BFD0028F2D000F011FEEFE7AA
:1011A0004FF0FF336364FFF759FB00F0D9FB0020D9
:1011B00004B0BDE8F08700BF00ED00E0636AE560C1
:1011C0002BB9FFF74BFB012004B0BDE8F08704F119
:1011D000240000F06BFD00287FF449AFF1E700F038
:1011E000A5FE606038E700BF10B4074B1A682AB14B
:1011F0009A6812B15DF8044B7047012203EBC204F8
:1012000043F832106060F5E79473002038B5044667
:101210000D46FFF719FB636C013304BF00236364C1
:10122000A36C013304BF0023A364FFF717FBA36B78
:1012300023B9294604F1240000F0F8FCFFF704FB71
:10124000A36C002B14DD636A93B104F1240507E05D
:10125000A36C013BA364A36C002B09DD636A3BB163
:10126000284600F023FD0028F2D000F0A9FDEFE7AA
:101270004FF0FF33A364FFF7F1FAFFF7E5FA636C71
:10128000002B14DD236993B104F1100507E0636CB2
:10129000013B6364636C002B09DD23693BB1284685
:1012A00000F004FD0028F2D000F08AFDEFE74FF0D7
:1012B000FF336364BDE83840FFF7D0BA2DE9F84F3B
:1012C0000C9C0B9E81468A46154698462746002C64
:1012D00000F097804820FFF7A7F90446002800F0A7
:1012E0009B80AD002A460763A5213846FEF72AF900
:1012F0009AF80030226B84F83430043D9AF80030BC
:10130000154425F0070553B19AF8013084F83530BB
:101310009AF801301BB19AF8023084F836300A9BF3
:10132000022B28BF0223002704F1040AE362A3630F
:10133000504684F83770E7639B46FFF7B7F904F12E
:101340001800FFF7B3F9CBF103032764A36124610D
:1013500084F844706462284649464246FFF738FAEA
:10136000206006B13460FFF76FFA3F4A3F4D1368C3
:10137000013313602B68002B3CD0DFF82081D8F8B4
:1013800000306BB3DFF818E1394EE36ADEF8000095
:101390003768384A012404FA03FC03EB83034CEA60
:1013A000000C514602EB83003A19CEF800C03260BF
:1013B000FFF780F9FFF752FAD8F80030BBB12B687D
:1013C0000A9ADB6A9A4212D92B4B4FF080525A602C
:1013D00040BFBFF34F8FBFF36F8F2046BDE8F88F3C
:1013E0002B680A9ADB6A9A4228BF2C60CAE720461B
:1013F000BDE8F88F2C601368012B11D0DFF89C80BA
:10140000C0E79000FFF710F9074600287FF462AFAD
:101410004FF0FF30BDE8F88F3846FFF731F9F7E7B6
:101420001448DFF88090154EDFF87080FFF732F92E
:101430001348FFF72FF91348FFF72CF94846FFF739
:1014400029F93046FFF726F90F48FFF723F90F482F
:10145000FFF720F90E48FFF71DF90E4A0E4BC2F8B0
:1014600000901E608EE700BFEC66002098660020AA
:10147000BC6600205866002000ED00E0D466002025
:101480006C660020806600209C660020306600208C
:101490004466002024660020B866002028660020EC
:1014A000F0660020C0660020F8B504463D4EFFF708
:1014B000CBF9002C4ED0251D2846FFF721F930B975
:1014C000E36A394A03EB830152F82120A2B1A36AEF
:1014D0001BB104F11800FFF713F9344F29463846C1
:1014E000FFF7E8F8FFF7BAF933682E4A9C42304B11
:1014F0001B6822D04BB9F8BD2E480121026801FAC1
:1015000003F322EA03030360E1E7FFF79DF92A4BA7
:101510001A6812684AB11A68284BD268D2685268B1
:101520001A60BDE8F840FFF799B9244B4FF0FF323D
:101530001A60BDE8F840FFF791B96BB920493868E7
:10154000096888422BD01F4B1B687BB11E4B0122C0
:101550001A60F8BD3468AEE71C4B4FF080525A60F9
:1015600040BFBFF34F8FBFF36F8FF8BD1649114ACD
:101570000B601368B3FA83F3C3F11F030A4803EB4C
:1015800083039B00C11808334A6852684A600344C9
:101590009A4204BF52684A60D3683360F8BD136052
:1015A000F8BD00BF98660020586600204466002001
:1015B00028660020F0660020246600205C200020C1
:1015C000EC66002094660020F466002000ED00E048
:1015D00000283BD02DE9F0411D4D2B6898420AD0E0
:1015E0000446FFF731F91B4B62699A4205D0BDE80A
:1015F000F041FFF733B9BDE8F081A36A164A934280
:10160000F5D0002BF3D104F10408144F4046FFF746
:1016100077F8E36A3E68124801229A4003EB83039D
:10162000324300EB830041463A60FFF743F82B68F2
:10163000E26ADB6A9A42DAD30A4B4FF080525A6070
:1016400040BFBFF34F8FBFF36F8FD0E7704700BF2E
:1016500098660020446600209C660020F06600200A
:101660005866002000ED00E02DE9F843F020FEF779
:10167000DBFF0546002875D04820FEF7D5FF04465D
:10168000002877D00563A5212846F022FDF75AFFF0
:10169000206B4C4F0025492144224C2304F10408BF
:1016A00084F8341084F8352084F8363000F1EC06E4
:1016B00084F837504046E562A563E563FEF7F6FF20
:1016C00004F11800FEF7F2FF26F0070603232A466E
:1016D0002564A3613C4984F8445030462461646227
:1016E000FFF776F8394B20601C60FFF7ADF8384AF9
:1016F0001368013313603B68002B35D0354E3368D7
:101700001BB93B68DB6A03B93C60DFF8F4C0DFF863
:10171000F4E0E36ADCF80050DEF800202E480124F3
:101720009C4003EB830300EB8300013241462C43D2
:10173000CCF80040CEF80020FEF7BCFFFFF78EF893
:10174000336803B13B6800F0FDFB01280AD1202378
:1017500083F31188214B306000221A60BDE8F84302
:10176000FFF74CB8BDE8F8833C601368012B06D046
:10177000184ECAE72846BDE8F843FEF781BF164871
:10178000DFF88490164D134EFEF784FF1548FEF7E0
:1017900081FF1548FEF77EFF4846FEF77BFF28468F
:1017A000FEF778FF1148FEF775FF1148FEF772FF4C
:1017B0001048FEF76FFF104A104BC2F800901D60F2
:1017C000A3E700BF98660020551A0200B06600200B
:1017D000EC6600202866002058660020B4660020D1
:1017E000D46600206C660020806600209C66002085
:1017F000306600204466002024660020B866002081
:10180000F0660020BC660020C0660020024A136813
:1018100001331360704700BF94660020014B1868C5
:10182000704700BFB4660020014B1868704700BFC6
:10183000B4660020024A136818441060704700BF65
:10184000B46600202DE9F04F3A4B1B6883B0002BA3
:1018500043D1394B1A6801321A601F68002F4AD0F1
:10186000364B01931B689F423BD3DFF8E480344E34
:10187000DFF8E890C246002525E0DAF80030DB68A2
:10188000DC68636804F1040B9F42584622D3FEF7DC
:1018900037FFA36A04F118000BB1FEF731FFE06ACD
:1018A00033680122824000EB80001343594609EB64
:1018B00080003360FEF7FEFE224BE26A1B68DB6AA3
:1018C0009A4228BF0125D8F800301B68002BD4D1DC
:1018D0004FF0FF33019A136004E01B4A1368013391
:1018E00013600025194B1B68002B18BF01252846E3
:1018F00003B0BDE8F08F164B164A186816491468F5
:101900001C6010600A6801320A601A6812683AB9ED
:101910000A4B01931A464FF0FF3313601346A1E7B9
:101920001B68064ADB680192DB685B68136013463C
:1019300098E700BF94660020B46600205C20002079
:10194000F066002098660020E8660020F46600201B
:1019500024660020B866002020660020586600201B
:101960002DE9F84FFEF770FF314B1A68013A1A6003
:101970001B68002B47D12F4B1B68002B43D0DFF88F
:10198000C8B02D4FDFF8C490DFF8C480DA4620E0FD
:10199000DAF80C30DC68251D04F11800FEF7B0FE03
:1019A0002846FEF7ADFEE06A3B6806FA00FE00EB53
:1019B00080004EEA0303294609EB80003B60FEF7F6
:1019C00079FED8F80030E16ADB6A994224BF1B4BEC
:1019D0001E60DBF800300126002BD9D1184C23689B
:1019E0006BB123685BB10125FFF72CFF08B1134BE6
:1019F0001D602368013B23602368002BF4D10F4B4B
:101A00001C68012C05D00024FEF728FF2046BDE805
:101A1000F88F0C4B4FF080525A6040BFBFF34F8F8E
:101A2000BFF36F8FFEF71AFF2046BDE8F88F00BFA7
:101A300094660020EC660020F0660020F46600202A
:101A4000E866002000ED00E09C660020586600205B
:101A5000986600202DE9F04B304E314D314CDFF8C7
:101A6000D880DFF8D890B34607E0236837680133A1
:101A70002360FFF775FF002F34D12B68002BF4D1C2
:101A8000D9F80030012B08D9274B4FF080525A600B
:101A900040BFBFF34F8FBFF36F8F02F07DFD234B2D
:101AA000224A1B68DB6A002BE7D1D9F80030012BF2
:101AB000E3D81F4B1F491B6809681D4F1D485B1A5F
:101AC000012BDAD92368013323601368DB6A33B949
:101AD0003B680068181A012801D9FEF70BFFFFF7D1
:101AE0003FFFCAE7FEF7B0FEDBF80C30DF68381DB9
:101AF000FEF706FED8F80030094A013BC8F800306E
:101B0000074B1B68013B1360FEF7A8FE386BFEF71E
:101B1000B7FD3846FEF7B4FDAFE700BF30660020E2
:101B20002C6600209466002000ED00E098660020FE
:101B30005C200020B4660020EC660020586600207F
:101B4000104B1B68CBB91049104A0B601368B3FAED
:101B500083F3C3F11F030E4803EB83039B00C118FB
:101B600008334A6852684A6003449A4204BF526884
:101B70004A60084BD2681A607047034B01221A6012
:101B8000704700BF94660020F4660020F0660020D5
:101B9000586600209866002038B51D4D2B680C460D
:101BA00003F11801FEF792FD28680430FEF7A8FD46
:101BB00040B92B681749D86A0A680123834022EA92
:101BC00003030B60631C1CD0134A11491368286877
:101BD00012681C44944244600BD3104B1868096887
:101BE0000431FEF773FD0E4B1A68944238BF1C6037
:101BF00038BD0C4B18680968BDE838400431FEF761
:101C000065BD296808480431BDE83840FEF752BD7B
:101C100098660020F0660020B4660020246600204C
:101C20005C200020B86600204466002038B5194DBD
:101C30002B680C4603F11801FEF73CFD28680430C0
:101C4000FEF75EFD40B92B681349D86A0A68012384
:101C5000834022EA03030B60104A0E491368286888
:101C600012681C44944244600BD30D4B18680968F9
:101C70000431FEF72BFD0B4B1A68944238BF1C60F1
:101C800038BD094B18680968BDE838400431FEF7D3
:101C90001DBD00BF98660020F0660020B4660020DD
:101CA000246600205C200020B8660020F8B5C368D8
:101CB000DC6804F118052846FEF722FD1A4B1B6864
:101CC00033BB271D194E3846FEF71AFDE36A356807
:101CD000174801229A4003EB83032A43394600EB5D
:101CE00083003260FEF7E6FC124BE26A1B68DB6A97
:101CF0009A4282BF104B01201860104B1A6812687C
:101D000098BF00204AB90E4B4FF0FF321A60F8BD61
:101D100029460C48FEF7CEFCE6E71A68084BD26865
:101D2000D26852681A60F8BD94660020F066002000
:101D30005866002098660020F46600202466002083
:101D40005C2000209C660020034A044B12681B683C
:101D500080E80C00704700BF20660020B4660020B9
:101D6000F8B50D460446FEF76FFD2B6812495A1C64
:101D700008681BD0114E276832689742626801D00C
:101D800090420ED2871ABB420BD91B1A13443068FB
:101D90000A682B6084E805000025FEF75FFD2846F1
:101DA000F8BD0125FEF75AFD2846F8BD0025FEF7CF
:101DB00055FD2846F8BD00BFB4660020206600200F
:101DC000014B01221A607047F4660020054B1B6826
:101DD0002BB9054B1868B0FA80F040097047002015
:101DE000704700BF9C660020F4660020054B1B680E
:101DF00033B1054B1B68002B0CBF0220002070473D
:101E0000012070472866002094660020002842D0F8
:101E10002DE9F041214CC36A2268D26A934212D262
:101E20008269002A04DB2268D26AC2F1030282615D
:101E30001B4D426903EB830305EB83039A4204D0F5
:101E40002368DB6AC362BDE8F08100F1040807463D
:101E50004046FEF755FCF8B9FB6A124E03EB8302CD
:101E600055F8222032B93268012101FA03F322EA3F
:101E70000303336023683268D86AF8620123834021
:101E8000134300EB80003360414605EB8000BDE862
:101E9000F041FEF70FBC7047024EEBE7986600205A
:101EA00058660020F0660020002838D0F8B5C36BD3
:101EB000C16A826B013B9142C36300D00BB1002029
:101EC000F8BD071D04463846FEF71AFC78B9E36AE8
:101ED0001448154E03EB830250F822204AB93268A9
:101EE000012101FA03F322EA0303336001E00D4804
:101EF0000D4EA36B3268E362012505FA03FCC3F1C2
:101F0000030E03EB83034CEA020200EB8300394625
:101F1000C4F818E03260FEF7CDFB2846F8BD00207B
:101F2000704700BF58660020F0660020044B1A6816
:101F30001AB11968CA6B0132CA631868704700BFCA
:101F400098660020F0B5184C85B0FEF77DFC25683A
:101F50008DB1FEF783FC206858B10223134A009329
:101F60000023019202930393114812495022FFF774
:101F7000A5F905B0F0BD104F104E3846FEF78AFBAC
:101F80003046FEF787FB0E4A0E4B176020202A468C
:101F900010211E60FEF73EFD20600028D9D00A49BE
:101FA000FFF722F9D5E700BF246700202C67002047
:101FB000CD20020080720200FC6600201067002025
:101FC000F866002028670020787202002DE9F04FA3
:101FD00083B0F9B1064628200D4698461746FEF70D
:101FE00023FB0446B0B1DFF88090FEF72DFCD9F852
:101FF0000020A2B1FEF732FC0C9B2660201DA561DB
:10200000E761C4F820806362FEF750FB204603B00E
:10201000BDE8F08F0024204603B0BDE8F08FDFF864
:102020004CB0DFF84CA001925846FEF733FB504607
:10203000FEF730FB09490A4BC1F800B0019AC3F81A
:1020400000A020201021FEF7E5FCC9F800000028C0
:10205000D0D00449FFF7C8F8CCE700BFF8660020ED
:10206000286700207872020024670020FC660020A8
:102070001067002030B5144D2C6885B004B30529D5
:102080008DE8060002900BDCFFF7B0FE02280FD0AF
:102090000022286813466946FEF7F4FC05B030BDFF
:1020A0001A46204669460023FEF79EFE05B030BD65
:1020B0002868089A69460023FEF7E4FC05B030BDA5
:1020C000204605B030BD00BF246700202DE9F04F49
:1020D000AB4DAC4CDFF8B0828BB02B681E68002E85
:1020E0006ED0DB681E68FFF791FBFFF797FBD8F80F
:1020F0000030A54A834207466ED88642106040F2FF
:10210000A480F11B2068FFF781F8FFF729FC40B994
:102110009E4B4FF080525A6040BFBFF34F8FBFF3CA
:102120006F8F00221346206802A9FEF7F3FE0028F5
:10213000D3D0029B002B3BDB049E736913B1301D8F
:10214000FEF7DEFAFFF76AFBD8F8003098428146C6
:1021500023D3029AC8F80090092AE2D801239340B9
:1021600013F4047F40F0D68013F0C70F40F0B68020
:102170009B06D6D53046FEF783FAD2E7DB68DF68E8
:10218000D3F800B007F1040A5046FEF7B9FA7B6AAB
:1021900038469847FB69012B4BD02B681A68002AF8
:1021A000ECD17B4A764912680A60794A1360D0E71D
:1021B000039B049805999847029B002BB1DBBBE772
:1021C000FFF724FBFFF72AFBD8F800306E4A834262
:1021D000074601D8176094E74FF000090EE0DB686E
:1021E000DE68D3F800B006F1040A5046FEF788FA1C
:1021F000736A30469847F369012B0ED02B681A6832
:10220000002AECD1624A5E4912680A60604AC8F846
:1022100000701360FFF7A4FB83E7B3695B445B4581
:10222000514627D97360564B36611868FEF74EFA4F
:10223000E4E7BB695B445B4551462DD97B60504B5D
:102240003F611868FEF742FAA7E7FFF789FB4C4B9E
:102250001B68DB68D3F80C9009F1040A5046FEF7BE
:102260004FFAD9F81C30012B29D0D9F82430484630
:10227000984756E72368002BC0D0CDF81890CDF8CA
:102280001CB00896FFF7B2FD3E49002213460868CD
:1022900006A9FEF7F7FBB1E72368002B3FF47DAFFB
:1022A00000230693CDF81CB00897FFF79FFD354932
:1022B00000221346086806A9FEF7E4FB6DE7D9F88B
:1022C0001830C9F810909A19BA42C9F8042032D9C6
:1022D0002B4B51461868FEF7F9F9C6E7039BB16925
:1022E0003661CA184A4572603AD8C3EB090399426D
:1022F0001BD8736A30469847F369012B7FF411AFFE
:10230000B269039B00211A44009130460B46FFF747
:10231000B1FE06E7039B366109EB03024A45B36150
:10232000726021D8002B3FF4FCAE194B311D1868A8
:10233000FEF7CCF9F5E6BF1BBB421AD82368002B89
:1023400093D000270796CDF820900697FFF74EFD13
:102350000C493A463B46086806A9FEF793FB84E71A
:102360004B4501D99342C4D9311D2868FEF7AEF917
:10237000D7E6074B51461868FEF7A8F975E700BF86
:10238000F8660020246700203067002000ED00E0A0
:102390002867002010B50446FEF756FA6469003439
:1023A00018BF0124FEF75AFA204610BD10B50446A6
:1023B000FEF74AFA246AFEF751FA204610BD00BF24
:1023C0004FF0A043044AD3F80435125CD34003F025
:1023D000010080F0010070478C720200044B195C10
:1023E0004FF0A04201238B40C2F80C35704700BF6C
:1023F0008C720200044B195C4FF0A04201238B4009
:10240000C2F80835704700BF8C7202004FF0A0433D
:1024100010B44FF480204FF400344FF400214FF4F7
:102420008012C3F80845C3F80805C3F80815C3F8B7
:1024300008255DF8044B70474FF0A04310B44FF4EB
:1024400080204FF400344FF400214FF48012C3F881
:102450000C45C3F80C05C3F80C15C3F80C255DF842
:10246000044B7047074B4FF0A041185CD1F804357E
:102470000122824022EA03001340C1F80805C1F896
:102480000C3570478C72020030B44FF0A043032229
:102490004FF400354FF480244FF400204FF48011A6
:1024A000C3F84427C3F84827C3F84C27C3F850277C
:1024B000C3F80855C3F80845C3F80805C3F808155C
:1024C00030BC70474FF0A043044AD3F81035125C7B
:1024D000D34003F0010080F00100704788720200D1
:1024E0000D2809D00E2809D00F2809D0102814BFB4
:1024F0004FF0FF30032070470020704701207047E5
:1025000002207047014B185C704700BF88720200C0
:1025100010B50E4C23780BB1852010BD0C4A6360BA
:10252000E3601068A36010F00100236102D107216D
:1025300000F0E2F803F0A0FC20B94FF08043012244
:10254000C3F8182501232370002010BD3467002034
:1025500000E100E030B5224DAB7883B0044603F0D3
:10256000FF0293B110B143680120984702A80023ED
:1025700000F8043DFDF7BAFEEB689DF80400013356
:10258000EB60FDF7DBFE03B030BD02A800F8052DBF
:10259000FDF7ACFE64B12A6942B1944208D01346FB
:1025A00001E09C4204D01B68002BFAD122602C6110
:1025B000EB6863B90B4A0C491360136801934FF041
:1025C000804202200123019CC2F804030B60EB68E7
:1025D0009DF803000133EB60FDF7B0FE03B030BDA2
:1025E00034670020040100400800004010B51D4B76
:1025F0001A6882B0F2B91C4B1A680AB902B010BD51
:1026000000221A601B6801934FF080430222174C8E
:102610000199C3F8082323690122A270002BEDD091
:102620001A6822615B68012098472369002BF7D163
:1026300002B010BD00221A601B6800934FF0804367
:1026400001220A4C0099C3F80823A3686270002B8A
:10265000D1D01A68A2605B6800209847A368002B5D
:10266000F7D1C8E7000100400401004034670020B2
:1026700000B1704710B5064CA3683BB11A68A26060
:102680005B6800209847A368002BF7D110BD00BFFE
:102690003467002010B582B002A80023144C00F863
:1026A000013DFDF723FE237893B9124A6360E3608E
:1026B0001068A36010F00100236114D003F0DCFB6C
:1026C00020B94FF080430122C3F81825012323705D
:1026D000E3689DF8070001330122E360A270FDF773
:1026E0002DFE02B010BD072100F006F8E6E700BF9E
:1026F0003467002000E100E0002810B418DB00F18E
:10270000604303F561434901C9B283F80013C3B2C2
:102710004009800000F1604000F5614003F01F02B5
:1027200001239340C0F8803103605DF8044B70478B
:10273000C3B2044A03F00F0449012244C9B211761E
:10274000E6E700BFFCEC00E030B51D4C94F85450B7
:1027500083B015B1082003B030BD4FF0FF33FF2226
:102760000620072123636363A363E3632364636435
:10277000A364E36423606360A360E3602361636137
:10278000A361E361236284F850306362A36284F83A
:102790005230E36284F8533084F85120FFF7ACFFE5
:1027A000084B094A1D601B68019301984FF00043D4
:1027B0000121284684F85410C2F8043303B030BD18
:1027C000486700207C61004000600040034B93F8A4
:1027D0005400003018BF0120704700BF4867002038
:1027E000F0B5634C251895F93030002B01DB08203B
:1027F000F0BD91F803E09446BEF1000F56D0236877
:10280000013300F0AD80082600256B1C584F54F8AA
:102810002320013251D0AB1C9E4245D957F82320CA
:1028200001324AD0EB1C9E423ED957F82320013298
:1028300043D02B1D9E4237D957F8232001323CD07C
:102840006B1D9E4230D957F82370013735D0AB1D30
:102850009E4229D954F82320454F01322DD0EB1D3B
:102860009E4221D957F82320013226D005F10803D2
:102870009E4219D957F8232001321ED005F10903D1
:102880009E4211D957F82320013216D005F10A03D0
:102890009E4209D957F8237001370ED00B35AE424E
:1028A00002D9E36A013307D00420F0BD236A013363
:1028B0004ED00C260825A8E70B232618DDB244F8D5
:1028C00023C086F83050BEF1000F02D1234483F8B4
:1028D00048008B78ABB94A784FF0A04600F5E0731A
:1028E000920046F82320CB78ABB96AB2083A144478
:1028F000097894F8502042EA811284F85020184652
:10290000F0BD830003F1A043D3F8002722F00202B8
:10291000C3F80027E7E76BB29B0003F1804303F5A0
:10292000C0430A78D3F8101521F4473121F44071DF
:10293000C3F810151204000202F44031D3F8104518
:1029400000F4F8520A432243C3F810250020F0BDDA
:10295000082685F830603346C4F820C03546B5E710
:10296000002385F83030C4F800C01D46B1E700BF31
:1029700048670020F0B42E4D2E1882B096F8302013
:1029800053B2072B1CDD2B4493F848309B09032BD3
:1029900040D0012B0CBF4FF400314FF44031800088
:1029A00000F1A040D0F8002722F44032C0F8002700
:1029B000D0F800370B43C0F8003702B0F0BC7047C6
:1029C000072AFAD8980000F1804000F5C04003F1D2
:1029D00040029200D0F8104592B202F180420027E6
:1029E00044F0010402F5C042C0F810450197019877
:1029F00017600029E1D096F9302055F82220002AEE
:102A0000DBD001220B4902FA03F3C1F8043302B010
:102A1000F0BC70474FF0A043D3F81035C34013F01B
:102A2000010F14BF4FF440314FF40031B7E700BF3E
:102A300048670020006000404FF0A043D3F81035F5
:102A400023FA00F000F00100704700BF2DE9F047C5
:102A500086B00026A24B01961A68012A00F0328146
:102A6000A04B1A68012A00F01F819F4B1A68012AA7
:102A700000F00C819D4B1A68012A00F0F9809C4BF4
:102A80001A68012A00F0E6809A4B1A68012A00F0C1
:102A9000D380994B1A68012A00F0C080974B1A68BE
:102AA000012A00F0AD80964B1A68012A00F09B8045
:102AB00016F0FF0F1AD0934F01250024A30003F155
:102AC0008043354203F5C0434FEA45050BD0D3F8A8
:102AD000100557F82420D3F81015C0F30420C1F3D3
:102AE000014102B190470134082CE7D1002E02DBEE
:102AF00006B0BDE8F087844D00224FF0FF33A5F10A
:102B0000530702920393814C4FF00008012614F8FA
:102B1000011FFF292BD0C9B221F0C00006AB4FEA3C
:102B2000D00E03EB0E0201F0070312F80CCC06FAEC
:102B300003F31CEA030F1AD007EB000C89099CF978
:102B400030C057F82CC0BCF1000F3CD003293CD05A
:102B50004FEA800E0EF1A04E12F8149CDEF800270A
:102B600019EA030FC2F3014211D1032A36D0AC4255
:102B7000CDD1B8F1000FBBD04FF0A043019AD3F8EC
:102B800010359342B4D0029A01930392BBE7022A14
:102B9000EDD1032904D0BCF1000FE8D0E047E6E70F
:102BA0004FF44039DEF8002722F44032CEF80027F7
:102BB000DEF8003708F1010849EA03035FFA88F8F4
:102BC000CEF80037E7E70329D1D10DF1080A1AF84A
:102BD0000E9049EA03090AF80E90B9E70329DAD101
:102BE0004FF40039DEE700221A601B6805934FF0AE
:102BF000A043059AD3F81035019346F0004657E7F5
:102C0000434AD2F8042312067FF54DAF00221A6022
:102C10001B680493049B46F0800644E73C4AD2F8C4
:102C2000042351067FF53AAF00221A601B68049313
:102C3000049B46F0400631E7354AD2F8042390065B
:102C40007FF527AF00221A601B680493049B46F0AF
:102C500020061EE72E4AD2F80423D4067FF514AFCF
:102C600000221A601B680493049B46F010060BE7D1
:102C7000274AD2F8042315077FF501AF00221A6016
:102C80001B680493049B46F00806F8E6204AD2F835
:102C9000042357077FF5EEAE00221A601B680493E9
:102CA000049B46F00406E5E6194AD2F8042392078D
:102CB0007FF5DBAE00221A601B680493049B46F08C
:102CC0000206D2E61249D1F8041311F0010105D031
:102CD0001E601B680493049B1646C1E60E46BFE6C1
:102CE0000061004004610040086100400C61004048
:102CF0001061004014610040186100401C610040F8
:102D00007C610040486700209B6700209767002097
:102D100000600040F0B50479724E6401331987B049
:102D2000DD7E183315B1082007B0F0BD4D7F1D7151
:102D30000D686B1C0BD04FF0A0470123AB40C7F8C8
:102D400008350B6803F5E073032547F823504B68FB
:102D50005F1C06D003F5E0734FF0A045002745F84F
:102D60002370037906EB43131B7F002B4DD00368C0
:102D70008D69C3F824550F7D4B7D05683B43C5F82D
:102D80006C3503680F684D68C3F80C75C3F81455AB
:102D90000B7D012B00F09B80331905465A600B69AF
:102DA00050483351EAB12B79097F2A6800EB431070
:102DB000037F002B65D1C2F81C31D2F81C712A6840
:102DC0000197019FC2F84431D2F844212B6846484C
:102DD0000092009AC3F80403286840F30730FFF715
:102DE0008BFC2B792A6806EB43131B7F002B44D006
:102DF0000823C2F80035344400200121E075A07595
:102E00002076A076E17607B0F0BD05688F69C5F839
:102E1000247591F814E04D7D07684EEA0505C7F862
:102E20006C550568D1F800E04F68C5F81475C5F811
:102E30000CE50D7D012DAFD18D686F1C05D005F51A
:102E4000E0754FF0A04747F82530CB685D1C0DD0EA
:102E500001254FF0A04705FA03F3C7F80835CB6802
:102E600003F5E073032547F82350CB6805688F68A6
:102E7000C5F80835C5F810758EE70423C2F800358B
:102E8000B9E70023C2F81031D2F810712A6805970B
:102E9000059FC2F82031D2F820712A680497049F58
:102EA000C2F82431D2F824712A680397039FC2F82C
:102EB0004431D2F844212B6802920C48029AC3F89C
:102EC0000403286840F30730FFF716FC89E78B6896
:102ED0005D1CBAD003F5E0734FF0A045002745F81C
:102EE0002370B2E7A06700208000020010030200F8
:102EF000F0B503793D4A04685B01D118097F0029C8
:102F00006DD00021C4F80015D118384C4968B1B112
:102F1000017904EB4114217F002963D10168344C0D
:102F2000C1F808430168334E090B4CB264092034E0
:102F300001F01F01012505FA01F146F8241001797D
:102F4000076802EB4111D7F80C65097FD7F81455D3
:102F50004FF0FF3EA9B3D7F80815D7F81045C7F8CA
:102F60000CE5C7F814E50068C0F808E5C0F810E5FE
:102F7000771C06D006F5E0764FF0A040022740F817
:102F800026706E1C06D005F5E0754FF0A0400226B5
:102F900040F82560651C06D004F5E0744FF0A040B1
:102FA000022540F82450481C06D001F5E0714FF08E
:102FB000A040022440F8214013440022DA765A60EF
:102FC000F0BDD7F80815D7F81045C7F814E5C7F8CD
:102FD0000CE50068C0F808E5C0F810E5C8E7C4F8DB
:102FE000001591E70168044C9AE700BFA067002034
:102FF0008402020000E100E0100302002DE9F0412C
:1030000003795A4D5B01EC1886B0247F44B101F07E
:103010006044B4F1005F03D0102006B0BDE8F08139
:103020002B44DFF848E19F7D1FB1112006B0BDE8B9
:10303000F08199609A759F82067976010EEB060100
:103040000B7F2BBB0268C2F81C31D2F81C4102680E
:1030500005940124059F94600468D1F808C0C4F861
:103060001C31D4F81C310493049B8F8A8B8AD1F8CD
:1030700004E0BFB201331CF807709BB28B82C4F826
:103080001C75BEF1000F33D0002006B0BDE8F08102
:1030900003688A68C3F82071D3F82041036802945A
:1030A000029CC3F85871D3F85841036801948C7D91
:1030B000019FC3F84425C3F84845036801229A607C
:1030C0004B68002BE0D1026801E0002B4CD1D2F814
:1030D0002011D2F85831003318BF01230029F4D051
:1030E000002B0CBF00200F20AB1900229A7594E72B
:1030F0008F7D8B8A01F110029BB2BB4226D20468FD
:1031000004E093889BB2B3F5807F05D0D4F81C31DE
:1031100001F11002002BF4D001F1100293889BB250
:10312000B3F5807FE5D0C4F81CE1D4F81C310393DB
:10313000039BB2F8048093881FFA88F801331CF8C7
:1031400008809BB29380C4F81C85D2E793889BB219
:10315000B3F5807F08D00268D2F81C31002BFBD079
:103160000123D3600020BFE70F20BDE7A067002048
:103170000279044B03EB4213987D003018BF012005
:10318000704700BFA0670020F0B50379924C5B0147
:10319000E51889B02E7F3EB101F06046B6F1005FC0
:1031A00052D0102009B0F0BD6F6827B105684FF408
:1031B0000176C5F80863234403F11006F579DFF8BA
:1031C00018E255BBF271D9601D765D7606797601FD
:1031D000A31918331F79002F47D19B788BB985B974
:1031E0000368C3F82451D3F8242103680492049A95
:1031F000C3F80851D3F80821036803920122039908
:103200001A60A5196B68002B64D003684FF4017233
:103210000020C3F8042309B0F0BD1D7E85B1002F46
:1032200000F0AC8003790EEB431E9EF81C30002B9F
:1032300049D003684FF40472C3F804231120B1E7A6
:1032400019611A760125C1E76F68002FB3D00568B0
:10325000DFF884E14FF404762344C5F8086303F1F2
:103260001006F579002DADD0D7E703680026C3F826
:103270001061D3F8107103680297029FC3F844618C
:10328000D3F8446103680196019EC3F83415C3F86E
:10329000382585B9036801221A6005796D01631923
:1032A0005B68002B6CD003684FF404720020C3F8F5
:1032B000042309B0F0BD0268D2F8003243F02003C5
:1032C000C2F80032E9E703684FF40172C3F804233F
:1032D000112067E70268C2F84431D2F844310593FF
:1032E000059B0168D1F82421D1F80871D1F8443147
:1032F000003218BF0122003318BF012347B9002B49
:1033000035D1002AEED0A3190022DA75032049E74F
:10331000002AF8D16BBBEA7D02B3C1F80831D1F8BD
:1033200008310693069A6F7EEA68D1F81815D155D0
:103330006A7E0132D2B26A7605F1180305F11002F5
:103340005978D7798F42CCD89B780021D171002B46
:103350003CD00368012208461A6023E7C1F808211F
:10336000D1F808310793079BD1F81835E4E7002A14
:10337000C9D1A3190022DA750F2013E7112011E734
:10338000016801E0D3B9EAB9D1F81061D1F844314C
:10339000D1F82421003318BF0123003218BF0122C5
:1033A000002EEFD0002A4FF000012C4414BF032060
:1033B00008468B42E17518BF0F20F3E62C440F201E
:1033C000E675EFE62C440320E375EBE60268012185
:1033D00018465160E6E600BFA0670020114A037955
:1033E00002EB431318331979D9B99B78CBB910B4D0
:1033F000016883B0C1F82431D1F8244101680194F7
:10340000019CC1F80831D1F808310168009301230B
:10341000009C0B60017902EB4112937603B05DF8DA
:10342000044B7047A0670020F0B59B4C237F8FB002
:10343000002B75D1994AD2F80413890548D4974BCB
:10344000D3F80423520704D5D3F80821002A40F00A
:10345000CA80924BD3F81C21C2B1A28AA07D8E49AA
:1034600092B282424FF00002C3F81C2180F0A98082
:10347000D3F81C210692069A888A8A8A8D6880B2BF
:103480000132285C92B28A82C3F81C05834BD3F8C0
:103490004421DAB10022C3F84421D3F84411A27EBA
:1034A00004910499002A40F08980E27D7A4B6AB148
:1034B0000022587ED968DA7501228DF830000B9110
:1034C0008DF828200AA893E8060090470FB0F0BDB9
:1034D000D2F824110029B2D0C2F82431D2F8241134
:1034E000A37E07914FF401710798C2F808130BB936
:1034F00001235360694A02238DF82830D2F88034C2
:10350000C2F88034E07DE2680D9300238DF830002E
:10351000E375237621680B9263680AA8984798E7B9
:103520005E4BD3F82421002A40F09380D3F8101189
:1035300061B1C3F81021D3F8101103910399D3F8A6
:103540003C15E07DC9B2884200F0AA80534BD3F805
:103550004421B2B10022C3F84421D3F84411E07DE4
:10356000019101994C4960B1D3F83C35C8688DF898
:1035700030300123CA750B908DF828300AA80AC98B
:103580009847464BD3F82021002A9FD00022C3F849
:103590002021D3F82011A07D009100993E490028F8
:1035A00094D0D3F84C058B688DF830008A750B9356
:1035B0008DF828200AC90AA8984787E701221A60CF
:1035C00073E7D3F81C310593059B00283FF45EAFE9
:1035D0008B688DF830008A750B938DF828200AC906
:1035E0000AA8984752E7E17D2B4A002970D00021B4
:1035F000C3F80811D3F8081108910899D068517ED2
:10360000D3F818354354537ED17D0133DBB2537662
:10361000627E214B8A427FF41CAF1A7E002A6DD154
:103620009B7E13B91D4B01225A601C4AE0686368F7
:103630004FF40171C2F80813627E8DF83020002526
:1036400001220B902168E5758DF828200AA898477B
:10365000FFE60022C3F82421D3F8241102910221AD
:103660008DF828100299D3F88014C3F880140D91B6
:10367000D3F83C15E368E27522768DF830100B9391
:10368000216863680AA89847044BD3F84421002AAC
:103690003FF477AF5EE700BFA06700200020004046
:1036A000217EF1B1D3F80072E17527F02001E668C0
:1036B0002569C3F8001201238DF830008DF82830F9
:1036C000227621680B96E56063680AA898473DE773
:1036D000C3F80811D3F808210992099AD3F81835CC
:1036E00096E7E268E17501238DF830008DF8283007
:1036F0000B9294E80A000AA8984727E7DE685D7EE7
:103700001869DA7501210022D8601A765A768DF888
:1037100028100B968DF8305093E806000AA89047C1
:1037200097E600BF0220FEF79DBE00BF2DE9F047DF
:103730000D460646FEF7D4FE032804461DD8012D8B
:103740001FD00ED3022D1AD11E4B00EB40041C4497
:10375000657895B11C4B1B687BB12846BDE8F047E6
:1037600018471A48FCF792FD1649194A04EB44031E
:103770000B44155D9B789D42EBD0BDE8F087BDE81A
:10378000F087DFF8408047003B1808EB030218F889
:10379000035053782BB9274447440D4BBA781A5538
:1037A000D7E70C4BDFF830901968084801EB81012E
:1037B00049004A46FCF7F8FC0028ECD189F8006083
:1037C000E9E700BF3C680020F4670020F8670020AC
:1037D000E8670020F0670020C06700207F4B1B686F
:1037E000DB0700D4704770B57D4E7E4D33782C7862
:1037F0009BB9172C10D8DFE804F0666B6B879CB080
:10380000C2AA2415241582313131313151565ECF8F
:103810000C0CFEF711FE2C7070BD00233370FEF708
:10382000F5FDE6E7012318463370FEF71BFE6E4BED
:103830006E481968002201EB8101BDE87040FCF779
:10384000B3BC012318463370FEF70CFE664B674885
:1038500019680022BDE87040FCF7A6BC6448FCF77C
:1038600015FDD4F11104024600F0A180002840F0BB
:103870009E80012C0DD0C8255E4B5B495C480968D1
:1038800005FB04F4A3FB04435B0901FB03F1FCF714
:103890008BFC0220BDE87040FEF7A0BDFEF7B6FD30
:1038A00012232B7070BDFEF7B1FD0020FEF796FDD0
:1038B00013232B7070BDFEF7A9FD0120FEF78EFDCE
:1038C00014232B7070BDFEF7A1FD00232B7070BD7B
:1038D0000020FEF775FD002879D00020FEF78AFD54
:1038E000022C0CBF122328233F4A2C7011683F483A
:1038F00001FB03F10022BDE87040FCF755BCFEF768
:103900009BFD0C232B7070BD0020FEF759FD002895
:1039100056D00020FEF76EFD0822334B334819685D
:1039200003232B7001FB02F1BDE870400022FCF77D
:103930003BBC0020FEF744FD00283DD00020FEF7F0
:1039400059FD2822284B294819680423E9E700205B
:10395000FEF744FD07232B7070BD0020FEF730FDFD
:1039600090B30020FEF746FD1F4B20481968052341
:103970002B7049000022BDE87040FCF715BC002008
:10398000FEF770FD184B1948196806232B700022AA
:10399000BDE87040FCF708BCFEF738FD0020FEF7DC
:1039A0001DFD0120FEF71AFD15232B7070BD0220AE
:1039B000BDE87040FEF71EBDFEF710FD0422C1E712
:1039C000FEF70CFD0222A8E7FEF708FDCCE7FEF7A4
:1039D00005FD022C0CBF0223042385E7C4670020E9
:1039E000EC67002018680020F0670020C8670020FE
:1039F0001C6800201F85EB5110B50078FEF770FDA4
:103A000003280BD8064B00EB40001844407828B13F
:103A1000044B1B6813B1BDE81040184710BD00BF30
:103A20003C680020F4670020FEF74CBD70B5964B53
:103A30001A6812F0010202D11646304670BD934D4D
:103A40002B780446E3B9172C00F21C81DFE814F050
:103A5000E600ED00ED0054006B0082009700460088
:103A60002C001D002C001D00A500AC00AC00AC001B
:103A7000AC00AC00CB00D200DC0039004E004E00A0
:103A800000232B70FEF7C2FCDDE7012318462B70E4
:103A9000FEF7E8FC7E4B7F481968002201EB8101AC
:103AA000BDE87040FCF780BB012318462B70FEF781
:103AB000D9FC774B774819680022BDE87040FCF7C5
:103AC00073BBFEF7A3FC0020FEF788FC0120FEF785
:103AD00085FC714B15221A700026AEE70020FEF718
:103AE0007DFC6D4B07221A700026A6E7FEF7A4FCAA
:103AF000694B00261C70A0E70020FEF761FC00283F
:103B000000F0BC800020FEF775FC08226049624B83
:103B10000968604803241C7001FB02F1BDE8704095
:103B20000022FCF741BB0020FEF74AFC002800F011
:103B30009E800020FEF75EFC28225549564B0968FE
:103B4000544804241C7001FB02F1BDE870400022BF
:103B5000FCF72ABB0020FEF733FC002800F08B8026
:103B60000020FEF747FC4A4A4B4B116849480524A0
:103B70001C7049000022BDE87040FCF715BB002016
:103B8000FEF770FC444B424A4248116806241C7000
:103B90000022BDE87040FCF707BBFEF74DFC3E4B32
:103BA0000C221A70002648E73C48FCF76FFBD4F162
:103BB0001104064650D000284ED1012C0FD0C82544
:103BC000374B33493548096805FB04F4A3FB04234C
:103BD0005B09324601FB03F1FCF7E6FA06460220D8
:103BE000FEF7FCFB29E7FEF711FC2B4B12221A70A3
:103BF000002622E7FEF70AFC0020FEF7EFFB264B2B
:103C000013221A70002618E7FEF700FC0120FEF7C9
:103C1000E5FB214B14221A7000260EE7FEF7F6FB97
:103C20001D4B00221A70164607E70020FEF7C8FB5E
:103C3000B0B10020FEF7DEFB022C0CBF12232823BC
:103C40001349154A09681470124801FB03F1002258
:103C5000BDE87040FCF7A8BA0220FEF7CBFBECE60B
:103C6000FEF7BCFB022C0CBF02230423E8E7FEF79F
:103C7000B5FB042261E7FEF7B1FB74E7FEF7AEFB8C
:103C8000022243E70026D8E6C4670020EC67002044
:103C9000F0670020C8670020186800201C6800201A
:103CA0001F85EB51F0B5224D224E234B2860044670
:103CB00010F0020083B031601A6014D01F4B20480E
:103CC0004FF00E0E0F27102611254A0883F800E04A
:103CD0000421DF709E715D72FCF782F9A0B1E307E9
:103CE0001DD403B0F0BDE20719D41648164A0021CE
:103CF000FCF72EFA0028F4D11448154A012103B02C
:103D0000BDE8F040FCF724BAFCF7C2F90028E6D180
:103D10000146104A1048FCF71BFAE10703D5019051
:103D2000FEF7B2FB01980028DFD003B0F0BD00BF62
:103D3000C4670020F0670020F46700203C68002082
:103D40009872020094720200DD370200B87202001D
:103D500025370200F939020090720200032801D9C8
:103D600007207047012A12D0012917D008D3022951
:103D7000F6D10D4B00EB4000034400205A70704711
:103D8000094B00EB4000034400209A707047012962
:103D900001D00022E8E700F10E02D2B200EB4003AE
:103DA00001490020CA5470473C68002008B5FEF75E
:103DB000A9FB800000F1A0430020D3F8002722F4E3
:103DC0004032C3F80027D3F8002742F44032C3F84A
:103DD000002708BD08B50020FFF7E8FF10B106284E
:103DE00000D008BD0120FFF7E1FF0028F9D0062828
:103DF00008BF002008BD00BF10B50388102B08D0F5
:103E0000112B05D1264B18680138186038B110BD48
:103E100010BD234C206880B10130206010BD02210C
:103E20000122FFF79BFF48B3072827D01D4B1B68D3
:103E3000002BECD0BDE81040184701460122FFF7E7
:103E40008DFF48B1072807D0164B1B6803B1984770
:103E500020680130206010BD012002210722FFF7F9
:103E60007DFF08B10728EFD1002002210422FFF7CF
:103E700075FF0028ECD00728E6D1E9E701200221F0
:103E80000722FFF76BFF08B10728CFD100200146BA
:103E90000A22FFF763FF0028B9D00728C6D110BD5A
:103EA0004C680020486800201A4B10B50C4618607A
:103EB00029B10120FFF7B8FD30B102232370164B62
:103EC000186848B1002010BDFFF7AEFDF8B9124BDD
:103ED000207018680028F5D102210122FFF73EFF6B
:103EE00010B1072800D010BD012002210722FFF7E2
:103EF00035FF08B10728F6D1002001460A22FFF756
:103F00002DFF0028DED0072808BF0020EBE70B2399
:103F10002370D4E7486800204C68002032DF7047E7
:103F200075DF704776DF70477FDF70478ADF704745
:103F30008CDF7047ADDF704764DF70470378012B7B
:103F400001D0022B02D14068FCF7B8B8704700BF1F
:103F500004280ED00A280BD108B50020FFF766FD13
:103F600088B9FFF737FF58B9FFF7D8FF20B908BD68
:103F70007047064802F058B8BDE80840FCF79EB804
:103F8000FCF79CF8F0E7FCF799F8EAE7E07202002A
:103F900008B5FCF777FB064902460320FBF7B6FDA0
:103FA000FBF700FF0028FBD1FDF77EFAF1E700BF29
:103FB000F072020008B50020FDF776FAFBE700BFBB
:103FC00010B542880749044613460320FBF704FE58
:103FD0006088054B214603EB0010BDE8104001F05E
:103FE000FDBD00BF10730200646E002070B500209C
:103FF0008CB0034603214C4AFCF7A2F808B1FCF749
:104000005DF84A4D4A4B01930FCD05AC0FC495E8BE
:1040100003004FF4007384E80300464E02934FF40C
:10402000807405A801A9444A039607230494FCF769
:1040300001FA08B1FCF742F80020FBF7F3FC08B1E5
:10404000FCF73CF8012040F6CD413C4AFFF72AFE40
:1040500008B1FCF733F8002005A9FFF725FF08B1E8
:10406000FCF72CF8364800F0D5FE08B1FCF726F82E
:10407000344B354918680190502201A8334B01F0A8
:1040800001FF08B1FCF71AF80120002105AA01F090
:1040900067FF0446FBF786FE0028FBD114B12046DB
:1040A000FCF70CF8172305A8ADF8243001F070FFD9
:1040B00008B1FCF703F82648264C01F02FFF024612
:1040C00010B1FBF7FBFF0022234B2270059323481E
:1040D00005A901F0C5FD08B1FBF7F0FF23781D4AE3
:1040E0000133DBB22370002BF1D000231C48137086
:1040F000FFF71CFF08B1FBF7E1FF0120FFF796FC7B
:1041000008B1FBF7DBFF03201649174CFBF7A6FCB1
:1041100000210B4620684FF0FF32FCF7FBFE002821
:10412000F6D001F0A1FEF3E758680020BC7202004F
:10413000546B0020606D00203D3F0200513F0200A3
:10414000C13F0200D4720200A06800206D4102004D
:1041500061420200506B0020A9410200646E002001
:10416000E8740200607302005468002000B583B058
:1041700002A9002341F8043D094B1868FCF7A0FE92
:10418000019B43B1074B4FF080525A6040BFBFF3D1
:104190004F8FBFF36F8F002003B05DF804FB00BFAB
:1041A0005468002000ED00E038B50B78022B0D4676
:1041B00028D0032B14D0012B00D038BD498805F13D
:1041C0000A02044601F0DCFD00283CD1204601F043
:1041D000AFFD68BB03201E49BDE83840FBF73EBC7D
:1041E00018461C49FBF73AFC1B48FFF79FFE38BBFB
:1041F0000120FFF71BFC98B903201849BDE838409F
:10420000FBF72CBC0B7A002403B36B68185DFCF73A
:1042100087F90028F9D12B7A0134A342F5D838BDAB
:10422000FBF74CFF03200D49BDE83840FBF716BCF7
:10423000FBF744FF03200649BDE83840FBF70EBCFE
:10424000FBF73CFFD4E7FBF739FFBFE738BD00BF02
:1042500084730200BC730200E87402006073020001
:104260002DE9F04F0388B0F804A0103B87B08046DA
:10427000462B7BD8DFE813F047009B007A00C00094
:104280007A007A007A007A007A007A007A00C9000F
:104290007A00D2007A0029017A007A007A007A0046
:1042A0007A007A007A007A007A007A007A007A003E
:1042B0007A007A007A007A007A007A007A007A002E
:1042C0007A007A007A007A007A007A007A008B000D
:1042D0007A007A007A007A007A007A007A007A000E
:1042E0007A007A007A007A007A007A007A007A00FE
:1042F0007A007A007A007A007A007A007A007A00EE
:104300007A0094008B0003209A495246FBF7FEFB8B
:104310000720FFF78BFB002840F01E81B8F804103F
:10432000954B4FF4187000FB013000F0F5FD04468A
:10433000002840F0088100F0BBFA012800F00F814E
:104340000120FFF773FB08B1FBF7B8FE8B48FFF7BE
:10435000EDFD002840F00A810120FFF767FB08B15E
:10436000FBF7ACFE03208649FBF778FB4046FFF7DE
:1043700043FDBAF1000F07D17F48414600F008FE27
:104380004146804801F096FC07B0BDE8F08F5046EA
:104390001321FFF7C7FD0028E8D0FBF78FFEE5E704
:1043A00050461721FFF7C6FD0028DFD0F5E70320B0
:1043B000754998F808305246FBF70EFC6F48FFF736
:1043C000B5FD002840F0BC800120FFF72FFB08B1AD
:1043D000FBF774FE03206A49FBF740FB0120FFF75F
:1043E00025FB002840F0A98000F062FA0028BDD12A
:1043F0000120FDF7FFFFB9E7002213465046852153
:10440000FFF792FD0028B1D0C7E7007A02289DD0BF
:104410000328ABD15D49FBF721FBA7E7C37DDA0891
:1044200000F11809A2D0002509E0191F012968D957
:10443000063B012B52D901373D44954296D209EBF8
:10444000050319F805705B78991E0129EDD87E08DF
:10445000F1D0AC1C4C444FF0000B01E0B3454CD004
:104460002146022005AAFFF767FD0BF1010B02347C
:104470000028F3D1BDF81430012BEFD19DF8163090
:10448000022BEBD108F108003C49414AFFF750FDEF
:1044900000287FF46BAFFFF7C9FA08B1FBF70EFEF7
:1044A00098F80D0098F80E1098F80B5098F80C40FA
:1044B00098F8092098F80A30029003910095019429
:1044C00003203449FBF7EEFB50E7504608F10801A2
:1044D000FFF726FD00283FF449AF5EE7A91C4944D9
:1044E000102005AAFFF728FD38B9BDF81430012BBC
:1044F00003D19DF81630022BC4D098F81720D208AB
:1045000099E7BE0897D0AC1C4C444FF0000B01E07B
:10451000B345F2D02146022005AAFFF70DFD0BF1AD
:10452000010B04340028F3D1BDF81430012BEFD176
:104530009DF81630022BEBD1A4E7FBF7BFFD53E744
:10454000FBF7BCFD40E7FBF7B9FD112C3FF4F3AEE0
:104550002046FBF7B3FDEEE6FBF7B0FDDEE60020FC
:10456000FFF764FA00283FF401AF16E7FBF7A6FD5A
:10457000F2E600BF1C740200F0680020E87402003C
:1045800060730200646E002060740200A474020074
:10459000D8720200DC730200014B1868FDF718B8EE
:1045A000586D002000B585B0FDF7B2FF002865D139
:1045B000012000210322FCF72DFA324B186000285D
:1045C00058D0012000210322FCF724FA2E4B18605A
:1045D00000284BD00120FCF7E5FB2C4B186000288D
:1045E00040D003232A4A00930023019202930393AD
:1045F000284829494FF48072FCF760FE012802D058
:104600000420FBF75BFD0223244A00930023019260
:1046100002930393224823494FF48072FCF74EFE25
:10462000012802D00420FBF749FD01231E4A009314
:1046300000230192029303931C481D494FF480729A
:10464000FCF73CFE012802D00420FBF737FD194A95
:10465000136943F004031361FDF706F80F20FBF71D
:104660002DFDFBE70420FBF729FDBAE70420FBF74B
:1046700025FDAFE70420FBF721FDA2E7FBF71EFDB8
:1046800096E700BF54680020546D00205C6D002048
:10469000606E0020ED3F0200D474020050680020DC
:1046A000B53F0200D8740200586D0020913F02000F
:1046B000E074020000ED00E02DE9F84F43001F1800
:1046C000DFF880B1FF000BEB07048846E16A01299F
:1046D000164644D034D302293CD1013000EB4000CF
:1046E000656A0BEBC0094FF0000A1DE0126A641BFB
:1046F000B4422346A2EB050428BF33469C42D9F8B6
:10470000040028BF1C4622462844414601F080FC94
:104710000BEB070325441A6A954208BF0025361B98
:10472000A244A0445D6217D00BEB0702936AAB4230
:1047300003F1FF34DAD8126A1344013B5C1BD7E75C
:10474000A16A626A91429CBF246A091901398A1AD6
:10475000964238D94FF0000A5046BDE8F88FA16A5A
:10476000656AA94229D90139226AC5EB010A0344C5
:104770000BEBC30B0BF1200BDBF80450314BB245B4
:1047800028BFB246561B0130B24500EB40003FD374
:1047900003EBC0044146606832462844C6EB0A0574
:1047A00001F036FC606808EB06012A4601F030FC97
:1047B000CBF804505046BDE8F88F226A8C18013CB3
:1047C000C5EB040AD3E703440BEBC30B0BF1200743
:1047D000DBF82040D7F804901A4BC9EB04040130F1
:1047E000A64200EB40001FD303EBC00541466868BA
:1047F00022464844C4EB060901F00AFC686808EB4D
:1048000004014A4601F004FCB246C7F80490A3E74D
:1048100003EBC0034146586852462844554401F012
:10482000F7FBCBF8045097E703EBC0034146586809
:104830003246484401F0ECFB06EB09037B60B246CC
:104840008AE700BFA4730020F8B5134C23780BBB94
:10485000124ADFF858C0124FA3624FF4007E1026B0
:104860006362E362A365E365636502250D49A261A6
:10487000A264C4F81CC0C4F820E0E01DE76426650B
:104880002561656101F01AFC2046074901F016FC1C
:104890002023A371F8BD00BFA4730020F0740200B0
:1048A000746E0020FC74020000750200846E00200B
:1048B000024B587D9B7D1840FBF792BE8470002010
:1048C0000649074A074B9B1A03DD043BC858D050E2
:1048D000FBDC00F013F8FAF7C1FD000020790200BC
:1048E000E81F002074200020FEE7FEE7FEE7FEE759
:1048F000FEE7FEE7FEE7FEE7FEE7FEE7F0B5A44BC6
:104900001B78062B1AD0A34AD2F8883043F47003E0
:10491000C2F88830BFF34F8FBFF36F8F4FF0102373
:10492000D3F80022002AC0F20281D3F80432002B0F
:10493000C0F2FD80984B994A1A60F0BD984B1B68F5
:104940001E07E0D1974B1B6803F0F003302B62D0B9
:10495000944B1B6803F0F002302A4BD003F0E003C5
:10496000402B47D08F4B1B6803F0F003302B00F037
:10497000CF808C4B1B6803F0F002302A28D003F064
:10498000E003402B24D0874B1B6803F0F003302B4F
:1049900000F0B080834B1B6803F0F003302B00F075
:1049A0009080804B1B6803F0F003502B37D07D4B79
:1049B0001B6803F0F002302A03D003F0E003402B21
:1049C000A1D1794B794A1B6803F04F0313609AE732
:1049D0006F4B1B784FF080420021062BC2F80C1160
:1049E000C2F81011C2F838158DD16D4B1B6818072D
:1049F00089D1C8E76E4B664A1B6812786D49C3F3CC
:104A00004233062A0B607FF47EAF654B1B681D079F
:104A10007FF479AFA6E7684B684A1A6098E74FF0D1
:104A20008052674BD2F80414C3F82015D2F808144A
:104A3000C3F82415D2F80C14C3F82815D2F81014B2
:104A4000C3F82C15D2F81414C3F83015D2F8181482
:104A5000C3F83415D2F81C14C3F84015D2F820144A
:104A6000C3F84415D2F82414C3F84815D2F8281412
:104A7000C3F84C15D2F82C14C3F85015D2F83014E2
:104A8000C3F85415D2F83414C3F86015D2F83814AA
:104A9000C3F86415D2F83C14C3F86815D2F8401472
:104AA000C3F86C15D2F84424C3F87025384B1B7832
:104AB000062B7FF428AF3A4B1B681B077FF423AF0C
:104AC00075E7334B3F4F1A783F4D4048404B4FF00E
:104AD000050E012600243F21062AC7F800E02E60BB
:104AE000046019607FF40FAF2D4B1B681A077FF429
:104AF0000AAF56E7264B374A1B780321062B116075
:104B00007FF401AF264B1B6819077FF4FCAE41E729
:104B1000314A1F49D368097823F080730629D3608E
:104B2000C4D11F4B1B681C077FF4EDAE21E72B4B54
:104B30000122C3F80425D3F80024002AFBD04FF04B
:104B4000102315222549C3F80022D1F80034002B88
:104B5000FBD04FF0102315222049C3F80422D1F8CE
:104B600000241E4B002AFAD00022C3F80425D3F8F3
:104B70000024002AFBD0BFF34F8F0649184BCA68A8
:104B800002F4E0621343CB60BFF34F8F00BFFDE739
:104B9000E00F00F000ED00E0602000200090D00366
:104BA000E40F00F0E80F00F058020010E40E00409F
:104BB000440200103C05004074C007400DF0ADBA3F
:104BC00000C0004010560040885600401856004073
:104BD00014560040A0050040F0ED00E000E0014068
:104BE0000400FA0594DF704796DF704797DF70473F
:104BF0002DE9F04390F85A3290F8594203EB8307BD
:104C000007EB870700EB87074FF0640C0CFB03FCF6
:104C100097F804E004EBC4030CEB4303661C034465
:104C2000764583B003F10A053CD0744538BF0EF1D8
:104C3000FF382DD2661C06EBC6030CEB4303A045E0
:104C400000EB030913D02C89B9F810500134AC42A1
:104C500017D0013DADF80650ADF8044000230B70AD
:104C6000104601A9FFF7C2FF03B0BDE8F0832B890E
:104C70003C89A34212D00133ADF80430ADF80640B0
:104C8000ECE709F10A05F4B2A64580F85942D1D8FB
:104C9000012300200B7003B0BDE8F083002508F16C
:104CA0000106F0E72B8938898342F1D00133ADF852
:104CB0000430ADF80600D1E72DE9F043504E90F8EE
:104CC0005C3232680133DBB293429BB004460F463C
:104CD00080F85C3209D34B4B032100225F801970AE
:104CE00080F85B221BB0BDE8F08390F85A52DFF8E1
:104CF0001C8145490135EDB205EB850303EB8303C8
:104D00009B0058F8250084F85A52E2184FF0000929
:104D100084F85992E05082F80490E25A03203B460E
:104D2000FAF75AFF642202FB054238460121FFF7D9
:104D300059FF0028D6D0326884F85B9294F85A3232
:104D40006AB303EB830303EB83039B00E11898F83A
:104D5000025089788D4227D0012A20D998F8065030
:104D60002A4E8D4246D0022A19D098F80A50274E72
:104D70008D423AD0032A12D098F80E50234E8D421D
:104D80002ED0042A0BD098F81250204E8D4222D0FB
:104D9000052A04D098F816201C4D8A4216D0194BCB
:104DA00003225F801A709DE7B8F80060E55AAE42B2
