:020000021000EC
:10F000000000012071D6020099D602009BD60200B2
:10F010009DD602009FD60200A1D60200000000008B
:10F02000000000000000000000000000492802006D
:10F03000A5D602000000000069280200A9D602003F
:10F040005D480200ABD602008D550200ABD602002F
:10F05000ABD60200ABD60200BD4C0200ABD602001C
:10F06000ABD60200ABD60200ABD60200ABD6020094
:10F07000ABD60200ABD60200ABD60200ABD6020084
:10F08000ABD6020071290200ABD60200ABD602005B
:10F09000ABD60200ABD6020085EF0200ABD6020071
:10F0A000ABD60200ABD60200ABD60200ABD6020054
:10F0B000ABD60200ABD6020000000000000000004A
:10F0C000ABD60200ABD60200ABD60200ABD6020034
:10F0D000ABD60200ABD60200ABD6020000000000A7
:10F0E0000000000000000000000000000000000020
:10F0F0000000000000000000000000000000000010
:10F1000000000000000000000000000000000000FF
:10F1100000000000000000000000000000000000EF
:10F4000010B5054C237833B9044B13B10448AFF35E
:10F4100000800123237010BD304400200000000054
:10F4200000090300084B10B51BB108480849AFF3A9
:10F4300000800848036803B910BD074B002BFBD0C0
:10F44000BDE81040184700BF00000000000903009D
:10F45000344400201C44002000000000154B002B09
:10F4600008BF134B9D46A3F5803A00218B460F46FB
:10F470001348144A121A00F065F80F4B002B00D005
:10F4800098470E4B002B00D0984700200021040025
:10F490000D000D48002802D00C48AFF3008000F0AA
:10F4A0002BF82000290008F069F800F011F800BFDF
:10F4B0000000080000000120000000000000000023
:10F4C000304400205CB0002000000000000000007C
:10F4D00008B5074B044613B10021AFF30080054B7C
:10F4E0001868836A03B19847204600F033F800BFDC
:10F4F00000000000ACFA020070B50E4B0E4CE41A8E
:10F50000A41000251E46A54204D056F82530984781
:10F510000135F8E710F0BCFA084C094BE41AA410C6
:10F5200000251E46A54204D056F8253098470135DF
:10F53000F8E770BD14440020144400201844002053
:10F540001444002002440346934202D003F8011BF6
:10F55000FAE77047FEE700BF2DE9F04F1646C5B049
:10F560001D460C46002900F02781002B00F0F28098
:10F570000A2301930023194604AF4F9B519A20267A
:10F5800003EB020B8A4601980AEB000808F13103ED
:10F59000FB18029307EB0A0300285FD05A4202F0DF
:10F5A0000302824228BF0246062800F2FC80019A2C
:10F5B00007F80A60012A03F1010100F0F280022A33
:10F5C0005E7003F1020100F0EC80032A9E7003F1EB
:10F5D000030100F0E680042ADE7003F1040100F06C
:10F5E000E080062A1E7103F1050140F0E2805E71A1
:10F5F000991D9646019890422ED0019CA01A039026
:10F6000004F1FF3C04388008C2EB0C0C0130BCF163
:10F61000020F4FEA800913D952444FF0203C0128D1
:10F6200007EB020A47F802C005D00228CAF804C056
:10F6300001D0CAF808C0039A91454944CE440BD082
:10F64000019C0E700EF10102944205D90EF1020EDA
:10F6500074454E7000D98E70019A13445A4A02992B
:10F66000D2F800900393DA1C481C03F1330C4F9C32
:10F670000CE002F8036C02F8026C02F8016C033231
:10F68000624500F8016C00F1010031D0AB45F0D9C2
:10F69000AC4240F282804E99495D02F8016C4FEA1B
:10F6A000211E5FFA8EFABEF1090F01F00F0ED4BFD2
:10F6B0000AF1300A0AF1370ABEF1090F02F803AC69
:10F6C00094BF0EF1300E0EF1370E09EB010A02F86D
:10F6D00002EC9AF801E003321EF0970F08BF2E21CA
:10F6E000624500F8011C05F1010500F10100CDD1D2
:10F6F000039B4F94029C354908F143000D224FF0C3
:10F700000A09227484F81190384483F83060042286
:10F710000FF07CFD4F9B08F1470A54464FF000085C
:10F720009A4607EB08012246002008F037F880448B
:10F73000241A10B9B9F1010901D0002CF1D1AB455F
:10F74000CDF83CA14FF0000A3FF61DAF284645B06A
:10F75000BDE8F08F04AF1D49042238460FF056FD76
:10F7600023681B4A05A84FF480710FF05BFD002849
:10F77000ECDB0A23041D019330460FF08DFDC228F7
:10F7800028BFC22080463146024638190FF03EFDA0
:10F7900008EB040300251946EFE6291B509B595C32
:10F7A0007BE7964626E7002A7FF402AF1946964685
:10F7B00023E74FF0050E1DE713B1019104AFDCE61E
:10F7C0002C46019504AFD7E710440020B0FA0200A0
:10F7D000B8FA02002DE9F0411646C6B01D460C46A7
:10F7E000E9B106AF5E49042238460FF00FFD2368E9
:10F7F0005C4A07A84FF480710FF014FD00280ADB63
:10F800004C9B041D062B00F2A880DFE803F048584B
:10F8100063707F901400002046B0BDE8F0814C9BDF
:10F82000062B00F29780DFE803F0394853606F80C1
:10F830000400002406AF2A1D92E8041129692B68F0
:10F840006D6904950092039138193246CDF8048011
:10F85000CDF808C0C4F580710FF0E4FC0546002D1A
:10F86000D9DB2819041DB4F5807FD4D806AF3844FD
:10F870003B4904220FF0CAFC0A26002579192246CA
:10F88000002007F08BFF0544241A08B9013E01D07F
:10F89000002CF3D1012046B0BDE8F08100243046B1
:10F8A0000FF0FAFC0319FF2B0546D8D806AB3146FA
:10F8B00018192A460FF0AAFCD1E7002406AF2B68DE
:10F8C00038193246C4F580710FF0ACFC0546C6E726
:10F8D000002406AF6A682B68009238193246C4F5D6
:10F8E00080710FF09FFC0546B9E7002406AF6A68F7
:10F8F000A9682B680092019138193246C4F58071CD
:10F900000FF090FC0546AAE7002406AF6A68A968D4
:10F910002B68ED6802950092019138193246C4F5C2
:10F9200080710FF07FFC054699E7002406AF6A68F6
:10F93000E9682B68D5F808C02D69039500920291FB
:10F9400038193246CDF804C0C4F580710FF06AFC56
:10F95000054684E70020042488E7002581E700BFEE
:10F96000B0FA0200B8FA020070B5074C074D2378D0
:10F97000064613B12B78834204D007F0D7FF01234A
:10F980002E702370002070BD4D4400204C44002098
:10F9900000487047D5F701000048704759F501004D
:10F9A00038B50020FFF7E0FF044668B9FFF7F0FF25
:10F9B0000546FFF7F1FF054BFF22C3F810541C600A
:10F9C0005C60C3F814049A60204638BD504400209F
:10F9D0000120FFF7C9BF00BF2DE9F04383B002ABA0
:10F9E0004FF0000903F8019D254C074618460E46C6
:10F9F000A56800F0BFFCA2686368D4F800801344D7
:10FA00000133C8EB0303012B07D80BBB9DF807009C
:10FA100000F0D8FC03B0BDE8F08308F101039DF8C5
:10FA20000700236000F0CEFC0122002362F30103F3
:10FA300069F3820308EA050567F3C50304EB85044F
:10FA400069F3891366F39F23E36003B0BDE8F08395
:10FA500001214B4661F3010369F38203052161F340
:10FA6000C50302EA0802074904EB820269F389131D
:10FA700008F1010561F39F232560D360C6E700BF4D
:10FA800050440020C0FA02002DE9F04782B002ABDA
:10FA90004FF0000903F8019DDFF8B48007461846CF
:10FAA00015460E46D8F8084000F064FCD8F8082047
:10FAB000D8F80430D8F800A013440133CAEB03038C
:10FAC000022B07D853BB9DF8070000F07BFC02B067
:10FAD000BDE8F0870AF102039DF80700C8F800307E
:10FAE00000F070FC0122002362F301030AEB020123
:10FAF00069F3820367F3C5030AEA040A0C4008EBC2
:10FB00008A0A62F3891308EB840866F39F23CAF814
:10FB10000C30C8F80C5002B0BDE8F08701214B460C
:10FB200061F3010369F38203052161F3C50302EA6E
:10FB30000A02064808EB820269F389130AF10101FF
:10FB400060F39F23C8F80010D360BCE7C0FA02003E
:10FB5000504400202DE9F04F83B002AD4FF0000A71
:10FB600005F801AD2C4C8146284617461E468846AE
:10FB7000A56800F0FFFBA2686368D4F800B01344E6
:10FB80000133CBEB0303032B07D873BB9DF80700AE
:10FB900000F018FC03B0BDE8F08F0BF103039DF8F3
:10FBA0000700236000F00EFC0122002362F3010332
:10FBB0000BF102006AF382035A4469F3C503022180
:10FBC0000BEA050B2A40054004EB8B0B04EB820289
:10FBD00061F3891304EB850468F39F23CBF80C30A1
:10FBE000D760E66003B0BDE8F08F0121534661F3B2
:10FBF00001036AF38203052161F3C50302EA0B02E4
:10FC0000064804EB82026AF389130BF1010160F3E9
:10FC10009F232160D360B9E750440020C0FA02005E
:10FC20002DE9F04F83B002AE4FF0000A06F801ADA7
:10FC3000314C8146304617461E46A568884600F07E
:10FC400099FBA2686368D4F800B013440133CBEB8E
:10FC50000303042B07D8BBBB9DF8070000F0B2FBE1
:10FC600003B0BDE8F08F0BF104039DF8070023609B
:10FC700000F0A8FB0122002362F301036AF3820370
:10FC80000BEB02010BF1030E0BF1020269F3C5034A
:10FC900003200BEA050B04EB8B0B60F3891368F36D
:10FCA0009F2329402A400EEA0505CBF80C3004EBCF
:10FCB000810104EB82020C9BCF6004EB8504D660CB
:10FCC000E36003B0BDE8F08F0121534661F3010307
:10FCD0006AF38203052161F3C50302EA0B020748B8
:10FCE00004EB82026AF389130BF1010160F39F2395
:10FCF0002160D360B0E700BF50440020C0FA02008A
:10FD00002DE9F04F83B002AD4FF0000B05F801BDB7
:10FD1000394C8246284690461F46A668894600F020
:10FD200029FBA26863682568134401335B1B072B1A
:10FD300008D8002B4BD19DF8070000F043FB03B01F
:10FD4000BDE8F08FEB1D9DF80700236000F03AFB43
:10FD50000122002362F301036BF3820305EB020C23
:10FD600005F1060B05F1020EE81C291D6A1D6AF358
:10FD7000C50335404FF0060A04EB85050CEA060C76
:10FD80000EEA060E30406AF3891304EB8C0C04EB88
:10FD90008E0E04EB800069F39F233140EB6004EB8F
:10FDA00081010C9BCCF80C803240CEF80C7004EB37
:10FDB0008202C3600D9BCB600BEA06060E9BD360EC
:10FDC00004EB86040F9BE36003B0BDE8F08F0121D4
:10FDD0005B4661F301036BF3820305212A4061F363
:10FDE000C503064904EB82026BF38913013561F305
:10FDF0009F232560D3609EE750440020C0FA020094
:10FE00002DE9F0474C4E96E80C0093428AB070D032
:10FE1000B06804E0C4F3891202EB9452134400EA80
:10FE20000305023506EB85020133546814F0030222
:10FE3000F0D0022A28D0C4F38312C4F3952C002AF0
:10FE400075D00DF1100E75469F1803EA000106EB00
:10FE500081010133C96845F8041BBB42F5D100920A
:10FE6000C4F3C20062467346D6F81044324D0021F6
:10FE7000A04738B177603068C01B18BF01200AB0B6
:10FE8000BDE8F0876F68F6E703F1010A20EA0A018E
:10FE90000340013106EB830389004FEA94588845FB
:10FEA000DA68DFF894E0C4F3891326D9A9B30AEA23
:10FEB000000C5FFA81F90EEB8C0CC9EB08010CF118
:10FEC0000C0C0EF10C00C9B202900391CDF800C0E9
:10FED000CDF80490C4F3C2000021D6F81474B847DA
:10FEE000404520D006EB850560F38F146C60776881
:10FEF000C1E700200AB0BDE8F08700EA0A000EEB77
:10FF000080000C308DE801010021DEF814C402915C
:10FF10000391C4F3C200E047E2E70EF10C0C08467F
:10FF20005FFA88F9D0E703300AEB9007A2E71F4693
:10FF30000DF1100E93E700BF504400202DE9F84F5B
:10FF4000234B1A788AB3DFF88CB0DFF88C80DFF8A7
:10FF50008C9000244FF0010A03E00134E4B2944293
:10FF600023D226B2D8F80050DBF8003015F836005E
:10FF70000AFA00F1194205EBC607EED0154A23EA4A
:10FF80000103136004F090FE15F83650D9F80030E4
:10FF90000AFA05F10B4000FA05F18B4207D00C4B31
:10FFA00001341A78E4B29442DBD3BDE8F88F797853
:10FFB0007B68A1F10101B1FA81F14909002BEED072
:10FFC000091A2846B1FA81F149099847E7E700BFC5
:10FFD00070480020984800206C4800209448002079
:10FFE00070B50646114800F095F940B9104D01244E
:10FFF0002B68B4401C4203D023EA04042C6070BD7B
:020000022000DC
:10000000304604F051FE0B4E326860B122432B683B
:10001000094932601C432C60044809680022BDE88D
:10002000704000F005B922EA0402F0E774480020AD
:10003000984800209448002068480020F0B5042A21
:1000400085B0174602D8072005B0F0BD01910546DE
:1000500004F0F4FC0199002830D01C4CDFF888E053
:100060001B481C4A1C4B256000264C1E07608EF85E
:10007000001016601E60E4B2032709B918E01C46A0
:1000800023B205EBC30215F833009378134A8DF8B9
:100090000D3003A98DF80C708DF80E608DF80F608F
:1000A00004F0D6FC631E0028CED1DBB2002CE6D1D2
:1000B0000B4A0C48002100F08FF8C5E7019104F0CD
:1000C0007BFC01990028C8D0BEE700BF6C48002027
:1000D000684800209448002098480020E1FF010073
:1000E0003DFF0100D4FA02007048002070B5084DB1
:1000F0002B785BB1074E00243368012113F83400DC
:1001000004F070FD2B780134A342F5D8002070BDB7
:10011000704800206C48002000B585B00023039093
:10012000194644F2010001AAADF80430029300F030
:1001300003F805B05DF804FB70B582B016460546BD
:100140000C4601201449FFF747FC2A4623460120AC
:1001500012490096FFF764FD2A4623460120104904
:100160000096FFF75DFDFFF733FCFFF749FE00281F
:10017000FBD10C4B1B68DB0700D5FFDEBFF34F8FB5
:1001800009490A4BCA6802F4E0621343CB60BFF32B
:100190004F8F00BFFDE700BFD8FA0200F8FA020057
:1001A00038FB0200F0ED00E000ED00E00400FA058D
:1001B00010B504F033FA037B03B910BD83680068FF
:1001C000BDE81040184700BF024B01301860002006
:1001D000704700BF9C48002070B582B0056822B10E
:1001E0002B7B2BB1082002B070BD072002B070BD80
:1001F0006B68002BF6D114460E461022194628468D
:10020000FFF7A0F9321C084BAC6018BF0122009325
:1002100006484FF47A712B4604F010F80028686005
:1002200014BF00200E20DEE7B101020070FB0200C7
:100230002DE9F043344B354C4768D4F80885D3F8A2
:10024000009085B0002F46D0037B15460C4606462D
:10025000002B44D108F10103590809FB0411356052
:10026000B1FBF3F2EFF305847CB94FF00208CDF84F
:10027000008038460421234604F034F8012805465E
:1002800034D0042005B0BDE8F08304AC002544F868
:10029000045D384600952346092104F023F801281F
:1002A000EFD103F079FB009502462346384606213C
:1002B00004F018F80128E4D1039B43B1144B4FF02C
:1002C00080525A6040BFBFF34F8FBFF36F8F01233F
:1002D00033730020D6E7082005B0BDE8F083384628
:1002E00004F090F90028B5D00020CBE703F04EFBD6
:1002F000CDF80080024629463846234603F0F2FF37
:100300000128BED1E3E700BF9C4800200010014057
:1003100000ED00E042684AB310B5044684B0EFF344
:10032000058252B9022300930321134603F0DAFF3A
:10033000012817D0042004B010BD04AB002243F8FC
:10034000042D0821009203F0CDFF0128F2D1039B78
:1003500043B1074B4FF080525A6040BFBFF34F8FFD
:10036000BFF36F8F0020207304B010BD08207047CA
:1003700000ED00E0F0B4EFF3108472B60E4B9A6813
:10038000B2B90E4901259D60D1F880700C4D2E4602
:100390003D401D60C1F88060D1F884505D604FF031
:1003A000FF33C1F88430027004B962B6F0BC704704
:1003B00001230370F8E700BFA8AF002000E100E0D0
:1003C000FC06FFBC094B9A6872B168B910B4EFF330
:1003D000108272B606491C680C605C684C609860BC
:1003E00002B962B65DF8044B704700BFA8AF0020A9
:1003F00000E100E030B50478012C83B01FD010D3A9
:10040000022C0CD1C36826492648019301228DF89D
:10041000004004F06BFF244B68461B68984703B00C
:1004200030BD2248224900F039F928B302A803233D
:1004300000F8083D1C4B1B68984703B030BD43686B
:100440001C4D1978284600F011F9D8B9AA68EB6854
:100450009A4206D002AB144A03F8080D12681846F7
:100460009047A968EB68AA885B1A9A4212D2124B8D
:1004700001221A7003B030BD0D490A48012204F070
:100480006FFECCE7084B01908DF800401B68684672
:100490009847E6E702490348012204F027FFBEE738
:1004A000A8480020EC430020A4480020AC480020CD
:1004B000A0480020C0480020BC4800202DE9F0479B
:1004C000314C88B022600C46002954D0814609681E
:1004D0002E48A288984600F0B9F810B108B0BDE8DF
:1004E000F0872B48A168A28900F0B0F80028F5D168
:1004F000284C99F810A099F811C0D9F81460D9F8CF
:100500000C500FCC6F460FC794E80F001AF1000E85
:1005100087E80F0018BF4FF0010ED9F80070D9F826
:100520000430D9F808401C481C4A8DF81C80BCF1E6
:10053000000F14BF4FF00E0C4FF0000C69468DF801
:1005400014E08DF815C00696029503948DE8880096
:1005500004F018FD0028C1D1D9F80030104A013349
:100560001070BBD09DF81D304BB10E490A480122D6
:1005700004F0BCFEB2E7072008B0BDE8F0870648EB
:1005800004F0DEFFF1E700BFA4480020C0480020CF
:10059000AC48002074FB0200EC430020F50302008D
:1005A000BC480020A848002008B5054800F08CF899
:1005B00000B108BD0348BDE8084000F085B800BFA1
:1005C000C0480020AC48002070B50B4C01460B48D9
:1005D000267800F063F805460EB9284670BD002362
:1005E000074808492370012204F080FE0028F4D057
:1005F000FFF792FD284670BDBC480020C04800208F
:10060000EC430020A848002010B501460C4800F03B
:100610002DF8044608B1204610BD0A4804F05AFEE1
:100620000028F8D10648084900F038F80028F2D12F
:10063000044805490122BDE8104004F091BD00BF07
:10064000AC480020EC430020A048002059B10AB972
:1006500009207047531E1A40FAD1826001608380DE
:10066000C260104670470E20704700BF10B4846807
:10067000C26803468088121B904203D204205DF8B2
:10068000044B7047DA681C6802400020A154DA6805
:100690000132DA605DF8044B704700BF03468068A2
:1006A000DA6890420DD010B49A6898881C680240AD
:1006B0000020A25C0A709A6801329A605DF8044BCF
:1006C00070470520704700BF03460020DA689A6033
:1006D000704700BF033080B240F2FD33984201D929
:1006E0000920704730B4124B1C783CB95D891A89D7
:1006F0002A44024492B2B2F5806F10D31A7C0C4C9B
:1007000012B1072030BC7047658B228B2A4402440B
:1007100092B2B2F5806FF4D20124224600E0224664
:1007200003EB02130C805A89104458810020E9E73A
:100730002C490020F0B543684BB1304A1468A342FD
:1007400005D35268934202D813F0030234D0002339
:10075000DFF8B0E00B804FF0010C4FF6FF75DEF8CC
:100760000470002307F58054C3B15A88033203EBA9
:100770008203A34216D21A68013213D09A881E88C7
:10078000AA42F2D0002EF0D09E6802689642EBD1C9
:100790001B4A4360138903810120F0BD07F1080360
:1007A000A342E8D3BCF1020FA1F800C00EF1100E75
:1007B00021D04FF0020CD2E7114C05892489A542C3
:1007C000C5D105689C68A542C1D10E4C60688342C2
:1007D00005D900F58050834201D2134608E06269D2
:1007E000934208D902F58052934238BF012302D2C6
:1007F0000B800120F0BD0020F0BD00BF2044002090
:100800004C4900202C4900202DE9F04FAF4C256FBA
:10081000EF007E1BB6008FB0A15D4A1E034604EBBD
:10082000060BA046052A00F2FD80DFE802F05130F9
:10083000301D1D03002B59D1DFF8A89299F80C2028
:10084000002A00F0628399F8002089F80C30531ECA
:10085000062B00F2E680DFE813F01703AD029101EA
:100860006C01E4009A02EB02002B40D1C5EB0709B2
:1008700004EB890999F80420012A00F0B183C0F043
:100880009983022A40F0CE8000230A9337E07A1B36
:1008900004EB820202F10800DFF84CE2B0F80A90A3
:1008A0000EEB0919002B40F0AC80037AD9F8042034
:1008B000B9F8080002EB8002062B00F2A683DFE8FD
:1008C00013F07501CE01AE011B020102EE01AB0176
:1008D000002B40F08E809BF80430032B00F24C84F8
:1008E000DFE813F01A010601E400B200062101233B
:1008F00018F806200A93931E012B40F29B800139C1
:10090000052907D8DFE801F02D664F3E31030523A6
:100910008DF824306E4D05F1200655F8043F0BB1DB
:1009200009A89847B542F8D1206F684DC0EBC000C8
:1009300004EB800000211C22FEF704FE636F43B12C
:100940002A6F0132013B02F003026B672A67002B1A
:100950006AD1604A137823F0040313700FB0BDE826
:10096000F08F00238DF82430D4E77B1B04EB830346
:100970000422DB88ADF8303000238DF82420ADF858
:100980003230C7E77B1B04EB83031A46DB8832F85F
:10099000081FADF8303053680B930323ADF83210C5
:1009A0008DF82430B6E77B1B04EB83031A7C18898F
:1009B000DD6899880B95A2F106030222B3FA83F34E
:1009C0005B098DF83430ADF83000ADF832108DF899
:1009D00024209FE77B1B04EB83030122188999885D
:1009E000DB68ADF83000ADF832100B938DF82420A1
:1009F00090E7384A1378012123F0010313700B4666
:100A000076E7D088B9F80A30B9F8082000F1030E6B
:100A10001B1A033B7244A9F80A30A9F808200123E5
:100A200066E706210F2363E70020FFF7EDFE0FB016
:100A3000BDE8F08F284B9BF81660186C5A6C304458
:100A4000921B18645A645AE7DFF8A090234AD9F839
:100A5000001023484FF0000A0223CDF800A001F057
:100A600075FB204BDFF880C05B88D9F80010B9F81F
:100A700004E08BF804A01B010CEB03020CF803A0AC
:100A80005368C9F8003002235160A2F808E0A9F8C1
:100A9000043000283FF462AF7B1B14F823100D4A8A
:100AA000137823F0010313700E2321E7DFF83C9045
:100AB0000B48D9F800100122002301F091FB02221B
:100AC0000023A9F804208BF80430E2E75C490020F9
:100AD000E4490020E4490020D048002098FB0200AF
:100AE000204400204C4900202C490020DC490020F3
:100AF000C44B039319461B78022B00F03A830B7CFE
:100B0000022B00F02283C04A137843F0020323F043
:100B1000010313700121B7E6BC4BBD481968BD4AFB
:100B200000230093022301F011FB01238BF8043012
:100B3000AFE7B9F80220B34BDFF8EC9203EB0212F7
:100B40009389002B00F0C182DFF8C0E2B048DEF8E4
:100B500000104FF0050C00234FF0020A0122AEF8FE
:100B600004A089F800C001F03BFB0346002B3FF4D2
:100B7000F5AE1C2202FB05F2A15CB9E6D9F804200F
:100B8000A2495388B1F804C00968A1484FF0000E8B
:100B9000CDF800E003334FF0030E9BB201EB8C0164
:100BA00089F800E001F0D2FA0346DFE7C5EB070A57
:100BB0004FEA8A0A04EB0A0C0023114600930CF159
:100BC000040201239248CDF80CC001F0BFFADDF811
:100BD0000CC002238CF8103000283FF4BFAE8E4BBF
:100BE00013F80A100E23781B04EB8000B9F80A20D2
:100BF000B0F806E0B9F808000EF1030CCEEB0202E3
:100C000041F61D5E6044033A7345A9F80800A9F84F
:100C10000A203FF439AE6BE641F61D53E3E7C5EB1E
:100C2000070A4FEA8A0A04EB0A00002302F10801CE
:100C3000009300F10C020123754801F087FA04EBE0
:100C40000A0375499A7D002A14BF032201221A74EF
:100C500000283FF483AE11F80A100E23C3E77B1B74
:100C60004FEA830C04EB0C0A0AF1080A0023111D59
:100C70000093524601236648CDF80CC001F066FA95
:100C8000DDF80CC014F80C1003290CBF0523062353
:100C90008AF8083000283FF461AE0E23A3E75F4BCB
:100CA0005B4859685E4A00230093012301F04EFA25
:100CB000002800F027827B1B9B00E2180620E15CE5
:100CC0001074EAE77B1B4FEA830A04EB0A01534BDB
:100CD000896919604FF0000E184609A90392C3F8FC
:100CE00004E0FFF727FD039A00287FF45FAF4A4B2B
:100CF00013F80A100A23FBE5DFF830E1DEF8443090
:100D00000393002B00F07F81DEF8401040485EF82E
:100D1000311006917B1BDEF8401004EB830303F1D6
:100D2000100A013104910399BAF804C005930139FE
:100D3000DEF84030CEF8441002EB8C01049A0EEB42
:100D4000C30302F0070CCEF840C04FF0000E07932B
:100D5000069A9B88CDF800E001F0F8F9079A9AF816
:100D600006309188BAF80420013B0A44DBB2AAF8A5
:100D700004208AF8063013B9059A01231374002859
:100D80003FF4ECAD7A1B0E2314F822102BE7B9F8D0
:100D900002301C4A03921B011A440023516800933D
:100DA000062389F800301A481E4A022301F0CEF9C2
:100DB0000346DBE6D9F80430B9F802E0002B00F076
:100DC000BB81104A039211464FEA0E1E5A887144A5
:100DD0000332496803EB820201F58050824280F0C1
:100DE00085801368013318BF4FF6FF7C7ED093884F
:100DF000B2F800A0634570D0BAF1000F6DD0C9F809
:100E00000420BDE62C490020E4490020DC490020F4
:100E100020440020A0FB02005C4900202049002063
:100E200094FB020098FB02004C490020D0480020AF
:100E3000B74BB8481968B84A4FF0000E4FF0070C8E
:100E4000CDF800E00223C9F804E089F800C001F001
:100E50007DF903468AE6B14BB9F808101A781B7C75
:100E6000B2FA82F2B3FA83F352095B0901314FF00F
:100E7000000E012089F80A2089F80B30A9F8081023
:100E800089F80CE089F8000099F80A30A44A53B1B7
:100E9000A24B03939B890021917223B99F4A927BB5
:100EA000002A40F0A88199F80B309D4A53B19B4B22
:100EB00003939B8B0021D17223B9984B9B7F002B0E
:100EC00040F05C817A1B002314F8221089F800306E
:100ED000A9F80230C9F80430D6E45388033302EB92
:100EE0008302904202D91368013380D1039B73447B
:100EF0009B89002B7FF428AE0122864801F070F90F
:100F00000422034689F8002030E699F80030072BC8
:100F10003AD801A252F823F0570E0200890F0200BE
:100F2000890F02006D0F0200410F0200310E020016
:100F3000310E0200390F0200012389F80030A3E7C7
:100F4000764AB9F80230039211461B01704A1944DF
:100F50001068B2F804E0D1F804C048600220C2F87A
:100F600000C09080A1F808E0039A15E76848D9F816
:100F7000043081885A88B9F802E011440331022212
:100F8000818089F800201CE7013B062B3FF649AD24
:100F900001A252F823F000BF890E0200B50D020035
:100FA0007D0B0200330B0200230A02008F0D0200AA
:100FB000310E02000EA8D9F80C2040F8142D0DF1C6
:100FC00022010A930B930393FFF7B4FB039B0028C2
:100FD0007DD10A237A1B04EB820202211171C5E53F
:100FE000504A1278920712D402234F4803930021EB
:100FF0000822FEF7A7FA039B0A2B7FF4B7AD7B1BF1
:1010000014F8231040E41B68FFDE0F23EBE5DFF844
:1010100018A1BAF804200492012A15D83F4A039275
:10102000CE4605934FF6FF70049B03991B010A46B9
:101030001A44CB5C53B1049B01339BB20122022BB7
:10104000AAF804300492EFD10A23CEE75368DAF805
:101050000090069303F58052B9F1000F68D0B9F8FB
:101060000210033109EB810191422AD20B6801334E
:1010700027D08B88B1F800C083421DD0BCF1000F8F
:101080001AD0BEF806C0CAF800109C458946E3D1C4
:1010900000230093254A1F48012301F057F8BAF8AE
:1010A0000430039A02EB031200284FF001039373FC
:1010B0000CBF00230E239FE74B88033301EB830112
:1010C000D2E7059BCAF80030B5E7516814E70A99E2
:1010D00010488A88A9F80620B1F800E0134A009366
:1010E0000123A9F808E001F031F80C4BBDF82220EB
:1010F00003EB021200284FF001010CBF00230E2366
:10110000917367E77D1B04EB85040623237425E4B4
:10111000DC49002020440020A0FB02002C490020D4
:101120004C490020E4490020D449002094FB0200EF
:10113000069B03F1080197E7304B03934FEA0E1E1D
:101140007344596801F1080246E64FF00109039B18
:101150002B482C4A4FEA09194B444FF0000A5968B2
:10116000CDF800A0022300F0F1FF039B03F809A0D3
:101170008FE44FF00009EAE7012190E401231946CA
:10118000D9F80420A9F8023072B3039B03EB0111D4
:1011900053884968033302EB830201F58050824291
:1011A00018D21368013318BF4FF6FF7E03D111E048
:1011B000136801330ED09388B2F800C0734503D092
:1011C000BCF1000F7FF41BAE5388033302EB8302A4
:1011D0009042EDD801220023094801F001F80422D1
:1011E000034689F80020C1E4039B03EB0111496821
:1011F00001F10802D1E71946C2E700BF2C490020DF
:101200002044002098FB02000846FFF7FDBA00BF0B
:10121000074A1378082B09D010B4591C054C1170DB
:1012200044F8230000205DF8044B70470C20704701
:101230001C490020E84900202DE9F04FAE4F8DB049
:101240003A7800230793089309930A930B93930723
:101250000DD5AA4C04F1200554F8043F07A803B1AA
:101260009847AC42F8D100200DB0BDE8F08F12F0E5
:101270000104F8D142F001023A7000F00BFFA04BDC
:10128000A04A1B681668039403F53F513C3103F1F3
:10129000080C03F580500194A6460291043B4FF6DA
:1012A000FF745A6898498A4203F1040524D003F573
:1012B000805102E0994200F0028153F8042F01327C
:1012C000F8D04FEA0E13914D03220EF1010EEA54AD
:1012D0001FFA8EFE029A91420CF5805C00F5805058
:1012E0000B46DED1874B1E60019B13F0FF0355D1E7
:1012F0000B200DB0BDE8F08F9A6885498A425AD01C
:1013000001318A42D3D1039A002A00F092807F4AA9
:101310004FEA0E1102EB01087E4A126804927B4AE2
:101320004FF0020902F801900EF1010E049A79497A
:10133000C8F804201FFA8EFEA8F808904FF00208A3
:101340000D60A1F80480DA680132654604D1F0E04E
:101350002A68B2F1FF3F16D0AA88B5F80090A242E1
:1013600006D0B9F1000F03D0AA68964238BF1646DE
:101370006A880332904405EB82051FFA88F8A84278
:10138000A1F80480E4D8B8F1020F0CBF04220822AF
:1013900001991143019103F580519BE7062B4AD037
:1013A000013B0A2B5AD8DFE803F084598459875946
:1013B000875981578100554A4FEA0E1802EB0809F8
:1013C0004FF0000A02F808A00221C9F80450A9F859
:1013D0000810DD680135624611D11BE09568AE4208
:1013E00038BF2E4655880335294402EB850289B261
:1013F0009042A9F808100DD9156801350AD09588D2
:10140000B2F800B0A54202D0BBF1000FE6D14FF018
:10141000010AE7E73D4A9044019A88F80EA00EF1D0
:10142000010E42F002021FFA8EFE019203F5805176
:1014300050E7384982E73B78304C43F0020323F011
:1014400001033B7004F1200554F8043F07A803B1E1
:101450009847AC42F8D106E7022305932E4A516F14
:10146000032912D82D4B5B6C082B0ED8136F0B443D
:1014700003F00303C3EBC3039B00D0180124D4542F
:1014800001319DF81430037151673B781A4903F01C
:10149000040202F0FF04002A7FF4E5AE43F00403E7
:1014A00020460B70FFF7B0F92046DDE603230593D5
:1014B000D4E700230593D1E701230593CEE7154B2D
:1014C0001B687BB3114ADFF858904FEA0E1302EB0A
:1014D00003080222C8F804500C4DA8F80820EA546A
:1014E0000EF10108A9F802E01FFA88FE019B43F003
:1014F00001030193EEE600BFE4490020E449002027
:101500002044002018490020DEC0ADDE2C49002018
:10151000FE011EF1DC4900205C490020D04800207B
:101520004C490020044A0223938001231560039351
:10153000DCE704222CE700BFDC49002060B159B190
:1015400030B583B00C460DF106010546FFF7F2F801
:1015500020B90A2003B030BD05207047BDF8062031
:10156000074B686803EB021301219A890A449A81A8
:1015700020606B6800200C336360A97203B030BD3B
:101580002C490020D0B110B582B00DF106010446FF
:10159000FFF7D0F810B90A2002B010BDBDF8062040
:1015A000094B03EB021308339A884AB1A17A39B187
:1015B0000021013A9A800846A172EDE705207047A4
:1015C000062002B010BD00BF2C4900201D4B1B7827
:1015D0009B0702D402231846704740B1CB1C9BB234
:1015E00040F2FD32934205D909231846704705237E
:1015F0001846704770B4144A167886B9558914890C
:101600002C441C44A4B2B4F5806F08D2344602EBDB
:1016100004122B4453810023068041800EE0157C88
:10162000094C55B9658B248B2C441C44A4B2B4F5E9
:10163000806F02D201263446E9E70723184670BCC2
:10164000704700BFE44900202C490020144B1B7850
:101650009B0702D4022318467047E8B10388022B87
:1016600002D904231846704710B40E4A448802EB8E
:1016700003136FF002015A89091BCA4203F10803E0
:101680000CD4033A0021121B5A800B460180418082
:1016900018465DF8044B70470523DCE70423F7E7A1
:1016A000E44900202C4900207C4A137813F0020FF3
:1016B00001D10220704771B12DE9F04F0D88044629
:1016C0004FF6FF70854287B001D0488828B90420C2
:1016D00007B0BDE8F08F0520704708894E68F8B163
:1016E000356815F0030504D018E056F83570BF07CB
:1016F00014D10135A842F8D1354606EBC0060020CA
:10170000AF8808353844B54280B2F9D1C51CADB2B6
:1017100040F2FD36B54204D90920D9E70320D7E7C6
:101720000325DFF888E19EF800C0BCF1000F0AD164
:10173000BEF80A70BEF808603E442E44B6B2B6F554
:10174000806FC0F0A6809EF81060DFF860C14EB9CF
:10175000BCF81A70BCF818603E442E44B6B2B6F518
:10176000806F01D30720B3E701260296B0464FEA07
:1017700008183D440EEB080CADB2ACF80A500E88C8
:101780000F89DFF82C910496D1F804C04E884449A3
:10179000D9F874A009680596414E01315FFA87FBBC
:1017A000BAF1030FCDF80CB00191316060D83D4E15
:1017B000D6F844B0C7F108018B4559D8D9F8701054
:1017C000BDF81480514401F00301C1EBC10189004F
:1017D00009EB010E022509F80150AEF80600019848
:1017E000CEF80C00BDF80800AEF804800025AEF875
:1017F00012000AF1010A0321BDF810809DF80C00C7
:10180000AEF808808EF81600AEF81410AEF80A5044
:101810008EF81050C9F874A0D7B1316C0BEB010EE3
:101820000EF0070E06EBCE0E06F138090CEBC501E3
:1018300003C901350EF108088EE80300CE4514BF38
:10184000C646B646AF421749F0D1486C38444864A2
:101850003CB100211448019D256061600089A1729E
:10186000208103F0040101F0FF0451B100202FE7B3
:10187000C0F57F40FD30C6442844AEF80A00082079
:1018800026E743F0040320461370FEF7BDFF204611
:101890001EE7CDF808C0E04669E700BFE449002034
:1018A00018490020D04800204C4900202C49002035
:1018B0005C49002052B12DE9F04F5B4D2C78A60712
:1018C00085B005D4022005B0BDE8F08F0520704733
:1018D000002900F09280064608884FF6FF73984270
:1018E00004D0B1F802C0BCF1000F03D1042005B050
:1018F000BDE8F08F0F89D1F804E067B1DEF8003061
:1019000013F0030304D07AE05EF83310890776D130
:1019100001339F42F8D1DFF824914449D9F80030CF
:10192000D1F87480B2F800A0B2F802B00133B8F177
:10193000030FC9F8003064D8DFF8F490D9F84420D8
:101940000292C7F108018A425BD8384A3749126FC0
:10195000424402F00302C2EBC2029200511801910C
:1019600008F101081146314ACDF80C804FF0020809
:1019700002F80180019A039910814FF000084FF09E
:101980000300A2F804C0A2F806B0D360A2F812A027
:1019900097759082A2F80A8082F81080234A5167D6
:1019A000E7B1D9F840200299114401F0070209EB90
:1019B000C20209F1380A0EEBC80103C908F1010897
:1019C00002F1080C82E80300524514BF62464A4601
:1019D00047451749EFD14A6C3A444A6436B1002270
:1019E0001449336072600B89B272338104F00403CE
:1019F00003F0FF0683B1002065E7052063E70320BD
:101A000061E70D4B03EB0A1308205A89033ACBEB2D
:101A1000020BA3F80AB056E7304644F004042C70D9
:101A2000FEF7F2FE30464EE7E44900205C49002014
:101A3000D04800204C4900202C49002018490020A3
:101A400050B12DE9F04F694E3578AF0789B005D414
:101A5000022009B0BDE8F08F05207047002900F092
:101A6000B8800A884FF6FF739A4201D04B881BB9A1
:101A7000042009B0BDE8F08F0F894A68B7B1136838
:101A800013F0030305D0A6E052F83340A40740F05A
:101A9000A28001339F42F7D1134602EBC702002711
:101AA0009C88083327449342BFB2F9D10446894643
:101AB00038460DF11E01FEF70DFE0028C9D14C4934
:101AC000DFF83CC10B680193B9F80230B9F808207F
:101AD000DCF874800493019B0292B9F80020039211
:101AE000D9F804E02268BDF81EA0059203F10109AF
:101AF000B8F1030FC1F800906FD83E4A029B516CB9
:101B00000191C3F10803994267D8DCF87010414491
:101B100001F00301C1EBC10189000CEB010B08F1DD
:101B200001034FF003080CF80180ABF80670BDF814
:101B30000C70BDF81010ABF80870029FABF80410E1
:101B4000ABF814800599ABF80A004FF00408CBF805
:101B50000C90ABF812A08BF81670CBF818108BF81D
:101B60001080CCF874303B46E7B1116C019F0F44F4
:101B700007F00707844602EBC70702F1380A0EEBAD
:101B8000CC0103C90CF1010C07F1080887E8030038
:101B9000574514BF4746174663451649EFD14A6C6F
:101BA00013444B640020144BC4F8009060601A8901
:101BB000A07205F00403228103F0FF04002B7FF4E0
:101BC00048AF204645F004053570FEF71DFE20465F
:101BD0003FE705203DE703203BE7084B03EB0A13F3
:101BE00008205A89033AD71B5F8132E7E449002075
:101BF00018490020D04800204C4900202C490020E2
:101C00005C490020F8B51C4A1378990701D40220DA
:101C1000F8BD4FF6FF71884201D10420F8BD174D81
:101C20006C6F032C1ED81649496C08291AD8296FE5
:101C3000214401F00301C1EBC10189006F18661C4A
:101C40004FF0050C03F0040405F801C04FF0010E3D
:101C50002146F88087F804E004F0FF046E6719B1AC
:101C60000020F8BD0820F8BD43F00403204613709F
:101C7000FEF7CAFD2046F8BDE44900205C4900207B
:101C8000D0480020F8B5174A1378990701D40220EC
:101C9000F8BD154C616F03291AD81448406C082808
:101CA00016D8206F124D084400F00300C0EBC000AE
:101CB0002E780131062704F8207061670EB10121EA
:101CC000297303F0040101F0FF0419B10020F8BDED
:101CD0000820F8BD43F0040320461370FEF794FD7E
:101CE0002046F8BDE44900205C490020D04800208F
:101CF0004C4900202DE9F047304C2478A40702D449
:101D00000220BDE8F0879446002A3DD0002B3BD04E
:101D1000B3F80480B8F1010F48D8DFF8A8908A46DC
:101D20004FF6FF7700224FEA081409EB040E19F86A
:101D30000440002C32D11C68002C3AD06588DEF8B3
:101D40000460033504EB850406F58056B44224D2C2
:101D50002568013521D0A5882188BD4217D0B1B1B1
:101D60001C60A5888542E7D125885545E4D1A26845
:101D7000CCF800201A68124BCCF804201B89ACF870
:101D800008300020BDE8F0870520BDE8F0876588B1
:101D9000033504EB8504B442DAD31A6008F1010478
:101DA000A4B2022C9C804FF00108BCD10A20BDE8EF
:101DB000F087DEF8046006F10804C5E7E449002076
:101DC0004C4900202C490020304B1B789B0701D444
:101DD0000220704700293ED0002A3CD02DE9F04770
:101DE000B2F804E0BEF1010F48D8DFF8A8C04FF602
:101DF000FF764FF000084FEA0E130CEB03071CF8B8
:101E00000330002B31D1D2F80090BA46B9F1000F5F
:101E100037D0B9F80230DAF80450033309EB830302
:101E200005F580559D421ED91C6801341BD09C8845
:101E30001F88B44211D087B113601C888442994630
:101E4000E4D19B680B601268114B4A601B890B81BF
:101E50000020BDE8F087052070475C88033403EB61
:101E600084039D42E0D8C2F800800EF1010E1FFAF3
:101E70008EF3022B93804FF0010EBCD10A20BDE8F7
:101E8000F087DAF8045005F10803C9E7E4490020B7
:101E90004C4900202C490020304B1B789B0701D473
:101EA0000220704700293ED0002A3CD02DE9F0479F
:101EB000B2F804E0BEF1010F48D8DFF8A8C04FF631
:101EC000FF764FF000084FEA0E130CEB03071CF8E7
:101ED0000330002B31D1D2F80090BA46B9F1000F8F
:101EE00037D0B9F80230DAF80450033309EB830332
:101EF00005F580559D421ED91C6801341BD09C8875
:101F00001F88B44211D087B113609C8884429946DF
:101F1000E4D19B680B601268114B4A601B890B81EE
:101F20000020BDE8F087052070475C88033403EB90
:101F300084039D42E0D8C2F800800EF1010E1FFA22
:101F40008EF3022B93804FF0010EBCD10A20BDE826
:101F5000F087DAF8045005F10803C9E7E4490020E6
:101F60004C4900202C49002020B119B103680B60B6
:101F7000002070470520704729DF704728DF704731
:101F800070B50C4D696E042911D02B6E0B44032BD8
:101F900088BF043B182202FB035406464B1C204614
:101FA00000216B66FDF7CEFA3460012070BD002081
:101FB00070BD00BF0C4A0020F0B5344B1D7815F001
:101FC000060F85B060D1324A1C46516E176E45F03F
:101FD000020316462370002956D0182303FB07235B
:101FE0001A7A012A05D0022A21D19889FFF7C6FF63
:101FF00014E0D98A9A8A182303FB07630833986888
:102000005B68521AB2F5806F4FEA81010844B4BF91
:1020100092B24FF480621944FFF7AEFF112805D148
:1020200025F0020545F0040525702DE060B3002180
:1020300010226846FDF786FA182303FB076303F1B5
:1020400008011A7A012A0CD0022A12D18B88CA8878
:10205000ADF80A309B1A0122ADF808308DF8002047
:1020600007E09A8A896802910023ADF80C208DF868
:102070000030182303FB07F7F219F3595268019255
:1020800068469B680921984705B0F0BD084A0020C2
:102090000C4A00202DE9F0434FF010235D696B1CC2
:1020A00049D0DFF8A48098F800C01CF0010F3FD1A0
:1020B000DFF890E02248CEEB0000000934D00EEBB0
:1020C0000011734607461A6812B15A6802B1013FFF
:1020D00010338B42F7D13FB300260022194B9146B3
:1020E000F4B206E0596839B10132824203F11003BB
:1020F0000ED019680029F5D1597B494588BFD4B263
:1021000002F1010288BF8946824203F11003F0D137
:10211000240104EB0E0301361A7B5D60BE42A5EB81
:10212000023544F80E50D8D14CF0010C88F800C0AC
:102130000020BDE8F0834FF080535D692D03B0E7C8
:102140003044002020440020084A002030B5214CB3
:102150002578EC0787B012D5044610B11E4884429A
:1021600002D2022007B030BD1C488442F9D24AB1E5
:1021700041B142EA0100800706D00620F2E70120C3
:1021800007B030BD0320EDE72068814201D2052071
:10219000E8E7656801EB83008542F8D30BB90420BA
:1021A000E0E705A8039302920191FFF7E9FE01A978
:1021B0000EC908B90720D5E7059D2C6005980A9C33
:1021C0006C600124C260016183820472FFF7F4FE37
:1021D0000020C7E7084A00202044002030440020A7
:1021E00030B5204C2578EC0787B010D5044610B1E7
:1021F0001D48844202D2022007B030BD1B488442F1
:10220000F9D261B1C1F30B0020B10620F4E701203F
:1022100007B030BD2068814203D20520ECE70320DF
:10222000EAE7656801EB02308542F6D30AB904207B
:10223000E2E705A8039302920191FFF7A1FE01A92D
:102240000EC908B90720D7E7059D2C6005986B607B
:10225000090B0223818102820372FFF7ADFE002089
:10226000CAE700BF084A0020204400203044002074
:1022700020B1034B5B6E0360002070470320704762
:102280000C4A0020C30710D4810710D4420710D491
:10229000030710D4C10610D4820610D4430610D40C
:1022A000C30910D14FF6FF7070470020704701201E
:1022B00070470220704703207047042070470520B4
:1022C0007047062070470720704700BFE8B1E1B1B2
:1022D00010B40488944228D04488944229D0848839
:1022E00094422AD0C48894422BD0048994422CD0A2
:1022F000448994422DD08489944207D0C089904269
:1023000008BF072003D05DF8044B704706202BB1AF
:102310000A780123834013430B70F4E70A78012302
:10232000834022EA03030B70EDE70020002BF5D079
:10233000EEE70120002BF1D0EAE70220002BEDD0E0
:10234000E6E70320002BE9D0E2E70420002BE5D0EC
:10235000DEE70520002BE1D0DAE700BF2DE9F043EE
:102360009DF81C4008B301B3FAB105889D4200F006
:10237000E48045889D4200F0E68085889D4200F01B
:10238000E480C5889D4200F0E28005899D4200F00E
:10239000E08045899D4200F0DE8085899D4206D01F
:1023A000C089984208BF072002D0BDE8F08306200C
:1023B00001238340484200F003009042DBB228BF73
:1023C0001046002C5BD1042A00F2AF8010460D7835
:1023D000DC43E4B2254001280D7000F0B2804D7856
:1023E000022805EA04054D7000F0AB808D780428C2
:1023F00005EA04058D7040F0B480CD782C40CC7097
:1024000004468242D1D0C0EB020EAEF10406551E46
:10241000B6082D1A0136022D4FEA860C1AD900256E
:1024200063F3070563F30F2563F31745084463F36C
:102430001F65ED43A0F104094FF0000859F8047F2F
:1024400008F101082F40B04540F8047BF6D3E6457B
:102450006444AAD00D5DDB43D8B200EA0503651CD5
:10246000AA420B55A1D94E5DA31C9A4200EA06046C
:102470004C5578D9CA5C1040C854BDE8F083042A92
:1024800057D810460C78012844EA03040C7056D043
:102490004C78022844EA03044C7050D08C7804280D
:1024A00044EA03048C705AD1CC781C43CC700546A6
:1024B000824252D0C0EB020EAEF10406541EB608A2
:1024C000241A0136022C4FEA86081AD94FF0000C64
:1024D00063F3070C63F30F2C084463F3174C63F3A7
:1024E0001F6CA0F10409002759F8044F01374CEA8A
:1024F0000404B74240F8044BF6D3C64545443FF4C4
:1025000054AF485D6C1C1843A24248557FF64DAF4E
:102510000E5DA81C824243EA06050D557FF645AFC5
:102520000A5C13430B54BDE8F08300283FF46BAF03
:102530004DE705460028BDD0A4E7002038E7054652
:10254000B6E704465DE7012032E7022030E70320CA
:102550002EE704202CE705202AE7BDE8F0830325B9
:10256000A6E703244DE7BDE8F08300BFD0B10388A0
:1025700093421DD0438893421CD0838893421BD042
:10258000C38893421AD00389934219D04389934256
:1025900018D08389934206D0C389934208BF07238A
:1025A00002D0002070470623194101F00100704756
:1025B0000023F9E70123F7E70223F5E70323F3E715
:1025C0000423F1E70523EFE700293AD012F00103D5
:1025D00030B402D00B8883800123950704D500EB2B
:1025E00043044D88A5800133540704D500EB430410
:1025F0008D88A5800133150704D500EB4304CD88F1
:10260000A5800133D40604D500EB43040D89A580D1
:102610000133950604D500EB43044D89A5800133B1
:10262000540604D500EB43048D89A5800133D209FB
:1026300004D000EB4302C98991800133036030BCB0
:1026400070470160704700BF00F001035A1C10F092
:10265000020F18BF13465A1C10F0040F18BF134680
:102660005A1C10F0080F18BF13465A1C10F0100F18
:1026700018BF13465A1C10F0200F18BF13465A1CDF
:1026800010F0400F18BF134603EBD010704700BF87
:1026900010B5182000F050F8044620B1002340F88F
:1026A000043B00F077F8204610BD00BF70B5064629
:1026B0000C4600F049F9356825EA0404346000F05E
:1026C0004DF9284670BD00BF2DE9F04105460C4686
:1026D00001F054F92B68286905F10C0844EA03015C
:1026E0008045296024D000270CE0114207D0DB018F
:1026F00000D5174341F0007101F02EFC2968A04578
:1027000020460DD090E8180023F07F4213F0806F30
:1027100001EA0206E9D09642E9D0A0452046F1D16F
:10272000FF433940296001F0D3F92868BDE8F08102
:102730004FF0FF37F5E700BF38B5430704461CBF2D
:1027400020F00704083401F019F90E4B1D689DB103
:102750000D4A136843F6F7711C448C4207D8A34214
:1027600005D21D44146001F0B3F9284638BD002598
:1027700001F0AEF9284638BD044D25F007051D606F
:10278000E6E700BF784A0020744A0020844A00200F
:10279000704700BF00F108034FF0FF310022816055
:1027A00080E80C00C3600361704700BF0023036131
:1027B000704700BF43684B609A688A609A685160AE
:1027C00099600861036801330360704730B40D6895
:1027D0006B1C11D000F1080200E01A4653681C6817
:1027E000A542FAD24B6099608A6051600861036823
:1027F0000133036030BC704702695368F2E700BFE1
:1028000042688168036991608268416851605A68D2
:10281000824204BF82685A6000220261186801384F
:10282000186070470748006880F3088862B661B690
:10283000BFF34F8FBFF36F8F4FF4F07080F31188A9
:1028400000DF00BF00F00100064B19680868B0E81F
:10285000F04F80F30988BFF36F8F4FF0000080F3D3
:1028600011887047F88A0020EFF30980BFF36F8F5B
:10287000144B1A681EF0100F08BF20ED108A20E9D3
:10288000F04F10604DF8043D4FF0200080F31188A8
:10289000BFF34F8FBFF36F8F01F05AFA4FF0000074
:1028A00080F3118808BC19680868B0E8F04F1EF082
:1028B000100F08BFB0EC108A80F30988BFF36F8F48
:1028C000704700BFF88A0020202383F31188FEE7B9
:1028D00030B46FF002034FF08075074C40F8081CCD
:1028E00040F8202C40F8045C40F80C4C40F8243CA4
:1028F00030BC4438704700BFC92802000F4C08B5EF
:10290000E02384F8223000F059F80D4B0D4A0021E5
:102910001960D4F8883043F47003C4F888305368E1
:1029200043F040435360236943F010032361FFF7F2
:1029300079FF202383F31188FEE700BF00ED00E05C
:102940007C8A002030EF00E0202383F31188024AC4
:1029500013680133136070477C8A0020034A1368B0
:10296000013B13600BB983F3118870477C8A002008
:1029700000B50F490F4B00220A6083B0096800912F
:1029800000991A601B680193019BEFF311832023C8
:1029900083F3118801F00EF820B1074B4FF08052FD
:1029A0005A6040BF002383F3118803B05DF804FB35
:1029B000001101404011014000ED00E070B5002021
:1029C00001F000FF084D094B094901222026E024AF
:1029D0004FF40030C3F80865C3F804232A601A6076
:1029E00081F81143086070BD0810014000100140DB
:1029F00000E100E0F0B5074683B0EFF3108372B654
:102A00003D4CA2688AB93D4A0121A160D2F88050AC
:102A10003B49084629402160C2F88000D2F8841062
:102A200061604FF0FF31C2F8841003B962B6354DD2
:102A3000D5F8046501F002FB00283BD03248334A48
:102A4000B84228BF3846831923F07F43012100276D
:102A5000C5F80813C5F840351760136800934FF4A4
:102A60008033009AC5F80433BFF34F8F002832D06B
:102A7000224B20BFD3F80021D3F804110A43F8D029
:102A8000204A23494FF48033C2F808330025D2F896
:102A900004350D6009680191B3424FF00101019DB9
:102AA000C2F8041301D203F180739B1B984228BF24
:102AB0001846F0B9A268104B5AB1EFF3108272B603
:102AC0000E4918680860586848600021996002B98A
:102AD00062B603B0F0BD0E4AC5F80833D5F8043528
:102AE000106012680192B342019AC5F80413DAD358
:102AF000E0E700F057FFDDE7A8AF002000E100E0CD
:102B0000FC06FFBC00100140FDFFFF00401101402A
:102B10000011014070B506460D4651B300FB01F0AF
:102B20004D30FFF709FE044600F14C0340B323602B
:102B3000E6632564FFF708FF226CE36B2168A16060
:102B400003FB02F39A1A0A440B4400204FF0FF31B2
:102B5000A063E2606164636004F11000A164FFF7A8
:102B600019FE04F12400FFF715FEFFF7F7FE2046DB
:102B700070BD4C20FFF7E0FD044603460028D6D187
:102B80000024F4E72DE9F047044684B01D46019285
:102B90008846FFF7D9FEA26BE36BA64F4FF0000902
:102BA0009A424E4670D3022D00F0EF800198002823
:102BB00000F04281B9F1000F7AD0FFF7CFFE00F0AC
:102BC000DDFEFFF7C1FE636C013308BF6664A36CD2
:102BD000013308BFA664FFF7C1FE02A801A901F0F6
:102BE000F7F9002840F0E280FFF7AEFEA36BE26B3E
:102BF0009A4261D0FFF7B2FEFFF7A6FEA36C002B4E
:102C000014DD636A93B104F1240907E0A36C013B6E
:102C1000A364A36C002B09DD636A3BB1484601F055
:102C20004DF90028F2D001F003FAEFE74FF0FF333F
:102C3000A364FFF793FEFFF787FE636C002B14DDA0
:102C4000236993B104F1100907E0636C013B6364ED
:102C5000636C002B09DD23693BB1484601F02EF976
:102C60000028F2D001F0E4F9EFE74FF0FF3363649E
:102C7000FFF774FE00F02CFFFFF766FEA26BE36B1C
:102C80009A424FF001098ED2226C002A63D1256846
:102C9000002D00F0F780A36B626A0133A363002A62
:102CA00040F0DF80FFF75AFE012004B0BDE8F08756
:102CB00002A801F081F980E704F11009FFF74EFE48
:102CC0004846019901F070F8FFF73EFEA36C002B17
:102CD00014DD636A93B104F1240A07E0A36C013B9D
:102CE000A364A36C002B09DD636A3BB1504601F07D
:102CF000E5F80028F2D001F09BF9EFE74FF0FF3341
:102D0000A364FFF72BFEFFF71FFE636C002B06DCAE
:102D10000FE0636C013B6364636C002B09DD236986
:102D20003BB1484601F0CAF80028F2D001F080F922
:102D3000EFE74FF0FF336364FFF710FE00F0C8FECB
:102D4000002899D14FF080537B6040BFBFF34F8F75
:102D5000BFF36F8F90E74146002D74D0E0680CF010
:102D600055FA236CE26821685B421A448A42E260A9
:102D700002D262681344E360022D8CD1A36B002B56
:102D800089D0A36B013BA36385E7226C002A3FF443
:102D90007EAF4146E0680CF039FA236CE2682168A6
:102DA0005B421A448A42E260E3D3E7E7FFF7CCFDD7
:102DB000A36C002B14DD636A93B104F1240507E0D2
:102DC000A36C013BA364A36C002B09DD636A3BB1D8
:102DD000284601F073F80028F2D001F029F9EFE756
:102DE0004FF0FF33A364FFF7B9FDFFF7ADFD636C50
:102DF000002B14DD236993B104F1100507E0636C27
:102E0000013B6364636C002B09DD23693BB12846F9
:102E100001F054F80028F2D001F00AF9EFE74FF082
:102E2000FF336364FFF79AFD00F052FE002004B008
:102E3000BDE8F08700ED00E00090FFF78FFD0098FF
:102E400004B0BDE8F087A0680CF0E0F9A168236C3D
:102E500062680B449342A360FFF41DAF2368A36034
:102E600019E704F1240001F029F801287FF41AAFD2
:102E70000B4B4FF080525A6040BFBFF34F8FBFF3F0
:102E80006F8F0FE7606801F047F9A36B626A6560B6
:102E90000133A363002AE4D10028E9D102E700BF8F
:102EA00000ED00E038B54C20FFF746FC0446C8B101
:102EB00000254FF0FF3301228563C2634364456000
:102EC000836405608560C56005641030FFF762FCAF
:102ED00004F12400FFF75EFC204629462A462B46D3
:102EE000FFF750FE204638BDF8B5044617461D468C
:102EF000EFF31186202383F31188826BC36B9A4210
:102F000005D3022D2DD0002086F31188F8BD026C68
:102F10007AB92568002D4ED0A36B0133A363A36C4F
:102F200001333AD0A36C0133A364012086F31188E6
:102F3000F8BD2DB3C0680CF069F9236CE268216814
:102F40005B421A448A42E26002D262681344E36040
:102F5000022DE1D1A36B002BDED0A36B013BA36359
:102F6000DAE7026C002AD4D0C0680CF04FF9236C69
:102F7000E26821685B421A448A42E260E5D3E9E7ED
:102F800080680CF043F9A168236C62680B4493429B
:102F9000A360C1D32368A360BEE7636A002BC4D0DB
:102FA00004F1240000F08AFF0028BED0002FBCD01E
:102FB00001203860A8E7606801F0AEF86560ABE713
:102FC00038B5EFF31184202383F31188826BC36B30
:102FD0009A420CD2836B01338363836C01330AD032
:102FE000836C01338364012084F3118838BD002091
:102FF00084F3118838BD436A002BF4D024300D4689
:1030000000F05CFF0028EED0002DECD001202860FD
:10301000EAE700BF2DE9F047044684B09A468846A7
:103020000192FFF791FCA36BA34E00273D46002BB6
:103030007AD10198002800F0F380002F00F0DC80A6
:10304000FFF78CFC00F09AFCFFF77EFC636C013309
:1030500008BF6564A36C013308BFA564FFF77EFC5D
:1030600002A801A900F0B4FF002840F0E080FFF7BB
:103070006BFCA36B002B40F08480FFF76FFC236890
:10308000002B00F0C58004F124094846019900F0A6
:103090008BFEFFF759FCA36C002B06DC0FE0A36C42
:1030A000013BA364A36C002B09DD636A3BB1484676
:1030B00000F004FF0028F2D000F0BAFFEFE74FF075
:1030C000FF33A364FFF74AFCFFF73EFC636C002B61
:1030D00014DD236993B104F1100907E0636C013B2F
:1030E0006364636C002B09DD23693BB1484600F043
:1030F000E5FE0028F2D000F09BFFEFE74FF0FF3332
:103100006364FFF72BFC00F0E3FC38B94FF0805309
:10311000736040BFBFF34F8FBFF36F8FFFF714FC97
:10312000A36B0127002B84D0226CE5684AB1636849
:10313000A9189942E16024BF2168E16040460CF083
:1031400065F8BAF1000F40F0B980A36B2268013B2B
:10315000A363002A00F0C3802369002B00F0B18034
:1031600004F1100000F0AAFE012840F0AA80524BA2
:103170004FF080525A6040BFBFF34F8FBFF36F8F45
:103180009FE0FFF7EBFBFFF7DFFBA36C002B14DDE9
:10319000636A93B104F1240907E0A36C013BA364C3
:1031A000A36C002B09DD636A3BB1484600F086FE44
:1031B0000028F2D000F03CFFEFE74FF0FF33A364AC
:1031C000FFF7CCFBFFF7C0FB636C002B18DD236916
:1031D000B3B104F1100907E0636C013B6364636CF5
:1031E000002B0DDD23695BB1484600F067FE002827
:1031F000F2D000F01DFFEFE702A800F0DDFE1FE7B0
:103200004FF0FF336364FFF7A9FB00F061FC85E733
:10321000FFF79AFB606800F031FFFFF79FFB32E792
:103220000090FFF79BFB009804B0BDE8F087FFF724
:103230008BFBA36C002B14DD636A93B104F12405AE
:1032400007E0A36C013BA364A36C002B09DD636A58
:103250003BB1284600F032FE0028F2D000F0E8FE34
:10326000EFE74FF0FF33A364FFF778FBFFF76CFB4A
:10327000636C002B14DD236993B104F1100507E0A2
:10328000636C013B6364636C002B09DD23693BB114
:10329000284600F013FE0028F2D000F0C9FEEFE748
:1032A0004FF0FF336364FFF759FB00F011FC00207F
:1032B00004B0BDE8F08700BF00ED00E0636AE560A0
:1032C0002BB9FFF74BFB012004B0BDE8F08704F1F8
:1032D000240000F0F3FD00287FF449AFF1E700F08F
:1032E0005DFF606038E700BF70B5EFF31185202304
:1032F00083F31188836B1BB9184685F3118870BD61
:103300001646026C04465AB1C368406813448342AF
:10331000E36024BF2368E360084619460BF076FF9C
:10332000A36B013BA363636C013306D0636C013371
:103330006364012085F3118870BD2369002BF8D0E8
:1033400004F1100000F0BAFD0028F2D0002EF0D0F9
:1033500001203060D1E700BF10B4074B1A682AB1D2
:103360009A6812B15DF8044B7047012203EBC20466
:1033700043F832106060F5E7B4AF002038B504467A
:103380000D46FFF7E1FA636C013304BF0023636469
:10339000A36C013304BF0023A364FFF7DFFAA36B20
:1033A00023B9294604F1240000F048FDFFF7CCFAC8
:1033B000A36C002B14DD636A93B104F1240507E0CC
:1033C000A36C013BA364A36C002B09DD636A3BB1D2
:1033D000284600F073FD0028F2D000F029FEEFE748
:1033E0004FF0FF33A364FFF7B9FAFFF7ADFA636C50
:1033F000002B14DD236993B104F1100507E0636C21
:10340000013B6364636C002B09DD23693BB12846F3
:1034100000F054FD0028F2D000F00AFEEFE74FF074
:10342000FF336364BDE83840FFF798BA2DE9F84FE1
:103430000C9C0B9E81468A46154698462746002CD2
:1034400000F097804820FFF777F90446002800F045
:103450009B80AD002A460763A5213846FCF772F829
:103460009AF80030226B84F83430043D9AF800302A
:10347000154425F0070553B19AF8013084F835302A
:103480009AF801301BB19AF8023084F836300A9B62
:10349000022B28BF0223002704F1040AE362A3637E
:1034A000504684F83770E7639B46FFF77FF904F1D5
:1034B0001800FFF77BF9CBF103032764A3612461B4
:1034C00084F844706462284649464246FFF700FA91
:1034D000206006B13460FFF737FA3F4A3F4D13686A
:1034E000013313602B68002B3CD0DFF82081D8F823
:1034F00000306BB3DFF818E1394EE36ADEF8000004
:103500003768384A012404FA03FC03EB83034CEACE
:10351000000C514602EB83003A19CEF800C032602D
:10352000FFF748F9FFF71AFAD8F80030BBB12B685B
:103530000A9ADB6A9A4212D92B4B4FF080525A609A
:1035400040BFBFF34F8FBFF36F8F2046BDE8F88FAA
:103550002B680A9ADB6A9A4228BF2C60CAE7204689
:10356000BDE8F88F2C601368012B11D0DFF89C8028
:10357000C0E79000FFF7E0F8074600287FF462AF4D
:103580004FF0FF30BDE8F88F3846FFF701F9F7E755
:103590001448DFF88090154EDFF87080FFF7FAF8D6
:1035A0001348FFF7F7F81348FFF7F4F84846FFF71A
:1035B000F1F83046FFF7EEF80F48FFF7EBF80F4849
:1035C000FFF7E8F80E48FFF7E5F80E4A0E4BC2F891
:1035D00000901E608EE700BF4C8B0020F88A002010
:1035E0001C8B0020B88A002000ED00E0348B002006
:1035F000CC8A0020E08A0020FC8A0020908A0020EB
:10360000A48A0020848A0020188B0020888A002049
:10361000508B0020208B0020F8B504463D4EFFF76C
:1036200093F9002C4ED0251D2846FFF7E9F830B954
:10363000E36A394A03EB830152F82120A2B1A36A5D
:103640001BB104F11800FFF7DBF8344F2946384668
:10365000FFF7B0F8FFF782F933682E4A9C42304BEF
:103660001B6822D04BB9F8BD2E480121026801FA2F
:1036700003F322EA03030360E1E7FFF765F92A4B4E
:103680001A6812684AB11A68284BD268D268526820
:103690001A60BDE8F840FFF761B9244B4FF0FF32E4
:1036A0001A60BDE8F840FFF759B96BB9204938688E
:1036B000096888422BD01F4B1B687BB11E4B01222F
:1036C0001A60F8BD3468AEE71C4B4FF080525A6068
:1036D00040BFBFF34F8FBFF36F8FF8BD1649114A3C
:1036E0000B601368B3FA83F3C3F11F030A4803EBBB
:1036F00083039B00C11808334A6852684A60034438
:103700009A4204BF52684A60D3683360F8BD1360C0
:10371000F8BD00BFF88A0020B88A0020A48A0020E3
:10372000888A0020508B0020848A0020F4430020E7
:103730004C8B0020F48A0020548B002000ED00E028
:1037400000283BD02DE9F0411D4D2B6898420AD04E
:103750000446FFF7F9F81B4B62699A4205D0BDE8B1
:10376000F041FFF7FBB8BDE8F081A36A164A934227
:10377000F5D0002BF3D104F10408144F4046FFF7B5
:103780003FF8E36A3E68124801229A4003EB830344
:10379000324300EB830041463A60FFF70BF82B6899
:1037A000E26ADB6A9A42DAD30A4B4FF080525A60DF
:1037B00040BFBFF34F8FBFF36F8FD0E7704700BF9D
:1037C000F88A0020A48A0020FC8A0020508B002068
:1037D000B88A002000ED00E02DE9F843F020FEF764
:1037E000ABFF0546002875D04820FEF7A5FF04462C
:1037F000002877D00563A5212846F022FBF7A2FE1A
:10380000206B4C4F0025492144224C2304F104082D
:1038100084F8341084F8352084F8363000F1EC0652
:1038200084F837504046E562A563E563FEF7BEFFC6
:1038300004F11800FEF7BAFF26F0070603232A4614
:103840002564A3613C4984F8445030462461646295
:10385000FFF73EF8394B20601C60FFF775F8384AD7
:103860001368013313603B68002B35D0354E336845
:103870001BB93B68DB6A03B93C60DFF8F4C0DFF8D2
:10388000F4E0E36ADCF80050DEF800202E48012462
:103890009C4003EB830300EB8300013241462C4341
:1038A000CCF80040CEF80020FEF784FFFFF756F872
:1038B000336803B13B6800F07DFC01280AD1202366
:1038C00083F31188214B306000221A60BDE8F84371
:1038D000FFF714B8BDE8F8833C601368012B06D0ED
:1038E000184ECAE72846BDE8F843FEF751BF164810
:1038F000DFF88490164D134EFEF74CFF1548FEF787
:1039000049FF1548FEF746FF4846FEF743FF2846A5
:10391000FEF740FF1148FEF73DFF1148FEF73AFF62
:103920001048FEF737FF104A104BC2F800901D6098
:10393000A3E700BFF88A0020653C0200108B00203E
:103940004C8B0020888A0020B88A0020148B00202D
:10395000348B0020CC8A0020E08A0020FC8A0020E2
:10396000908A0020A48A0020848A0020188B0020DE
:10397000508B00201C8B0020208B0020024A1368F3
:1039800001331360704700BFF48A0020014B1868B0
:10399000704700BF148B0020014B1868704700BFB0
:1039A000148B0020024A136818441060704700BF4F
:1039B000148B00202DE9F04F3A4B1B6883B0002B8D
:1039C00043D1394B1A6801321A601F68002F4AD060
:1039D000364B01931B689F423BD3DFF8E480344EA3
:1039E000DFF8E890C246002525E0DAF80030DB6811
:1039F000DC68636804F1040B9F42584622D3FEF74B
:103A0000FFFEA36A04F118000BB1FEF7F9FEE06AAD
:103A100033680122824000EB80001343594609EBD2
:103A200080003360FEF7C6FE224BE26A1B68DB6A49
:103A30009A4228BF0125D8F800301B68002BD4D14A
:103A40004FF0FF33019A136004E01B4A13680133FF
:103A500013600025194B1B68002B18BF0125284651
:103A600003B0BDE8F08F164B164A18681649146863
:103A70001C6010600A6801320A601A6812683AB95C
:103A80000A4B01931A464FF0FF3313601346A1E728
:103A90001B68064ADB680192DB685B6813601346AB
:103AA00098E700BFF48A0020148B0020F443002024
:103AB000508B0020F88A0020488B0020548B002077
:103AC000848A0020188B0020808A0020B88A002079
:103AD0002DE9F84FFEF738FF314B1A68013A1A60AA
:103AE0001B68002B47D12F4B1B68002B43D0DFF8FE
:103AF000C8B02D4FDFF8C490DFF8C480DA4620E06C
:103B0000DAF80C30DC68251D04F11800FEF778FEA9
:103B10002846FEF775FEE06A3B6806FA00FE00EBF9
:103B200080004EEA0303294609EB80003B60FEF764
:103B300041FED8F80030E16ADB6A994224BF1B4B92
:103B40001E60DBF800300126002BD9D1184C236809
:103B50006BB123685BB10125FFF72CFF08B1134B54
:103B60001D602368013B23602368002BF4D10F4BB9
:103B70001C68012C05D00024FEF7F0FE2046BDE8AD
:103B8000F88F0C4B4FF080525A6040BFBFF34F8FFD
:103B9000BFF36F8FFEF7E2FE2046BDE8F88F00BF4F
:103BA000F48A00204C8B0020508B0020548B002086
:103BB000488B002000ED00E0FC8A0020B88A00203D
:103BC000F88A002070B548B91E4B4FF080525A60F9
:103BD00040BFBFF34F8FBFF36F8F70BD1A491B4DAE
:103BE0000A681B4E01320A6003462C6830680430B4
:103BF0001C44FEF705FE40B933681649D86A0A68C6
:103C00000123834022EA03030B6032682B6854606F
:103C10009C420F4A0FD3104B186811680431FEF70D
:103C2000D5FD0E4B1A68944238BF1C60FFF750FF59
:103C30000028C9D070BD0A4B186811680431FEF71E
:103C4000C5FDF3E700ED00E0F48A0020148B0020AE
:103C5000F88A0020508B0020848A0020F443002042
:103C6000188B00202DE9F04B304E314D314CDFF8F0
:103C7000D880DFF8D890B34607E02368376801336F
:103C80002360FFF725FF002F34D12B68002BF4D1E0
:103C9000D9F80030012B08D9274B4FF080525A60D9
:103CA00040BFBFF34F8FBFF36F8F03F061FC234B17
:103CB000224A1B68DB6A002BE7D1D9F80030012BC0
:103CC000E3D81F4B1F491B6809681D4F1D485B1A2D
:103CD000012BDAD92368013323601368DB6A33B917
:103CE0003B680068181A012801D9FEF783FEFFF728
:103CF000EFFECAE7FEF728FEDBF80C30DF68381D60
:103D0000FEF77EFDD8F80030094A013BC8F80030C4
:103D1000074B1B68013B1360FEF720FE386BFEF774
:103D200037FD3846FEF734FDAFE700BF908A00202C
:103D30008C8A0020F48A002000ED00E0F88A002040
:103D4000F4430020148B00204C8B0020B88A002004
:103D5000104B1B68CBB91049104A0B601368B3FABB
:103D600083F3C3F11F030E4803EB83039B00C118C9
:103D700008334A6852684A6003449A4204BF526852
:103D80004A60084BD2681A607047034B01221A60E0
:103D9000704700BFF48A0020548B0020508B002015
:103DA000B88A0020F88A002038B51D4D2B680C46D3
:103DB00003F11801FEF70AFD28680430FEF720FD24
:103DC00040B92B681749D86A0A680123834022EA60
:103DD00003030B60631C1CD0134A11491368286845
:103DE00012681C44944244600BD3104B1868096855
:103DF0000431FEF7EBFC0E4B1A68944238BF1C608E
:103E000038BD0C4B18680968BDE838400431FEF72E
:103E1000DDBC296808480431BDE83840FEF7CABC5B
:103E2000F88A0020508B0020148B0020848A002008
:103E3000F4430020188B0020A48A002038B5194DC7
:103E40002B680C4603F11801FEF7B4FC2868043017
:103E5000FEF7D6FC40B92B681349D86A0A680123DB
:103E6000834022EA03030B60104A0E491368286856
:103E700012681C44944244600BD30D4B18680968C7
:103E80000431FEF7A3FC0B4B1A68944238BF1C6048
:103E900038BD094B18680968BDE838400431FEF7A1
:103EA00095BC00BFF88A0020508B0020148B0020A6
:103EB000848A0020F4430020188B0020F8B5C368E2
:103EC000DC6804F118052846FEF79AFC1A4B1B68BB
:103ED00033BB271D194E3846FEF792FCE36A35685E
:103EE000174801229A4003EB83032A43394600EB2B
:103EF00083003260FEF75EFC124BE26A1B68DB6AED
:103F00009A4282BF104B01201860104B1A68126849
:103F100098BF00204AB90E4B4FF0FF321A60F8BD2F
:103F200029460C48FEF746FCE6E71A68084BD268BB
:103F3000D26852681A60F8BDF48A0020508B0020C5
:103F4000B88A0020F88A0020548B0020848A002040
:103F5000F4430020FC8A0020F8B5C468124E41F0FA
:103F600000410160271DFEF74BFC3846FEF748FC78
:103F7000E36A32680D48012505FA03FE03EB83036B
:103F800000EB83004EEA020239463260FEF712FC73
:103F9000074BE26A1B68DB6A9A4283BF054B1D60D0
:103FA00028460020F8BD00BF508B0020B88A0020B2
:103FB000F88A0020548B0020034A044B12681B68C7
:103FC00080E80C00704700BF808A0020148B00201E
:103FD000F8B50D460446FEF7B7FC2B6812495A1C8B
:103FE00008681BD0114E276832689742626801D07A
:103FF00090420ED2871ABB420BD91B1A1344306869
:104000000A682B6084E805000025FEF7A7FC284617
:10401000F8BD0125FEF7A2FC2846F8BD0025FEF7F5
:104020009DFC2846F8BD00BF148B0020808A00202C
:10403000014B01221A607047548B0020054B1B680E
:104040002BB9054B1868B0FA80F040097047002082
:10405000704700BFFC8A0020548B0020054B1B6872
:1040600033B1054B1B68002B0CBF022000207047AA
:1040700001207047888A0020F48A0020002842D05E
:104080002DE9F041214CC36A2268D26A934212D2D0
:104090008269002A04DB2268D26AC2F103028261CB
:1040A0001B4D426903EB830305EB83039A4204D063
:1040B0002368DB6AC362BDE8F08100F104080746AB
:1040C0004046FEF79DFBF8B9FB6A124E03EB8302F4
:1040D00055F8222032B93268012101FA03F322EAAD
:1040E0000303336023683268D86AF862012383408F
:1040F000134300EB80003360414605EB8000BDE8D0
:10410000F041FEF757BB7047024EEBE7F88A0020FC
:10411000B88A0020508B0020002838D0F8B5C36B37
:10412000C16A826B013B9142C36300D00BB1002096
:10413000F8BD071D04463846FEF762FB78B9E36A0E
:104140001448154E03EB830250F822204AB9326816
:10415000012101FA03F322EA0303336001E00D4871
:104160000D4EA36B3268E362012505FA03FCC3F12F
:10417000030E03EB83034CEA020200EB8300394693
:10418000C4F818E03260FEF715FB2846F8BD0020A1
:10419000704700BFB88A0020508B0020044B1A687B
:1041A0001AB11968CA6B0132CA631868704700BF38
:1041B000F88A0020F0B5184C85B0FEF7C5FB2568DD
:1041C0008DB1FEF7CBFB206858B10223134A009350
:1041D0000023019202930393114812495022FFF7E2
:1041E00025F905B0F0BD104F104E3846FEF7D2FA53
:1041F0003046FEF7CFFA0E4A0E4B176020202A46B3
:1042000010211E60FEF786FC20600028D9D00A49E4
:10421000FFF7A2F8D5E700BF848B00208C8B00202D
:104220003D430200B0FB02005C8B0020708B00203D
:10423000588B0020888B0020A8FB02002DE9F04F4E
:1042400083B0F9B1064628200D4698461746FEF77A
:1042500073FA0446B0B1DFF88090FEF775FBD9F829
:104260000020A2B1FEF77AFB0C9B2660201DA56101
:10427000E761C4F820806362FEF798FA204603B035
:10428000BDE8F08F0024204603B0BDE8F08FDFF8D2
:104290004CB0DFF84CA001925846FEF77BFA50462E
:1042A000FEF778FA09490A4BC1F800B0019AC3F841
:1042B00000A020201021FEF72DFCC9F800000028E6
:1042C000D0D00449FFF748F8CCE700BF588B002056
:1042D000888B0020A8FB0200848B00205C8B0020D0
:1042E000708B002030B5144D2C6885B004B30529BF
:1042F0008DE8060002900BDCFFF7B0FE02280FD01D
:104300000022286813466946FEF73CFC05B030BD24
:104310001A46204669460023FEF7E6FD05B030BD8B
:104320002868089A69460023FEF72CFC05B030BDCA
:10433000204605B030BD00BF848B00202DE9F04F32
:10434000AB4DAC4CDFF8B0828BB02B681E68002EF2
:104350006ED0DB681E68FFF711FBFFF717FBD8F87C
:104360000030A54A834207466ED88642106040F26C
:10437000A480F11B2068FFF701F8FFF7A9FB40B903
:104380009E4B4FF080525A6040BFBFF34F8FBFF338
:104390006F8F00221346206802A9FEF73BFE00281B
:1043A000D3D0029B002B3BDB049E736913B1301DFD
:1043B000FEF726FAFFF7EAFAD8F80030984281466D
:1043C00023D3029AC8F80090092AE2D80123934027
:1043D00013F4047F40F0D68013F0C70F40F0B6808E
:1043E0009B06D6D53046FEF7D3F9D2E7DB68DF6807
:1043F000D3F800B007F1040A5046FEF701FA7B6AD1
:1044000038469847FB69012B4BD02B681A68002A65
:10441000ECD17B4A764912680A60794A1360D0E78A
:10442000039B049805999847029B002BB1DBBBE7DF
:10443000FFF7A4FAFFF7AAFAD8F800306E4A8342D1
:10444000074601D8176094E74FF000090EE0DB68DB
:10445000DE68D3F800B006F1040A5046FEF7D0F942
:10446000736A30469847F369012B0ED02B681A689F
:10447000002AECD1624A5E4912680A60604AC8F8B4
:1044800000701360FFF724FB83E7B3695B445B456F
:10449000514627D97360564B36611868FEF796F976
:1044A000E4E7BB695B445B4551462DD97B60504BCB
:1044B0003F611868FEF78AF9A7E7FFF709FB4C4B45
:1044C0001B68DB68D3F80C9009F1040A5046FEF72C
:1044D00097F9D9F81C30012B29D0D9F82430484657
:1044E000984756E72368002BC0D0CDF81890CDF838
:1044F0001CB00896FFF7B2FD3E490022134608683B
:1045000006A9FEF73FFBB1E72368002B3FF47DAF20
:1045100000230693CDF81CB00897FFF79FFD35499F
:1045200000221346086806A9FEF72CFB6DE7D9F8B0
:104530001830C9F810909A19BA42C9F8042032D933
:104540002B4B51461868FEF741F9C6E7039BB1694A
:104550003661CA184A4572603AD8C3EB09039942DA
:104560001BD8736A30469847F369012B7FF411AF6B
:10457000B269039B00211A44009130460B46FFF7B5
:10458000B1FE06E7039B366109EB03024A45B361BE
:10459000726021D8002B3FF4FCAE194B311D186816
:1045A000FEF714F9F5E6BF1BBB421AD82368002BAF
:1045B00093D000270796CDF820900697FFF74EFD81
:1045C0000C493A463B46086806A9FEF7DBFA84E741
:1045D0004B4501D99342C4D9311D2868FEF7F6F83E
:1045E000D7E6074B51461868FEF7F0F875E700BFAD
:1045F000588B0020848B0020908B002000ED00E081
:10460000888B002010B50446FEF79EF964690034DB
:1046100018BF0124FEF7A2F9204610BD10B50446CC
:10462000FEF792F9246AFEF799F9204610BD00BF03
:104630004FF0A043044AD3F80435125CD34003F092
:10464000010080F001007047BCFB0200044B195CC4
:104650004FF0A04201238B40C2F80C35704700BFD9
:10466000BCFB0200044B195C4FF0A04201238B40BD
:10467000C2F80835704700BFBCFB02004FF0A043F2
:1046800010B44FF480204FF400344FF400214FF465
:104690008012C3F80845C3F80805C3F80815C3F825
:1046A00008255DF8044B70474FF0A04310B44FF459
:1046B00080204FF400344FF400214FF48012C3F8EF
:1046C0000C45C3F80C05C3F80C15C3F80C255DF8B0
:1046D000044B7047074B4FF0A041185CD1F80435EC
:1046E0000122824022EA03001340C1F80805C1F804
:1046F0000C357047BCFB020030B44FF0A0430322DE
:104700004FF400354FF480244FF400204FF4801113
:10471000C3F84427C3F84827C3F84C27C3F85027E9
:10472000C3F80855C3F80845C3F80805C3F80815C9
:1047300030BC70474FF0A043044AD3F81035125CE8
:10474000D34003F0010080F001007047B8FB020085
:104750000D2809D00E2809D00F2809D0102814BF21
:104760004FF0FF3003207047002070470120704752
:1047700002207047014B185C704700BFB8FB020075
:1047800010B50E4C23780BB1852010BD0C4A636028
:10479000E3601068A36010F00100236102D10721DB
:1047A00000F0E2F80AF092FB20B94FF080430122BA
:1047B000C3F8182501232370002010BD948B00201E
:1047C00000E100E030B5224DAB7883B0044603F041
:1047D000FF0293B110B143680120984702A800235B
:1047E00000F8043DFBF7C6FDEB689DF804000133BB
:1047F000EB60FBF7E7FD03B030BD02A800F8052D24
:10480000FBF7B8FD64B12A6942B1944208D013465F
:1048100001E09C4204D01B68002BFAD122602C617D
:10482000EB6863B90B4A0C491360136801934FF0AE
:10483000804202200123019CC2F804030B60EB6854
:104840009DF803000133EB60FBF7BCFD03B030BD06
:10485000948B0020040100400800004010B51D4B5F
:104860001A6882B0F2B91C4B1A680AB902B010BDBE
:1048700000221A601B6801934FF080430222174CFC
:104880000199C3F8082323690122A270002BEDD0FF
:104890001A6822615B68012098472369002BF7D1D1
:1048A00002B010BD00221A601B6800934FF08043D5
:1048B00001220A4C0099C3F80823A3686270002BF8
:1048C000D1D01A68A2605B6800209847A368002BCB
:1048D000F7D1C8E70001004004010040948B00209C
:1048E00000B1704710B5064CA3683BB11A68A260CE
:1048F0005B6800209847A368002BF7D110BD00BF6C
:10490000948B002010B582B002A80023144C00F84C
:10491000013DFBF72FFD237893B9124A6360E360F2
:104920001068A36010F00100236114D00AF0CEFAE1
:1049300020B94FF080430122C3F8182501232370CA
:10494000E3689DF8070001330122E360A270FBF7E2
:1049500039FD02B010BD072100F006F8E6E700BF00
:10496000948B002000E100E0002810B418DB00F177
:10497000604303F561434901C9B283F80013C3B230
:104980004009800000F1604000F5614003F01F0223
:1049900001239340C0F8803103605DF8044B7047F9
:1049A000C3B2044A03F00F0449012244C9B211768C
:1049B000E6E700BFFCEC00E030B51D4C94F8545025
:1049C00083B015B1082003B030BD4FF0FF33FF2294
:1049D0000620072123636363A363E36323646364A3
:1049E000A364E36423606360A360E36023616361A5
:1049F000A361E361236284F850306362A36284F8A8
:104A00005230E36284F8533084F85120FFF7ACFF52
:104A1000084B094A1D601B68019301984FF0004341
:104A20000121284684F85410C2F8043303B030BD85
:104A3000A88B00207C61004000600040034B93F88D
:104A40005400003018BF0120704700BFA88B002021
:104A5000F0B5634C251895F93030002B01DB0820A8
:104A6000F0BD91F803E09446BEF1000F56D02368E4
:104A7000013300F0AD80082600256B1C584F54F818
:104A80002320013251D0AB1C9E4245D957F8232038
:104A900001324AD0EB1C9E423ED957F82320013206
:104AA00043D02B1D9E4237D957F8232001323CD0EA
:104AB0006B1D9E4230D957F82370013735D0AB1D9E
:104AC0009E4229D954F82320454F01322DD0EB1DA9
:104AD0009E4221D957F82320013226D005F1080340
:104AE0009E4219D957F8232001321ED005F109033F
:104AF0009E4211D957F82320013216D005F10A033E
:104B00009E4209D957F8237001370ED00B35AE42BB
:104B100002D9E36A013307D00420F0BD236A0133D0
:104B20004ED00C260825A8E70B232618DDB244F842
:104B300023C086F83050BEF1000F02D1234483F821
:104B400048008B78ABB94A784FF0A04600F5E07387
:104B5000920046F82320CB78ABB96AB2083A1444E5
:104B6000097894F8502042EA811284F850201846BF
:104B7000F0BD830003F1A043D3F8002722F0020226
:104B8000C3F80027E7E76BB29B0003F1804303F50E
:104B9000C0430A78D3F8101521F4473121F440714D
:104BA000C3F810151204000202F44031D3F8104586
:104BB00000F4F8520A432243C3F810250020F0BD48
:104BC000082685F830603346C4F820C03546B5E77E
:104BD000002385F83030C4F800C01D46B1E700BF9F
:104BE000A88B0020F0B42E4D2E1882B096F83020FD
:104BF00053B2072B1CDD2B4493F848309B09032B41
:104C000040D0012B0CBF4FF400314FF440318000F5
:104C100000F1A040D0F8002722F44032C0F800276D
:104C2000D0F800370B43C0F8003702B0F0BC704733
:104C3000072AFAD8980000F1804000F5C04003F13F
:104C400040029200D0F8104592B202F18042002753
:104C500044F0010402F5C042C0F8104501970198E4
:104C600017600029E1D096F9302055F82220002A5B
:104C7000DBD001220B4902FA03F3C1F8043302B07E
:104C8000F0BC70474FF0A043D3F81035C34013F089
:104C9000010F14BF4FF440314FF40031B7E700BFAC
:104CA000A88B0020006000404FF0A043D3F81035DF
:104CB00023FA00F000F00100704700BF2DE9F04733
:104CC00086B00026A24B01961A68012A00F03281B4
:104CD000A04B1A68012A00F01F819F4B1A68012A15
:104CE00000F00C819D4B1A68012A00F0F9809C4B62
:104CF0001A68012A00F0E6809A4B1A68012A00F02F
:104D0000D380994B1A68012A00F0C080974B1A682B
:104D1000012A00F0AD80964B1A68012A00F09B80B2
:104D200016F0FF0F1AD0934F01250024A30003F1C2
:104D30008043354203F5C0434FEA45050BD0D3F815
:104D4000100557F82420D3F81015C0F30420C1F340
:104D5000014102B190470134082CE7D1002E02DB5B
:104D600006B0BDE8F087844D00224FF0FF33A5F177
:104D7000530702920393814C4FF00008012614F868
:104D8000011FFF292BD0C9B221F0C00006AB4FEAAA
:104D9000D00E03EB0E0201F0070312F80CCC06FA5A
:104DA00003F31CEA030F1AD007EB000C89099CF9E6
